:03000000021F03D9
:0C1F0300787FE4F6D8FD758121021F4AAA
:1000260074686973206973207561727420746573CE
:10003600740D0A003C2D2D2D2D2D2D44454255477E
:10004600204D5347203D3E20746869732069732014
:1000560075617274322074657374203D2D2D2D2DBB
:100066002D2D2D2D2D0D0A0008000000000000008A
:10007600000000000000000000000000000000601A
:100086004000000000020101000000000000000026
:100096000000014000000000010101010101071FED
:1000A6007E6FFFDBDFDFDFDFFFEFFEEFEFCFD7FF98
:1000B600E7F7DFD4D0C44C1656B62E8E272F3F3F17
:1000C6007F7FFFFFFFFFFFFFFFFCFCFDFCFDFFFF47
:1000D600FEFFEFE70301010101000000000000013F
:1000E60002082040E000000000000000008180803F
:1000F60000000000000000000000000000000000FA
:1001060000000001000000000080000080C080E0C8
:10011600A0E0E0E0ECEC6EEDEFFCC69E2E3EFEFFAE
:10012600FFFFFF3F0F0F0F07070303030303010141
:1001360003010101000000000000000000000004AF
:100146000004102123470FFFFFFFFFFFFFFFFFFF04
:10015600FFF003BF38C000000000000000000000F0
:1001660000000000170000003C3E1E0E07070600B8
:100176000000000000000000000000000000000079
:10018600408040F070B8E8F87C3E1F5FCFCF8F8785
:10019600D7032121000000808081818383FFFFFF38
:1001A6001F1F1F3C3C7E747C5E1C1C1C1818000024
:1001B6000000000000181C1C0212121000000000B3
:1001C600000000000000000B0F0FFFFFFFFFFFFF06
:1001D600FFFFFFFFFFF9FAFCFCC88000008080806B
:1001E6008800000000000000000000000000000081
:1001F60000000000000000000080C0B0F8FE5BDFD9
:10020600F3FC6F8DFABE3F0100000000000040487D
:1002160000080090909000010306060D8FDFFCFB9E
:10022600FCF8F0E0E0C0C0C0E0F0FCF87C7E7E5C4C
:10023600505870606064204040C08080000000001C
:100246000000000000000000003F3F7F3FFFFFFF6F
:10025600FFFFFFFF7F7FC71F7BE3CE0F0F9F0707C1
:100266000305000000000000000000800000000000
:100276000000E0F0F8FCF2FFFFFFFF8F1BFFFFFF1F
:10028600FFFFFFFFFFFFFFFFFEFCF8F8F0F0E0E0E6
:10029600E0F0F0F0F9F9F9FCFCFEFFFFFF3F1F1F4D
:1002A6001F3F3F7FFFFFFFFFFFFDF9F8F0E1E1E3AE
:1002B600E1E1E0E0E0E0E0E0F0F0D8E6FCFC7870B8
:1002C600683010381C5C1C78F8F8FEFEFEFFFFFF55
:1002D600FFFFFFFFF7FF7FF88003071BE7FFF8210B
:1002E600200101196A000000C48080C0C0E0B47A11
:1002F600FEFEEFBFFFFFFFEFF7F9FFFFFFFF0F0F58
:100306000F0F1F0F0F1F1F3F1F1F1F1F1F0F0F1F37
:100316001F1F1F1F1F1F1F3F3F3F3F3F3EB87C3C15
:100326007CF0F8FCFCFFFFFFFFFFFFBFBF3F7FFF36
:100336007F7F3F3F3F3FFFBF27E7E3E9379D9810A9
:10034600B020202021212123232707071F1F1F1F3D
:100356009F1F9F7F7FFFBFBF3F3F3C38187F7E7C3C
:100366007CF878F0F0000000FFFFFFAF3719181F88
:100376000F0F0C070707030301010101000000002E
:1003860000000000000000000080808080888080DF
:1003960048C8000020800000A8640494E0F1F9FD3C
:1003A600FBF7FBF7DF7F3F7F0F495121CE7E388871
:1003B60010C4C0BA727F77F7FFE7EFCCDFDE1F0B02
:1003C60000101008000000101878785878FCFEF02D
:1003D600F0E7E7CFBFBF3E7C087020606040C0807A
:1003E600808080000000000007070707000000006B
:1003F60000000000000000000000000004040404E7
:100406000004040404060606070707070707040690
:100416000600040507040606040607070507040781
:10042600070707070704060007050602050100007F
:10043600040707070707060606050505070301055E
:10044600000006000404000002000000040507077F
:10045600030707070707070706040404000200004E
:10046600010307070400000000000000E060606070
:1004760060606060606060E00000E0E0E0E0E0E0B6
:100486000000606060808060608080000060808026
:1004960000000000E0E0606060606060606060E056
:1004A600E00000000000000000000000FF00007EE9
:1004B6007E7E7E7E7E0000FF00009F9F1919070743
:1004C6009E9E80E0E0FFFF787807070606F89F9F6C
:1004D60006060000FFFF00007E7E7E7E7E0000FF97
:1004E600FF000000000000000000000033F3F3C32B
:1004F600C303033333333333C0C00303CCCCC3C38A
:100506003030CF0000C3C3FCFC3F3F3C3C0F0C0C1B
:100516003F3FC0C0C3C33333C3F3F33333F3F3F303
:10052600F30000000000000000000000FB1F1F9BFE
:100536009B9C9C03031C1C9BE7E7636380801C1C3D
:1005460007071BE0E06464E7E718189F9F001C1C80
:100556001C1CF8F8E4E4E4E460989883830303FF42
:10056600FF00000000000000000000002720201F00
:100576001F3F3FE0E0C0C0D9D9D90606FFFFE6E637
:10058600D8D8E601012626E7E7D8D8DFDFD81E1E31
:10059600C0C0FFFF21213F3FE0D9D9C1C12626E7D0
:1005A600E70000000000000000000000CCCCCCCC2E
:1005B600CCCFCFC3C3CFCFCC0F0F3333FCFC0F0F41
:1005C60003030C3030F3F3F0F0CFCFCFCFCFCCCC4A
:1005D600FCFC0F0FCCCC0C0CFF333330303C3CF31F
:1005E600F30000000000000000000000FF00007E95
:1005F6007E7E7E7E7E0000FF0000878767677878B4
:10060600E6E67EE0E07E7E78786767E7E7667F7FEE
:10061600E7E79E9E86867E7E07FFFF1818E1E1FECD
:10062600FE000000000000000000000007060606AD
:100636000606060606060607000007070606000069
:100646000101060707000000000606070706060662
:100656000707010107070000000101000007070165
:100666000100000000000000000080E0F0F0F8F853
:10067600FCFEFEDE9F1F1F3F7FFFFEFEFEFCFCF81A
:10068600F8F0E08000000000F0FEFFFFFFFFFFFF34
:10069600FFF3030303F3F2F0F0000303F3F3FFFFAA
:1006A600FFFFFFFFFEF00000010F1F7FFFFFFFFFB0
:1006B600FFFFF8F0F0F3F3F7F3000000FFFFFFFF92
:1006C600FFFF7F1F1F010000000000000001030361
:1006D600070F0F0F1F1F1F1F1F1F0F0F0F070703E8
:1006E6000300000000000000E0E0E0E0E0E0E0E001
:1006F600C080000000C0E0E0E0E0E0C0C000000014
:10070600E0E0E0E00000C0E0E0E0C000C0E0E0F0D3
:10071600FCFFE0E0C000C0E0E0E0C0C0E0E0E0C018
:1007260080C0E0E0E0C00000FFFFFFFF0F0F0FFFFB
:10073600FFFFFC000087CFC7C7C7FFFFFFFF000012
:10074600FFFFFFFF0000FFFFFFFFFF000F0FFFFF90
:10075600FFFF2F0F0700FFFFFFFF0F0F0FFFFFFF2A
:10076600FF0F0FFFFFFFFF00FFFFFFFFFEFEFEFF75
:100776007F3F0700FFFFFFFF0F0FFFFFFFFF000098
:100786000F3F7F7F7E7EFFFFFFFFFF000000FFFF22
:10079600FFFF85000000FFFFFFFF000000FFFFFFD7
:1007A600FF0000FFFFFFFF00FFFFFFFF000000004C
:1007B600000000003F7F7FFFFCFCFFFFFF7F000083
:1007C60000FEFEFEFEFEFFFF7F3F030000007FFFF0
:1007D600FFFF520000007FFFFFFF000000FFFFFF4A
:0807E600FF00007FFFFFFF0090
:10189A00E4900574F0A3F0A3F0A3F075910175919B
:1018AA000153B1FE43B20175910153B1FD43B20236
:1018BA0075910153B1FB43B20475910153B1F743DA
:1018CA00B20875910153B5FE43B60175910153B53E
:1018DA00FD43B60275910153B5FB43B604759101F8
:1018EA0053B5F743B60875910153B5DF43B6207572
:1018FA00910153B5EF43B61075910153C2FB43C32F
:10190A000475910153BDEF43BE1075910153BDDFBC
:10191A0043BE2075910153C2F743C308C2B3759100
:10192A000253F1F043F10375910253F10F43F13081
:10193A0075910153B3BF53B4BF75910153B37F532C
:10194A00B47F75910253EBF043EB0875910253EBA8
:10195A000F43EB8075910153B9FE53BAFE7591019D
:10196A0053B9FD53BAFD121E737F1412247FC28D20
:10197A00D28CD2A990057C7401F0A312099E0001B1
:10198A00C2007F007E367D6E7C011212587D017F77
:10199A0006121F8FD2AF90057C7404F0A312099E21
:1019AA000001C2007F007E367D6E7C011212581241
:1019BA0023F012207F122456D39004CEE094009094
:1019CA0004CDE0940090057B400C7401F0A37400F0
:1019DA00F0A37400800A74FFF0A37404F0A3746E79
:1019EA00F0A37440F0A3F0E4FBFDFF121B3890054E
:1019FA007B74FFF0A37406F0A3746EF0A37420F056
:101A0A00A3F07B01E4FD7F0A121B3890057B74FF6B
:101A1A00F0A37406F0A374EEF0A37440F0A374204C
:101A2A00F07B017D04E4FF121B387BFF7A007926E4
:101A3A007F061222E37BFF7A00793A1220EF121412
:031A4A009380FB8B
:0624CF00D2A47F017E0093
:1024D500E4FDFCC3ED9FEC9E5015E4FBFA0BBB003D
:0F24E500010ABA08F8BB4CF50DBD00010C80E4EC
:0124F40022C5
:10000E00EF540FF5A0EFC4540FF580C2A51224CF04
:05001E00C2A40224D57C
:10251600EF540FF5A0EFC4540FF580D2A51224CFC7
:05252600C2A40224D54F
:1023F000E4F591E5B154DF4420F5B1D2B2E4F591B2
:10240000E5B154EF4410F5B17FD07E071224D57F9B
:102410003E12000E7F4012000E7FB812000E7FC0E9
:0824200012000E7F3F02000EC6
:10207F00E4F591E5B154DF4420F5B1D2B2E4900517
:10208F0078F0A3F0900578E0FEA3E0FFC39408EE8C
:10209F00648094805040EF24B8FF12000EE4A3F048
:1020AF00A3F0E4FF12251690057BE004F070069074
:1020BF00057AE004F0C390057BE0944090057AE048
:1020CF006480948040DC900579E004F070B6900550
:1020DF0078E004F080AE7F4012000E7FB802000E51
:10242800A905E4F591EB70047E0180027E00EEC4FC
:102438003354E0FEE5B154DF4EF5B1EB24FF92B220
:0E244800EF2440FF12000EE924B8FF02000E40
:0B1B3800900578EFF0A3EDF0A3EBF0B8
:101B4300900578E0FF900580F0A3EDF0E4A3F0A307
:101B5300F090057FE0FE131313541F900584F0E407
:101B6300A3F0A3F0122428900579E0900583F09068
:101B73000579E0FF900584E02FFFE433FE900583B1
:101B8300E0FDC39FEE6480F87480984003021C1E3E
:101B9300900578E0FF90057AE0FB12242890057801
:101BA300E0900582F0900578E0FF90057EE02FFF3E
:101BB300E433FE900582E0C39FEE6480F87480985E
:101BC300505090057BE0FBA3E0FAA3E0F990058574
:101BD300E0FEA3E0F5828E83120807FF122516901C
:101BE3000586E004F07006900585E004F090058218
:101BF300E0B43F16A3E0FD90057AE004FBE4FF1296
:101C03002428E4F59153B1DFD2B2900582E004F0C9
:0B1C13008093900583E004F0021B7238
:011C1E0022A3
:1023B6004104D100410540004104CF0041054100E0
:0923C6004204CD00004104D000E6
:030023000216B30F
:1016B300C0E0C0F0C083C082C0D075D000C000C0FD
:0D16C30001C002C003C004C005C006C0077E
:1016D0009005D4E4F0209803021876900540E024A9
:1016E00042F582E43405F583E599F0900540E00485
:1016F000F0E0FF2441F582E43405F583E0640A70EC
:101700006C900541E06401705774422FF582E43417
:1017100005F583E4F09004CFE075F032A424DCF901
:10172000740435F0A801FC7D017B017A0579421231
:101730000A9B900540E4F09004CFE0C3940150056B
:10174000E004F080059004CFE4F09004D17401F03F
:101750007E007F327D00FB7A057942120AB8800D47
:10176000900541E0700704F0900540E4F09004001B
:10177000E064016003021818900540E02441F582FE
:10178000E43405F583E0FFC39430400BEFD3943984
:101790005005EF540F801F900540E02441F582E48E
:1017A0003405F583E0FFC394414021EFD3944650C4
:1017B0001BEF540F2409FF9004D0E024D2F582E4FB
:1017C0003404F583EFF09004D0E004F09004D0E00E
:1017D000B40245FF24D0F582E43404F583E0C45418
:1017E000F0FE74D12FF582E43404F583E04EFF90CF
:1017F00004CDE0FCA3E02400F58274003CF583EF07
:10180000F09004CEE004F070069004CDE004F09077
:1018100004D0E4F0900540F0900540E0FFD3943010
:10182000404E74422FF582E43405F583E4F09004D1
:10183000CFE075F032A424DCF9740435F0A801FC83
:101840007D017B017A057942120A9B9004CFE0C3A7
:1018500094015005E004F080059004CFE4F0900579
:1018600040E4F0FE7F32FD7B017A057942120AB82E
:0F1870007591005398FE3099067591005398FDBD
:10187F00D007D006D005D004D003D002D001D000BD
:0B188F00D0D0D082D083D0F0D0E03267
:1012580090057812099290057CE014B407004003C9
:1012680002149290127975F003A4C58325F0C58302
:101278007302128E0212D90212EE02136802140CC3
:1012880002128E0212EEE4F591759850438920F50A
:1012980091438780F591438E10F59153C4DF7B10FD
:1012A800FAF9F8900578E0FCA3E0FDA3E0FEA3E0DE
:1012B800FF1208D790057DE0F8A3E0F9A3E0FAA3B0
:1012C800E0FB1208D7EFF404F58DE4F5914388406C
:1012D80022E4F591759850F59143878053C4F8F549
:1012E8009143C4208009E4F59175F85075C4887B52
:1012F80010FAF9F8900578E0FCA3E0FDA3E0FEA35E
:10130800E0FF1208D790057DE0F8A3E0F9A3E0FA22
:10131800A3E0FB1208D7C3E49FFFE49EFE74019D7F
:10132800FDE49CFC780812097F8FC6E47B10FAF96B
:10133800F8900578E0FCA3E0FDA3E0FEA3E0FF122F
:1013480008D790057DE0F8A3E0F9A3E0FAA3E0FB55
:101358001208D7C3E49FFFE48FC5F59143C4082260
:10136800E4F59143D601F59143D701F59143D702AE
:10137800F59153D6EFF59153D6F77B08FAF9F89023
:101388000578E0FCA3E0FDA3E0FEA3E0FF1208D788
:1013980090057DE0F8A3E0F9A3E0FAA3E0FB1208CA
:1013A800D7EF24FFFFEE34FFED34FFEC34FFE48F7A
:1013B800DB53DCF07B08FAF9F8900578E0FCA3E051
:1013C800FDA3E0FEA3E0FF1208D790057DE0F8A397
:1013D800E0F9A3E0FAA3E0FB1208D7EF24FFFFEE41
:1013E80034FFFEED34FFFDEC34FFFC780812097F72
:1013F800EF540F42DCE4F59143D74053D7CFF59132
:1014080043D68022E4F59143D701F59153D6EFF501
:101418009153D6F790057DE0F8A3E0F9A3E0FAA38D
:10142800E0FB900578E0FCA3E0FDA3E0FEA3E0FF6D
:101438001208D7EF24FFFFEE34FFED34FFEC34FF42
:101448008FDB90057DE0F8A3E0F9A3E0FAA3E0FBC9
:10145800900578E0FCA3E0FDA3E0FEA3E0FF1208FE
:10146800D7EF24FFFFEE34FFFEED34FFFDEC34FF31
:10147800FC780812097FEF540FF5DC75910243E7F9
:0B1488004053E7CF75910243E680223D
:1021AE00E4F591EF24FC601C14602824FE600C04FE
:1021BE00703B3098FDAE99C298803230F8FDAE9AE1
:1021CE00C2F88029E4F59153D6FDE5DF20E1FBAEA0
:1021DE00D9801A75910253E6FDE5DF7C0060047D1F
:0F21EE000180027D00ED64024C60EEAED9AF06B9
:0121FD0022BF
:10214F00E4F591EF24FC602414603824FE60100441
:10215F00704CE4F591C2998D993099FDC29922E4A2
:10216F00F591C2F98D9A30F9FDC2F922E4F5915338
:10217F00D6FB8DD9E5DF44F764F760F8E4F59153AA
:10218F00D6FB2275910253E6FB759102AF058FD9ED
:0F219F00E5DF44F764F760F875910253E6FB2221
:1022E300EF24FC602F24FD601704703C1207EEFD01
:1022F30060367F0612214F740129F9E43AFA80EC23
:102303001207EEFD60227F0712214F740129F9E4C1
:102313003AFA80EC1207EEFD600E7F0412214F742F
:092323000129F9E43AFA80EC22E8
:101F8F00EF24FC603414605024FE6018047069ED77
:101F9F0014600A047062E4F59153A8EF22E4F591FE
:101FAF0043A81022ED14600A04704DE4F591539C80
:101FBF00FE22E4F591439C0122ED14600F0470386A
:101FCF00E4F59153DDFDF59153DDFE22E4F59143E8
:101FDF00DD02F59143DD0122ED14601004701975D7
:101FEF00910253DDFD75910253DDFE22759102437F
:091FFF00DD0275910243DD0122AF
:1024F500E4F591759850438920F591438780F591CE
:10250500538EEFF59153C4DF758DFFF591438840E8
:0125150022A3
:101A4D002B435245473A20002C002B435245473A31
:101A5D002025642C256420252A5B5E0D0A5D0D0A68
:101A6D00002B435245473A002B435245473A202518
:101A7D006420252A5B5E0D0A5D0D0A003C2A2A2A88
:101A8D002A2A555243203D20257300494D475F5268
:101A9D004543560D0A000D0A2D2D207561727420D7
:101AAD007265632025732D2D0D0A0054494D453A5D
:101ABD0025640D0A003C2D2D2D2D2D2D74696D6580
:101ACD00722076616C7565203D2025642D2D2D2DA0
:101ADD002D2D2D2D2D0D0A003C2D2D2D2D2D2D4473
:101AED0045425547204D5347203D3E2055415254C8
:101AFD004C494E452045584954203D2025642D2DF7
:101B0D002D2D2D2D2D2D2D0D0A002B435245473AF0
:101B1D0000494D475F53544152543A00494D475F78
:0B1B2D0053544F500054494D453A00FE
:0D23CF004104CC0041040100420402000062
:0B20EF00900578EBF0A3EAF0A3E9F005
:1020FA009005A37401F0A37405F0A3747BF0900516
:10210A0078E0F9A3E0FAA3E09005A6C9F0A3EAF003
:10211A00A3E9F09005A3E0F9A3E0FAA3E09005A9EA
:10212A00C9F0A3EAF0A3E9F07B017A047904122248
:10213A00999005A3E4F0A3F0A3F07B017A04790453
:05214A007F040222E306
:101C1F009005D5EBF0A3EAF0A3E9F07F041222E3DD
:101C2F0090057B74FFF0A3741AF0A3744DF0900528
:101C3F00D5E0FBA3E0FAA3E0F9121DB4EA494B602B
:101C4F005190057B74FFF0A3741AF0A37455F090B4
:101C5F0005D5E0FBA3E0FAA3E0F9121DB4EA494B66
:101C6F00603090057B74FFF0A3741AF0A37457F0E3
:101C7F009005D8E0F9A3E0FAA3E090057EC9F0A3A0
:101C8F00EAF0A3E9F09005D8E0F9A3A3E09005816D
:101C9F00803C90057B74FFF0A3741AF0A3746EF070
:101CAF009005D5E0FBA3E0FAA3E0F9121DB4EA49D1
:101CBF004B603190057B74FFF0A3741AF0A3747519
:101CCF00F09005D8E0F9A3E0FAA3E090057EC9F003
:101CDF00A3EAF0A3E9F09005D5E0FBA3E0FAA3E0B7
:051CEF00F9120FBF22F5
:101493009004CFE0FF9004CCE06F70030216B2E03B
:1014A30004F0E075F032A424AAF9740435F0FA903C
:1014B300057B7401F0A3EAF0A3E9F07BFF7A1A79C4
:1014C300891220EF9004CCE075F032A424AAF974B9
:1014D3000435F0FA7B0190057B74FFF0A3741BF0D5
:1014E300A3741EF0121DB4EA494B601E90040074ED
:1014F30001F0E49004D0F09004CDF0A3F07E04FF5B
:10150300FD7B017A007900120AB89004CCE075F0F3
:1015130032A424AAF9740435F0FA7B0190057B7494
:10152300FFF0A3741BF0A37429F0121DB4EA494B16
:1015330070030215F09004CDE0FEA3E02400F582D1
:1015430074003EF583E4F0900400F09004D0F07B47
:10155300FF7A1A79987F061222E37FE87E0312242A
:10156300D57BFF7A1A79987F061222E312207F90A7
:1015730004CDE0FEA3E0FF1221FE12232C7E047FA4
:10158300007D007B017A007900120AB8121E739065
:10159300057B7401F0A37400F0A37400F0A37440FE
:1015A300F0A3F0E4FBFDFF121B387FE87E03122457
:1015B300D590057B74FFF0A37406F0A3746EF0A3BB
:1015C3007420F0A3F07B01E4FD7F0A121B38900521
:1015D3007B74FFF0A37406F0A374EEF0A37440F0E1
:1015E300A37420F07B017D04E4FF121B389004CC2C
:1015F300E075F032A424AAF9740435F0FA7B019063
:10160300057B74FFF0A3741BF0A37432F0121DB4B6
:10161300EA494B607C9004CCE075F032A424AAF92B
:10162300740435F0FA90057B7401F0A3EAF0A3E9A2
:10163300F07BFF7A1A79A31220EF9004CCE075F0C7
:1016430032A424AAF9740435F0FA7B01C00390058F
:101653007B74FFF0A3741AF0A374B8F0A3EBF0A3A8
:101663007404F0A37402F0D003120FBF900402E0DD
:10167300FEA3E0FFD39400EE648094804002D2B3D3
:101683007BFF7A1A79C290057BEEF0A3EFF012206C
:10169300EF1224569004CFE0F990057BE4F0A3F019
:1016A300A3E9F07BFF7A1A79E51220EF0214932263
:10245600E49004CFF09004CCF0900541F0FE7F327A
:10246600FD7B017A0479DC120AB87E007F327D009A
:092476007B017A05790E020AB817
:0423DC004105E100D6
:10224D008FA6EEF5A775AEFFE4F591A2AF9209C288
:10225D00AF75C7AA75C755439F01A20992AFF591F6
:10226D00A2AF9209C2AF75C7AA75C75543A501A202
:10227D000992AF75AF22F591A2AF9209C2AF75C7A2
:0C228D00AA75C75543A401A20992AF2214
:102008008FA6EEF5A7E4F591A2AF9209C2AF75C706
:10201800AA75C755439F01A20992AFF591A2AF9245
:1020280009C2AF75C7AA75C75543A501A20992AFE2
:1020380075AF21AF058FAEF591A2AF9209C2AF750A
:10204800C7AA75C75543A401A20992AFF591A2AFDB
:102058009209C2AF75C7AA75C75553A5FEA20992C2
:10206800AFF591A2AF9209C2AF75C7AA75C755530C
:072078009FFEA20992AF22B6
:040003008F828E83D7
:03000700E493FF80
:01000A0022D3
:10232C00E490057AF0A3F0C2AF7F807E7F12224D3D
:10233C007D011220089004CDE0FEA3E0FF7C007D1F
:10234C00641208467F817E7F1220089004CDE0FE47
:10235C00A3E0FF7C007D64120846AD077F827E7F80
:05236C00122008D2AFB1
:012371002249
:0821FE00900578EEF0A3EFF06C
:10220600E4FBFA7F807E7B12224D0BC3900579E0BA
:102216009B900578E09A402EEB547F700BEB248060
:10222600FFEA347BFE12224DEB247FFFEA347BFE6D
:1022360074FF2BF58274FF3AF583E0FD1220080B3C
:06224600BB00010A80C587
:01224C00226F
:101E7300E4900578F0A3F07F807E7F120003900545
:101E8300E1EFF0640160031225617F827E7F12001F
:101E930003EF75F064A4FDACF07F811200037E00B4
:101EA300ED2FFFEE3CFE9004CDF0A3EFF0D39400B2
:101EB300EE9400404AE4900578F0A3F09004CDE05E
:101EC300FEA3E0FF900578E0FCA3E0FDC39FEC9E3A
:101ED300502DED2480FFEC347BFE12000390057837
:101EE300E0FCA3E02400F58274003CF583EFF0905E
:0F1EF3000579E004F070C5900578E004F080BD3B
:011F020022BC
:0E255300EF75F064A47C002DFFEC35F0FE2245
:0A256100E49004CDF0A3F002232C57
:0F23E0004205DD00004205DF00004205DB000082
:03000B00021CF4E0
:101CF400C0E0C0F0C083C082C0D075D000C000C0B6
:0D1D040001C002C003C004C005C006C00736
:101D11009005DCE004F070069005DBE004F090052E
:101D2100DBE0FEA3E0FFE4FCFD7BB87A0BF9F812DF
:101D31002372AC00AD01AE02AF03EC4D4E4F7024E7
:101D4100D3900403E09400900402E094004015A3B2
:101D5100E024FFF0900402E034FFF0E07002A3E021
:101D61007002C2B39005DBE0FEA3E0FFE4FCFD7B63
:101D7100607AEAF9F8C312096950079005DBE4F0CB
:101D8100A3F09005DDE0FCA3E0FDECF58CEDF58A18
:081D9100C28D7591005388DF3B
:101D9900D007D006D005D004D003D002D001D0009E
:0B1DA900D0D0D082D083D0F0D0E03248
:10247F004389017E007C077DD0120834C374FF9F0F
:10248F009005DEF074FF9E9005DDF0E0FCA3E0FD0B
:09249F00ECF58CEDF58AC28D22EA
:101F0F0002189AE493A3F8E493A34003F68001F236
:101F1F0008DFF48029E493A3F85407240CC8C333D3
:101F2F00C4540F4420C8834004F456800146F6DFA2
:101F3F00E4800B01020408102040809023B6E47E59
:101F4F00019360BCA3FF543F30E509541FFEE49397
:101F5F00A360010ECF54C025E060A840B8E493A35E
:101F6F00FAE493A3F8E493A3C8C582C8CAC583CA89
:101F7F00F0A3C8C582C8CAC583CADFE9DEE780BE41
:0123EF0000ED
:1007EE00BB010689828A83E0225002E722BBFE0209
:0907FE00E32289828A83E493223C
:10080700BB010CE58229F582E5833AF583E02250A6
:1008170006E92582F8E622BBFE06E92582F8E222F0
:0D082700E58229F582E5833AF583E493220A
:10083400EF8DF0A4A8F0CF8CF0A428CE8DF0A42ED8
:02084400FE2292
:10084600BC000BBE0029EF8DF084FFADF022E4CC96
:10085600F875F008EF2FFFEE33FEEC33FCEE9DEC5F
:10086600984005FCEE9DFE0FD5F0E9E4CEFD22EDA5
:10087600F8F5F0EE8420D21CFEADF075F008EF2FEF
:10088600FFED33FD4007985006D5F0F222C398FDE0
:050896000FD5F0EA227D
:10089B0075F008758200EF2FFFEE33FECD33CDCC14
:1008AB0033CCC58233C5829BED9AEC99E582984097
:1008BB000CF582EE9BFEED9AFDEC99FC0FD5F0D674
:1008CB00E4CEFBE4CDFAE4CCF9A88222B800C1B99E
:1008DB000059BA002DEC8BF084CFCECDFCE5F0CBDC
:1008EB00F97818EF2FFFEE33FEED33FDEC33FCEB15
:1008FB0033FB10D703994004EB99FB0FD8E5E4F9D0
:10090B00FA227818EF2FFFEE33FEED33FDEC33FCBC
:10091B00C933C910D7059BE99A4007EC9BFCE99AB0
:10092B00F90FD8E0E4C9FAE4CCFB2275F010EF2FF5
:10093B00FFEE33FEED33FDCC33CCC833C810D707F5
:10094B009BEC9AE899400AED9BFDEC9AFCE899F830
:0E095B000FD5F0DAE4CDFBE4CCFAE4C8F922C3
:10237200C2D5E830E70FB2D5E4C39BFBE49AFAE496
:1023820099F9E498F8EC30E717B2D51223A81208AD
:10239200D7E4C39BFBE49AFAE499F9E498F8800342
:1023A2001208D730D50DE4C39FFFE49EFEE49DFDE5
:0423B200E49CFC2289
:10096900EB9FF5F0EA9E42F0E99D42F0EC6480C805
:0609790064809845F022A5
:10097F00E8600FECC313FCED13FDEE13FEEF13FF56
:03098F00D8F1227A
:0C099200ECF0A3EDF0A3EEF0A3EFF022D8
:10099E00A8828583F0D083D0821209B51209B512D0
:1009AE0009B51209B5E473E493A3C583C5F0C583F5
:1009BE00C8C582C8F0A3C583C5F0C583C8C582C8A3
:0109CE002206
:100F3600E50830030104F82328247BF582E4340510
:100F4600F5832290057830030390057BE475F00164
:100F5600120B5C0207EE60EAC50C7002150B14C595
:100F66000C200304FF02257590057874FFF5F00246
:100F76000B73FF02253FE5096006D509037F0022B2
:100F860020030F12252BEF6008050CE50C700205F7
:100F96000B22900578120B531207EEFF60E89005BE
:100FA60078E475F001120B5C80DC120F86EFC0E06E
:100FB600120F78D0E040F3809DD2038002C20390E6
:100FC6000578120B8AE4F50AF508F50BF50C750998
:100FD60000C202C200C201C204120F49FF7005AF6F
:100FE6000A7E0022B42530120F49FF24D0B40A002D
:100FF600500C75F00AC509A42509F50980E924CF26
:10100600B41A00EF5002C2E5021224D20180D8D2EF
:101016000080D4D20480D0EF120F785008120FB09F
:10102600EF600E80A9EFC0E0120F86D0E06F609EE1
:10103600EF6074120F5C80A7120F86EF6069E509F6
:10104600700705098003120F86EF601420040E1244
:101056000F36E475F001120B5CEF120AE4D509E6CF
:101066002004040508050A80BA120F7CEFC0E012BE
:101076000F78D0E05004120F5CE4FF20040E120F2C
:1010860036E475F001120B5CEF120AE4EF70DA2019
:1010960004040508050A808BE50960020509120F9C
:1010A600B0120F7CEF70C6300304E4120F5CE50A41
:1010B6006003020FE57EFF7FFF2220041174FFFC10
:1010C600FDFEFF120F36120B53120B390508020FE5
:1010D600D4D0E080D27900800A7910800679088021
:1010E60002790AD205E50960020509E9C0E0120F96
:1010F600B0EF60DD120F86BF2D04D2028003BF2B36
:1011060009120FB0EF60CA120F7CD0E0B40A028059
:1011160033B40802802EBF302770027408C205C09F
:10112600E0120F7CD0E0BF78028003BF5816050995
:10113600D509028007D50904D205800B74108019E1
:101146007002740ABF000AEFF8E4FCFDFEFF02110C
:10115600D7C0E0EF120F5CD0E0F9E4FCFDFEFFE93A
:10116600C0E0ECC0E0EDC0E0EEC0E0EFC0E0120F82
:101176007CEFF8D0E0FFD0E0FED0E0FDD0E0FCD080
:10118600F0E8604DB461004007B47B005002C2E550
:1011960024D0503DFA24F6500724F95034240AFA94
:1011A600EAB5F000502BCFA9F0A42FFF92D5E9C5E0
:1011B600F0CEA4A2D53EFE92D5E9C5F0CDA4A2D527
:1011C6003DFD92D5E9C5F0CCA4A2D53CFCC2058074
:0611D6008EE8C0E02004D9
:1011DC002A200508050A300203120B2B120F3612B7
:1011EC000B53050820000B20010DEE8FF0120B0C99
:1011FC008009120B398004EF120AE4D0E0120F5C64
:10120C00020FD4200410120F36120B530508E50BF5
:10121C00850CF0120B0C80E8120B93109E5310DF10
:10122C005810154C1011420FED4810E34F10E744C5
:10123C00103E4310DB4910E75510C04610C0451056
:0C124C00C04710192A120F4E0000101DA0
:1009CF00E709F60870FA8046E709F20870FA803EE8
:1009DF0088828C83E709F0A370FA807EE309F6081A
:1009EF0070FA8076E309F20870FA806E88828C8341
:1009FF00E309F0A370FA806289828A83E0A3F60884
:100A0F0070FA805689828A83E0A3F20870FA804ACE
:100A1F0080D280FA80C680D4806580F280318010C9
:100A2F0080A680EA809A80A880DA80E280CA80312E
:100A3F0089828A83ECFAE493A3C8C582C8CCC583A4
:100A4F00CCF0A3C8C582C8CCC583CC70E9800D8912
:100A5F00828A83E493A3F60870F9ECFAA9F0EDFB10
:100A6F002289828A83ECFAE0A3C8C582C8CCC583E9
:100A7F00CCF0A3C8C582C8CCC583CC70EA80DD8911
:100A8F00828A83E493A3F20870F980CE88F0ED2474
:100A9F0002B4040050C4F582EB2402B4040050BA2F
:090AAF002323458223900A1F73E2
:101DB400900578EBF0A3EAF0A3E9F0A3E0FBA3E03D
:101DC400FAA3E0F91207EE7003021E60900578E0B2
:101DD400FBA3E0FAA3E0F91207EE7003021E6C9075
:101DE400057BE0F9A3E0FAA3E0A3C9F0A3EAF0A31A
:101DF400E9F0900578A3E0FAA3E0F9900581EBF00F
:101E0400A3EAF0A3E9F090057EE0FBA3E0FAA3E0E7
:101E1400F91207EEFF6026900581E0FBA3E0FAA328
:101E2400E0F91207EE6F701590057F75F001120A44
:101E3400F6900582E475F001120AF680C990057ED9
:101E4400E0FBA3E0FAA3E0F91207EE7002800D9024
:101E54000579E475F001120AF6021DD0900578E0C8
:0F1E6400FBA3E0FAA3E0F9227B007A00790022C9
:100AB800EF4E6012EF60010EEDBB010B89828A8355
:100AC800F0A3DFFCDEFA2289F05007F709DFFCA962
:0C0AD800F022BBFEFCF309DFFCA9F022B9
:102299009005A6E0FFA3E0FEA3E0CF9005AFF0A371
:1022A900EEF0A3EFF09005A9E0CBF0A3E0CAF0A30C
:1022B900E0C9F07F229005B2AD82AC831207EE8DA2
:1022C900828C83F0A309E970010ADFEC9005A9E08B
:0A22D900FBA3E0FAA3E0F9020C36C3
:100AE400BB010689828A83F0225002F722BBFE01F1
:020AF400F322EB
:100AF600C5F0F8A3E028F0C5F0F8E582158270028B
:060B06001583E038F02227
:100B0C00BB010A89828A83F0E5F0A3F0225006F734
:0F0B1C0009A7F01922BBFE06F3E5F009F3192231
:0E0B2B00C3E49FFFE49EFEE49DFDE49CFC22DB
:100B3900BB010789828A830209925005E9F8020BF1
:0A0B4900B9BBFE05E9F8020BC52256
:090B5300E0FBA3E0FAA3E0F922A3
:100B5C00F8E0FBA3A3E0F925F0F0E5821582700222
:070B6C001583E0FA38F022C6
:100B7300F8E0FBA3A3E025F0F9F0E582158270020B
:070B83001583E038FAF022AF
:090B8A00EBF0A3EAF0A3E9F0226C
:100B9300D083D082F8E4937012740193700DA3A3F1
:100BA30093F8740193F5828883E473740293686005
:060BB300EFA3A3A380DF05
:100BD100E50824AFF582E43405F583E005082290A9
:100BE10005AC3007039005AFE475F001120B5C0210
:100BF10007EE2000E97F2ED2008018EF540F2490D9
:100C0100D43440D4FF30040BEF24BFB41A00500396
:100C11002461FFE50960021509050CE50C70020568
:100C21000B30070E9005ACE475F001120B5CEF027E
:100C31000AE40224A87403D2078003E4C207F5087A
:100C41009005AC120B8AE4F509F50BF50CE509608A
:100C5100077F20120C1480F5750AFFC201C200C281
:100C610002C203C205C206C208120BE0FF700D30BA
:100C710007057F00120C25AF0CAE0B22B4255FC215
:100C8100D5C204120BE0FF24D0B40A00501A75F04B
:100C91000A780930D50508B6FF0106C6A426F62054
:100CA100D5047002D20380D924CFB41A00EF5004C6
:100CB100C2E5D204020E26D20180C6D20080C0D283
:100CC1000280BCD2D580BAD20580B47F20120C1428
:100CD1002002077401B5090040F1120BD1FF120C7B
:100CE10014020C4ED208D2068095120BD1FB120BC6
:100CF100D1FA120BD1F94A4B700679F77A0E7BFFC4
:100D010020022EE509602A7E008E8275830012087A
:100D11000760060EEE650A70F0C2D5EBC0E0EAC0CE
:100D2100E0E9C0E0EE120E6DD0E0F9D0E0FAD0E0DB
:100D3100FB1207EEFF60AAEBC0E0EAC0E0E9C0E009
:100D4100120C14D0E02401F9D0E03400FAD0E0FB19
:100D5100E50A0460DCD50AD980877BFF7A0E7969C0
:100D6100D202809C791080027908C206C2088008EC
:100D7100D2D5790A8004790AC2D5E50A047002F550
:100D81000AE4FAFDFEFF120BD1FC7B0820011312CD
:100D91000BD1FD7B1030000A120BD1FE120BD1FFDB
:100DA1007B20EC3382D592D55013C3E43000069FEB
:100DB100FFE49EFEE42001039DFDE49CFCE4CBF8EE
:100DC100C201EC700CCFCECDCCE824F8F870F380E2
:100DD10017C3EF33FFEE33FEED33FDEC33FCEB33A2
:100DE100FB994002FB0FD8E9EB300105F8D0E0C4D4
:100DF10048B201C0E00AEC4D4E4F78207B0070C232
:100E0100EAB50A0040BCC0E0120E6FD0F0D0E0207D
:100E11000104C4C0E0C4B201C0F0120BFDD0F0D592
:100E2100F0EB020C4E120B930CEB530D65580CBCFE
:100E31004C0CB8420D694F0D71440D71490CD143F1
:080E41000D77550D5B460D5BBA
:100E4900450D5B470F17500CC02D0CC42E0CE72B1A
:100E59000CC8230CE5200F002A0C804800000CDF89
:100E69003F3F3F00790AA2D5200314300509B91084
:100E7900020404B9080104A2D52006025001042085
:100E890002689202B509005034C0E07F203003198E
:100E99007F30A20272067205500F120EC6C202C23C
:100EA90006C205C2087F30800F300503E9C0E01291
:100EB9000C14300503D0E0F9D0E0B509CC300517A2
:100EC9007F30B9100C120C147F583004077F7880DA
:100ED90003B90803120C143002057F2D020C147F8C
:100EE900202008F87F2B2006F322920280CF286E5B
:100EF900756C6C2900D201120BD13001F8C201784E
:100F09000930D50108F6020C802D50434958120BBF
:100F1900D12403B405004001E4900F1293120C058B
:0D0F2900743A120C05D203750904020D651F
:10252B00100A0B12256BBF0D027F0A0224A890051F
:04253B00E2E0FF22B9
:082575009005E2EFF0D20A220A
:10253F00EFC394094005EF940E4004EFB42003D38A
:04254F008001C32222
:0C0BB900ECF608EDF608EEF608EFF62268
:0C0BC500ECF208EDF208EEF208EFF2226C
:1024A800EFB40A07740D1224B3740A309811A8996E
:1024B800B8130CC2983098FDA899C298B811F63094
:0724C80099FDC299F599226C
:0A256B003098FDAF99C2987E00225F
:00000001FF
