:03000000021EBE1F
:0C1EBE00787FE4F6D8FD758121021F0535
:1000260074686973206973207561727420746573CE
:10003600740D0A003C2D2D2D2D2D2D44454255477E
:10004600204D5347203D3E20746869732069732014
:1000560075617274322074657374203D2D2D2D2DBB
:100066002D2D2D2D2D0D0A0008000000000000008A
:10007600000000000000000000000000000000601A
:100086004000000000020101000000000000000026
:100096000000014000000000010101010101071FED
:1000A6007E6FFFDBDFDFDFDFFFEFFEEFEFCFD7FF98
:1000B600E7F7DFD4D0C44C1656B62E8E272F3F3F17
:1000C6007F7FFFFFFFFFFFFFFFFCFCFDFCFDFFFF47
:1000D600FEFFEFE70301010101000000000000013F
:1000E60002082040E000000000000000008180803F
:1000F60000000000000000000000000000000000FA
:1001060000000001000000000080000080C080E0C8
:10011600A0E0E0E0ECEC6EEDEFFCC69E2E3EFEFFAE
:10012600FFFFFF3F0F0F0F07070303030303010141
:1001360003010101000000000000000000000004AF
:100146000004102123470FFFFFFFFFFFFFFFFFFF04
:10015600FFF003BF38C000000000000000000000F0
:1001660000000000170000003C3E1E0E07070600B8
:100176000000000000000000000000000000000079
:10018600408040F070B8E8F87C3E1F5FCFCF8F8785
:10019600D7032121000000808081818383FFFFFF38
:1001A6001F1F1F3C3C7E747C5E1C1C1C1818000024
:1001B6000000000000181C1C0212121000000000B3
:1001C600000000000000000B0F0FFFFFFFFFFFFF06
:1001D600FFFFFFFFFFF9FAFCFCC88000008080806B
:1001E6008800000000000000000000000000000081
:1001F60000000000000000000080C0B0F8FE5BDFD9
:10020600F3FC6F8DFABE3F0100000000000040487D
:1002160000080090909000010306060D8FDFFCFB9E
:10022600FCF8F0E0E0C0C0C0E0F0FCF87C7E7E5C4C
:10023600505870606064204040C08080000000001C
:100246000000000000000000003F3F7F3FFFFFFF6F
:10025600FFFFFFFF7F7FC71F7BE3CE0F0F9F0707C1
:100266000305000000000000000000800000000000
:100276000000E0F0F8FCF2FFFFFFFF8F1BFFFFFF1F
:10028600FFFFFFFFFFFFFFFFFEFCF8F8F0F0E0E0E6
:10029600E0F0F0F0F9F9F9FCFCFEFFFFFF3F1F1F4D
:1002A6001F3F3F7FFFFFFFFFFFFDF9F8F0E1E1E3AE
:1002B600E1E1E0E0E0E0E0E0F0F0D8E6FCFC7870B8
:1002C600683010381C5C1C78F8F8FEFEFEFFFFFF55
:1002D600FFFFFFFFF7FF7FF88003071BE7FFF8210B
:1002E600200101196A000000C48080C0C0E0B47A11
:1002F600FEFEEFBFFFFFFFEFF7F9FFFFFFFF0F0F58
:100306000F0F1F0F0F1F1F3F1F1F1F1F1F0F0F1F37
:100316001F1F1F1F1F1F1F3F3F3F3F3F3EB87C3C15
:100326007CF0F8FCFCFFFFFFFFFFFFBFBF3F7FFF36
:100336007F7F3F3F3F3FFFBF27E7E3E9379D9810A9
:10034600B020202021212123232707071F1F1F1F3D
:100356009F1F9F7F7FFFBFBF3F3F3C38187F7E7C3C
:100366007CF878F0F0000000FFFFFFAF3719181F88
:100376000F0F0C070707030301010101000000002E
:1003860000000000000000000080808080888080DF
:1003960048C8000020800000A8640494E0F1F9FD3C
:1003A600FBF7FBF7DF7F3F7F0F495121CE7E388871
:1003B60010C4C0BA727F77F7FFE7EFCCDFDE1F0B02
:1003C60000101008000000101878785878FCFEF02D
:1003D600F0E7E7CFBFBF3E7C087020606040C0807A
:1003E600808080000000000007070707000000006B
:1003F60000000000000000000000000004040404E7
:100406000004040404060606070707070707040690
:100416000600040507040606040607070507040781
:10042600070707070704060007050602050100007F
:10043600040707070707060606050505070301055E
:10044600000006000404000002000000040507077F
:10045600030707070707070706040404000200004E
:10046600010307070400000000000000E060606070
:1004760060606060606060E00000E0E0E0E0E0E0B6
:100486000000606060808060608080000060808026
:1004960000000000E0E0606060606060606060E056
:1004A600E00000000000000000000000FF00007EE9
:1004B6007E7E7E7E7E0000FF00009F9F1919070743
:1004C6009E9E80E0E0FFFF787807070606F89F9F6C
:1004D60006060000FFFF00007E7E7E7E7E0000FF97
:1004E600FF000000000000000000000033F3F3C32B
:1004F600C303033333333333C0C00303CCCCC3C38A
:100506003030CF0000C3C3FCFC3F3F3C3C0F0C0C1B
:100516003F3FC0C0C3C33333C3F3F33333F3F3F303
:10052600F30000000000000000000000FB1F1F9BFE
:100536009B9C9C03031C1C9BE7E7636380801C1C3D
:1005460007071BE0E06464E7E718189F9F001C1C80
:100556001C1CF8F8E4E4E4E460989883830303FF42
:10056600FF00000000000000000000002720201F00
:100576001F3F3FE0E0C0C0D9D9D90606FFFFE6E637
:10058600D8D8E601012626E7E7D8D8DFDFD81E1E31
:10059600C0C0FFFF21213F3FE0D9D9C1C12626E7D0
:1005A600E70000000000000000000000CCCCCCCC2E
:1005B600CCCFCFC3C3CFCFCC0F0F3333FCFC0F0F41
:1005C60003030C3030F3F3F0F0CFCFCFCFCFCCCC4A
:1005D600FCFC0F0FCCCC0C0CFF333330303C3CF31F
:1005E600F30000000000000000000000FF00007E95
:1005F6007E7E7E7E7E0000FF0000878767677878B4
:10060600E6E67EE0E07E7E78786767E7E7667F7FEE
:10061600E7E79E9E86867E7E07FFFF1818E1E1FECD
:10062600FE000000000000000000000007060606AD
:100636000606060606060607000007070606000069
:100646000101060707000000000606070706060662
:100656000707010107070000000101000007070165
:100666000100000000000000000080E0F0F0F8F853
:10067600FCFEFEDE9F1F1F3F7FFFFEFEFEFCFCF81A
:10068600F8F0E08000000000F0FEFFFFFFFFFFFF34
:10069600FFF3030303F3F2F0F0000303F3F3FFFFAA
:1006A600FFFFFFFFFEF00000010F1F7FFFFFFFFFB0
:1006B600FFFFF8F0F0F3F3F7F3000000FFFFFFFF92
:1006C600FFFF7F1F1F010000000000000001030361
:1006D600070F0F0F1F1F1F1F1F1F0F0F0F070703E8
:1006E6000300000000000000E0E0E0E0E0E0E0E001
:1006F600C080000000C0E0E0E0E0E0C0C000000014
:10070600E0E0E0E00000C0E0E0E0C000C0E0E0F0D3
:10071600FCFFE0E0C000C0E0E0E0C0C0E0E0E0C018
:1007260080C0E0E0E0C00000FFFFFFFF0F0F0FFFFB
:10073600FFFFFC000087CFC7C7C7FFFFFFFF000012
:10074600FFFFFFFF0000FFFFFFFFFF000F0FFFFF90
:10075600FFFF2F0F0700FFFFFFFF0F0F0FFFFFFF2A
:10076600FF0F0FFFFFFFFF00FFFFFFFFFEFEFEFF75
:100776007F3F0700FFFFFFFF0F0FFFFFFFFF000098
:100786000F3F7F7F7E7EFFFFFFFFFF000000FFFF22
:10079600FFFF85000000FFFFFFFF000000FFFFFFD7
:1007A600FF0000FFFFFFFF00FFFFFFFF000000004C
:1007B600000000003F7F7FFFFCFCFFFFFF7F000083
:1007C60000FEFEFEFEFEFFFF7F3F030000007FFFF0
:1007D600FFFF520000007FFFFFFF000000FFFFFF4A
:0807E600FF00007FFFFFFF0090
:10186F00E4900574F0A3F0A3F0A3F07591017591C6
:10187F000153B1FE43B20175910153B1FD43B20261
:10188F0075910153B1FB43B20475910153B1F74305
:10189F00B20875910153B5FE43B60175910153B569
:1018AF00FD43B60275910153B5FB43B60475910123
:1018BF0053B5F743B60875910153B5DF43B620759D
:1018CF00910153B5EF43B61075910153C2FB43C35A
:1018DF000475910153BDEF43BE1075910153BDDFE8
:1018EF0043BE2075910153C2F743C308C2B375912C
:1018FF000253F1F043F10375910253F10F43F130AD
:10190F0075910153B3BF53B4BF75910153B37F5357
:10191F00B47F75910253EBF043EB0875910253EBD3
:10192F000F43EB8075910153B9FE53BAFE759101C8
:10193F0053B9FD53BAFD121E2E7F1412243AC28DD5
:10194F00D28CD2A990057C7401F0A312099E0001DC
:10195F00C2007F007E367D6E7C011212587D017FA2
:10196F0006121F4AD2AF90057C7404F0A312099E91
:10197F000001C2007F007E367D6E7C01121258126C
:10198F0023AB12203A122411D39004CEE09400908E
:10199F0004CDE0940090057B400C7401F0A374001B
:1019AF00F0A37400800A74FFF0A37404F0A3746EA4
:1019BF00F0A37440F0A3F0E4FBFDFF121A22900590
:1019CF007B74FFF0A37406F0A3746EF0A37420F081
:1019DF00A3F07B01E4FD7F0A121A2290057B74FFAE
:1019EF00F0A37406F0A374EEF0A37440F0A3742078
:1019FF00F07B017D04E4FF121A227BFF7A00792627
:101A0F007F0612229E7BFF7A00793A1220AA1214C7
:031A1F009380FBB6
:06248A00D2A47F017E00D8
:10249000E4FDFCC3ED9FEC9E5015E4FBFA0BBB0082
:0F24A000010ABA08F8BB4CF50DBD00010C80E431
:0124AF00220A
:10000E00EF540FF5A0EFC4540FF580C2A512248A49
:05001E00C2A4022490C1
:1024D100EF540FF5A0EFC4540FF580D2A512248A52
:0524E100C2A4022490DA
:1023AB00E4F591E5B154DF4420F5B1D2B2E4F591F7
:1023BB00E5B154EF4410F5B17FD07E071224907F26
:1023CB003E12000E7F4012000E7FB812000E7FC02F
:0823DB0012000E7F3F02000E0C
:10203A00E4F591E5B154DF4420F5B1D2B2E490055C
:10204A0078F0A3F0900578E0FEA3E0FFC39408EED1
:10205A00648094805040EF24B8FF12000EE4A3F08D
:10206A00A3F0E4FF1224D190057BE004F0700690FF
:10207A00057AE004F0C390057BE0944090057AE08D
:10208A006480948040DC900579E004F070B6900595
:10209A0078E004F080AE7F4012000E7FB802000E96
:1023E300A905E4F591EB70047E0180027E00EEC442
:1023F3003354E0FEE5B154DF4EF5B1EB24FF92B266
:0E240300EF2440FF12000EE924B8FF02000E85
:0B1A2200900578EFF0A3EDF0A3EBF0CF
:101A2D00900578E0FF900580F0A3EDF0E4A3F0A31E
:101A3D00F090057FE0FE131313541F900584F0E41E
:101A4D00A3F0A3F01223E3900579E0900583F090C5
:101A5D000579E0FF900584E02FFFE433FE900583C8
:101A6D00E0FDC39FEE6480F87480984003021B086C
:101A7D00900578E0FF90057AE0FB1223E39005785E
:101A8D00E0900582F0900578E0FF90057EE02FFF55
:101A9D00E433FE900582E0C39FEE6480F874809875
:101AAD00505090057BE0FBA3E0FAA3E0F99005858B
:101ABD00E0FEA3E0F5828E83120807FF1224D19079
:101ACD000586E004F07006900585E004F09005822F
:101ADD00E0B43F16A3E0FD90057AE004FBE4FF12AD
:101AED0023E3E4F59153B1DFD2B2900582E004F027
:0B1AFD008093900583E004F0021A5C67
:011B080022BA
:102371004104D100410540004104CF004105410025
:092381004204CD00004104D0002B
:030023000216883A
:10168800C0E0C0F0C083C082C0D075D000C000C028
:0D16980001C002C003C004C005C006C007A9
:1016A5009005D4E4F020980302184B900540E024FF
:1016B50042F582E43405F583E599F0900540E004B0
:1016C500F0E0FF2441F582E43405F583E0640A7017
:1016D5006C900541E06401705774422FF582E43443
:1016E50005F583E4F09004CFE075F032A424DCF92D
:1016F500740435F0A801FC7D017B017A057942125D
:101705000A9B900540E4F09004CFE0C39401500596
:10171500E004F080059004CFE4F09004D17401F06A
:101725007E007F327D00FB7A057942120AB8800D72
:10173500900541E0700704F0900540E4F090040046
:10174500E0640160030217ED900540E02441F58255
:10175500E43405F583E0FFC39430400BEFD39439AF
:101765005005EF540F801F900540E02441F582E4B9
:101775003405F583E0FFC394414021EFD3944650EF
:101785001BEF540F2409FF9004D0E024D2F582E426
:101795003404F583EFF09004D0E004F09004D0E039
:1017A500B40245FF24D0F582E43404F583E0C45443
:1017B500F0FE74D12FF582E43404F583E04EFF90FA
:1017C50004CDE0FCA3E02400F58274003CF583EF32
:1017D500F09004CEE004F070069004CDE004F090A3
:1017E50004D0E4F0900540F0900540E0FFD394303C
:1017F500404E74422FF582E43405F583E4F09004FD
:10180500CFE075F032A424DCF9740435F0A801FCAE
:101815007D017B017A057942120A9B9004CFE0C3D2
:1018250094015005E004F080059004CFE4F09005A4
:1018350040E4F0FE7F32FD7B017A057942120AB859
:0F1845007591005398FE3099067591005398FDE8
:10185400D007D006D005D004D003D002D001D000E8
:0B186400D0D0D082D083D0F0D0E03292
:1012580090057812099290057CE014B407004003C9
:1012680002149290127975F003A4C58325F0C58302
:101278007302128E0212D90212EE02136802140CC3
:1012880002128E0212EEE4F591759850438920F50A
:1012980091438780F591438E10F59153C4DF7B10FD
:1012A800FAF9F8900578E0FCA3E0FDA3E0FEA3E0DE
:1012B800FF1208D790057DE0F8A3E0F9A3E0FAA3B0
:1012C800E0FB1208D7EFF404F58DE4F5914388406C
:1012D80022E4F591759850F59143878053C4F8F549
:1012E8009143C4208009E4F59175F85075C4887B52
:1012F80010FAF9F8900578E0FCA3E0FDA3E0FEA35E
:10130800E0FF1208D790057DE0F8A3E0F9A3E0FA22
:10131800A3E0FB1208D7C3E49FFFE49EFE74019D7F
:10132800FDE49CFC780812097F8FC6E47B10FAF96B
:10133800F8900578E0FCA3E0FDA3E0FEA3E0FF122F
:1013480008D790057DE0F8A3E0F9A3E0FAA3E0FB55
:101358001208D7C3E49FFFE48FC5F59143C4082260
:10136800E4F59143D601F59143D701F59143D702AE
:10137800F59153D6EFF59153D6F77B08FAF9F89023
:101388000578E0FCA3E0FDA3E0FEA3E0FF1208D788
:1013980090057DE0F8A3E0F9A3E0FAA3E0FB1208CA
:1013A800D7EF24FFFFEE34FFED34FFEC34FFE48F7A
:1013B800DB53DCF07B08FAF9F8900578E0FCA3E051
:1013C800FDA3E0FEA3E0FF1208D790057DE0F8A397
:1013D800E0F9A3E0FAA3E0FB1208D7EF24FFFFEE41
:1013E80034FFFEED34FFFDEC34FFFC780812097F72
:1013F800EF540F42DCE4F59143D74053D7CFF59132
:1014080043D68022E4F59143D701F59153D6EFF501
:101418009153D6F790057DE0F8A3E0F9A3E0FAA38D
:10142800E0FB900578E0FCA3E0FDA3E0FEA3E0FF6D
:101438001208D7EF24FFFFEE34FFED34FFEC34FF42
:101448008FDB90057DE0F8A3E0F9A3E0FAA3E0FBC9
:10145800900578E0FCA3E0FDA3E0FEA3E0FF1208FE
:10146800D7EF24FFFFEE34FFFEED34FFFDEC34FF31
:10147800FC780812097FEF540FF5DC75910243E7F9
:0B1488004053E7CF75910243E680223D
:10216900E4F591EF24FC601C14602824FE600C0443
:10217900703B3098FDAE99C298803230F8FDAE9A26
:10218900C2F88029E4F59153D6FDE5DF20E1FBAEE5
:10219900D9801A75910253E6FDE5DF7C0060047D64
:0F21A9000180027D00ED64024C60EEAED9AF06FE
:0121B8002204
:10210A00E4F591EF24FC602414603824FE60100486
:10211A00704CE4F591C2998D993099FDC29922E4E7
:10212A00F591C2F98D9A30F9FDC2F922E4F591537D
:10213A00D6FB8DD9E5DF44F764F760F8E4F59153EF
:10214A00D6FB2275910253E6FB759102AF058FD932
:0F215A00E5DF44F764F760F875910253E6FB2266
:10229E00EF24FC602F24FD601704703C1207EEFD46
:1022AE0060367F0612210A740129F9E43AFA80ECAD
:1022BE001207EEFD60227F0712210A740129F9E44C
:1022CE003AFA80EC1207EEFD600E7F0412210A74BA
:0922DE000129F9E43AFA80EC222E
:101F4A00EF24FC603414605024FE6018047069EDBC
:101F5A0014600A047062E4F59153A8EF22E4F59143
:101F6A0043A81022ED14600A04704DE4F591539CC5
:101F7A00FE22E4F591439C0122ED14600F047038AF
:101F8A00E4F59153DDFDF59153DDFE22E4F591432D
:101F9A00DD02F59143DD0122ED146010047019751C
:101FAA00910253DDFD75910253DDFE2275910243C4
:091FBA00DD0275910243DD0122F4
:1024B000E4F591759850438920F591438780F59113
:1024C000538EEFF59153C4DF758DFFF5914388402E
:0124D00022E9
:101BDE002B435245473A20002C002B435245473A9F
:101BEE002025642C256420252A5B5E0D0A5D0D0AD6
:101BFE00002B435245473A002B435245473A202586
:101C0E006420252A5B5E0D0A5D0D0A000D0A2D2D3E
:101C1E002075617274207265632025732D2D0D0A57
:101C2E000054494D453A25640D0A003C2D2D2D2DAD
:101C3E002D2D74696D65722076616C7565203D2061
:101C4E0025642D2D2D2D2D2D2D2D2D0D0A003C2DE8
:101C5E002D2D2D2D2D4445425547204D5347203DCA
:101C6E003E20554152544C494E452045584954202A
:101C7E003D2025642D2D2D2D2D2D2D2D2D0D0A00C4
:101C8E002B435245473A00494D475F5354415254F6
:101C9E003A00494D475F53544F500054494D453A11
:011CAE000035
:0D238A004104CC00410401004204020000A7
:0B20AA00900578EBF0A3EAF0A3E9F04A
:1020B5009005A37401F0A37405F0A3747BF090055B
:1020C50078E0F9A3E0FAA3E09005A6C9F0A3EAF049
:1020D500A3E9F09005A3E0F9A3E0FAA3E09005A930
:1020E500C9F0A3EAF0A3E9F07B017A04790412228E
:1020F500549005A3E4F0A3F0A3F07B017A047904DE
:052105007F0402229E90
:101B09009005D5EBF0A3EAF0A3E9F07F0412229E39
:101B190090057B74FFF0A3741BF0A374DEF09005AD
:101B2900D5E0FBA3E0FAA3E0F9121D6FEA494B6087
:101B39005190057B74FFF0A3741BF0A374E6F09039
:101B490005D5E0FBA3E0FAA3E0F9121D6FEA494BC2
:101B5900603090057B74FFF0A3741BF0A374E8F068
:101B69009005D8E0F9A3E0FAA3E090057EC9F0A3B7
:101B7900EAF0A3E9F09005D8E0F9A3A3E090058184
:101B8900803C90057B74FFF0A3741BF0A374FFF0F5
:101B99009005D5E0FBA3E0FAA3E0F9121D6FEA492D
:101BA9004B603190057B74FFF0A3741CF0A374069D
:101BB900F09005D8E0F9A3E0FAA3E090057EC9F01A
:101BC900A3EAF0A3E9F09005D5E0FBA3E0FAA3E0CE
:051BD900F9120FBF220C
:101493009004CFE0FF9004CCE06F7003021687E066
:1014A30004F0E075F032A424AAF9740435F0FA7B51
:1014B300017F0612229E9004CCE075F032A424AA88
:1014C300F9740435F0FA7B0190057B74FFF0A37483
:1014D3001CF0A37495F0121D6FEA494B601E900433
:1014E300007401F0E49004D0F09004CDF0A3F07EFA
:1014F30004FFFD7B017A007900120AB89004CCE066
:1015030075F032A424AAF9740435F0FA7B0190052E
:101513007B74FFF0A3741CF0A374A0F0121D6FEA98
:10152300494B70030215C59004CDE0FEA3E02400EF
:10153300F58274003EF583E4F0900400F09004D04B
:10154300F012203A9004CDE0FEA3E0FF1221B9127D
:1015530022E77E047F007D007B017A007900120A76
:10156300B8121E2E90057B7401F0A37400F0A374CF
:1015730000F0A37440F0A3F0E4FBFDFF121A227FF6
:10158300E87E0312249090057B74FFF0A37406F0A9
:10159300A3746EF0A37420F0A3F07B01E4FD7F0A33
:1015A300121A2290057B74FFF0A37406F0A374EE65
:1015B300F0A37440F0A37420F07B017D04E4FF12D8
:1015C3001A229004CCE075F032A424AAF9740435ED
:1015D300F0FA7B0190057B74FFF0A3741CF0A374F5
:1015E300A9F0121D6FEA494B607C9004CCE075F0C2
:1015F30032A424AAF9740435F0FA90057B7401F03F
:10160300A3EAF0A3E9F07BFF7A1C791A1220AA90CF
:1016130004CCE075F032A424AAF9740435F0FA7B03
:1016230001C00390057B74FFF0A3741CF0A3742F17
:10163300F0A3EBF0A37404F0A37402F0D003120F31
:10164300BF900402E0FEA3E0FFD39400EE64809415
:10165300804002D2B37BFF7A1C793990057BEEF090
:10166300A3EFF01220AA1224119004CFE0F9900501
:101673007BE4F0A3F0A3E9F07BFF7A1C795C1220F2
:05168300AA02149322ED
:10241100E49004CFF09004CCF0900541F0FE7F32BF
:10242100FD7B017A0479DC120AB87E007F327D00DF
:092431007B017A05790E020AB85C
:042397004105E1001B
:102208008FA6EEF5A775AEFFE4F591A2AF9209C2CD
:10221800AF75C7AA75C755439F01A20992AFF5913B
:10222800A2AF9209C2AF75C7AA75C75543A501A247
:102238000992AF75AF22F591A2AF9209C2AF75C7E7
:0C224800AA75C75543A401A20992AF2259
:101FC3008FA6EEF5A7E4F591A2AF9209C2AF75C74C
:101FD300AA75C755439F01A20992AFF591A2AF928B
:101FE30009C2AF75C7AA75C75543A501A20992AF28
:101FF30075AF21AF058FAEF591A2AF9209C2AF7550
:10200300C7AA75C75543A401A20992AFF591A2AF20
:102013009209C2AF75C7AA75C75553A5FEA2099207
:10202300AFF591A2AF9209C2AF75C7AA75C7555351
:072033009FFEA20992AF22FB
:040003008F828E83D7
:03000700E493FF80
:01000A0022D3
:1022E700E490057AF0A3F0C2AF7F807E7F122208C8
:1022F7007D01121FC39004CDE0FEA3E0FF7C007DAB
:10230700641208467F817E7F121FC39004CDE0FED2
:10231700A3E0FF7C007D64120846AD077F827E7FC5
:05232700121FC3D2AF3C
:01232C00228E
:0821B900900578EEF0A3EFF0B1
:1021C100E4FBFA7F807E7B1222080BC3900579E045
:1021D1009B900578E09A402EEB547F700BEB2480A6
:1021E100FFEA347BFE122208EB247FFFEA347BFEF8
:1021F10074FF2BF58274FF3AF583E0FD121FC30BC8
:06220100BB00010A80C5CC
:0122070022B4
:101E2E00E4900578F0A3F07F807E7F12000390058A
:101E3E00E1EFF06401600312251C7F827E7F1200A9
:101E4E0003EF75F064A4FDACF07F811200037E00F9
:101E5E00ED2FFFEE3CFE9004CDF0A3EFF0D39400F7
:101E6E00EE9400404AE4900578F0A3F09004CDE0A3
:101E7E00FEA3E0FF900578E0FCA3E0FDC39FEC9E7F
:101E8E00502DED2480FFEC347BFE1200039005787C
:101E9E00E0FCA3E02400F58274003CF583EFF090A3
:0F1EAE000579E004F070C5900578E004F080BD80
:011EBD002202
:0E250E00EF75F064A47C002DFFEC35F0FE228A
:0A251C00E49004CDF0A3F00222E7E2
:0F239B004205DD00004205DF00004205DB0000C7
:03000B00021CAF25
:101CAF00C0E0C0F0C083C082C0D075D000C000C0FB
:0D1CBF0001C002C003C004C005C006C0077C
:101CCC009005DCE004F070069005DBE004F0900574
:101CDC00DBE0FEA3E0FFE4FCFD7BB87A0BF9F81225
:101CEC00232DAC00AD01AE02AF03EC4D4E4F702472
:101CFC00D3900403E09400900402E094004015A3F8
:101D0C00E024FFF0900402E034FFF0E07002A3E066
:101D1C007002C2B39005DBE0FEA3E0FFE4FCFD7BA8
:101D2C00607AEAF9F8C312096950079005DBE4F010
:101D3C00A3F09005DDE0FCA3E0FDECF58CEDF58A5D
:081D4C00C28D7591005388DF80
:101D5400D007D006D005D004D003D002D001D000E3
:0B1D6400D0D0D082D083D0F0D0E0328D
:10243A004389017E007C077DD0120834C374FF9F54
:10244A009005DEF074FF9E9005DDF0E0FCA3E0FD50
:09245A00ECF58CEDF58AC28D222F
:101ECA0002186FE493A3F8E493A34003F68001F2A7
:101EDA0008DFF48029E493A3F85407240CC8C33319
:101EEA00C4540F4420C8834004F456800146F6DFE8
:101EFA00E4800B0102040810204080902371E47EE4
:101F0A00019360BCA3FF543F30E509541FFEE493DC
:101F1A00A360010ECF54C025E060A840B8E493A3A3
:101F2A00FAE493A3F8E493A3C8C582C8CAC583CACE
:101F3A00F0A3C8C582C8CAC583CADFE9DEE780BE86
:0123AA000032
:1007EE00BB010689828A83E0225002E722BBFE0209
:0907FE00E32289828A83E493223C
:10080700BB010CE58229F582E5833AF583E02250A6
:1008170006E92582F8E622BBFE06E92582F8E222F0
:0D082700E58229F582E5833AF583E493220A
:10083400EF8DF0A4A8F0CF8CF0A428CE8DF0A42ED8
:02084400FE2292
:10084600BC000BBE0029EF8DF084FFADF022E4CC96
:10085600F875F008EF2FFFEE33FEEC33FCEE9DEC5F
:10086600984005FCEE9DFE0FD5F0E9E4CEFD22EDA5
:10087600F8F5F0EE8420D21CFEADF075F008EF2FEF
:10088600FFED33FD4007985006D5F0F222C398FDE0
:050896000FD5F0EA227D
:10089B0075F008758200EF2FFFEE33FECD33CDCC14
:1008AB0033CCC58233C5829BED9AEC99E582984097
:1008BB000CF582EE9BFEED9AFDEC99FC0FD5F0D674
:1008CB00E4CEFBE4CDFAE4CCF9A88222B800C1B99E
:1008DB000059BA002DEC8BF084CFCECDFCE5F0CBDC
:1008EB00F97818EF2FFFEE33FEED33FDEC33FCEB15
:1008FB0033FB10D703994004EB99FB0FD8E5E4F9D0
:10090B00FA227818EF2FFFEE33FEED33FDEC33FCBC
:10091B00C933C910D7059BE99A4007EC9BFCE99AB0
:10092B00F90FD8E0E4C9FAE4CCFB2275F010EF2FF5
:10093B00FFEE33FEED33FDCC33CCC833C810D707F5
:10094B009BEC9AE899400AED9BFDEC9AFCE899F830
:0E095B000FD5F0DAE4CDFBE4CCFAE4C8F922C3
:10232D00C2D5E830E70FB2D5E4C39BFBE49AFAE4DB
:10233D0099F9E498F8EC30E717B2D5122363120837
:10234D00D7E4C39BFBE49AFAE499F9E498F8800387
:10235D001208D730D50DE4C39FFFE49EFEE49DFD2A
:04236D00E49CFC22CE
:10096900EB9FF5F0EA9E42F0E99D42F0EC6480C805
:0609790064809845F022A5
:10097F00E8600FECC313FCED13FDEE13FEEF13FF56
:03098F00D8F1227A
:0C099200ECF0A3EDF0A3EEF0A3EFF022D8
:10099E00A8828583F0D083D0821209B51209B512D0
:1009AE0009B51209B5E473E493A3C583C5F0C583F5
:1009BE00C8C582C8F0A3C583C5F0C583C8C582C8A3
:0109CE002206
:100F3600E50830030104F82328247BF582E4340510
:100F4600F5832290057830030390057BE475F00164
:100F5600120B5C0207EE60EAC50C7002150B14C595
:100F66000C200304FF02253090057874FFF5F0028B
:100F76000B73FF0224FAE5096006D509037F0022F8
:100F860020030F1224E6EF6008050CE50C7002053D
:100F96000B22900578120B531207EEFF60E89005BE
:100FA60078E475F001120B5C80DC120F86EFC0E06E
:100FB600120F78D0E040F3809DD2038002C20390E6
:100FC6000578120B8AE4F50AF508F50BF50C750998
:100FD60000C202C200C201C204120F49FF7005AF6F
:100FE6000A7E0022B42530120F49FF24D0B40A002D
:100FF600500C75F00AC509A42509F50980E924CF26
:10100600B41A00EF5002C2E5021224D20180D8D2EF
:101016000080D4D20480D0EF120F785008120FB09F
:10102600EF600E80A9EFC0E0120F86D0E06F609EE1
:10103600EF6074120F5C80A7120F86EF6069E509F6
:10104600700705098003120F86EF601420040E1244
:101056000F36E475F001120B5CEF120AE4D509E6CF
:101066002004040508050A80BA120F7CEFC0E012BE
:101076000F78D0E05004120F5CE4FF20040E120F2C
:1010860036E475F001120B5CEF120AE4EF70DA2019
:1010960004040508050A808BE50960020509120F9C
:1010A600B0120F7CEF70C6300304E4120F5CE50A41
:1010B6006003020FE57EFF7FFF2220041174FFFC10
:1010C600FDFEFF120F36120B53120B390508020FE5
:1010D600D4D0E080D27900800A7910800679088021
:1010E60002790AD205E50960020509E9C0E0120F96
:1010F600B0EF60DD120F86BF2D04D2028003BF2B36
:1011060009120FB0EF60CA120F7CD0E0B40A028059
:1011160033B40802802EBF302770027408C205C09F
:10112600E0120F7CD0E0BF78028003BF5816050995
:10113600D509028007D50904D205800B74108019E1
:101146007002740ABF000AEFF8E4FCFDFEFF02110C
:10115600D7C0E0EF120F5CD0E0F9E4FCFDFEFFE93A
:10116600C0E0ECC0E0EDC0E0EEC0E0EFC0E0120F82
:101176007CEFF8D0E0FFD0E0FED0E0FDD0E0FCD080
:10118600F0E8604DB461004007B47B005002C2E550
:1011960024D0503DFA24F6500724F95034240AFA94
:1011A600EAB5F000502BCFA9F0A42FFF92D5E9C5E0
:1011B600F0CEA4A2D53EFE92D5E9C5F0CDA4A2D527
:1011C6003DFD92D5E9C5F0CCA4A2D53CFCC2058074
:0611D6008EE8C0E02004D9
:1011DC002A200508050A300203120B2B120F3612B7
:1011EC000B53050820000B20010DEE8FF0120B0C99
:1011FC008009120B398004EF120AE4D0E0120F5C64
:10120C00020FD4200410120F36120B530508E50BF5
:10121C00850CF0120B0C80E8120B93109E5310DF10
:10122C005810154C1011420FED4810E34F10E744C5
:10123C00103E4310DB4910E75510C04610C0451056
:0C124C00C04710192A120F4E0000101DA0
:1009CF00E709F60870FA8046E709F20870FA803EE8
:1009DF0088828C83E709F0A370FA807EE309F6081A
:1009EF0070FA8076E309F20870FA806E88828C8341
:1009FF00E309F0A370FA806289828A83E0A3F60884
:100A0F0070FA805689828A83E0A3F20870FA804ACE
:100A1F0080D280FA80C680D4806580F280318010C9
:100A2F0080A680EA809A80A880DA80E280CA80312E
:100A3F0089828A83ECFAE493A3C8C582C8CCC583A4
:100A4F00CCF0A3C8C582C8CCC583CC70E9800D8912
:100A5F00828A83E493A3F60870F9ECFAA9F0EDFB10
:100A6F002289828A83ECFAE0A3C8C582C8CCC583E9
:100A7F00CCF0A3C8C582C8CCC583CC70EA80DD8911
:100A8F00828A83E493A3F20870F980CE88F0ED2474
:100A9F0002B4040050C4F582EB2402B4040050BA2F
:090AAF002323458223900A1F73E2
:101D6F00900578EBF0A3EAF0A3E9F0A3E0FBA3E082
:101D7F00FAA3E0F91207EE7003021E1B900578E03C
:101D8F00FBA3E0FAA3E0F91207EE7003021E2790FF
:101D9F00057BE0F9A3E0FAA3E0A3C9F0A3EAF0A35F
:101DAF00E9F0900578A3E0FAA3E0F9900581EBF054
:101DBF00A3EAF0A3E9F090057EE0FBA3E0FAA3E02D
:101DCF00F91207EEFF6026900581E0FBA3E0FAA36E
:101DDF00E0F91207EE6F701590057F75F001120A8A
:101DEF00F6900582E475F001120AF680C990057E1F
:101DFF00E0FBA3E0FAA3E0F91207EE7002800D906A
:101E0F000579E475F001120AF6021D8B900578E052
:0F1E1F00FBA3E0FAA3E0F9227B007A007900220E
:100AB800EF4E6012EF60010EEDBB010B89828A8355
:100AC800F0A3DFFCDEFA2289F05007F709DFFCA962
:0C0AD800F022BBFEFCF309DFFCA9F022B9
:102254009005A6E0FFA3E0FEA3E0CF9005AFF0A3B6
:10226400EEF0A3EFF09005A9E0CBF0A3E0CAF0A351
:10227400E0C9F07F229005B2AD82AC831207EE8DE7
:10228400828C83F0A309E970010ADFEC9005A9E0D0
:0A229400FBA3E0FAA3E0F9020C3608
:100AE400BB010689828A83F0225002F722BBFE01F1
:020AF400F322EB
:100AF600C5F0F8A3E028F0C5F0F8E582158270028B
:060B06001583E038F02227
:100B0C00BB010A89828A83F0E5F0A3F0225006F734
:0F0B1C0009A7F01922BBFE06F3E5F009F3192231
:0E0B2B00C3E49FFFE49EFEE49DFDE49CFC22DB
:100B3900BB010789828A830209925005E9F8020BF1
:0A0B4900B9BBFE05E9F8020BC52256
:090B5300E0FBA3E0FAA3E0F922A3
:100B5C00F8E0FBA3A3E0F925F0F0E5821582700222
:070B6C001583E0FA38F022C6
:100B7300F8E0FBA3A3E025F0F9F0E582158270020B
:070B83001583E038FAF022AF
:090B8A00EBF0A3EAF0A3E9F0226C
:100B9300D083D082F8E4937012740193700DA3A3F1
:100BA30093F8740193F5828883E473740293686005
:060BB300EFA3A3A380DF05
:100BD100E50824AFF582E43405F583E005082290A9
:100BE10005AC3007039005AFE475F001120B5C0210
:100BF10007EE2000E97F2ED2008018EF540F2490D9
:100C0100D43440D4FF30040BEF24BFB41A00500396
:100C11002461FFE50960021509050CE50C70020568
:100C21000B30070E9005ACE475F001120B5CEF027E
:100C31000AE40224637403D2078003E4C207F508BF
:100C41009005AC120B8AE4F509F50BF50CE509608A
:100C5100077F20120C1480F5750AFFC201C200C281
:100C610002C203C205C206C208120BE0FF700D30BA
:100C710007057F00120C25AF0CAE0B22B4255FC215
:100C8100D5C204120BE0FF24D0B40A00501A75F04B
:100C91000A780930D50508B6FF0106C6A426F62054
:100CA100D5047002D20380D924CFB41A00EF5004C6
:100CB100C2E5D204020E26D20180C6D20080C0D283
:100CC1000280BCD2D580BAD20580B47F20120C1428
:100CD1002002077401B5090040F1120BD1FF120C7B
:100CE10014020C4ED208D2068095120BD1FB120BC6
:100CF100D1FA120BD1F94A4B700679F77A0E7BFFC4
:100D010020022EE509602A7E008E8275830012087A
:100D11000760060EEE650A70F0C2D5EBC0E0EAC0CE
:100D2100E0E9C0E0EE120E6DD0E0F9D0E0FAD0E0DB
:100D3100FB1207EEFF60AAEBC0E0EAC0E0E9C0E009
:100D4100120C14D0E02401F9D0E03400FAD0E0FB19
:100D5100E50A0460DCD50AD980877BFF7A0E7969C0
:100D6100D202809C791080027908C206C2088008EC
:100D7100D2D5790A8004790AC2D5E50A047002F550
:100D81000AE4FAFDFEFF120BD1FC7B0820011312CD
:100D91000BD1FD7B1030000A120BD1FE120BD1FFDB
:100DA1007B20EC3382D592D55013C3E43000069FEB
:100DB100FFE49EFEE42001039DFDE49CFCE4CBF8EE
:100DC100C201EC700CCFCECDCCE824F8F870F380E2
:100DD10017C3EF33FFEE33FEED33FDEC33FCEB33A2
:100DE100FB994002FB0FD8E9EB300105F8D0E0C4D4
:100DF10048B201C0E00AEC4D4E4F78207B0070C232
:100E0100EAB50A0040BCC0E0120E6FD0F0D0E0207D
:100E11000104C4C0E0C4B201C0F0120BFDD0F0D592
:100E2100F0EB020C4E120B930CEB530D65580CBCFE
:100E31004C0CB8420D694F0D71440D71490CD143F1
:080E41000D77550D5B460D5BBA
:100E4900450D5B470F17500CC02D0CC42E0CE72B1A
:100E59000CC8230CE5200F002A0C804800000CDF89
:100E69003F3F3F00790AA2D5200314300509B91084
:100E7900020404B9080104A2D52006025001042085
:100E890002689202B509005034C0E07F203003198E
:100E99007F30A20272067205500F120EC6C202C23C
:100EA90006C205C2087F30800F300503E9C0E01291
:100EB9000C14300503D0E0F9D0E0B509CC300517A2
:100EC9007F30B9100C120C147F583004077F7880DA
:100ED90003B90803120C143002057F2D020C147F8C
:100EE900202008F87F2B2006F322920280CF286E5B
:100EF900756C6C2900D201120BD13001F8C201784E
:100F09000930D50108F6020C802D50434958120BBF
:100F1900D12403B405004001E4900F1293120C058B
:0D0F2900743A120C05D203750904020D651F
:1024E600100A0B122526BF0D027F0A0224639005EF
:0424F600E2E0FF22FF
:082530009005E2EFF0D20A224F
:1024FA00EFC394094005EF940E4004EFB42003D3D0
:04250A008001C32267
:0C0BB900ECF608EDF608EEF608EFF62268
:0C0BC500ECF208EDF208EEF208EFF2226C
:10246300EFB40A07740D12246E740A309811A899F8
:10247300B8130CC2983098FDA899C298B811F630D9
:0724830099FDC299F59922B1
:0A2526003098FDAF99C2987E0022A4
:00000001FF
