:030000000225FFD7
:0C25FF00787FE4F6D8FD758121022646A5
:1000260074686973206973207561727420746573CE
:10003600740D0A003C2D2D2D2D2D2D44454255477E
:10004600204D5347203D3E20746869732069732014
:1000560075617274322074657374203D2D2D2D2DBB
:100066002D2D2D2D2D0D0A0008000000000000008A
:10007600000000000000000000000000000000601A
:100086004000000000020101000000000000000026
:100096000000014000000000010101010101071FED
:1000A6007E6FFFDBDFDFDFDFFFEFFEEFEFCFD7FF98
:1000B600E7F7DFD4D0C44C1656B62E8E272F3F3F17
:1000C6007F7FFFFFFFFFFFFFFFFCFCFDFCFDFFFF47
:1000D600FEFFEFE70301010101000000000000013F
:1000E60002082040E000000000000000008180803F
:1000F60000000000000000000000000000000000FA
:1001060000000001000000000080000080C080E0C8
:10011600A0E0E0E0ECEC6EEDEFFCC69E2E3EFEFFAE
:10012600FFFFFF3F0F0F0F07070303030303010141
:1001360003010101000000000000000000000004AF
:100146000004102123470FFFFFFFFFFFFFFFFFFF04
:10015600FFF003BF38C000000000000000000000F0
:1001660000000000170000003C3E1E0E07070600B8
:100176000000000000000000000000000000000079
:10018600408040F070B8E8F87C3E1F5FCFCF8F8785
:10019600D7032121000000808081818383FFFFFF38
:1001A6001F1F1F3C3C7E747C5E1C1C1C1818000024
:1001B6000000000000181C1C0212121000000000B3
:1001C600000000000000000B0F0FFFFFFFFFFFFF06
:1001D600FFFFFFFFFFF9FAFCFCC88000008080806B
:1001E6008800000000000000000000000000000081
:1001F60000000000000000000080C0B0F8FE5BDFD9
:10020600F3FC6F8DFABE3F0100000000000040487D
:1002160000080090909000010306060D8FDFFCFB9E
:10022600FCF8F0E0E0C0C0C0E0F0FCF87C7E7E5C4C
:10023600505870606064204040C08080000000001C
:100246000000000000000000003F3F7F3FFFFFFF6F
:10025600FFFFFFFF7F7FC71F7BE3CE0F0F9F0707C1
:100266000305000000000000000000800000000000
:100276000000E0F0F8FCF2FFFFFFFF8F1BFFFFFF1F
:10028600FFFFFFFFFFFFFFFFFEFCF8F8F0F0E0E0E6
:10029600E0F0F0F0F9F9F9FCFCFEFFFFFF3F1F1F4D
:1002A6001F3F3F7FFFFFFFFFFFFDF9F8F0E1E1E3AE
:1002B600E1E1E0E0E0E0E0E0F0F0D8E6FCFC7870B8
:1002C600683010381C5C1C78F8F8FEFEFEFFFFFF55
:1002D600FFFFFFFFF7FF7FF88003071BE7FFF8210B
:1002E600200101196A000000C48080C0C0E0B47A11
:1002F600FEFEEFBFFFFFFFEFF7F9FFFFFFFF0F0F58
:100306000F0F1F0F0F1F1F3F1F1F1F1F1F0F0F1F37
:100316001F1F1F1F1F1F1F3F3F3F3F3F3EB87C3C15
:100326007CF0F8FCFCFFFFFFFFFFFFBFBF3F7FFF36
:100336007F7F3F3F3F3FFFBF27E7E3E9379D9810A9
:10034600B020202021212123232707071F1F1F1F3D
:100356009F1F9F7F7FFFBFBF3F3F3C38187F7E7C3C
:100366007CF878F0F0000000FFFFFFAF3719181F88
:100376000F0F0C070707030301010101000000002E
:1003860000000000000000000080808080888080DF
:1003960048C8000020800000A8640494E0F1F9FD3C
:1003A600FBF7FBF7DF7F3F7F0F495121CE7E388871
:1003B60010C4C0BA727F77F7FFE7EFCCDFDE1F0B02
:1003C60000101008000000101878785878FCFEF02D
:1003D600F0E7E7CFBFBF3E7C087020606040C0807A
:1003E600808080000000000007070707000000006B
:1003F60000000000000000000000000004040404E7
:100406000004040404060606070707070707040690
:100416000600040507040606040607070507040781
:10042600070707070704060007050602050100007F
:10043600040707070707060606050505070301055E
:10044600000006000404000002000000040507077F
:10045600030707070707070706040404000200004E
:10046600010307070400000000000000E060606070
:1004760060606060606060E00000E0E0E0E0E0E0B6
:100486000000606060808060608080000060808026
:1004960000000000E0E0606060606060606060E056
:1004A600E00000000000000000000000FF00007EE9
:1004B6007E7E7E7E7E0000FF00009F9F1919070743
:1004C6009E9E80E0E0FFFF787807070606F89F9F6C
:1004D60006060000FFFF00007E7E7E7E7E0000FF97
:1004E600FF000000000000000000000033F3F3C32B
:1004F600C303033333333333C0C00303CCCCC3C38A
:100506003030CF0000C3C3FCFC3F3F3C3C0F0C0C1B
:100516003F3FC0C0C3C33333C3F3F33333F3F3F303
:10052600F30000000000000000000000FB1F1F9BFE
:100536009B9C9C03031C1C9BE7E7636380801C1C3D
:1005460007071BE0E06464E7E718189F9F001C1C80
:100556001C1CF8F8E4E4E4E460989883830303FF42
:10056600FF00000000000000000000002720201F00
:100576001F3F3FE0E0C0C0D9D9D90606FFFFE6E637
:10058600D8D8E601012626E7E7D8D8DFDFD81E1E31
:10059600C0C0FFFF21213F3FE0D9D9C1C12626E7D0
:1005A600E70000000000000000000000CCCCCCCC2E
:1005B600CCCFCFC3C3CFCFCC0F0F3333FCFC0F0F41
:1005C60003030C3030F3F3F0F0CFCFCFCFCFCCCC4A
:1005D600FCFC0F0FCCCC0C0CFF333330303C3CF31F
:1005E600F30000000000000000000000FF00007E95
:1005F6007E7E7E7E7E0000FF0000878767677878B4
:10060600E6E67EE0E07E7E78786767E7E7667F7FEE
:10061600E7E79E9E86867E7E07FFFF1818E1E1FECD
:10062600FE000000000000000000000007060606AD
:100636000606060606060607000007070606000069
:100646000101060707000000000606070706060662
:100656000707010107070000000101000007070165
:100666000100000000000000000080E0F0F0F8F853
:10067600FCFEFEDE9F1F1F3F7FFFFEFEFEFCFCF81A
:10068600F8F0E08000000000F0FEFFFFFFFFFFFF34
:10069600FFF3030303F3F2F0F0000303F3F3FFFFAA
:1006A600FFFFFFFFFEF00000010F1F7FFFFFFFFFB0
:1006B600FFFFF8F0F0F3F3F7F3000000FFFFFFFF92
:1006C600FFFF7F1F1F010000000000000001030361
:1006D600070F0F0F1F1F1F1F1F1F0F0F0F070703E8
:1006E6000300000000000000E0E0E0E0E0E0E0E001
:1006F600C080000000C0E0E0E0E0E0C0C000000014
:10070600E0E0E0E00000C0E0E0E0C000C0E0E0F0D3
:10071600FCFFE0E0C000C0E0E0E0C0C0E0E0E0C018
:1007260080C0E0E0E0C00000FFFFFFFF0F0F0FFFFB
:10073600FFFFFC000087CFC7C7C7FFFFFFFF000012
:10074600FFFFFFFF0000FFFFFFFFFF000F0FFFFF90
:10075600FFFF2F0F0700FFFFFFFF0F0F0FFFFFFF2A
:10076600FF0F0FFFFFFFFF00FFFFFFFFFEFEFEFF75
:100776007F3F0700FFFFFFFF0F0FFFFFFFFF000098
:100786000F3F7F7F7E7EFFFFFFFFFF000000FFFF22
:10079600FFFF85000000FFFFFFFF000000FFFFFFD7
:1007A600FF0000FFFFFFFF00FFFFFFFF000000004C
:1007B600000000003F7F7FFFFCFCFFFFFF7F000083
:1007C60000FEFEFEFEFEFFFF7F3F030000007FFFF0
:1007D600FFFF520000007FFFFFFF000000FFFFFF4A
:1007E600FF00007FFFFFFF00000000000000000088
:1007F60000000000000000000000000000000000F3
:1008060000000000000000000000000000000000E2
:100816000000C0C010080808040406060604040404
:10082600050505050505050505050400000008087C
:10083600F2020204F8F800000000000000000000C8
:1008460000000000000000000000000000000000A2
:10085600000000000000000000007C828200010110
:1008660001700707080808001010D01010101010AB
:1008760010101010F00000601010000404000202B6
:1008860003020202F8F80000000000000000000069
:1008960000000000000000008080402000009090D2
:1008A6009040202028202000101010111112F4076B
:1008B60007000000000000803C3C818080404040F2
:1008C6004000000E004040404646481010A0C0C000
:1008D600E010100803030000000000000000000004
:1008E6000000000000F0F0060000C038232331109D
:1008F600105050501080808080802020203E2000A4
:100906000040C0C010040403010100C0C0100C0C5C
:1009160004020201010101000000000000000000C5
:10092600E107070000000000000000000000C020F2
:1009360020088484621111080404834111110AC637
:10094600C62610100C0C0C844848282929111112AF
:1009560012020F0F0000000000001F000000000040
:100966000000000000000000000000808030070743
:100976000000000000000000000000E00E0E00C0B5
:10098600C00C010100808030060600E0040401006E
:1009960000C030300401018030300C0202023C00FD
:1009A60000FE000000000000FFFF00000000000045
:1009B60000000000000000000000C6191900101019
:1009C60020000000000000000000007F8080007F03
:1009D6007F808080807F7F000000FE00000000F89E
:1009E600F8010000003C3C010000000000FC000093
:1009F600007F8080402020203F3F00000010101024
:100A0600100808888044444221210010100804047C
:100A160002000000000000000000000000000101CC
:100A2600010202020404040808081314040420271F
:100A36002740404040484848242424020213000826
:100A4600080603030404040404040002020200006E
:100A5600010101000000000000000000000000008D
:100A660000000000000000000000F8F8040202F296
:100A7600080800000004050505050505050505052A
:100A8600040404060606040408080810C0C0000092
:100A96000000000000000000000000000000000050
:100AA6000000000000000000000000000000000040
:100AB60000000000000000000000F8F80202020337
:100AC6000202000404001010600000F01010101064
:100AD6001010101010D01010000808080707700139
:100AE60001010082827C000000000000000000007E
:100AF60000000000000000000000000000000000F0
:100B0600000000000000000000000303081010E0D1
:100B1600C0C0A01010484646404040000E000040AD
:100B26004040408080813C3C80000000000000077F
:100B360007F41211111010100020202820204090D8
:100B4600909000002040808000000000000000001F
:100B5600000000000000000000000000000707E1A0
:100B66000000000000000000000101010102020473
:100B76000C0C10C0C000010103040410C0C04000EA
:100B860000203E2020208080808080105050501011
:100B96001031232338C0000006F0F00000000000EA
:100BA600000000000000000000000000000000003F
:100BB60007073080800000000000000000000000F1
:100BC60000000000001F0000000000000F0F0212CE
:100BD6001211112929284848840C0C0C101026C61D
:100BE600C60A111141830404081111628484082085
:100BF60020C00000000000000000000000000020EF
:100C06001010001919C600000000000000000000C6
:100C1600000000000000FFFF000000000000FE00D2
:100C2600003C0202020C3030800101043030C0006A
:100C360000010404E00006063080800001010CC0BB
:100C4600C0000E0EE00000000000000000000002E0
:100C5600040408101000212142444480880808102A
:100C66001010100000003F3F2020204080807F00B1
:100C76000000FC0000000000013C3C00000001F800
:100C8600F800000000FE0000007F7F808080807FEB
:100C96007F0080807F000000000000000000000050
:100CA600000000000000000000000000000101013B
:100CB60000000202020004040404040403030608FC
:100CC6000800130202242424484848404040402794
:100CD600272004041413080808040404020202016D
:100CE60001010000000000000E1F1FFFFF1F1F1F55
:100CF6001F1F1F1F1F1F1F1F1F1F1F1F1F1F1F1FFE
:100D06001F1F1F1F1F1FFFFF1F1F0E00000000FFDA
:100D1600F000E0E0E0E0E0E0E0E0E0E0E0E0E0E09D
:100D2600E0E0E0E0E0E0E000E0FF030000000000BB
:100D3600000000030F3C73EFDFBF7FFFFFFFFFFFE5
:100D4600FFFFFFFF7FBFDFEF733C0F0700000000D0
:100D560000000000000000000000000103071CF96D
:100D6600E71FFF1FE7F91C0E03010000000000004B
:100D7600000000000000000000000000000080C02D
:100D8600E0701F0F6005100F1F70E0C080000000AC
:100D9600000000000000000000000000C0F0381E47
:100DA60007030100000000080063000000000103C3
:100DB600070E38F0C0000000000000000000FF0F22
:100DC60000000080C0E0F0F0F8FDFEFEFEFCFAF048
:100DD600F0E0C0800000000FFFC000000070F8F8CF
:100DE600FFFFF8F8FAFBFBFBFBFBFBFBFBFBFBFB4C
:100DF600FBFBFBFBFBFBFBFBFAF8F8FFFFF8F870CD
:100E0600FEFFFFFFFE18981810101010303030301B
:100E16006060C0C08000000000000000000000000C
:100E2600000000000000000000008080C0C060607C
:100E3600B0B0B03010101010181818FEFFFFFFFEEB
:100E4600FFFFFFFFFF00FFFFFEFCF8F0C080008001
:100E5600000000010103070E1C383060C0C0C0C08E
:100E6600C0C0C06060B098DCEEF7FBFDFEFEFFFF81
:100E7600FFFFFF0000000000000000FFFFFFFFFF74
:100E8600FFFFFFFFFF00FFFFFFFFFF7F1F0F1700A2
:100E96000004040001000484C0E16134181A181A21
:100EA6001A1A1A37776FCF9FBF7FFFFFFFFFFFFF2B
:100EB600FFFFFF0000000000000000FFFFFFFFFF34
:100EC600FFFFFFFFFFC0CFC7C3C140406060606047
:100ED600303018180C06070301000000000000005F
:100EE600000000000000000103070E0D1B3B373712
:100EF6006F6F6F404040C0C0C0C0C0FFFFFFFFFF24
:100F060003070707030000000000000000000000C0
:080F1600203078303028203033
:101FF400E4900574F0A3F0A3F0A3F075910175913A
:102004000153B1FE43B20175910153B1FD43B202D4
:1020140075910153B1FB43B20475910153B1F74378
:10202400B20875910153B5FE43B60175910153B5DC
:10203400FD43B60275910153B5FB43B60475910196
:1020440053B5F743B60875910153B5DF43B6207510
:10205400910153B5EF43B61075910153C2FB43C3CD
:102064000475910153BDEF43BE1075910153BDDF5B
:1020740043BE2075910153C2F743C308C2B375919F
:102084000253F1F043F10375910253F10F43F13020
:1020940075910153B3BF53B4BF75910153B37F53CB
:1020A400B47F75910253EBF043EB0875910253EB47
:1020B4000F43EB8075910153B9FE53BAFE7591013C
:1020C40053B9FD53BAFD12256F7F14122C0DC28D26
:1020D400D28CD2A990057C7401F0A31210CE000119
:1020E400C2007F007E367D6E7C01121BD27D017F93
:1020F4000612268BD2AF90057C7404F0A31210CE86
:102104000001C2007F007E367D6E7C01121BD2125C
:102114002B7E12283A122BE47BFF7A0079267F0665
:10212400122A707BFF7A00793A12277B1219888071
:01213400FBAF
:102C7E00E4FDFCC3ED9FEC9E5015E4FBFA0BBB008C
:0F2C8E00010ABA08F8BB4CF50DBD00010C80E43B
:012C9D002214
:102CBE00EF540FF5A0EFC4540FF580C2A5D2A47F38
:0B2CCE00017E00122C7EC2A4022C7EAE
:102C9E00EF540FF5A0EFC4540FF580D2A5D2A400C7
:102CAE00000000000000C2A400000000000000228E
:102B7E00E4F591E5B154DF4420F5B1D2B2E4F5911C
:102B8E00E5B154EF4410F5B17FD07E07122C7E7F55
:102B9E003E122CBE7F40122CBE7FB8122CBE7FC0C0
:082BAE00122CBE7F3F022CBE79
:10283A00E4F591E5B154DF4420F5B1D2B2E4900554
:10284A00D5F0A3F09005D5E0FEA3E0FFC39408EE0F
:10285A0064809480502AEF24B8FF122CBEE4FDFC59
:10286A00E4FF122C9E0DBD00010CED64404C70F08B
:10287A009005D6E004F070CC9005D5E004F080C451
:0A288A007F40122CBE7FB8022CBE66
:102BB600A905E4F591EB70047E0180027E00EEC467
:102BC6003354E0FEE5B154DF4EF5B1EB24FF92B28B
:0E2BD600EF2440FF122CBEE924B8FF022CBEF3
:0B2220009005D5EFF0A3EDF0A3EBF06C
:10222B009005D5E0FF9005DDF0A3EDF0E4A3F0A35E
:10223B00F09005DCE0FE131313541F9005E1F0E45E
:10224B00A3F0A3F0122BB69005D6E09005E0F0902A
:10225B0005D6E0FF9005E1E02FFFE433FE9005E0AB
:10226B00E0FDC39FEE6480F8748098400302230660
:10227B009005D5E0FF9005D7E0FB122BB69005D566
:10228B00E09005DFF09005D5E0FF9005DBE02FFF38
:10229B00E433FE9005DFE0C39FEE6480F874809812
:1022AB0050509005D8E0FBA3E0FAA3E0F99005E2CB
:1022BB00E0FEA3E0F5828E83120F37FF122C9E9067
:1022CB0005E3E004F070069005E2E004F09005DF12
:1022DB00E0B43F16A3E0FD9005D7E004FBE4FF124A
:1022EB002BB6E4F59153B1DFD2B29005DFE004F0E9
:0B22FB0080939005E0E004F002225AFE
:0123060022B4
:1028940012283A9005D87401F0A37400F0A37400D0
:1028A400F0A37440F0A3F0E4FBFDFF122220900596
:1028B400D874FFF0A37406F0A3746EF0A37420F030
:1028C400A3F07B01E4FD7F0A1222209005D874FF57
:1028D400F0A37406F0A374EEF0A37440F0A3742084
:0A28E400F07B017D04E4FF022220D6
:10298D002009499005E6E020E02012283A9005D86C
:10299D0074FFF0A3740CF0A374EEF0A37423F0A3F2
:1029AD007440F0E4FBFD7F2D801F12283A9005D86E
:1029BD0074FFF0A3740EF0A37406F0A37440F0A39B
:0D29CD007423F0E4FB7D027F201222202203
:102B3F00900402E0FEA3E0FFD39400EE9400402E39
:102B4F00EF9005D820E00C74FFF0A37407F0A37486
:102B5F00EE800A74FFF0A3740AF0A3746EF0A374EE
:0F2B6F0050F0A37440F0E4FBFD7F1812222022E7
:102AFF004104D100410540004104CF004105410090
:092B0F004204CD00004104D00095
:03002300021E0DAD
:101E0D00C0E0C0F0C083C082C0D075D000C000C09B
:0D1E1D0001C002C003C004C005C006C0071C
:101E2A009005D4E4F0209803021FD0900540E024E6
:101E3A0042F582E43405F583E599F0900540E00423
:101E4A00F0E0FF2441F582E43405F583E0640A708A
:101E5A006C900541E06401705774422FF582E434B6
:101E6A0005F583E4F09004CFE075F032A424DCF9A0
:101E7A00740435F0A801FC7D017B017A05794212D0
:101E8A0011CB900540E4F09004CFE0C394015005D3
:101E9A00E004F080059004CFE4F09004D17401F0DE
:101EAA007E007F327D00FB7A0579421211E8800DAF
:101EBA00900541E0700704F0900540E4F0900400BA
:101ECA00E064016003021F72900540E02441F5823C
:101EDA00E43405F583E0FFC39430400BEFD3943923
:101EEA005005EF540F801F900540E02441F582E42D
:101EFA003405F583E0FFC394414021EFD394465063
:101F0A001BEF540F2409FF9004D0E024D2F582E499
:101F1A003404F583EFF09004D0E004F09004D0E0AC
:101F2A00B40245FF24D0F582E43404F583E0C454B6
:101F3A00F0FE74D12FF582E43404F583E04EFF906D
:101F4A0004CDE0FCA3E02400F58274003CF583EFA5
:101F5A00F09004CEE004F070069004CDE004F09016
:101F6A0004D0E4F0900540F0900540E0FFD39430AF
:101F7A00404E74422FF582E43405F583E4F0900470
:101F8A00CFE075F032A424DCF9740435F0A801FC22
:101F9A007D017B017A0579421211CB9004CFE0C30F
:101FAA0094015005E004F080059004CFE4F0900518
:101FBA0040E4F0FE7F32FD7B017A0579421211E896
:0F1FCA007591005398FE3099067591005398FD5C
:101FD900D007D006D005D004D003D002D001D0005C
:0B1FE900D0D0D082D083D0F0D0E03206
:101BD2009005781210C290057CE014B4070040030F
:101BE200021E0C901BF375F003A4C58325F0C58378
:101BF20073021C08021C53021C68021CE2021D86AE
:101C0200021C08021C68E4F591759850438920F57E
:101C120091438780F591438E10F59153C4DF7B1079
:101C2200FAF9F8900578E0FCA3E0FDA3E0FEA3E05A
:101C3200FF12100790057DE0F8A3E0F9A3E0FAA3F4
:101C4200E0FB121007EFF404F58DE4F591438840B0
:101C520022E4F591759850F59143878053C4F8F5C5
:101C62009143C4208009E4F59175F85075C4887BCE
:101C720010FAF9F8900578E0FCA3E0FDA3E0FEA3DA
:101C8200E0FF12100790057DE0F8A3E0F9A3E0FA67
:101C9200A3E0FB121007C3E49FFFE49EFE74019DC4
:101CA200FDE49CFC78081210AF8FC6E47B10FAF9B1
:101CB200F8900578E0FCA3E0FDA3E0FEA3E0FF12AC
:101CC200100790057DE0F8A3E0F9A3E0FAA3E0FB9A
:101CD200121007C3E49FFFE48FC5F59143C40822A5
:101CE200E4F59143D601F59143D701F59143D7022B
:101CF200F59153D6EFF59153D6F77B08FAF9F890A0
:101D02000578E0FCA3E0FDA3E0FEA3E0FF121007CC
:101D120090057DE0F8A3E0F9A3E0FAA3E0FB12103E
:101D220007EF24FFFFEE34FFED34FFEC34FFE48FC6
:101D3200DB53DCF07B08FAF9F8900578E0FCA3E0CD
:101D4200FDA3E0FEA3E0FF12100790057DE0F8A3DB
:101D5200E0F9A3E0FAA3E0FB121007EF24FFFFEE85
:101D620034FFFEED34FFFDEC34FFFC78081210AFB7
:101D7200EF540F42DCE4F59143D74053D7CFF591AE
:101D820043D68022E4F59143D701F59153D6EFF57E
:101D92009153D6F790057DE0F8A3E0F9A3E0FAA30A
:101DA200E0FB900578E0FCA3E0FDA3E0FEA3E0FFEA
:101DB200121007EF24FFFFEE34FFED34FFEC34FF87
:101DC2008FDB90057DE0F8A3E0F9A3E0FAA3E0FB46
:101DD200900578E0FCA3E0FDA3E0FEA3E0FF121073
:101DE20007EF24FFFFEE34FFFEED34FFFDEC34FF7E
:101DF200FC78081210AFEF540FF5DC75910243E73F
:0B1E02004053E7CF75910243E68022B9
:1028EE00E4F591EF24FC601C14602824FE600C04B7
:1028FE00703B3098FDAE99C298803230F8FDAE9A9A
:10290E00C2F88029E4F59153D6FDE5DF20E1FBAE58
:10291E00D9801A75910253E6FDE5DF7C0060047DD7
:0F292E000180027D00ED64024C60EEAED9AF0671
:01293D002277
:1027DB00E4F591EF24FC602414603824FE601004AF
:1027EB00704CE4F591C2998D993099FDC29922E410
:1027FB00F591C2F98D9A30F9FDC2F922E4F59153A6
:10280B00D6FB8DD9E5DF44F764F760F8E4F5915317
:10281B00D6FB2275910253E6FB759102AF058FD95A
:0F282B00E5DF44F764F760F875910253E6FB228E
:102A7000EF24FC602F24FD601704703C120F1EFD34
:102A800060367F061227DB740129F9E43AFA80ECFC
:102A9000120F1EFD60227F071227DB740129F9E463
:102AA0003AFA80EC120F1EFD600E7F041227DB74D1
:092AB0000129F9E43AFA80EC2254
:10268B00EF24FC603414605024FE6018047069ED74
:10269B0014600A047062E4F59153A8EF22E4F591FB
:1026AB0043A81022ED14600A04704DE4F591539C7D
:1026BB00FE22E4F591439C0122ED14600F04703867
:1026CB00E4F59153DDFDF59153DDFE22E4F59143E5
:1026DB00DD02F59143DD0122ED14601004701975D4
:1026EB00910253DDFD75910253DDFE22759102437C
:0926FB00DD0275910243DD0122AC
:102C5D00E4F591759850438920F591438780F5915E
:102C6D00538EEFF59153C4DF758DFFF59143884079
:012C7D002234
:102135002B435245473A20002C002B435245473A42
:102145002025642C256420252A5B5E0D0A5D0D0A79
:10215500002B435245473A002B435245473A202529
:102165006420252A5B5E0D0A5D0D0A003C2A2A2A99
:102175002A2A555243203D20257300494D475F5279
:102185004543560D0A000D0A2D2D207561727420E8
:102195007265632025732D2D0D0A0054494D453A6E
:1021A50025640D0A003C2D2D2D2D2D2D74696D6591
:1021B500722076616C7565203D2025642D2D2D2DB1
:1021C5002D2D2D2D2D0D0A003C2D2D2D2D2D2D4484
:1021D50045425547204D5347203D3E2055415254D9
:1021E5004C494E452045584954203D2025642D2D08
:1021F5002D2D2D2D2D2D2D0D0A002B435245473A02
:1022050000494D475F53544152543A00494D475F89
:0B22150053544F500054494D453A000F
:0F2B1800C1094104CC0041040100420402000045
:0B277B00900578EBF0A3EAF0A3E9F072
:102786009005A37401F0A37405F0A3747BF0900583
:1027960078E0F9A3E0FAA3E09005A6C9F0A3EAF071
:1027A600A3E9F09005A3E0F9A3E0FAA3E09005A958
:1027B600C9F0A3EAF0A3E9F07B017A047904122AAE
:1027C600269005A3E4F0A3F0A3F07B017A04790434
:0527D6007F04022A70DF
:102307009005EBEBF0A3EAF0A3E9F07F04122A7043
:1023170090057B74FFF0A37421F0A37435F090054A
:10232700EBE0FBA3E0FAA3E0F91224B0EA494B6023
:102337005190057B74FFF0A37421F0A3743DF090D6
:1023470005EBE0FBA3E0FAA3E0F91224B0EA494B5E
:10235700603090057B74FFF0A37421F0A3743FF005
:102367009005EEE0F9A3E0FAA3E090057EC9F0A39B
:10237700EAF0A3E9F09005EEE0F9A3A3E090058168
:10238700803C90057B74FFF0A37421F0A37456F092
:102397009005EBE0FBA3E0FAA3E0F91224B0EA49C9
:1023A7004B603190057B74FFF0A37421F0A3745D3B
:1023B700F09005EEE0F9A3E0FAA3E090057EC9F0FE
:1023C700A3EAF0A3E9F09005EBE0FBA3E0FAA3E0B2
:0523D700F91216EF22CF
:101988009004CFE0FF9004CCE06F7003021BD1E01D
:1019980004F0E075F032A424AAF9740435F0FA9042
:1019A800057B7401F0A3EAF0A3E9F07BFF7A2179C3
:1019B8007112277B9004CCE075F032A424AAF97444
:1019C8000435F0FA7B0190057B74FFF0A37422F0D4
:1019D800A37406F01224B0EA494B601E9004007408
:1019E80001F0E49004D0F09004CDF0A3F07E04FF61
:1019F800FD7B017A0079001211E89004CCE075F0C3
:101A080032A424AAF9740435F0FA7B0190057B749A
:101A1800FFF0A37422F0A37411F01224B0EA494B2A
:101A28007003021AEE9004CDE0FEA3E02400F582D4
:101A380074003EF583E4F0900400F09004D0F0D2F6
:101A48000912283A9004CDE0FEA3E0FF12293E12C5
:101A58002AB97E047F007D007B017A00790012118B
:101A6800E812256F9005D87401F0A37400F0A374F0
:101A780000F0A37440F0A3F0E4FBFDFF1222207FE6
:101A8800E87E03122C7E9005D874FFF0A37406F04C
:101A9800A3746EF0A37420F0A3F07B01E4FD7F0A29
:101AA8001222209005D874FFF0A37406F0A374EEF8
:101AB800F0A37440F0A37420F07B017D04E4FF12CE
:101AC80022207FD07E07122C7E7BFF7A2179807FAF
:101AD80006122A707FD07E07122C7E7BFF7A21792E
:101AE800807F06122A709004CCE075F032A424AAF4
:101AF800F9740435F0FA7B0190057B74FFF0A37448
:101B080022F0A3741AF01224B0EA494B7003021BA6
:101B1800B39004CCE075F032A424AAF9740435F02B
:101B2800FA90057B7401F0A3EAF0A3E9F07BFF7A51
:101B380021798B12277B9004CCE075F032A424AA7B
:101B4800F9740435F0FA7B01C00390057B74FFF04B
:101B5800A37421F0A374A0F0A3EBF0A37404F0A382
:101B68007402F0D0031216EF900402E0FEA3E0FF27
:101B7800D39400EE6480948040197C007D3C120F61
:101B880064EF241EFFE43E900402F0A3EFF0122855
:101B98003AD2B37BFF7A2179AA900402E0FFA3E04E
:101BA80090057BCFF0A3EFF012277B122BE4900473
:101BB800CFE0F990057BE4F0A3F0A3E9F07BFF7A8E
:0A1BC8002179CD12277B0219882233
:102BE400E49004CFF09004CCF0900541F0FE7F32E5
:102BF400FD7B017A0479DC1211E87E007F327D00CE
:092C04007B017A05790E0211E84A
:042B27004105F10073
:1029DA008FA6EEF5A775AEFFE4F591A2AF920AC2F3
:1029EA00AF75C7AA75C755439F01A20A92AFF59161
:1029FA00A2AF920AC2AF75C7AA75C75543A501A26D
:102A0A000A92AF75AF22F591A2AF920AC2AF75C70B
:0C2A1A00AA75C75543A401A20A92AF227E
:102704008FA6EEF5A7E4F591A2AF920AC2AF75C702
:10271400AA75C755439F01A20A92AFF591A2AF9241
:102724000AC2AF75C7AA75C75543A501A20A92AFDD
:1027340075AF21AF058FAEF591A2AF920AC2AF7506
:10274400C7AA75C75543A401A20A92AFF591A2AFD7
:10275400920AC2AF75C7AA75C75553A5FEA20A92BD
:10276400AFF591A2AF920AC2AF75C7AA75C7555308
:072774009FFEA20A92AF22B2
:040003008F828E83D7
:03000700E493FF80
:01000A0022D3
:102AB900E490057AF0A3F0C2AF7F807E7F1229DA15
:102AC9007D011227049004CDE0FEA3E0FF7C007D88
:102AD90064120F767F817E7F1227049004CDE0FE79
:102AE900A3E0FF7C007D64120F76AD077F827E7FB5
:052AF900122704D2AF1A
:012AFE0022B5
:08293E00900578EEF0A3EFF024
:10294600E4FBFA7F807E7B1229DA0BC3900579E0DF
:102956009B900578E09A402EEB547F700BEB248019
:10296600FFEA347BFE1229DAEB247FFFEA347BFE92
:1029760074FF2BF58274FF3AF583E0FD1227040BF2
:06298600BB00010A80C540
:01298C002228
:10256F00E4900578F0A3F07F807E7F120003900542
:10257F00F1EFF064016003122CFB7F827E7F12006B
:10258F0003EF75F064A4FDACF07F811200037E00B1
:10259F00ED2FFFEE3CFE9004CDF0A3EFF0D39400AF
:1025AF00EE9400404AE4900578F0A3F09004CDE05B
:1025BF00FEA3E0FF900578E0FCA3E0FDC39FEC9E37
:1025CF00502DED2480FFEC347BFE12000390057834
:1025DF00E0FCA3E02400F58274003CF583EFF0905B
:0F25EF000579E004F070C5900578E004F080BD38
:0125FE0022BA
:0E2CED00EF75F064A47C002DFFEC35F0FE22A4
:0A2CFB00E49004CDF0A3F0022AB922
:102B2B004205E700004205E900004105E6004205C9
:032B3B00E40000B3
:03000B000223DCF1
:1023DC00C0E0C0F0C083C082C0D075D000C000C0C7
:0D23EC0001C002C003C004C005C006C00748
:1023F9009005E5E004F070069005E4E004F090052E
:10240900E4E0FEA3E0FF7C007D32120F76ED4C7014
:102419002DD3900403E09400900402E09400401E40
:10242900A3E024FFF0900402E034FFF0122B3F9068
:102439000402E07002A3E07005C2B312289490056B
:10244900E4E0FEA3E0FF7C007D32120F76ED4C70D4
:1024590007A3E004F012298D9005E4E0FEA3E0FF54
:10246900E4FCFD7B607AEAF9F8C3121099500790F1
:1024790005E4E4F0A3F09005E7E0FCA3E0FDECF54A
:0C2489008CEDF58AC28D7591005388DF40
:10249500D007D006D005D004D003D002D001D0009B
:0B24A500D0D0D082D083D0F0D0E03245
:102C0D004389017E007C077DD0120F64C374FF9F42
:102C1D009005E8F074FF9E9005E7F0E0FCA3E0FD61
:092C2D00ECF58CEDF58AC28D2254
:10260B00021FF4E493A3F8E493A34003F68001F2D2
:10261B0008DFF48029E493A3F85407240CC8C333D0
:10262B00C4540F4420C8834004F456800146F6DF9F
:10263B00E4800B0102040810204080902AFFE47E06
:10264B00019360BCA3FF543F30E509541FFEE49394
:10265B00A360010ECF54C025E060A840B8E493A35B
:10266B00FAE493A3F8E493A3C8C582C8CAC583CA86
:10267B00F0A3C8C582C8CAC583CADFE9DEE780BE3E
:012B3E000096
:100F1E00BB010689828A83E0225002E722BBFE02D1
:090F2E00E32289828A83E4932204
:100F3700BB010CE58229F582E5833AF583E022506F
:100F470006E92582F8E622BBFE06E92582F8E222B9
:0D0F5700E58229F582E5833AF583E49322D3
:100F6400EF8DF0A4A8F0CF8CF0A428CE8DF0A42EA1
:020F7400FE225B
:100F7600BC000BBE0029EF8DF084FFADF022E4CC5F
:100F8600F875F008EF2FFFEE33FEEC33FCEE9DEC28
:100F9600984005FCEE9DFE0FD5F0E9E4CEFD22ED6E
:100FA600F8F5F0EE8420D21CFEADF075F008EF2FB8
:100FB600FFED33FD4007985006D5F0F222C398FDA9
:050FC6000FD5F0EA2246
:100FCB0075F008758200EF2FFFEE33FECD33CDCCDD
:100FDB0033CCC58233C5829BED9AEC99E582984060
:100FEB000CF582EE9BFEED9AFDEC99FC0FD5F0D63D
:100FFB00E4CEFBE4CDFAE4CCF9A88222B800C1B967
:10100B000059BA002DEC8BF084CFCECDFCE5F0CBA4
:10101B00F97818EF2FFFEE33FEED33FDEC33FCEBDD
:10102B0033FB10D703994004EB99FB0FD8E5E4F998
:10103B00FA227818EF2FFFEE33FEED33FDEC33FC85
:10104B00C933C910D7059BE99A4007EC9BFCE99A79
:10105B00F90FD8E0E4C9FAE4CCFB2275F010EF2FBE
:10106B00FFEE33FEED33FDCC33CCC833C810D707BE
:10107B009BEC9AE899400AED9BFDEC9AFCE899F8F9
:0E108B000FD5F0DAE4CDFBE4CCFAE4C8F9228C
:10109900EB9FF5F0EA9E42F0E99D42F0EC6480C8CE
:0610A90064809845F0226E
:1010AF00E8600FECC313FCED13FDEE13FEEF13FF1F
:0310BF00D8F12243
:0C10C200ECF0A3EDF0A3EEF0A3EFF022A1
:1010CE00A8828583F0D083D0821210E51210E5122B
:1010DE0010E51210E5E473E493A3C583C5F0C58350
:1010EE00C8C582C8F0A3C583C5F0C583C8C582C86C
:0110FE0022CF
:10166600E50830030104F82328247BF582E43405D9
:10167600F5832290057830030390057BE475F0012D
:1016860012128C020F1E60EAC50C7002150B14C5EF
:101696000C200304FF022D0F90057874FFF5F0026D
:1016A60012A3FF022CD9E5096006D509037F0022A3
:1016B60020030F12000EEF6008050CE50C70020502
:1016C6000B22900578121283120F1EFF60E8900518
:1016D60078E475F00112128C80DC1216B6EFC0E0C9
:1016E6001216A8D0E040F3809DD2038002C2039078
:1016F60005781212BAE4F50AF508F50BF50C75092A
:1017060000C202C200C201C204121679FF7005AF00
:101716000A7E0022B42530121679FF24D0B40A00BE
:10172600500C75F00AC509A42509F50980E924CFEE
:10173600B41A00EF5002C2E5021954D20180D8D281
:101746000080D4D20480D0EF1216A850081216E0FA
:10175600EF600E80A9EFC0E01216B6D0E06F609E73
:10176600EF607412168C80A71216B6EF6069E50951
:101776007007050980031216B6EF601420040E12D6
:101786001666E475F00112128CEF121214D509E6F2
:101796002004040508050A80BA1216ACEFC0E01250
:1017A60016A8D0E0500412168CE4FF20040E121680
:1017B60066E475F00112128CEF121214EF70DA2043
:1017C60004040508050A808BE5096002050912165E
:1017D600E01216ACEF70C6300304E412168CE50A6C
:1017E60060030217157EFF7FFF2220041174FFFCA1
:1017F600FDFEFF1216661212831212690508021701
:1018060004D0E080D27900800A79108006790880B9
:1018160002790AD205E50960020509E9C0E0121657
:10182600E0EF60DD1216B6BF2D04D2028003BF2B97
:10183600091216E0EF60CA1216ACD0E0B40A0280B4
:1018460033B40802802EBF302770027408C205C068
:10185600E01216ACD0E0BF78028003BF5816050927
:10186600D509028007D50904D205800B74108019AA
:101876007002740ABF000AEFF8E4FCFDFEFF0219CD
:1018860007C0E0EF12168CD0E0F9E4FCFDFEFFE99C
:10189600C0E0ECC0E0EDC0E0EEC0E0EFC0E0121644
:1018A600ACEFF8D0E0FFD0E0FED0E0FDD0E0FCD019
:1018B600F0E8604DB461004007B47B005002C2E519
:1018C60024D0503DFA24F6500724F95034240AFA5D
:1018D600EAB5F000502BCFA9F0A42FFF92D5E9C5A9
:1018E600F0CEA4A2D53EFE92D5E9C5F0CDA4A2D5F0
:1018F6003DFD92D5E9C5F0CCA4A2D53CFCC205803D
:061906008EE8C0E02004A1
:10190C002A200508050A30020312125B1216661211
:10191C001283050820000B20010DEE8FF012123CF3
:10192C0080091212698004EF121214D0E012168C86
:10193C000217042004101216661212830508E50B18
:10194C00850CF012123C80E81212C317CE53180FFC
:10195C005817454C174142171D4818134F18174478
:10196C00176E43180B4918175517F04617F0451703
:0C197C00F04717492A193F4E0000174D94
:1010FF00E709F60870FA8046E709F20870FA803EB1
:10110F0088828C83E709F0A370FA807EE309F608E2
:10111F0070FA8076E309F20870FA806E88828C8309
:10112F00E309F0A370FA806289828A83E0A3F6084C
:10113F0070FA805689828A83E0A3F20870FA804A97
:10114F0080D280FA80C680D4806580F28031801092
:10115F0080A680EA809A80A880DA80E280CA8031F7
:10116F0089828A83ECFAE493A3C8C582C8CCC5836D
:10117F00CCF0A3C8C582C8CCC583CC70E9800D89DB
:10118F00828A83E493A3F60870F9ECFAA9F0EDFBD9
:10119F002289828A83ECFAE0A3C8C582C8CCC583B2
:1011AF00CCF0A3C8C582C8CCC583CC70EA80DD89DA
:1011BF00828A83E493A3F20870F980CE88F0ED243D
:1011CF0002B4040050C4F582EB2402B4040050BAF8
:0911DF00232345822390114F7374
:1024B000900578EBF0A3EAF0A3E9F0A3E0FBA3E03A
:1024C000FAA3E0F9120F1E700302255C900578E074
:1024D000FBA3E0FAA3E0F9120F1E70030225689037
:1024E000057BE0F9A3E0FAA3E0A3C9F0A3EAF0A317
:1024F000E9F0900578A3E0FAA3E0F9900581EBF00C
:10250000A3EAF0A3E9F090057EE0FBA3E0FAA3E0E4
:10251000F9120F1EFF6026900581E0FBA3E0FAA3ED
:10252000E0F9120F1E6F701590057F75F001121201
:1025300026900582E475F00112122680C990057E6E
:10254000E0FBA3E0FAA3E0F9120F1E7002800D90E9
:102550000579E475F0011212260224CC900578E08A
:0F256000FBA3E0FAA3E0F9227B007A00790022C6
:1011E800EF4E6012EF60010EEDBB010B89828A831E
:1011F800F0A3DFFCDEFA2289F05007F709DFFCA92B
:0C120800F022BBFEFCF309DFFCA9F02281
:102A26009005A6E0FFA3E0FEA3E0CF9005AFF0A3DC
:102A3600EEF0A3EFF09005A9E0CBF0A3E0CAF0A377
:102A4600E0C9F07F229005B2AD82AC83120F1E8DD5
:102A5600828C83F0A309E970010ADFEC9005A9E0F6
:0A2A6600FBA3E0FAA3E0F9021366F7
:10121400BB010689828A83F0225002F722BBFE01B9
:02122400F322B3
:10122600C5F0F8A3E028F0C5F0F8E5821582700253
:061236001583E038F022F0
:10123C00BB010A89828A83F0E5F0A3F0225006F7FD
:0F124C0009A7F01922BBFE06F3E5F009F31922FA
:0E125B00C3E49FFFE49EFEE49DFDE49CFC22A4
:10126900BB010789828A830210C25005E9F802127C
:0A127900E9BBFE05E9F80212F522B8
:09128300E0FBA3E0FAA3E0F9226C
:10128C00F8E0FBA3A3E0F925F0F0E58215827002EB
:07129C001583E0FA38F0228F
:1012A300F8E0FBA3A3E025F0F9F0E58215827002D4
:0712B3001583E038FAF02278
:0912BA00EBF0A3EAF0A3E9F02235
:1012C300D083D082F8E4937012740193700DA3A3BA
:1012D30093F8740193F5828883E4737402936860CE
:0612E300EFA3A3A380DFCE
:10130100E50824AFF582E43405F583E00508229071
:1013110005AC3007039005AFE475F00112128C02A1
:101321000F1E2000E97F2ED2008018EF540F249069
:10133100D43440D4FF30040BEF24BFB41A0050035F
:101341002461FFE50960021509050CE50C70020531
:101351000B30070E9005ACE475F00112128CEF0210
:101361001214022C367403D2078003E4C207F50875
:101371009005AC1212BAE4F509F50BF50CE509601C
:10138100077F2012134480F5750AFFC201C200C213
:1013910002C203C205C206C208121310FF700D304B
:1013A10007057F00121355AF0CAE0B22B4255FC2A7
:1013B100D5C204121310FF24D0B40A00501A75F0DC
:1013C1000A780930D50508B6FF0106C6A426F6201D
:1013D100D5047002D20380D924CFB41A00EF50048F
:1013E100C2E5D204021556D20180C6D20080C0D215
:1013F1000280BCD2D580BAD20580B47F20121344BA
:101401002002077401B5090040F1121301FF121304
:101411004402137ED208D2068095121301FB1213E7
:1014210001FA121301F94A4B700679277A167BFFEC
:1014310020022EE509602A7E008E82758300120F3C
:101441003760060EEE650A70F0C2D5EBC0E0EAC067
:10145100E0E9C0E0EE12159DD0E0F9D0E0FAD0E06D
:10146100FB120F1EFF60AAEBC0E0EAC0E0E9C0E09A
:10147100121344D0E02401F9D0E03400FAD0E0FBAB
:10148100E50A0460DCD50AD980877BFF7A15799952
:10149100D202809C791080027908C206C2088008B5
:1014A100D2D5790A8004790AC2D5E50A047002F519
:1014B1000AE4FAFDFEFF121301FC7B08200113125E
:1014C1001301FD7B1030000A121301FE121301FFFC
:1014D1007B20EC3382D592D55013C3E43000069FB4
:1014E100FFE49EFEE42001039DFDE49CFCE4CBF8B7
:1014F100C201EC700CCFCECDCCE824F8F870F380AB
:1015010017C3EF33FFEE33FEED33FDEC33FCEB336A
:10151100FB994002FB0FD8E9EB300105F8D0E0C49C
:1015210048B201C0E00AEC4D4E4F78207B0070C2FA
:10153100EAB50A0040BCC0E012159FD0F0D0E0200F
:101541000104C4C0E0C4B201C0F012132DD0F0D523
:10155100F0EB02137E1212C3141B5314955813ECB3
:101561004C13E84214994F14A14414A149140143A6
:0815710014A755148B46148BDE
:1015790045148B4716475013F02D13F42E14172BCF
:1015890013F82314152016302A13B0480000140F3D
:101599003F3F3F00790AA2D5200314300509B9104D
:1015A900020404B9080104A2D5200602500104204E
:1015B90002689202B509005034C0E07F2030031957
:1015C9007F30A20272067205500F1215F6C202C2CE
:1015D90006C205C2087F30800F300503E9C0E0125A
:1015E9001344300503D0E0F9D0E0B509CC30051734
:1015F9007F30B9100C1213447F583004077F78806C
:1016090003B908031213443002057F2D0213447FE6
:10161900202008F87F2B2006F322920280CF286E23
:10162900756C6C2900D2011213013001F8C20178DE
:101639000930D50108F60213B02D50434958121349
:10164900012403B405004001E490164293121335B6
:0D165900743A121335D2037509040214957A
:10000E00100B0B122D05BF0D027F0A022C36900528
:04001E00F2E0FF22EB
:082D0F009005F2EFF0D20B2257
:102CD900EFC394094005EF940E4004EFB42003D3E9
:042CE9008001C32281
:0C12E900ECF608EDF608EEF608EFF62231
:0C12F500ECF208EDF208EEF208EFF22235
:102C3600EFB40A07740D122C41740A309811A89942
:102C4600B8130CC2983098FDA899C298B811F630FE
:072C560099FDC299F59922D6
:0A2D05003098FDAF99C2987E0022BD
:00000001FF
