:0300000002258452
:0C258400787FE4F6D8FD7581220225CB9B
:1000260074686973206973207561727420746573CE
:10003600740D0A003C2D2D2D2D2D2D44454255477E
:10004600204D5347203D3E20746869732069732014
:1000560075617274322074657374203D2D2D2D2DBB
:100066002D2D2D2D2D0D0A0008000000000000008A
:10007600000000000000000000000000000000601A
:100086004000000000020101000000000000000026
:100096000000014000000000010101010101071FED
:1000A6007E6FFFDBDFDFDFDFFFEFFEEFEFCFD7FF98
:1000B600E7F7DFD4D0C44C1656B62E8E272F3F3F17
:1000C6007F7FFFFFFFFFFFFFFFFCFCFDFCFDFFFF47
:1000D600FEFFEFE70301010101000000000000013F
:1000E60002082040E000000000000000008180803F
:1000F60000000000000000000000000000000000FA
:1001060000000001000000000080000080C080E0C8
:10011600A0E0E0E0ECEC6EEDEFFCC69E2E3EFEFFAE
:10012600FFFFFF3F0F0F0F07070303030303010141
:1001360003010101000000000000000000000004AF
:100146000004102123470FFFFFFFFFFFFFFFFFFF04
:10015600FFF003BF38C000000000000000000000F0
:1001660000000000170000003C3E1E0E07070600B8
:100176000000000000000000000000000000000079
:10018600408040F070B8E8F87C3E1F5FCFCF8F8785
:10019600D7032121000000808081818383FFFFFF38
:1001A6001F1F1F3C3C7E747C5E1C1C1C1818000024
:1001B6000000000000181C1C0212121000000000B3
:1001C600000000000000000B0F0FFFFFFFFFFFFF06
:1001D600FFFFFFFFFFF9FAFCFCC88000008080806B
:1001E6008800000000000000000000000000000081
:1001F60000000000000000000080C0B0F8FE5BDFD9
:10020600F3FC6F8DFABE3F0100000000000040487D
:1002160000080090909000010306060D8FDFFCFB9E
:10022600FCF8F0E0E0C0C0C0E0F0FCF87C7E7E5C4C
:10023600505870606064204040C08080000000001C
:100246000000000000000000003F3F7F3FFFFFFF6F
:10025600FFFFFFFF7F7FC71F7BE3CE0F0F9F0707C1
:100266000305000000000000000000800000000000
:100276000000E0F0F8FCF2FFFFFFFF8F1BFFFFFF1F
:10028600FFFFFFFFFFFFFFFFFEFCF8F8F0F0E0E0E6
:10029600E0F0F0F0F9F9F9FCFCFEFFFFFF3F1F1F4D
:1002A6001F3F3F7FFFFFFFFFFFFDF9F8F0E1E1E3AE
:1002B600E1E1E0E0E0E0E0E0F0F0D8E6FCFC7870B8
:1002C600683010381C5C1C78F8F8FEFEFEFFFFFF55
:1002D600FFFFFFFFF7FF7FF88003071BE7FFF8210B
:1002E600200101196A000000C48080C0C0E0B47A11
:1002F600FEFEEFBFFFFFFFEFF7F9FFFFFFFF0F0F58
:100306000F0F1F0F0F1F1F3F1F1F1F1F1F0F0F1F37
:100316001F1F1F1F1F1F1F3F3F3F3F3F3EB87C3C15
:100326007CF0F8FCFCFFFFFFFFFFFFBFBF3F7FFF36
:100336007F7F3F3F3F3FFFBF27E7E3E9379D9810A9
:10034600B020202021212123232707071F1F1F1F3D
:100356009F1F9F7F7FFFBFBF3F3F3C38187F7E7C3C
:100366007CF878F0F0000000FFFFFFAF3719181F88
:100376000F0F0C070707030301010101000000002E
:1003860000000000000000000080808080888080DF
:1003960048C8000020800000A8640494E0F1F9FD3C
:1003A600FBF7FBF7DF7F3F7F0F495121CE7E388871
:1003B60010C4C0BA727F77F7FFE7EFCCDFDE1F0B02
:1003C60000101008000000101878785878FCFEF02D
:1003D600F0E7E7CFBFBF3E7C087020606040C0807A
:1003E600808080000000000007070707000000006B
:1003F60000000000000000000000000004040404E7
:100406000004040404060606070707070707040690
:100416000600040507040606040607070507040781
:10042600070707070704060007050602050100007F
:10043600040707070707060606050505070301055E
:10044600000006000404000002000000040507077F
:10045600030707070707070706040404000200004E
:1004660001030707040000000000F8FC0C0CCCCCCC
:10047600CCCCCC0C0CFCFC000090808090100000D2
:10048600FCFC306060B0B0B0100000CCC000CCCC3A
:10049600CCCCE0C0CCCCCC0000FCFC0C0CCCCCCC46
:1004A600CCCC0C0CFC00000000003F7F606067674E
:1004B60067676760607F3F0000799F9FE1E11E1ECE
:1004C60079310030781F1F676780C0E1C000E7E719
:1004D6009E9E797980E1E100003F7F6060676767F3
:1004E600676760707F000000000002027EFE0E0E4D
:1004F600FE1E0EF0F03233CECECE87031D3C3C3CC2
:100506003020C0983CFEFEFC7C03030C0C0CFCFD6A
:100516000F0FF0F0CCC1C1C3C2CCCCCE30303232DA
:100526000C0C0E0EF040000000001C1E7E7C1818FD
:100536009E61610101999B67679919191919181824
:100546009E8E010199F9F9E6E418387E7C781F1F22
:10055600E7E79E9C60676760606060601C1EE0E085
:100566000606E1E16000000000000E0F0E0E3020CE
:10057600C32030F8FCCDCCCCCC0F1C3C3232000072
:1005860001080C88C1E0F1F3E3CCCCCCDC3E373378
:1005960033373F3F30303030303236CE0C0CF0F04F
:1005A6000207FFFF3000000000007F7F00006C6E36
:1005B6006F0E0C6F6F6C6C6C6CEC9C9C9C9C0000C2
:1005C60060646C33137C7CFCFC0C0EEFC3989C9C23
:1005D6009B930F0F10F1F37373737363E4EC8F8FB8
:1005E600F3F363630C0400000000FEFE0606E6E675
:1005F600E6E6E60606FEFE0000F7F7F7C7C7C6C63C
:100606000606060C083838C98808183959C9313120
:10061600F9F9C6C6C63F3F3030363230FFFFF1F13A
:10062600F9F9C6C63800000000001F1F101013138A
:1006360013131310101F1F00001F0303040C0303E2
:100646000300100E0F1F1F0C0C1C1C0C0E0F0C0CA5
:10065600000113130C1F1F13131010100F0F131389
:1006660011101C1C0C000000E0E0E0E0E0E0E0E01F
:10067600C080000000C0E0E0E0E0E0C0C000000094
:10068600E0E0E0E00000C0E0E0E0C000C0E0E0F054
:10069600FCFFE0E0C000C0E0E0E0C0C0E0E0E0C099
:1006A60080C0E0E0E0C00000FFFFFFFF0F0F0FFF7C
:1006B600FFFFFC000087CFC7C7C7FFFFFFFF000093
:1006C600FFFFFFFF0000FFFFFFFFFF000F0FFFFF11
:1006D600FFFF2F0F0700FFFFFFFF0F0F0FFFFFFFAB
:1006E600FF0F0FFFFFFFFF00FFFFFFFFFEFEFEFFF6
:1006F6007F3F0700FFFFFFFF0F0FFFFFFFFF000019
:100706000F3F7F7F7E7EFFFFFFFFFF000000FFFFA2
:10071600FFFF85000000FFFFFFFF000000FFFFFF57
:10072600FF0000FFFFFFFF00FFFFFFFF00000000CC
:10073600000000003F7F7FFFFCFCFFFFFF7F000003
:1007460000FEFEFEFEFEFFFF7F3F030000007FFF70
:10075600FFFF520000007FFFFFFF000000FFFFFFCA
:10076600FF00007FFFFFFF00000000000000000008
:100776000000000000000000000000000000000073
:100786000000000000000000000000000000000063
:100796000000C0C010080808040406060604040485
:1007A60005050505050505050505040000000808FD
:1007B600F2020204F8F80000000000000000000049
:1007C6000000000000000000000000000000000023
:1007D600000000000000000000007C828200010191
:1007E60001700707080808001010D010101010102C
:1007F60010101010F0000060101000040400020237
:1008060003020202F8F800000000000000000000E9
:100816000000000000000000808040200000909052
:100826009040202028202000101010111112F407EB
:1008360007000000000000803C3C81808040404072
:100846004000000E004040404646481010A0C0C080
:10085600E010100803030000000000000000000084
:100866000000000000F0F0060000C038232331101D
:10087600105050501080808080802020203E200024
:100886000040C0C010040403010100C0C0100C0CDD
:100896000402020101010100000000000000000046
:1008A600E107070000000000000000000000C02073
:1008B60020088484621111080404834111110AC6B8
:1008C600C62610100C0C0C84484828292911111230
:1008D60012020F0F0000000000001F0000000000C1
:1008E60000000000000000000000008080300707C4
:1008F6000000000000000000000000E00E0E00C036
:10090600C00C010100808030060600E004040100EE
:1009160000C030300401018030300C0202023C007D
:1009260000FE000000000000FFFF000000000000C5
:1009360000000000000000000000C6191900101099
:1009460020000000000000000000007F8080007F83
:100956007F808080807F7F000000FE00000000F81E
:10096600F8010000003C3C010000000000FC000013
:10097600007F8080402020203F3F000000101010A4
:1009860010080888804444422121001010080404FD
:10099600020000000000000000000000000001014D
:1009A60001020202040404080808131404042027A0
:1009B60027404040404848482424240202130008A7
:1009C60008060303040404040404000202020000EF
:1009D600010101000000000000000000000000000E
:1009E60000000000000000000000F8F8040202F217
:1009F60008080000000405050505050505050505AB
:100A0600040404060606040408080810C0C0000012
:100A160000000000000000000000000000000000D0
:100A260000000000000000000000000000000000C0
:100A360000000000000000000000F8F802020203B7
:100A46000202000404001010600000F010101010E4
:100A56001010101010D010100008080807077001B9
:100A660001010082827C00000000000000000000FE
:100A76000000000000000000000000000000000070
:100A8600000000000000000000000303081010E052
:100A9600C0C0A01010484646404040000E0000402E
:100AA6004040408080813C3C800000000000000700
:100AB60007F4121111101010002020282020409059
:100AC60090900000204080800000000000000000A0
:100AD600000000000000000000000000000707E121
:100AE60000000000000000000001010101020204F4
:100AF6000C0C10C0C000010103040410C0C040006B
:100B060000203E2020208080808080105050501091
:100B16001031232338C0000006F0F000000000006A
:100B260000000000000000000000000000000000BF
:100B36000707308080000000000000000000000071
:100B460000000000001F0000000000000F0F02124E
:100B56001211112929284848840C0C0C101026C69D
:100B6600C60A111141830404081111628484082005
:100B760020C000000000000000000000000000206F
:100B86001010001919C60000000000000000000047
:100B9600000000000000FFFF000000000000FE0053
:100BA600003C0202020C3030800101043030C000EB
:100BB60000010404E00006063080800001010CC03C
:100BC600C0000E0EE0000000000000000000000261
:100BD60004040810100021214244448088080810AB
:100BE6001010100000003F3F2020204080807F0032
:100BF6000000FC0000000000013C3C00000001F881
:100C0600F800000000FE0000007F7F808080807F6B
:100C16007F0080807F0000000000000000000000D0
:100C260000000000000000000000000000010101BB
:100C3600000002020200040404040404030306087C
:100C46000800130202242424484848404040402714
:100C560027200404141308080804040402020201ED
:100C660001010000000000000E1F1FFFFF1F1F1FD5
:100C76001F1F1F1F1F1F1F1F1F1F1F1F1F1F1F1F7E
:100C86001F1F1F1F1F1FFFFF1F1F0E00000000FF5B
:100C9600F000E0E0E0E0E0E0E0E0E0E0E0E0E0E01E
:100CA600E0E0E0E0E0E0E000E0FF0300000000003C
:100CB600000000030F3C73EFDFBF7FFFFFFFFFFF66
:100CC600FFFFFFFF7FBFDFEF733C0F070000000051
:100CD60000000000000000000000000103071CF9EE
:100CE600E71FFF1FE7F91C0E0301000000000000CC
:100CF600000000000000000000000000000080C0AE
:100D0600E0701F0F6005100F1F70E0C0800000002C
:100D1600000000000000000000000000C0F0381EC7
:100D26000703010000000008006300000000010343
:100D3600070E38F0C0000000000000000000FF0FA2
:100D460000000080C0E0F0F0F8FDFEFEFEFCFAF0C8
:100D5600F0E0C0800000000FFFC000000070F8F84F
:100D6600FFFFF8F8FAFBFBFBFBFBFBFBFBFBFBFBCC
:100D7600FBFBFBFBFBFBFBFBFAF8F8FFFFF8F8704D
:100D8600FEFFFFFFFE18981810101010303030309C
:100D96006060C0C08000000000000000000000008D
:100DA600000000000000000000008080C0C06060FD
:100DB600B0B0B03010101010181818FEFFFFFFFE6C
:100DC600FFFFFFFFFF00FFFFFEFCF8F0C080008082
:100DD600000000010103070E1C383060C0C0C0C00F
:100DE600C0C0C06060B098DCEEF7FBFDFEFEFFFF02
:100DF600FFFFFF0000000000000000FFFFFFFFFFF5
:100E0600FFFFFFFFFF00FFFFFFFFFF7F1F0F170022
:100E16000004040001000484C0E16134181A181AA1
:100E26001A1A1A37776FCF9FBF7FFFFFFFFFFFFFAB
:100E3600FFFFFF0000000000000000FFFFFFFFFFB4
:100E4600FFFFFFFFFFC0CFC7C3C1404060606060C7
:100E5600303018180C0607030100000000000000DF
:100E6600000000000000000103070E0D1B3B373792
:100E76006F6F6F404040C0C0C0C0C0FFFFFFFFFFA4
:100E86000307070703000000000000000000000041
:080E96002030783030282030B4
:101F3400E49005F9F0A3F0A3F0A3F0759101759175
:101F44000153B1FE43B20175910153B1FD43B20295
:101F540075910153B1FB43B20475910153B1F74339
:101F6400B20875910153B5FE43B60175910153B59D
:101F7400FD43B60275910153B5FB43B60475910157
:101F840053B5F743B60875910153B5DF43B62075D1
:101F9400910153B5EF43B61075910153C2FB43C38E
:101FA4000475910153BDEF43BE1075910153BDDF1C
:101FB40043BE2075910153C2F743C308C2B3759160
:101FC4000253F1F043F10375910253F10F43F130E1
:101FD40075910153B3BF53B4BF75910153B37F538C
:101FE400B47F75910253EBF043EB0875910253EB08
:101FF4000F43EB8075910153B9FE53BAFE759101FD
:1020040053B9FD53BAFD1224F49006017401F0A3F0
:1020140012104E0001C2007F007E367D6E7C0112DC
:1020240019087D017F06122610D2AF9006017404B0
:10203400F0A312104E0001C2007F007E367D6E7C3C
:1020440001121908122AEB1227BF122B511227BFB3
:1020540090061074FFF0A37404F0A3746EF0A374DC
:0D20640040F0A3F0E4FBFDFF12227980FEA6
:102BEB00E4FDFCC3ED9FEC9E5015E4FBFA0BBB0020
:0F2BFB00010ABA08F8BB4CF50DBD00010C80E4CF
:012C0A0022A7
:102C2A00EF540FF5A0EFC4540FF580C2A5D2A47FCC
:0B2C3A00017E00122BEBC2A4022BEB6A
:102AAF00EF540FF5A0EFC4540FF580D2A5D2A400B8
:102ABF000000000000000000000000000000000007
:102ACF0000000000C2A40000000000000000000091
:0C2ADF00000000000000000000000022C9
:102AEB00E4F591E5B154DF4420F5B1D2B2E4F591B0
:102AFB00E5B154EF4410F5B17FD07E07122BEB7F7D
:102B0B003E122C2A7F40122C2A7FB8122C2A7FC00F
:082B1B00122C2A7F3F022C2A34
:1027BF00E4F591E5B154DF4420F5B1D2B2E49006CF
:1027CF000DF0A3F090060DE0FEA3E0FFC39408EE1A
:1027DF0064809480502AEF24B8FF122C2AE4FDFC69
:1027EF00E4FF122AAF0DBD00010CED64404C70F0F8
:1027FF0090060EE004F070CC90060DE004F080C45B
:0A280F007F40122C2A7FB8022C2A09
:102B2300A905E4F591EB70047E0180027E00EEC4FA
:102B33003354E0FEE5B154DF4EF5B1EB24FF92B21E
:0E2B4300EF2440FF122C2AE924B8FF022C2AAE
:0B22790090060DEFF0A3EDF0A3EBF0DA
:1022840090060DE0FF900615F0A3EDF0E4A3F0A393
:10229400F0900614E0FE131313541F900619F0E493
:1022A400A3F0A3F0122B2390060EE0900618F090F2
:1022B400060EE0FF900619E02FFFE433FE900618A7
:1022C400E0FDC39FEE6480F8748098400302235FAE
:1022D40090060DE0FF90060FE0FB122B2390060DF5
:1022E400E0900617F090060DE0FF900613E02FFF34
:1022F400E433FE900617E0C39FEE6480F874809880
:102304005050900610E0FBA3E0FAA3E0F990061AFF
:10231400E0FEA3E0F5828E83120EB7FF122AAF907F
:10232400061BE004F0700690061AE004F09006170D
:10233400E0B43F16A3E0FD90060FE004FBE4FF12B7
:102344002B23E4F59153B1DFD2B2900617E004F0E9
:0B2354008093900618E004F00222B312
:01235F00225B
:102C0B001227BF9006107401F0A37400F0A3740098
:0F2C1B00F0A37440F0A3F0E4FBFD7F20022279C8
:1028B800200F4990062AE020E0201227BF9006103A
:1028C80074FFF0A3740CF0A3746EF0A37423F0A348
:1028D8007440F0E4FBFD7F2D801F1227BF90061087
:1028E80074FFF0A3740DF0A37486F0A37440F0A3F2
:0D28F8007423F0E4FB7D027F201222792280
:102A7000900402E0FEA3E0FFD39400EE9400402E09
:102A8000EF90061020E00C74FFF0A37407F0A3741D
:102A90006E800A74FFF0A37409F0A374EEF0A374BF
:0F2AA00050F0A37440F0E4FBFD7F18122279225E
:1029E4004104D200410541004104D00041054200A8
:0929F4004204CE00004104D100B0
:03002300021D4D6E
:101D4D00C0E0C0F0C083C082C0D075D000C000C05C
:0D1D5D0001C002C003C004C005C006C007DD
:101D6A0090060CE4F0209803021F10900541E0242D
:101D7A0043F582E43405F583E599F0900541E004E2
:101D8A00F0E0FF2442F582E43405F583E0640A704A
:101D9A006C900542E06401705774432FF582E43475
:101DAA0005F583E4F09004D0E075F032A424DDF95F
:101DBA00740435F0A801FC7D017B017A0579431290
:101DCA00114B900541E4F09004D0E0C39401500512
:101DDA00E004F080059004D0E4F09004D27401F09D
:101DEA007E007F327D00FB7A057943121168800DEF
:101DFA00900542E0700704F0900541E4F090040079
:101E0A00E064016003021EB2900541E02442F582BB
:101E1A00E43405F583E0FFC39430400BEFD39439E3
:101E2A005005EF540F801F900541E02442F582E4EB
:101E3A003405F583E0FFC394414021EFD394465023
:101E4A001BEF540F2409FF9004D1E024D3F582E458
:101E5A003404F583EFF09004D1E004F09004D1E06B
:101E6A00B40245FF24D1F582E43404F583E0C45476
:101E7A00F0FE74D22FF582E43404F583E04EFF902D
:101E8A0004CEE0FCA3E02400F58274003CF583EF65
:101E9A00F09004CFE004F070069004CEE004F090D5
:101EAA0004D1E4F0900541F0900541E0FFD394306D
:101EBA00404E74432FF582E43405F583E4F0900430
:101ECA00D0E075F032A424DDF9740435F0A801FCE1
:101EDA007D017B017A05794312114B9004D0E0C34E
:101EEA0094015005E004F080059004D0E4F09005D8
:101EFA0041E4F0FE7F32FD7B017A057943121168D5
:0F1F0A007591005398FE3099067591005398FD1C
:101F1900D007D006D005D004D003D002D001D0001C
:0B1F2900D0D0D082D083D0F0D0E032C6
:101908009005FD121042900601E014B40700400350
:10191800021B4290192975F003A4C58325F0C583DD
:101928007302193E02198902199E021A18021ABC7A
:1019380002193E02199EE4F591759850438920F5E5
:1019480091438780F591438E10F59153C4DF7B1046
:10195800FAF9F89005FDE0FCA3E0FDA3E0FEA3E0A2
:10196800FF120F87900602E0F8A3E0F9A3E0FAA3BC
:10197800E0FB120F87EFF404F58DE4F591438840FE
:1019880022E4F591759850F59143878053C4F8F592
:101998009143C4208009E4F59175F85075C4887B9B
:1019A80010FAF9F89005FDE0FCA3E0FDA3E0FEA322
:1019B800E0FF120F87900602E0F8A3E0F9A3E0FA2F
:1019C800A3E0FB120F87C3E49FFFE49EFE74019D12
:1019D800FDE49CFC780812102F8FC6E47B10FAF9FE
:1019E800F89005FDE0FCA3E0FDA3E0FEA3E0FF12F4
:1019F8000F87900602E0F8A3E0F9A3E0FAA3E0FB62
:101A0800120F87C3E49FFFE48FC5F59143C40822F2
:101A1800E4F59143D601F59143D701F59143D702F7
:101A2800F59153D6EFF59153D6F77B08FAF9F8906C
:101A380005FDE0FCA3E0FDA3E0FEA3E0FF120F8795
:101A4800900602E0F8A3E0F9A3E0FAA3E0FB120F86
:101A580087EF24FFFFEE34FFED34FFEC34FFE48F13
:101A6800DB53DCF07B08FAF9F89005FDE0FCA3E015
:101A7800FDA3E0FEA3E0FF120F87900602E0F8A3A3
:101A8800E0F9A3E0FAA3E0FB120F87EF24FFFFEED3
:101A980034FFFEED34FFFDEC34FFFC780812102F04
:101AA800EF540F42DCE4F59143D74053D7CFF5917B
:101AB80043D68022E4F59143D701F59153D6EFF54B
:101AC8009153D6F7900602E0F8A3E0F9A3E0FAA351
:101AD800E0FB9005FDE0FCA3E0FDA3E0FEA3E0FF32
:101AE800120F87EF24FFFFEE34FFED34FFEC34FFD5
:101AF8008FDB900602E0F8A3E0F9A3E0FAA3E0FB8D
:101B08009005FDE0FCA3E0FDA3E0FEA3E0FF120FBB
:101B180087EF24FFFFEE34FFFEED34FFFDEC34FFCA
:101B2800FC780812102FEF540FF5DC75910243E78B
:0B1B38004053E7CF75910243E6802286
:10281900E4F591EF24FC601C14602824FE600C048C
:10282900703B3098FDAE99C298803230F8FDAE9A6F
:10283900C2F88029E4F59153D6FDE5DF20E1FBAE2E
:10284900D9801A75910253E6FDE5DF7C0060047DAD
:0F2859000180027D00ED64024C60EEAED9AF0647
:01286800224D
:10276000E4F591EF24FC602414603824FE6010042A
:10277000704CE4F591C2998D993099FDC29922E48B
:10278000F591C2F98D9A30F9FDC2F922E4F5915321
:10279000D6FB8DD9E5DF44F764F760F8E4F5915393
:1027A000D6FB2275910253E6FB759102AF058FD9D6
:0F27B000E5DF44F764F760F875910253E6FB220A
:10299B00EF24FC602F24FD601704703C120E9EFD8B
:1029AB0060367F06122760740129F9E43AFA80EC4D
:1029BB00120E9EFD60227F07122760740129F9E435
:1029CB003AFA80EC120E9EFD600E7F0412276074A3
:0929DB000129F9E43AFA80EC222A
:10261000EF24FC603414605024FE6018047069EDEF
:1026200014600A047062E4F59153A8EF22E4F59176
:1026300043A81022ED14600A04704DE4F591539CF8
:10264000FE22E4F591439C0122ED14600F047038E2
:10265000E4F59153DDFDF59153DDFE22E4F5914360
:10266000DD02F59143DD0122ED146010047019754F
:10267000910253DDFD75910253DDFE2275910243F7
:09268000DD0275910243DD012227
:102BCA00E4F591759850438920F591438780F591F2
:102BDA00538EEFF59153C4DF758DFFF5914388400D
:012BEA0022C8
:102184002B435245473A20002C002B435245473AF3
:102194002025642C256420252A5B5E0D0A5D0D0A2A
:1021A400002B435245473A002B435245473A2025DA
:1021B4006420252A5B5E0D0A5D0D0A003C2A2A2A4A
:1021C4002A2A555243203D20257300494D475F522A
:1021D4004543560D0A000D0A2D2D20756172742099
:1021E4007265632025732D2D0D0A0054494D453A1F
:1021F40025640D0A003C2D2D2D2D2D2D74696D6542
:10220400722076616C7565203D2025642D2D2D2D61
:102214002D2D2D2D2D0D0A003C2D2D2D2D2D2D4434
:1022240045425547204D5347203D3E205541525489
:102234004C494E452045584954203D2025642D2DB8
:102244002D2D2D2D2D2D2D0D0A002B435245473AB2
:1022540000494D475F53544152543A00494D475F3A
:1022640053544F500054494D453A004D5154545F16
:05227400434F4E4E0037
:1029FD00C10FC110410404004104CD004104010088
:052A0D0042040200007C
:0B270000900575EBF0A3EAF0A3E9F0F0
:10270B009005A07401F0A37405F0A37478F0900504
:10271B0075E0F9A3E0FAA3E0900635C9F0A3EAF05F
:10272B00A3E9F09005A0E0F9A3E0FAA3E090063846
:10273B00C9F0A3EAF0A3E9F07B017A047905122929
:10274B00519005A0E4F0A3F0A3F07B017A04790586
:05275B007F0402299B30
:1023600090062FEBF0A3EAF0A3E9F07F0412299B7B
:1023700090061F74FFF0A37421F0A37484F09006FC
:102380002FE0FBA3E0FAA3E0F9122435EA494B6001
:102390005190061F74FFF0A37421F0A3748CF09089
:1023A000062FE0FBA3E0FAA3E0F9122435EA494B3B
:1023B00060309005A674FFF0A37421F0A3748EF032
:1023C000900632E0F9A3E0FAA3E09005A9C9F0A3D2
:1023D000EAF0A3E9F0900632E0F9A3A3E09005AC9F
:1023E000803C90061F74FFF0A37421F0A374A5F045
:1023F00090062FE0FBA3E0FAA3E0F9122435EA49A6
:102400004B60319005A674FFF0A37421F0A374AC67
:10241000F0900632E0F9A3E0FAA3E09005A9C9F034
:10242000A3EAF0A3E9F090062FE0FBA3E0FAA3E013
:05243000F912166F22F5
:101B43009004D0E0FF9004CDE06F7003021D4CE0E1
:101B530004F0E075F032A424ABF9740435F0FA9084
:101B630005787401F0A3EAF0A3E9F07BFF7A217909
:101B7300C01227009004CDE075F032A424ABF974B1
:101B83000435F0FA7B0190061F74FFF0A37422F072
:101B9300A37455F0122435EA494B601E9004007477
:101BA30001F0E49004D1F09004CEF0A3F07E04FFA2
:101BB300FD7B017A0079001211689004CDE075F085
:101BC30032A424ABF9740435F0FA7B0190061F7438
:101BD300FFF0A37422F0A37460F0122435EA494B9A
:101BE30060579004CEE0FEA3E0FF2400F58274006A
:101BF3003EF583E4F0900400F09004D1F0122869DC
:101C0300122A2A7E047F007D007B017A007900126C
:101C130011681224F47FD07E07122BEB7BFF7A210D
:101C230079CF7F0612299B7FD07E07122BEB7BFF98
:101C33007A2179CF7F0612299B9004CDE075F0328B
:101C4300A424ABF9740435F0FA7B0190061F74FFEA
:101C5300F0A37422F0A3746FF0122435EA494B60A9
:101C630008D20F1227BF122C0B9004CDE075F0326F
:101C7300A424ABF9740435F0FA7B0190061F74FFBA
:101C8300F0A37422F0A37469F0122435EA494B706F
:101C930003021D2E9004CDE075F032A424ABF97439
:101CA3000435F0FA9005787401F0A3EAF0A3E9F0A3
:101CB3007BFF7A2179DA1227009004CDE075F032A8
:101CC300A424ABF9740435F0FA7B01C0039005A694
:101CD30074FFF0A37421F0A374EFF0A3EBF0A374EB
:101CE30004F0A37402F0D00312166F900402E0FE16
:101CF300A3E0FFD39400EE6480948040167C007DC3
:101D03003C120EE4900402EEF0A3EFF0D21012277F
:101D1300BFD2B37BFF7A2179F9900402E0FFA3E0FD
:101D2300900578CFF0A3EFF0122700122B51900407
:101D3300D0E0F9900578E4F0A3F0A3E9F07BFF7A13
:0A1D430022791C122700021B432224
:102B5100E49004D0F09004CDF0900542F0FE7F3275
:102B6100FD7B017A0479DD1211687E007F327D00E0
:092B71007B017A05790F0211685D
:042A120041063D003C
:102905008FA6EEF5A775AEFFE4F591A2AF9211C2C1
:10291500AF75C7AA75C755439F01A21192AFF5912F
:10292500A2AF9211C2AF75C7AA75C75543A501A23B
:102935001192AF75AF22F591A2AF9211C2AF75C7D3
:0C294500AA75C75543A401A21192AF224D
:102689008FA6EEF5A7E4F591A2AF9211C2AF75C777
:10269900AA75C755439F01A21192AFF591A2AF92B6
:1026A90011C2AF75C7AA75C75543A501A21192AF4B
:1026B90075AF21AF058FAEF591A2AF9211C2AF757B
:1026C900C7AA75C75543A401A21192AFF591A2AF4C
:1026D9009211C2AF75C7AA75C75553A5FEA211922B
:1026E900AFF591A2AF9211C2AF75C7AA75C755537D
:0726F9009FFEA21192AF2227
:040003008F828E83D7
:03000700E493FF80
:01000A0022D3
:102A2A00E49005FFF0A3F0C2AF7F807E7F122905F4
:102A3A007D011226899004CEE0FEA3E0FF7C007D92
:102A4A0064120EF67F817E7F1226899004CEE0FE04
:102A5A00A3E0FF7C007D64120EF6AD077F827E7FC5
:052A6A00122689D2AF25
:012A6F002244
:0828690090063BEEF0A3EFF036
:10287100E4FBFA7F807E7B1229050BC390063CE0C6
:102881009B90063BE09A402EEB547F700BEB24802B
:10289100FFEA347BFE122905EB247FFFEA347BFE3D
:1028A10074FF2BF58274FF3AF583E0FD1226890B44
:0628B100BB00010A80C516
:0128B70022FE
:1024F400E49005FDF0A3F07F807E7F120003900638
:102504003DEFF064016003122C677F827E7F12002E
:1025140003EF75F064A4FDACF07F811200037E002C
:10252400ED2FFFEE3CFE9004CEF0A3EFF0D3940029
:10253400EE9400404AE49005FDF0A3F09004CEE050
:10254400FEA3E0FF9005FDE0FCA3E0FDC39FEC9E2D
:10255400502DED2480FFEC347BFE1200039005FD2A
:10256400E0FCA3E02400F58274003CF583EFF090D6
:0F25740005FEE004F070C59005FDE004F080BDA9
:012583002235
:0E2C5900EF75F064A47C002DFFEC35F0FE2238
:0A2C6700E49004CEF0A3F0022A2A44
:102A160042062B000042062D000041062A0042060F
:032A260028000085
:03000B000220715F
:10207100C0E0C0F0C083C082C0D075D000C000C035
:0D20810001C002C003C004C005C006C007B6
:10208E00900629E004F07006900628E004F0900611
:10209E0028E0FEA3E0FF7C007D32120EF6ED4C70C0
:1020AE0021900404E0D394004018E014F0122A703A
:1020BE00900404E0700CD2B3900402F0A3743CF0D0
:1020CE00C210900628E0FEA3E0FF7C007D32120EC7
:1020DE00F6ED4C7038D3900403E09400900402E0C7
:1020EE0094004029A3E024FFF0900402E034FFF0B6
:1020FE00122A70900402E07002A3E07010C2B320A6
:10210E001005122C0B8006900404741EF090062805
:10211E00E0FEA3E0FF7C007D32120EF6ED4C700760
:10212E00A3E004F01228B8900628E0FEA3E0FFE436
:10213E00FCFD7B607AEAF9F8C3121019500790067D
:10214E0028E4F0A3F090062BE0FCA3E0FDECF58C68
:0B215E00EDF58AC28D7591005388DFFB
:10216900D007D006D005D004D003D002D001D000CA
:0B217900D0D0D082D083D0F0D0E03274
:102B7A004389017E007C077DD0120EE4C374FF9F57
:102B8A0090062CF074FF9E90062BF0E0FCA3E0FD6B
:092B9A00ECF58CEDF58AC28D22E8
:10259000021F34E493A3F8E493A34003F68001F20E
:1025A00008DFF48029E493A3F85407240CC8C3334C
:1025B000C4540F4420C8834004F456800146F6DF1B
:1025C000E4800B01020408102040809029E4E47E9E
:1025D000019360BCA3FF543F30E509541FFEE49310
:1025E000A360010ECF54C025E060A840B8E493A3D7
:1025F000FAE493A3F8E493A3C8C582C8CAC583CA02
:10260000F0A3C8C582C8CAC583CADFE9DEE780BEB9
:012A290000AC
:100E9E00BB010689828A83E0225002E722BBFE0252
:090EAE00E32289828A83E4932285
:100EB700BB010CE58229F582E5833AF583E02250F0
:100EC70006E92582F8E622BBFE06E92582F8E2223A
:0D0ED700E58229F582E5833AF583E4932254
:100EE400EF8DF0A4A8F0CF8CF0A428CE8DF0A42E22
:020EF400FE22DC
:100EF600BC000BBE0029EF8DF084FFADF022E4CCE0
:100F0600F875F008EF2FFFEE33FEEC33FCEE9DECA8
:100F1600984005FCEE9DFE0FD5F0E9E4CEFD22EDEE
:100F2600F8F5F0EE8420D21CFEADF075F008EF2F38
:100F3600FFED33FD4007985006D5F0F222C398FD29
:050F46000FD5F0EA22C6
:100F4B0075F008758200EF2FFFEE33FECD33CDCC5D
:100F5B0033CCC58233C5829BED9AEC99E5829840E0
:100F6B000CF582EE9BFEED9AFDEC99FC0FD5F0D6BD
:100F7B00E4CEFBE4CDFAE4CCF9A88222B800C1B9E7
:100F8B000059BA002DEC8BF084CFCECDFCE5F0CB25
:100F9B00F97818EF2FFFEE33FEED33FDEC33FCEB5E
:100FAB0033FB10D703994004EB99FB0FD8E5E4F919
:100FBB00FA227818EF2FFFEE33FEED33FDEC33FC06
:100FCB00C933C910D7059BE99A4007EC9BFCE99AFA
:100FDB00F90FD8E0E4C9FAE4CCFB2275F010EF2F3F
:100FEB00FFEE33FEED33FDCC33CCC833C810D7073F
:100FFB009BEC9AE899400AED9BFDEC9AFCE899F87A
:0E100B000FD5F0DAE4CDFBE4CCFAE4C8F9220C
:10101900EB9FF5F0EA9E42F0E99D42F0EC6480C84E
:0610290064809845F022EE
:10102F00E8600FECC313FCED13FDEE13FEEF13FF9F
:03103F00D8F122C3
:0C104200ECF0A3EDF0A3EEF0A3EFF02221
:10104E00A8828583F0D083D08212106512106512AB
:10105E001065121065E473E493A3C583C5F0C583D0
:10106E00C8C582C8F0A3C583C5F0C583C8C582C8EC
:01107E00224F
:1015E600E508300C0104F8232824A6F582E4340526
:1015F600F583229005A3300C039005A6E475F0014F
:1016060012120C020E9E60EAC50C7002150B14C570
:101616000C200C04FF022C7B9005A374FFF5F0024E
:101626001223FF022C45E5096006D509037F002237
:10163600200C0F12000EEF6008050CE50C70020579
:101646000B229005A3121203120E9EFF60E890056E
:10165600A3E475F00112120C80DC121636EFC0E01E
:10166600121628D0E040F3809DD20C8002C20C9066
:1016760005A312123AE4F50AF508F50BF50C7509FF
:1016860000C20BC209C20AC20D1215F9FF7005AFDE
:101696000A7E0022B425301215F9FF24D0B40A00C0
:1016A600500C75F00AC509A42509F50980E924CF6F
:1016B600B41A00EF5002C2E50218D4D20A80D8D27A
:1016C6000980D4D20D80D0EF121628500812166069
:1016D600EF600E80A9EFC0E0121636D0E06F609E74
:1016E600EF607412160C80A7121636EF6069E509D2
:1016F600700705098003121636EF6014200D0E12CE
:1017060015E6E475F00112120CEF121194D509E6F4
:10171600200D040508050A80BA12162CEFC0E01247
:101726001628D0E0500412160CE4FF200D0E1215F8
:10173600E6E475F00112120CEF121194EF70DA2044
:101746000D040508050A808BE509600205091216D5
:101756006012162CEF70C6300C04E412160CE50A63
:1017660060030216957EFF7FFF22200D1174FFFC99
:10177600FDFEFF1215E61212031211E90508021604
:1017860084D0E080D27900800A79108006790880BA
:1017960002790AD20EE50960020509E9C0E01216CF
:1017A60060EF60DD121636BF2D04D20B8003BF2B0F
:1017B60009121660EF60CA12162CD0E0B40A028035
:1017C60033B40802802EBF302770027408C20EC0E0
:1017D600E012162CD0E0BF78028003BF5816050928
:1017E600D509028007D50904D20E800B7410801922
:1017F6007002740ABF000AEFF8E4FCFDFEFF02184F
:1018060087C0E0EF12160CD0E0F9E4FCFDFEFFE91C
:10181600C0E0ECC0E0EDC0E0EEC0E0EFC0E01216C4
:101826002CEFF8D0E0FFD0E0FED0E0FDD0E0FCD019
:10183600F0E8604DB461004007B47B005002C2E599
:1018460024D0503DFA24F6500724F95034240AFADD
:10185600EAB5F000502BCFA9F0A42FFF92D5E9C529
:10186600F0CEA4A2D53EFE92D5E9C5F0CDA4A2D570
:101876003DFD92D5E9C5F0CCA4A2D53CFCC20E80B4
:061886008EE8C0E0200D19
:10188C002A200E08050A300B031211DB1215E61282
:10189C001203050820090B200A0DEE8FF01211BC63
:1018AC0080091211E98004EF121194D0E012160C89
:1018BC00021684200D101215E61212030508E50B12
:1018CC00850CF01211BC80E8121243174E53178F7F
:1018DC005816C54C16C142169D4817934F1797447E
:1018EC0016EE43178B491797551770461770451707
:0C18FC00704716C92A18BF4E000016CD18
:10107F00E709F60870FA8046E709F20870FA803E31
:10108F0088828C83E709F0A370FA807EE309F60863
:10109F0070FA8076E309F20870FA806E88828C838A
:1010AF00E309F0A370FA806289828A83E0A3F608CD
:1010BF0070FA805689828A83E0A3F20870FA804A18
:1010CF0080D280FA80C680D4806580F28031801013
:1010DF0080A680EA809A80A880DA80E280CA803178
:1010EF0089828A83ECFAE493A3C8C582C8CCC583EE
:1010FF00CCF0A3C8C582C8CCC583CC70E9800D895C
:10110F00828A83E493A3F60870F9ECFAA9F0EDFB59
:10111F002289828A83ECFAE0A3C8C582C8CCC58332
:10112F00CCF0A3C8C582C8CCC583CC70EA80DD895A
:10113F00828A83E493A3F20870F980CE88F0ED24BD
:10114F0002B4040050C4F582EB2402B4040050BA78
:09115F0023234582239010CF7375
:1024350090061CEBF0A3EAF0A3E9F0A3E0FBA3E010
:10244500FAA3E0F9120E9E70030224E190061CE047
:10245500FBA3E0FAA3E0F9120E9E70030224ED90AF
:10246500061FE0F9A3E0FAA3E0A3C9F0A3EAF0A3ED
:10247500E9F090061CA3E0FAA3E0F9900625EBF03D
:10248500A3EAF0A3E9F0900622E0FBA3E0FAA3E0BB
:10249500F9120E9EFF6026900625E0FBA3E0FAA345
:1024A500E0F9120E9E6F701590062375F00112115A
:1024B500A6900626E475F0011211A680C9900622A1
:1024C500E0FBA3E0FAA3E0F9120E9E7002800D90E6
:1024D500061DE475F0011211A602245190061CE0B8
:0F24E500FBA3E0FAA3E0F9227B007A0079002242
:10116800EF4E6012EF60010EEDBB010B89828A839E
:10117800F0A3DFFCDEFA2289F05007F709DFFCA9AB
:0C118800F022BBFEFCF309DFFCA9F02202
:10295100900635E0FFA3E0FEA3E0CF9005D4F0A3FD
:10296100EEF0A3EFF0900638E0CBF0A3E0CAF0A3BD
:10297100E0C9F07F229005D7AD82AC83120E9E8D07
:10298100828C83F0A309E970010ADFEC900638E03C
:0A299100FBA3E0FAA3E0F90212E64E
:10119400BB010689828A83F0225002F722BBFE013A
:0211A400F32234
:1011A600C5F0F8A3E028F0C5F0F8E58215827002D4
:0611B6001583E038F02271
:1011BC00BB010A89828A83F0E5F0A3F0225006F77E
:0F11CC0009A7F01922BBFE06F3E5F009F319227B
:0E11DB00C3E49FFFE49EFEE49DFDE49CFC2225
:1011E900BB010789828A830210425005E9F802127D
:0A11F90069BBFE05E9F80212752239
:09120300E0FBA3E0FAA3E0F922EC
:10120C00F8E0FBA3A3E0F925F0F0E582158270026B
:07121C001583E0FA38F0220F
:10122300F8E0FBA3A3E025F0F9F0E5821582700254
:071233001583E038FAF022F8
:09123A00EBF0A3EAF0A3E9F022B5
:10124300D083D082F8E4937012740193700DA3A33A
:1012530093F8740193F5828883E47374029368604E
:06126300EFA3A3A380DF4E
:10128100E50D24D4F582E43405F583E0050D2290C3
:1012910005D13007039005D4E475F00112120C0258
:1012A1000E9E2000E97F2ED2008018EF540F24906B
:1012B100D43440D4FF30040BEF24BFB41A005003E0
:1012C1002461FFE50E6002150E0511E5117002059E
:1012D1001030070E9005D1E475F00112120CEF02E7
:1012E1001194022BA37403D2078003E4C207F50D06
:1012F1009005D112123AE4F50EF510F511E50E60E4
:10130100077F201212C480F5750FFFC201C200C20F
:1013110002C203C205C206C208121290FF700D304C
:1013210007057F001212D5AF11AE1022B4255FC29E
:10133100D5C204121290FF24D0B40A00501A75F0DD
:101341000A780E30D50508B6FF0106C6A426F62098
:10135100D5047002D20380D924CFB41A00EF50040F
:10136100C2E5D2040214D6D20180C6D20080C0D216
:101371000280BCD2D580BAD20580B47F201212C4BB
:101381002002077401B50E0040F1121281FF121202
:10139100C40212FED208D2068095121281FB1212EB
:1013A10081FA121281F94A4B700679A77A157BFFEF
:1013B10020022EE50E602A7E008E82758300120EB9
:1013C100B760060EEE650F70F0C2D5EBC0E0EAC063
:1013D100E0E9C0E0EE12151DD0E0F9D0E0FAD0E06E
:1013E100FB120E9EFF60AAEBC0E0EAC0E0E9C0E09C
:1013F1001212C4D0E02401F9D0E03400FAD0E0FBAD
:10140100E50F0460DCD50FD980877BFF7A15791948
:10141100D202809C791080027908C206C208800835
:10142100D2D5790A8004790AC2D5E50F047002F594
:101431000FE4FAFDFEFF121281FC7B08200113125A
:101441001281FD7B1030000A121281FE121281FFFF
:101451007B20EC3382D592D55013C3E43000069F34
:10146100FFE49EFEE42001039DFDE49CFCE4CBF837
:10147100C201EC700CCFCECDCCE824F8F870F3802B
:1014810017C3EF33FFEE33FEED33FDEC33FCEB33EB
:10149100FB994002FB0FD8E9EB300105F8D0E0C41D
:1014A10048B201C0E00AEC4D4E4F78207B0070C27B
:1014B100EAB50F0040BCC0E012151FD0F0D0E0200B
:1014C1000104C4C0E0C4B201C0F01212ADD0F0D525
:1014D100F0EB0212FE121243139B53141558136CB6
:1014E1004C13684214194F142144142149138143A8
:0814F100142755140B46140BDF
:1014F90045140B4715C75013702D13742E13972BD2
:1015090013782313952015B02A1330480000138F40
:101519003F3F3F00790AA2D5200314300509B910CD
:10152900020404B9080104A2D520060250010420CE
:1015390002689202B50E005034C0E07F20300319D2
:101549007F30A20272067205500F121576C202C2CE
:1015590006C205C2087F30800F300503E9C0E012DA
:1015690012C4300503D0E0F9D0E0B50ECC30051730
:101579007F30B9100C1212C47F583004077F78806D
:1015890003B908031212C43002057F2D0212C47F69
:10159900202008F87F2B2006F322920280CF286EA4
:1015A900756C6C2900D2011212813001F8C20178E0
:1015B9000E30D50108F60213302D50434958121246
:1015C900812403B405004001E49015C2931212B5B9
:0D15D900743A1212B5D203750E04021415F7
:10000E0010120B122C71BF0D027F0A022BA3900649
:04001E003EE0FF229F
:082C7B0090063EEFF0D2122298
:102C4500EFC394094005EF940E4004EFB42003D37D
:042C55008001C32215
:0C126900ECF608EDF608EEF608EFF622B1
:0C127500ECF208EDF208EEF208EFF222B5
:102BA300EFB40A07740D122BAE740A309811A8996A
:102BB300B8130CC2983098FDA899C298B811F63092
:072BC30099FDC299F599226A
:0A2C71003098FDAF99C2987E002252
:00000001FF
