:0300000002322D9C
:0C322D00787FE4F6D8FD75812102327430
:1000260074686973206973207561727420746573CE
:10003600740D0A003C2D2D2D2D2D2D44454255477E
:10004600204D5347203D3E20746869732069732014
:1000560075617274322074657374203D2D2D2D2DBB
:100066002D2D2D2D2D0D0A004155445F52454C4135
:10007600580D0A004155445F53544F500D0A004134
:1000860055445F53544152540D0A000800000000C5
:10009600000000000000000000000000000000005A
:1000A60000006040000000000201010000000000A6
:1000B60000000000000140000000000101010101F4
:1000C60001071F7E6FFFDBDFDFDFDFFFEFFEEFEFF6
:1000D600CFD7FFE7F7DFD4D0C44C1656B62E8E27FF
:1000E6002F3F3F7F7FFFFFFFFFFFFFFFFCFCFDFC75
:1000F600FDFFFFFEFFEFE703010101010000000025
:1001060000000102082040E000000000000000009E
:100116008180800000000000000000000000000058
:1001260000000000000001000000000080000080C8
:10013600C080E0A0E0E0E0ECEC6EEDEFFCC69E2EA9
:100146003EFEFFFFFFFF3F0F0F0F070703030303EB
:10015600030101030101010000000000000000008E
:100166000000040004102123470FFFFFFFFFFFFFDD
:10017600FFFFFFFFF003BF38C000000000000000D3
:1001860000000000000000170000003C3E1E0E07A5
:10019600070600000000000000000000000000004C
:1001A600000000408040F070B8E8F87C3E1F5FCF4A
:1001B600CF8F87D703212100000080808181838330
:1001C600FFFFFF1F1F1F3C3C7E747C5E1C1C1C181F
:1001D6001800000000000000181C1C02121210007B
:1001E600000000000000000000000B0F0FFFFFFFE3
:1001F600FFFFFFFFFFFFFFFFF9FAFCFCC8800000CE
:1002060080808088000000000000000000000000E0
:1002160000000000000000000000000080C0B0F8F0
:10022600FE5BDFF3FC6F8DFABE3F010000000000AD
:1002360000404800080090909000010306060D8FCC
:10024600DFFCFBFCF8F0E0E0C0C0C0E0F0FCF87CAE
:100256007E7E5C505870606064204040C0808000A4
:100266000000000000000000000000003F3F7F3F4C
:10027600FFFFFFFFFFFFFF7F7FC71F7BE3CE0F0F51
:100286009F07070305000000000000000000800033
:100296000000000000E0F0F8FCF2FFFFFFFF8F1BFC
:1002A600FFFFFFFFFFFFFFFFFFFFFFFEFCF8F8F079
:1002B600F0E0E0E0F0F0F0F9F9F9FCFCFEFFFFFFFA
:1002C6003F1F1F1F3F3F7FFFFFFFFFFFFDF9F8F0B6
:1002D600E1E1E3E1E1E0E0E0E0E0E0F0F0D8E6FCD7
:1002E600FC7870683010381C5C1C78F8F8FEFEFE4E
:1002F600FFFFFFFFFFFFFFF7FF7FF88003071BE706
:10030600FFF821200101196A000000C48080C0C0E6
:10031600E0B47AFEFEEFBFFFFFFFEFF7F9FFFFFF46
:10032600FF0F0F0F0F1F0F0F1F1F3F1F1F1F1F1F37
:100336000F0F1F1F1F1F1F1F1F1F3F3F3F3F3F3E28
:10034600B87C3C7CF0F8FCFCFFFFFFFFFFFFBFBF63
:100356003F7FFF7F7F3F3F3F3FFFBF27E7E3E93711
:100366009D9810B020202021212123232707071F35
:100376001F1F1F9F1F9F7F7FFFBFBF3F3F3C381838
:100386007F7E7C7CF878F0F0000000FFFFFFAF373F
:1003960019181F0F0F0C07070703030101010100BE
:1003A6000000000000000000000000008080808047
:1003B60088808048C8000020800000A8640494E07B
:1003C600F1F9FDFBF7FBF7DF7F3F7F0F495121CEA8
:1003D6007E388810C4C0BA727F77F7FFE7EFCCDFAC
:1003E600DE1F0B00101008000000101878785878EF
:1003F600FCFEF0F0E7E7CFBFBF3E7C0870206060F0
:1004060040C08080808000000000000707070700CA
:1004160000000000000000000000000000000004D2
:100426000404040004040404060606070707070775
:100436000704060600040507040606040607070562
:10044600070407070707070704060007050602054E
:100456000100000407070707070606060505050746
:100466000301050000060004040000020000000469
:10047600050707030707070707070706040404001D
:1004860002000001030707040000000000F8FC0C4E
:100496000CCCCCCCCCCC0C0CFCFC0000908080901E
:1004A600100000FCFC306060B0B0B0100000CCC0A2
:1004B60000CCCCCCCCE0C0CCCCCC0000FCFC0C0CF2
:1004C600CCCCCCCCCC0C0CFC00000000003F7F60F8
:1004D60060676767676760607F3F0000799F9FE19D
:1004E600E11E1E79310030781F1F676780C0E1C0AA
:1004F60000E7E79E9E797980E1E100003F7F60603A
:10050600676767676760707F000000000002027E11
:10051600FE0E0EFE1E0EF0F03233CECECE87031D3B
:100526003C3C3C3020C0983CFEFEFC7C03030C0C9B
:100536000CFCFD0F0FF0F0CCC1C1C3C2CCCCCE3049
:100546003032320C0C0E0EF040000000001C1E7EF5
:100556007C18189E61610101999B676799191919A1
:100566001918189E8E010199F9F9E6E418387E7C6F
:10057600781F1FE7E79E9C60676760606060601C8D
:100586001EE0E00606E1E16000000000000E0F0E2E
:100596000E3020C32030F8FCCDCCCCCC0F1C3C3226
:1005A60032000001080C88C1E0F1F3E3CCCCCCDCCE
:1005B6003E373333373F3F30303030303236CE0C73
:1005C6000CF0F00207FFFF3000000000007F7F0004
:1005D600006C6E6F0E0C6F6F6C6C6C6CEC9C9C9C64
:1005E6009C000060646C33137C7CFCFC0C0EEFC337
:1005F600989C9C9B930F0F10F1F37373737363E4D2
:10060600EC8F8FF3F363630C0400000000FEFE061C
:1006160006E6E6E6E6E60606FEFE0000F7F7F7C79C
:10062600C7C6C60606060C083838C98808183959D8
:10063600C93131F9F9C6C6C63F3F3030363230FFD0
:10064600FFF1F1F9F9C6C63800000000001F1F10BF
:1006560010131313131310101F1F00001F0303049E
:100666000C03030300100E0F1F1F0C0C1C1C0C0E9A
:100676000F0C0C000113130C1F1F13131010100F77
:100686000F131311101C1C0C000000E0E0E0E0E06A
:10069600E0E0E0C080000000C0E0E0E0E0E0C0C0D4
:1006A600000000E0E0E0E00000C0E0E0E0C000C0E4
:1006B600E0E0F0FCFFE0E0C000C0E0E0E0C0C0E049
:1006C600E0E0C080C0E0E0E0C00000FFFFFFFF0FF9
:1006D6000F0FFFFFFFFC000087CFC7C7C7FFFFFF55
:1006E600FF0000FFFFFFFF0000FFFFFFFFFF000FFF
:1006F6000FFFFFFFFF2F0F0700FFFFFFFF0F0F0F7B
:10070600FFFFFFFF0F0FFFFFFFFF00FFFFFFFFFED3
:10071600FEFEFF7F3F0700FFFFFFFF0F0FFFFFFFFC
:10072600FF00000F3F7F7F7E7EFFFFFFFFFF000081
:1007360000FFFFFFFF85000000FFFFFFFF00000036
:10074600FFFFFFFF0000FFFFFFFF00FFFFFFFF00AF
:10075600000000000000003F7F7FFFFCFCFFFFFF62
:100766007F000000FEFEFEFEFEFFFF7F3F0300004F
:10077600007FFFFFFF520000007FFFFFFF00000029
:10078600FFFFFFFF00007FFFFFFF000000000000EB
:100796000000000000000000000000000000000053
:1007A6000000000000000000000000000000000043
:1007B6000000000000C0C010080808040406060671
:1007C60004040405050505050505050505040000E1
:1007D600000808F2020204F8F80000000000000019
:1007E6000000000000000000000000000000000003
:1007F600000000000000000000000000007C828273
:1008060000010101700707080808001010D0101039
:1008160010101010101010F00000601010000404EA
:1008260000020203020202F8F800000000000000C5
:100836000000000000000000000000808040200052
:1008460000909090402020282020001010101111B8
:1008560012F40707000000000000803C3C81808005
:100866004040404000000E004040404646481010C0
:10087600A0C0C0E010100803030000000000000044
:100886000000000000000000F0F0060000C0382361
:1008960023311010505050108080808080202020FE
:1008A6003E20000040C0C010040403010100C0C087
:1008B600100C0C04020201010101000000000000FE
:1008C600000000E107070000000000000000000033
:1008D60000C0202008848462111108040483411199
:1008E600110AC6C62610100C0C0C84484828292963
:1008F60011111212020F0F0000000000001F00006D
:1009060000000000000000000000000000008080E1
:100916003007070000000000000000000000E00EA5
:100926000E00C0C00C010100808030060600E00405
:1009360004010000C030300401018030300C020296
:10094600023C0000FE000000000000FFFF00000067
:1009560000000000000000000000000000C6191999
:1009660000101020000000000000000000007F8042
:1009760080007F7F808080807F7F000000FE0000F7
:100986000000F8F8010000003C3C010000000000F7
:10099600FC0000007F8080402020203F3F000000B8
:1009A60010101010080888804444422121001010BD
:1009B600080404020000000000000000000000001F
:1009C60000010101020202040404080808131404C9
:1009D6000420272740404040484848242424020257
:1009E60013000808060303040404040404000202B6
:1009F60002000001010100000000000000000000EC
:100A060000000000000000000000000000F8F804EC
:100A16000202F208080000000405050505050505A3
:100A2600050505040404060606040408080810C0A3
:100A3600C0000000000000000000000000000000F0
:100A460000000000000000000000000000000000A0
:100A560000000000000000000000000000F8F8029E
:100A66000202030202000404001010600000F010ED
:100A76001010101010101010D010100008080807E1
:100A860007700101010082827C0000000000000066
:100A96000000000000000000000000000000000050
:100AA6000000000000000000000000000003030832
:100AB6001010E0C0C0A01010484646404040000E4E
:100AC6000000404040408080813C3C8000000000A7
:100AD60000000707F4121111101010002020282022
:100AE6002040909090000020408080000000000090
:100AF60000000000000000000000000000000000F0
:100B06000707E100000000000000000001010101EC
:100B16000202040C0C10C0C000010103040410C042
:100B2600C0400000203E2020208080808080105021
:100B36005050101031232338C0000006F0F000009A
:100B4600000000000000000000000000000000009F
:100B56000000000707308080000000000000000051
:100B660000000000000000001F0000000000000F51
:100B76000F02121211112929284848840C0C0C1056
:100B86001026C6C60A111141830404081111628495
:100B960084082020C00000000000000000000000C3
:100BA6000000201010001919C60000000000000007
:100BB600000000000000000000FFFF000000000031
:100BC60000FE00003C0202020C30308001010430BD
:100BD60030C00000010404E00006063080800001F9
:100BE600010CC0C0000E0EE0000000000000000076
:100BF60000000204040810100021214244448088A9
:100C06000808101010100000003F3F2020204080F0
:100C1600807F000000FC0000000000013C3C00005A
:100C26000001F8F800000000FE0000007F7F8080D1
:100C360080807F7F0080807F000000000000000031
:100C4600000000000000000000000000000000009E
:100C5600010101000002020200040404040404036A
:100C6600030608080013020224242448484840408A
:100C7600404027272004041413080808040404022B
:100C860002020101010000000000000E1F1FFFFF0D
:100C96001F1F1F1F1F1F1F1F1F1F1F1F1F1F1F1F5E
:100CA6001F1F1F1F1F1F1F1F1FFFFF1F1F0E0000DD
:100CB6000000FFF000E0E0E0E0E0E0E0E0E0E0E09F
:100CC600E0E0E0E0E0E0E0E0E0E000E0FF0300007C
:100CD600000000000000030F3C73EFDFBF7FFFFF43
:100CE600FFFFFFFFFFFFFF7FBFDFEF733C0F070034
:100CF60000000000000000000000000000000103EA
:100D0600071CF9E71FFF1FE7F91C0E03010000008F
:100D160000000000000000000000000000000000CD
:100D26000080C0E0701F0F6005100F1F70E0C080CC
:100D3600000000000000000000000000000000C0ED
:100D4600F0381E07030100000000080063000000E1
:100D5600000103070E38F0C000000000000000008C
:100D660000FF0F00000080C0E0F0F0F8FDFEFEFE80
:100D7600FCFAF0F0E0C0800000000FFFC0000000A9
:100D860070F8F8FFFFF8F8FAFBFBFBFBFBFBFBFB3D
:100D9600FBFBFBFBFBFBFBFBFBFBFBFAF8F8FFFF9C
:100DA600F8F870FEFFFFFFFE1898181010101030AC
:100DB6003030306060C0C0800000000000000000DD
:100DC600000000000000000000000000008080C05D
:100DD600C06060B0B0B03010101010181818FEFFC8
:100DE600FFFFFEFFFFFFFFFF00FFFFFEFCF8F0C066
:100DF600800080000000010103070E1C383060C02F
:100E0600C0C0C0C0C0C06060B098DCEEF7FBFDFE9D
:100E1600FEFFFFFFFFFF0000000000000000FFFFD5
:100E2600FFFFFFFFFFFFFFFF00FFFFFFFFFF7F1F2B
:100E36000F17000004040001000484C0E1613418A7
:100E46001A181A1A1A1A37776FCF9FBF7FFFFFFF3C
:100E5600FFFFFFFFFFFF0000000000000000FFFF94
:100E6600FFFFFFFFFFFFFFFFC0CFC7C3C1404060CA
:100E7600606060303018180C06070301000000009F
:100E8600000000000000000000000103070E0D1B1B
:100E96003B37376F6F6F404040C0C0C0C0C0FFFFD8
:100EA600FFFFFF0307070703000000000000000024
:100EB600000000203078303028203000000000008C
:100EC60000000000E0E06060E0E00000E0E060605C
:100ED600600000E0E0E000E0E0E0000000C0E0E0EC
:100EE600C0000000E0E00000E0E0C000E0E000003C
:100EF600E0E00000E0E0C000E0E00000C0E060608C
:100F06006040000000006060E0E0E0606000E0E05B
:100F16000000E0E0E000E0E0E00000E0E0606060AB
:100F260000000000000000000000000000000000BB
:100F360000000000000000000000000000000000AB
:100F4600000000000F0F03070F0D08000F0F0D0D17
:100F56000D0C000F01070F07010F00080F0706060B
:100F6600070F08000F0F00000F0F01070F0F0000FB
:100F76000F0F00000F0F01070F0F0001070F0C0DD9
:100F86000D070000000000000F0F0F0000000F0FFC
:100F960000000F01070F07010F00000F0F0D0D0DC9
:100FA6000C000000000C0C00000000000C0C0000FF
:100FB6000000000C0C000000000000000000000013
:100FC600000000000000000000000000000000001B
:100FD600000000000000000000000000000000000B
:100FE60000000000000000000000808080808080FB
:100FF60080800000000000000000000000000000EB
:10100600000080F0FCFEFEFFFFFF3F1F0F0F0F1FCB
:101016003FFFFFFFFEFCF8F080000000000000002C
:101026000000FFFFFFFFFFFFFF8F00000000000032
:10103600008FFFFFFFFFFFFFFF0000000000000022
:1010460000000F7FFFFFFFFFFFFFE0C0808080C032
:10105600E0FFFFFFFFFFFF7F0F0000000000000022
:101066000000000000010307070F0F0F0F0F0F0FFF
:101076000F0F070703030100000000000000000037
:10108600000000000000000000000000000000005A
:10109600000000000000000000000000000000004A
:1010A60000000000000000000000008080808080BA
:1010B600808000000000000000000000000000002A
:1010C600000080C0C0E0E0F0F8FCFEFFFFFFFFFF7D
:1010D600FFFF00000000000000000000000000000C
:1010E60000001F0F0F0F07070303FFFFFFFFFFFFA0
:1010F600FFFF0000000000000000000000000000EC
:1011060000000000000000000000FFFFFFFFFFFFDF
:10111600FFFF0000000000000000000000000000CB
:10112600000000000000000000000F0F0F0F0F0F5F
:101136000F0F00000000000000000000000000008B
:101146000000000000000000000000000000000099
:101156000000000000000000000000000000000089
:1011660000000000000000000080808080800000F9
:101176000000000000000000000000000000000069
:1011860000F0FCFCFEFFFF3F1F0F0F0F0F0F1F3F6E
:10119600FFFFFEFEFCF00000000000000000000063
:1011A60000000000000000000080C0E0F0F8FCFE37
:1011B600FFFF7F3F1F070000000000000000000047
:1011C6000080E0F0F8FCFEFFFFFFDFCFC7C7C3C11A
:1011D600C1C0C0C0C0C00000000000000000000088
:1011E6000E0F0F0F0F0F0F0F0F0F0F0F0F0F0F0F0A
:1011F6000F0F0F0F0F0F000000000000000000008F
:1012060000000000000000000000000000000000D8
:1012160000000000000000000000000000000000C8
:101226000000000000808080808080808080000038
:1012360000000000000000000000000000006078D0
:101246007C7E7FFFFF7F1F0F0F0F0F1FFFFFFFFF2C
:10125600FEFEFCF0000000000000000000000000A0
:10126600000000000000007C7C7C7E7FFFFFFFFF0B
:10127600FFE7E3C08000000000000000000030F03F
:10128600F0F0F8F8F8F0C08080808080C0FBFFFFA7
:10129600FFFFFFFF3F00000000000000000000000D
:1012A60001030707070F0F0F0F0F0F0F0F0F07078A
:1012B600070301000000000000000000000000001D
:1012C6000000000000000000000000000000000018
:1012D6000000000000000000000000000000000008
:1012E6000000000000000000000000808080808078
:1012F60080800000000000000000000000000000E8
:101306000000000080C0E0F0F8FEFFFFFFFFFFFFD7
:10131600FFFF000000000000000000000000C0E029
:10132600F0F8FCFE7F3F1F0F07030100FFFFFFFFE2
:10133600FFFF00000000000000000000007F7F7F2C
:101346007F7F7F7F7E7E7E7E7E7E7E7EFFFFFFFFAF
:10135600FFFF7E7E7E7E0000000000000000000091
:101366000000000000000000000000000F0F0F0F3B
:101376000F0F000000000000000000000000000049
:101386000000000000000000000000000000000057
:101396000000000000000000000000000000000047
:1013A60000808080808080808080808080808080B7
:1013B6008080808000000000000000000000000027
:1013C600FCFFFFFFFFFFFF1F1F1F1F1F1F1F1F1F0A
:1013D6001F1F1F1F00000000000000000000003F4C
:1013E6003F3F7F7F7F7F3E1E1E1F1F1F3FFFFFFE6B
:1013F600FEFCF8F0E000000000000000000070F0C5
:10140600F0F8F8F8F8F0C0C080808080C0F9FFFFDF
:10141600FFFFFF7F1F00000000000000000000002B
:1014260001030707070F0F0F0F0F0F0F0F0F070708
:10143600030301000000000000000000000000009F
:101446000000000000000000000000000000000096
:101456000000000000000000000000000000000086
:1014660000000000000000000080808080808080F6
:1014760080000000000000000000000000000000E6
:101486000000E0F8FCFEFEFFFF7F1F0F0F0F0F1F8F
:101496007F7F7F7F3E3C3820000000000000000078
:1014A60000FFFFFFFFFFFFFFFFF8783C3E3E3E7E5A
:1014B600FEFEFCFCF8F8F0C0000000000000000092
:1014C600000F3FFFFFFFFFFFFFE0C080808080C06E
:1014D600E0FFFFFFFFFFFF7F0000000000000000AD
:1014E6000000000001030707070F0F0F0F0F0F0F74
:1014F6000F070707030100000000000000000000BE
:1015060000000000000000000000000000000000D5
:1015160000000000000000000000000000008080C5
:1015260080808080808080808080808080808080B5
:1015360080808080800000000000000000001F1FE7
:101546001F1F1F1F1F1F1F1F1F1F9FDFFFFFFFFFE5
:10155600FFFF7F1F0F0000000000000000000000DA
:10156600000000000000C0F0FCFEFFFFFF7F1F0729
:101576000100000000000000000000000000000064
:1015860000000080F8FFFFFFFFFFFF1F01000000C3
:101596000000000000000000000000000000000045
:1015A6000000000F0F0F0F0F0F0F0F0000000000BD
:1015B6000000000000000000000000000000000025
:1015C6000000000000000000000000000000000015
:1015D6000000000000000000000000000000000005
:1015E60000000000000000808080800000000000F5
:1015F600000000000000000000000000000000E005
:10160600F8FCFEFFFF3F1F0F0F0F0F0F1F3FFFFEE0
:10161600FEFCF8E000000000000000000000008072
:10162600C3C7EFFFFFFFFE7C7C7C7C7CFEFFFFFFD9
:10163600EFC7C380000000000000000000000CFFA0
:10164600FFFFFFFFFFE1C08080808080C0E1FFFFD9
:10165600FFFFFF7F0C0000000000000000000000FC
:10166600010303070707070F0F0F0F0F07070707EA
:10167600030301000000000000000000000000005D
:101686000000000000000000000000000000000054
:101696000000000000000000000000000000000044
:1016A6000000000000808080808080808000000034
:1016B6000000000000000000000000000000F0F83C
:1016C600FCFEFFFFFF3F1F0F0F0F0F1F3FFFFFFF28
:1016D600FEFCF8E0800000000000000000001F7F14
:1016E600FFFFFFFFFFF8F0E0E0E0E0F0F8FFFFFFAC
:1016F600FFFFFFFFFF00000000000000000020E0E9
:10170600E0E0F1F1F3F3C383838381C1F0FFFFFFD0
:10171600FFFFFF3F07000000000000000000000080
:1017260001030707070F0F0F0F0F0F0F0F07070311
:0B1736000301000000000000000000A4
:10261E00E4900575F0A3F0A3F0A3F0759101759108
:10262E000153B1FE43B20175910153B1FD43B202A4
:10263E0075910153B1FB43B20475910153B1F74348
:10264E00B20875910153B5FE43B60175910153B5AC
:10265E00FD43B60275910153B5FB43B60475910166
:10266E0053B5F743B60875910153B5DF43B62075E0
:10267E00910153B5EF43B61075910153C2FB43C39D
:10268E000475910153BDEF43BE1075910153BDDF2B
:10269E0043BE2075910153C2F743C308C2B375916F
:1026AE000253F1F043F10375910253F10F43F130F0
:1026BE0075910153B3BF53B4BF75910153B37F539B
:1026CE00B47F75910253EBF043EB0875910253EB17
:1026DE000F43EB8075910153B9FE53BAFE7591010C
:1026EE0053B9FD53BAFD12319D9005807401F0A3CC
:1026FE001218F10001C2007F007E367D6E7C011241
:10270E0021AB7D017F061232B9D2AF9005807404E1
:10271E00F0A31218F10001C2007F007E367D6E7CA0
:10272E00011221AB1237211234687F141237B0C256
:05273E008DD28CD2A930
:102743009005797401F0A3742CF01237877BFF7A1C
:102753000079267F061236927BFF7A00793A12338C
:01276300A9CC
:10276400E490057BF01223E6300A0DC20A7BFF7A5F
:1027740000796E7F06123692300B0DC20B7BFF7A06
:1027840000797A7F061236929005EAE0B414153087
:102794000C127BFF7A0079857F061236927FE87EE1
:1027A400031238429005EAE07016300C13900402CC
:1027B400E0FEA3E0FFD39400EE94004003122F2E1A
:1027C400E4F59190057BE5B1F0E020E693D3900425
:1027D40003E09402900402E094004084E4F5917FC5
:1027E4002C7E01123842E4F59190057BE5B1F0E0CE
:1027F40020E609900402E4F0A37402F07FE87E036B
:0328040012384245
:0328070002276441
:10384200E4FDFCC3ED9FEC9E5015E4FBFA0BBB00BC
:0F385200010ABA08F8BB4CF50DBD00010C80E46B
:013861002244
:10388100EF540FF5A0EFC4540FF580C2A5D2A47F69
:0B389100017E00123842C2A40238423F
:102E4A00EF540FF5A0EFC4540FF580D2A5D2A40019
:102E5A000000000000000000000000000000000068
:102E6A000000000000000000000000000000000058
:102E7A000000000000000000000000000000000048
:102E8A000000000000000000000000000000000038
:102E9A000000000000000000000000000000000028
:102EAA000000000000000000000000000000000018
:102EBA000000000000000000C2A4000000000000A2
:102ECA0000000000000000000000000000000000F8
:102EDA0000000000000000000000000000000000E8
:102EEA0000000000000000000000000000000000D8
:102EFA0000000000000000000000000000000000C8
:102F0A0000000000000000000000000000000000B7
:102F1A0000000000000000000000000000000000A7
:042F2A000000002281
:10372100E4F591E5B154DF4420F5B1D2B2E4F5916D
:10373100E5B154EF4410F5B17FD07E071238427FD6
:103741003E1238817F401238817FB81238817FC0A4
:083751001238817F3F0238812C
:10346800E4F591E5B154DF4420F5B1D2B2E490051A
:10347800D9F0A3F09005D9E0FEA3E0FFC39408EECD
:1034880064809480502AEF24B8FF123881E4FDFC50
:10349800E4FF122E4A0DBD00010CED64404C70F0A3
:1034A8009005DAE004F070CC9005D9E004F080C40F
:0A34B8007F401238817FB80238818E
:10375900A905E4F591EB70047E0180027E00EEC4B8
:103769003354E0FEE5B154DF4EF5B1EB24FF92B2DC
:0E377900EF2440FF123881E924B8FF023881A6
:0B2D63009005D9EFF0A3EDF0A3EBF01A
:102D6E009005D9E0FF9005E1F0A3EDF0E4A3F0A308
:102D7E00F09005E0E0FE131313541F9005E5F0E408
:102D8E00A3F0A3F01237599005DAE09005E4F09025
:102D9E0005DAE0FF9005E5E02FFFE433FE9005E451
:102DAE00E0FDC39FEE6480F87480984003022E49C4
:102DBE009005D9E0FF9005DBE0FB1237599005D95D
:102DCE00E09005E3F09005D9E0FF9005DFE02FFFDE
:102DDE00E433FE9005E3E0C39FEE6480F8748098C0
:102DEE0050509005DCE0FBA3E0FAA3E0F99005E675
:102DFE00E0FEA3E0F5828E8312175AFF122E4A9040
:102E0E0005E7E004F070069005E6E004F09005E3B7
:102E1E00E0B43F16A3E0FD9005DBE004FBE4FF12F7
:102E2E003759E4F59153B1DFD2B29005E3E004F0E7
:0B2E3E0080939005E4E004F0022D9D5D
:012E49002266
:103862001234689005DC7401F0A37400F0A37400B4
:0F387200F0A37440F0A3F0E4FBFD7F20022D6370
:1035AF002009499005EBE020E0201234689005DCFB
:1035BF0074FFF0A3740CF0A37491F0A37423F0A321
:1035CF007440F0E4FBFD7F2D801F1234689005DC02
:1035DF0074FFF0A3740DF0A374A9F0A37440F0A3CB
:0D35EF007423F0E4FB7D027F20122D632287
:103800001234689005DC74FFF0A3740AF0A37411FD
:10381000F0A37450F0A37440F0E4FBFD7F18022D78
:013820006344
:042F2E00AB07AA063D
:102F3200E490057FF0FC7D3C121799A3EEF0A3EF1D
:102F4200F0900580E0FEA3E0FF7C007D0A12179955
:102F5200A3EFF0900580E0FEA3E0FF7C007D0A1263
:102F62001799900583EDF0AE02AF037C007D3C1211
:102F72001799AB05AA047C007D0AAF03AE021217B3
:102F820099A3EFF0AE02AF037C007D0A121799A35A
:102F9200EDF090057FE0FFC43354E090057CF0A390
:102FA2007402F0EFC313A3F0A3E0146017146021BE
:102FB2001460322403704390057DE0FDA3E0FB9092
:102FC2000582801890057DE0FDA3E0FB90058380DB
:102FD2001F90057DE0FDA3E0FB900584E09005894C
:102FE200F0E4FF801290057DE0FDA3E0FB900585F3
:102FF200E0900589F07F20122B2D90057FE004F0F0
:06300200E0C39404408CC1
:0130080022A5
:102B2D00900586EFF0A3EDF0A3EBF0A3E0B40A005F
:102B3D004003022C60902B49F8282873022B670262
:102B4D002B7F022B97022BAF022BC7022BDE022B02
:102B5D00F5022C0C022C23022C3A900586E0FFA3E3
:102B6D00E0FD9005DC74FFF0A3740FF0A374C102B7
:102B7D002C4F900586E0FFA3E0FD9005DC74FFF07F
:102B8D00A37410F0A37481022C4F900586E0FFA36F
:102B9D00E0FD9005DC74FFF0A37411F0A374410205
:102BAD002C4F900586E0FFA3E0FD9005DC74FFF04F
:102BBD00A37412F0A37401022C4F900586E0FFA3BD
:102BCD00E0FD9005DC74FFF0A37412F0A374C180D6
:102BDD0071900586E0FFA3E0FD9005DC74FFF0A386
:102BED007413F0A37481805A900586E0FFA3E0FD75
:102BFD009005DC74FFF0A37414F0A374418043902E
:102C0D000586E0FFA3E0FD9005DC74FFF0A37415CD
:102C1D00F0A37401802C900586E0FFA3E0FD9005E4
:102C2D00DC74FFF0A37415F0A374C18015900586B4
:102C3D00E0FFA3E0FD9005DC74FFF0A37416F0A394
:102C4D007481F0A37420F0A37430F0900588E0FB3C
:042C5D00122D6322AF
:103561004104D200410541004104D000410542001F
:093571004204CE00004104D10027
:0300230002280AA6
:10280A00C0E0C0F0C083C082C0D075D000C000C094
:0D281A0001C002C003C004C005C006C00715
:102827009005D8E4F02098030229CD900541E024D3
:1028370043F582E43405F583E599F0900541E0041A
:10284700F0E0FF2442F582E43405F583E0640A7082
:102857006C900542E06401705774432FF582E434AD
:1028670005F583E4F09004D0E075F032A424DDF997
:10287700740435F0A801FC7D017B017A05794312C8
:1028870019EE900541E4F09004D0E0C3940150059F
:10289700E004F080059004D0E4F09004D27401F0D5
:1028A7007E007F327D00FB7A057943121A0B800D7B
:1028B700900542E0700704F0900541E4F0900400B1
:1028C700E06401600302296F900541E02442F5822C
:1028D700E43405F583E0FFC39430400BEFD394391C
:1028E7005005EF540F801F900541E02442F582E424
:1028F7003405F583E0FFC394414021EFD39446505C
:102907001BEF540F2409FF9004D1E024D3F582E490
:102917003404F583EFF09004D1E004F09004D1E0A3
:10292700B40245FF24D1F582E43404F583E0C454AE
:10293700F0FE74D22FF582E43404F583E04EFF9065
:1029470004CEE0FCA3E02400F58274003CF583EF9D
:10295700F09004CFE004F070069004CEE004F0900D
:1029670004D1E4F0900541F0900541E0FFD39430A5
:10297700404E74432FF582E43405F583E4F0900468
:10298700D0E075F032A424DDF9740435F0A801FC19
:102997007D017B017A0579431219EE9004D0E0C3DB
:1029A70094015005E004F080059004D0E4F0900510
:1029B70041E4F0FE7F32FD7B017A057943121A0B61
:0F29C7007591005398FE3099067591005398FD55
:1029D600D007D006D005D004D003D002D001D00055
:0B29E600D0D0D082D083D0F0D0E032FF
:1021AB0090057C1218E5900580E014B407004003FD
:1021BB000223E59021CC75F003A4C58325F0C583DC
:1021CB00730221E102222C0222410222BB02235F75
:1021DB000221E1022241E4F591759850438920F5E3
:1021EB0091438780F591438E10F59153C4DF7B109B
:1021FB00FAF9F890057CE0FCA3E0FDA3E0FEA3E078
:10220B00FF12182A900581E0F8A3E0F9A3E0FAA3E6
:10221B00E0FB12182AEFF404F58DE4F591438840A6
:10222B0022E4F591759850F59143878053C4F8F5E6
:10223B009143C4208009E4F59175F85075C4887BEF
:10224B0010FAF9F890057CE0FCA3E0FDA3E0FEA3F7
:10225B00E0FF12182A900581E0F8A3E0F9A3E0FA59
:10226B00A3E0FB12182AC3E49FFFE49EFE74019DBA
:10227B00FDE49CFC78081218D28FC6E47B10FAF9A7
:10228B00F890057CE0FCA3E0FDA3E0FEA3E0FF12C9
:10229B00182A900581E0F8A3E0F9A3E0FAA3E0FB8C
:1022AB0012182AC3E49FFFE48FC5F59143C408229B
:1022BB00E4F59143D601F59143D701F59143D7024C
:1022CB00F59153D6EFF59153D6F77B08FAF9F890C1
:1022DB00057CE0FCA3E0FDA3E0FEA3E0FF12182ABF
:1022EB00900581E0F8A3E0F9A3E0FAA3E0FB121854
:1022FB002AEF24FFFFEE34FFED34FFEC34FFE48FC5
:10230B00DB53DCF07B08FAF9F890057CE0FCA3E0EA
:10231B00FDA3E0FEA3E0FF12182A900581E0F8A3CD
:10232B00E0F9A3E0FAA3E0FB12182AEF24FFFFEE7B
:10233B0034FFFEED34FFFDEC34FFFC78081218D2AD
:10234B00EF540F42DCE4F59143D74053D7CFF591CF
:10235B0043D68022E4F59143D701F59153D6EFF59F
:10236B009153D6F7900581E0F8A3E0F9A3E0FAA327
:10237B00E0FB90057CE0FCA3E0FDA3E0FEA3E0FF07
:10238B0012182AEF24FFFFEE34FFED34FFEC34FF7D
:10239B008FDB900581E0F8A3E0F9A3E0FAA3E0FB63
:1023AB0090057CE0FCA3E0FDA3E0FEA3E0FF121888
:1023BB002AEF24FFFFEE34FFFEED34FFFDEC34FF7C
:1023CB00FC78081218D2EF540FF5DC75910243E735
:0B23DB004053E7CF75910243E68022DB
:1034C200E4F591EF24FC601C14602824FE600C04D7
:1034D200703B3098FDAE99C298803230F8FDAE9ABA
:1034E200C2F88029E4F59153D6FDE5DF20E1FBAE79
:1034F200D9801A75910253E6FDE5DF7C0060047DF8
:0F3502000180027D00ED64024C60EEAED9AF0691
:013511002297
:10340900E4F591EF24FC602414603824FE60100474
:10341900704CE4F591C2998D993099FDC29922E4D5
:10342900F591C2F98D9A30F9FDC2F922E4F591536B
:10343900D6FB8DD9E5DF44F764F760F8E4F59153DD
:10344900D6FB2275910253E6FB759102AF058FD920
:0F345900E5DF44F764F760F875910253E6FB2254
:10369200EF24FC602F24FD601704703C121741FDDB
:1036A20060367F06123409740129F9E43AFA80EC93
:1036B200121741FD60227F07123409740129F9E4CF
:1036C2003AFA80EC121741FD600E7F04123409743D
:0936D2000129F9E43AFA80EC2226
:1032B900EF24FC603414605024FE6018047069ED3A
:1032C90014600A047062E4F59153A8EF22E4F591C1
:1032D90043A81022ED14600A04704DE4F591539C43
:1032E900FE22E4F591439C0122ED14600F0470382D
:1032F900E4F59153DDFDF59153DDFE22E4F59143AB
:10330900DD02F59143DD0122ED1460100470197599
:10331900910253DDFD75910253DDFE227591024341
:09332900DD0275910243DD012271
:10382100E4F591759850438920F591438780F5918E
:10383100538EEFF59153C4DF758DFFF591438840A9
:013841002264
:102C61002B435245473A20002C002B435245473A0B
:102C71002025642C256420252A5B5E0D0A5D0D0A42
:102C8100002B435245473A002B435245473A2025F2
:102C91006420252A5B5E0D0A5D0D0A003C2A2A2A62
:102CA1002A2A555243203D20257300494D475F5242
:102CB1004543560D0A000D0A2D2D207561727420B1
:102CC1007265632025732D2D0D0A0054494D453A37
:102CD10025640D0A003C2D2D2D2D2D2D74696D655A
:102CE100722076616C7565203D2025642D2D2D2D7A
:102CF1002D2D2D2D2D0D0A003C2D2D2D2D2D2D444D
:102D010045425547204D5347203D3E2055415254A1
:102D11004C494E452045584954203D2025642D2DD0
:102D21002D2D2D2D2D2D2D0D0A002B435245473ACA
:102D310000494D475F53544152543A00494D475F52
:102D410053544F500054494D453A004D5154545F2E
:102D5100434F4E4E004D5154545F444953434F4EDF
:022D61004E0022
:10357A00C109C10CC10BC10A410404004104CD00B8
:09358A00410401004204020000AA
:0B33A90090057CEBF0A3EAF0A3E9F034
:1033B4009005A77401F0A37405F0A3747FF0900541
:1033C4007CE0F9A3E0FAA3E09005AAC9F0A3EAF02F
:1033D400A3E9F09005A7E0F9A3E0FAA3E09005AD16
:1033E400C9F0A3EAF0A3E9F07B017A047905123667
:1033F400489005A7E4F0A3F0A3F07B017A047905D3
:053404007F0402369276
:103009009005F0EBF0A3EAF0A3E9F07F0412369201
:1030190090057F74FFF0A3742CF0A37461F0900500
:10302900F0E0FBA3E0FAA3E0F91230DEEA494B60D5
:103039005190057F74FFF0A3742CF0A37469F0908C
:1030490005F0E0FBA3E0FAA3E0F91230DEEA494B10
:10305900603090057F74FFF0A3742CF0A3746BF0BB
:103069009005F3E0F9A3E0FAA3E0900582C9F0A383
:10307900EAF0A3E9F09005F3E0F9A3A3E090058550
:10308900803C90057F74FFF0A3742CF0A37482F048
:103099009005F0E0FBA3E0FAA3E0F91230DEEA497B
:1030A9004B603190057F74FFF0A3742CF0A37489F1
:1030B900F09005F3E0F9A3E0FAA3E0900582C9F0E6
:1030C900A3EAF0A3E9F09005F0E0FBA3E0FAA3E09E
:0530D900F9121F122294
:1023E6009004D0E0FF9004CDE06F700302261DE05C
:1023F60004F0E075F032A424ABF9740435F0FA90D9
:10240600057F7401F0A3EAF0A3E9F07BFF7A2C794B
:102416009D1233A99004CDE075F032A424ABF97473
:102426000435F0FA7B0190057F74FFF0A3742DF05C
:10243600A37432F01230DEEA494B601E9004007439
:1024460001F0E49004D1F09004CEF0A3F07E04FFF6
:10245600FD7B017A007900121A0B9004CDE075F02D
:1024660032A424ABF9740435F0FA7B0190057F742D
:10247600FFF0A3742DF0A3743DF01230DEEA494B51
:1024860060579004CEE0FEA3E0FF2400F5827400BE
:102496003EF583E4F0900400F09004D1F01235127A
:1024A6001236DB7E047F007D007B017A0079001204
:1024B6001A0B12319D7FD07E071238427BFF7A2C91
:1024C60079AC7F061236927FD07E071238427BFFA8
:1024D6007A2C79AC7F061236929004CDE075F032F4
:1024E600A424ABF9740435F0FA7B0190057F74FFE0
:1024F600F0A3742DF0A3744CF01230DEEA494B6061
:1025060008D2091234681238629004CDE075F032B0
:10251600A424ABF9740435F0FA7B0190057F74FFAF
:10252600F0A3742DF0A37456F01230DEEA494B6026
:1025360005C2091234689004CDE075F032A424ABCC
:10254600F9740435F0FA7B0190057F74FFF0A374EB
:102556002DF0A37446F01230DEEA494B70030225D3
:10256600FF9004CDE075F032A424ABF9740435F085
:10257600FA90057F7401F0A3EAF0A3E9F07BFF7AF5
:102586002C79B71233A99004CDE075F032A424ABB0
:10259600F9740435F0FA7B01C00390057F74FFF0EF
:1025A600A3742CF0A374CCF0A3EBF0A37404F0A3F3
:1025B6007402F0D003121F12D3900403E09400902B
:1025C6000402E06480948040189005EA741EF0903E
:1025D60004027401F0A3742CF0D20C123468123881
:1025E600007BFF7A2C79D6900402E0FFA3E09005E9
:1025F6007FCFF0A3EFF01233A91237879004D0E013
:10260600F990057FE4F0A3F0A3E9F07BFF7A2C793B
:08261600F91233A90223E622A8
:10378700E49004D0F09004CDF0900542F0FE7F3233
:10379700FD7B017A0479DD121A0B7E007F327D00F2
:0937A7007B017A05790F021A0B6F
:043593004105F600F8
:1035FC008FA6EEF5A775AEFFE4F591A2AF920DC2C2
:10360C00AF75C7AA75C755439F01A20D92AFF5912F
:10361C00A2AF920DC2AF75C7AA75C75543A501A23B
:10362C000D92AF75AF22F591A2AF920DC2AF75C7D7
:0C363C00AA75C75543A401A20D92AF224D
:103332008FA6EEF5A7E4F591A2AF920DC2AF75C7C5
:10334200AA75C755439F01A20D92AFF591A2AF9204
:103352000DC2AF75C7AA75C75543A501A20D92AF9D
:1033620075AF21AF058FAEF591A2AF920DC2AF75C9
:10337200C7AA75C75543A401A20D92AFF591A2AF9A
:10338200920DC2AF75C7AA75C75553A5FEA20D927D
:10339200AFF591A2AF920DC2AF75C7AA75C75553CB
:0733A2009FFEA20D92AF2275
:040003008F828E83D7
:03000700E493FF80
:01000A0022D3
:1036DB00E490057EF0A3F0C2AF7F807E7F1235FCB5
:1036EB007D011233329004CEE0FEA3E0FF7C007D1F
:1036FB00641217997F817E7F1233329004CEE0FEE5
:10370B00A3E0FF7C007D64121799AD077F827E7F5B
:05371B00123332D2AFB1
:013720002286
:0835120090057CEEF0A3EFF040
:10351A00E4FBFA7F807E7B1235FC0BC390057DE0CD
:10352A009B90057CE09A402EEB547F700BEB248035
:10353A00FFEA347BFE1235FCEB247FFFEA347BFE84
:10354A0074FF2BF58274FF3AF583E0FD1233320BD8
:06355A00BB00010A80C560
:013560002248
:10319D00E490057CF0A3F07F807E7F120003900504
:1031AD00F6EFF0640160031238BE7F827E7F12005D
:1031BD0003EF75F064A4FDACF07F811200037E0077
:1031CD00ED2FFFEE3CFE9004CEF0A3EFF0D3940074
:1031DD00EE9400404AE490057CF0A3F09004CEE01C
:1031ED00FEA3E0FF90057CE0FCA3E0FDC39FEC9EF9
:1031FD00502DED2480FFEC347BFE12000390057CF6
:10320D00E0FCA3E02400F58274003CF583EFF09020
:0F321D00057DE004F070C590057CE004F080BDF5
:01322C00227F
:0E38B000EF75F064A47C002DFFEC35F0FE22D5
:0A38BE00E49004CEF0A3F00236DB24
:103597004205EC00004205EE00004105EB00410545
:0735A700EA004205E8000004
:03000B000229F1D6
:1029F100C0E0C0F0C083C082C0D075D000C000C0AC
:0D2A010001C002C003C004C005C006C0072C
:102A0E009005E9E004F070069005E8E004F090050A
:102A1E00E8E0FEA3E0FF7C007D32121799ED4C70CA
:102A2E001B900404E0D394004012E014F0E0700C0C
:102A3E00D2B3900402F0A3743CF0C20CED4C70744F
:102A4E00D3900403E09400900402E094004065905B
:102A5E0005EAE0702E900403E024FFF0900402E0FB
:102A6E0034FFF0E07002A3E0704AC2B3200C07D22C
:102A7E000B123862803ED20A123800900404741E83
:102A8E00F080319005EAE0D394004028E014F0E0A5
:102A9E0070221234689005DC74FFF0A3740EF0A35C
:102AAE0074C1F0A37480F0A37410F0E4FBFDFF1268
:102ABE002D63D2B39005E8E0FEA3E0FF7C007D32EB
:102ACE00121799ED4C70099005EBE004F01235AF3A
:102ADE009005E8E0FEA3E0FFE4FCFD7B607AEAF9F6
:102AEE00F8C31218BC50079005E8E4F0A3F0900567
:102AFE00ECE0FCA3E0FDECF58CEDF58AC28D759152
:042B0E00005388DF09
:102B1200D007D006D005D004D003D002D001D00017
:0B2B2200D0D0D082D083D0F0D0E032C1
:1037B0004389017E007C077DD0121787C374FF9F69
:1037C0009005EDF074FF9E9005ECF0E0FCA3E0FDA9
:0937D000ECF58CEDF58AC28D22A6
:1032390002261EE493A3F8E493A34003F68001F267
:1032490008DFF48029E493A3F85407240CC8C33396
:10325900C4540F4420C8834004F456800146F6DF65
:10326900E4800B0102040810204080903561E47E5F
:10327900019360BCA3FF543F30E509541FFEE4935A
:10328900A360010ECF54C025E060A840B8E493A321
:10329900FAE493A3F8E493A3C8C582C8CAC583CA4C
:1032A900F0A3C8C582C8CAC583CADFE9DEE780BE04
:0135AE00001C
:10174100BB010689828A83E0225002E722BBFE02A6
:09175100E32289828A83E49322D9
:10175A00BB010CE58229F582E5833AF583E0225044
:10176A0006E92582F8E622BBFE06E92582F8E2228E
:0D177A00E58229F582E5833AF583E49322A8
:10178700EF8DF0A4A8F0CF8CF0A428CE8DF0A42E76
:02179700FE2230
:10179900BC000BBE0029EF8DF084FFADF022E4CC34
:1017A900F875F008EF2FFFEE33FEEC33FCEE9DECFD
:1017B900984005FCEE9DFE0FD5F0E9E4CEFD22ED43
:1017C900F8F5F0EE8420D21CFEADF075F008EF2F8D
:1017D900FFED33FD4007985006D5F0F222C398FD7E
:0517E9000FD5F0EA221B
:1017EE0075F008758200EF2FFFEE33FECD33CDCCB2
:1017FE0033CCC58233C5829BED9AEC99E582984035
:10180E000CF582EE9BFEED9AFDEC99FC0FD5F0D611
:10181E00E4CEFBE4CDFAE4CCF9A88222B800C1B93B
:10182E000059BA002DEC8BF084CFCECDFCE5F0CB79
:10183E00F97818EF2FFFEE33FEED33FDEC33FCEBB2
:10184E0033FB10D703994004EB99FB0FD8E5E4F96D
:10185E00FA227818EF2FFFEE33FEED33FDEC33FC5A
:10186E00C933C910D7059BE99A4007EC9BFCE99A4E
:10187E00F90FD8E0E4C9FAE4CCFB2275F010EF2F93
:10188E00FFEE33FEED33FDCC33CCC833C810D70793
:10189E009BEC9AE899400AED9BFDEC9AFCE899F8CE
:0E18AE000FD5F0DAE4CDFBE4CCFAE4C8F92261
:1018BC00EB9FF5F0EA9E42F0E99D42F0EC6480C8A3
:0618CC0064809845F02243
:1018D200E8600FECC313FCED13FDEE13FEEF13FFF4
:0318E200D8F12218
:0C18E500ECF0A3EDF0A3EEF0A3EFF02276
:1018F100A8828583F0D083D08212190812190812A8
:101901001908121908E473E493A3C583C5F0C583CC
:10191100C8C582C8F0A3C583C5F0C583C8C582C840
:0119210022A3
:101E8900E50830030104F82328247FF582E43405AA
:101E9900F5832290057C30030390057FE475F001FA
:101EA900121AAF02174160EAC50C7002150B14C56E
:101EB9000C200304FF0238D290057C74FFF5F00270
:101EC9001AC6FF02389CE5096006D509037F00227E
:101ED90020030F12000EEF6008050CE50C700205D7
:101EE9000B2290057C121AA6121741FF60E8900593
:101EF9007CE475F001121AAF80DC121ED9EFC0E044
:101F0900121ECBD0E040F3809DD2038002C2039021
:101F1900057C121ADDE4F50AF508F50BF50C7509CF
:101F290000C202C200C201C204121E9CFF7005AFAA
:101F39000A7E0022B42530121E9CFF24D0B40A0068
:101F4900500C75F00AC509A42509F50980E924CFC3
:101F5900B41A00EF5002C2E5022177D20180D8D22B
:101F69000080D4D20480D0EF121ECB5008121F0378
:101F7900EF600E80A9EFC0E0121ED9D0E06F609E1D
:101F8900EF6074121EAF80A7121ED9EF6069E509D0
:101F9900700705098003121ED9EF601420040E1280
:101FA9001E89E475F001121AAFEF121A37D509E646
:101FB9002004040508050A80BA121ECFEFC0E012FA
:101FC9001ECBD0E05004121EAFE4FF20040E121EF7
:101FD90089E475F001121AAFEF121A37EF70DA209F
:101FE90004040508050A808BE50960020509121F2A
:101FF90003121ECFEF70C6300304E4121EAFE50AC8
:102009006003021F387EFF7FFF2220041174FFFC4A
:10201900FDFEFF121E89121AA6121A8C0508021F4C
:1020290027D0E080D27900800A791080067908806B
:1020390002790AD205E50960020509E9C0E0121F23
:1020490003EF60DD121ED9BF2D04D2028003BF2B1E
:1020590009121F03EF60CA121ECFD0E0B40A028032
:1020690033B40802802EBF302770027408C205C03D
:10207900E0121ECFD0E0BF78028003BF58160509D1
:10208900D509028007D50904D205800B741080197F
:102099007002740ABF000AEFF8E4FCFDFEFF02219A
:1020A9002AC0E0EF121EAFD0E0F9E4FCFDFEFFE923
:1020B900C0E0ECC0E0EDC0E0EEC0E0EFC0E0121E11
:1020C900CFEFF8D0E0FFD0E0FED0E0FDD0E0FCD0CB
:1020D900F0E8604DB461004007B47B005002C2E5EE
:1020E90024D0503DFA24F6500724F95034240AFA32
:1020F900EAB5F000502BCFA9F0A42FFF92D5E9C57E
:10210900F0CEA4A2D53EFE92D5E9C5F0CDA4A2D5C4
:102119003DFD92D5E9C5F0CCA4A2D53CFCC2058011
:062129008EE8C0E0200476
:10212F002A200508050A300203121A7E121E891290
:10213F001AA6050820000B20010DEE8FF0121A5F72
:10214F008009121A8C8004EF121A37D0E0121EAFDA
:10215F00021F27200410121E89121AA60508E50B6C
:10216F00850CF0121A5F80E8121AE61FF153203225
:10217F00581F684C1F64421F404820364F203A4476
:10218F001F9143202E49203A5520134620134520F6
:0C219F0013471F6C2A21624E00001F70C5
:10192200E709F60870FA8046E709F20870FA803E85
:1019320088828C83E709F0A370FA807EE309F608B7
:1019420070FA8076E309F20870FA806E88828C83DE
:10195200E309F0A370FA806289828A83E0A3F60821
:1019620070FA805689828A83E0A3F20870FA804A6C
:1019720080D280FA80C680D4806580F28031801067
:1019820080A680EA809A80A880DA80E280CA8031CC
:1019920089828A83ECFAE493A3C8C582C8CCC58342
:1019A200CCF0A3C8C582C8CCC583CC70E9800D89B0
:1019B200828A83E493A3F60870F9ECFAA9F0EDFBAE
:1019C2002289828A83ECFAE0A3C8C582C8CCC58387
:1019D200CCF0A3C8C582C8CCC583CC70EA80DD89AF
:1019E200828A83E493A3F20870F980CE88F0ED2412
:1019F20002B4040050C4F582EB2402B4040050BACD
:091A02002323458223901972731D
:1030DE0090057CEBF0A3EAF0A3E9F0A3E0FBA3E0FC
:1030EE00FAA3E0F9121741700302318A90057CE0D1
:1030FE00FBA3E0FAA3E0F912174170030231969098
:10310E00057FE0F9A3E0FAA3E0A3C9F0A3EAF0A3D8
:10311E00E9F090057CA3E0FAA3E0F9900585EBF0C9
:10312E00A3EAF0A3E9F0900582E0FBA3E0FAA3E0A6
:10313E00F9121741FF6026900585E0FBA3E0FAA384
:10314E00E0F91217416F701590058375F001121A90
:10315E0049900586E475F001121A4980C9900582DE
:10316E00E0FBA3E0FAA3E0F91217417002800D9084
:10317E00057DE475F001121A490230FA90057CE0E3
:0F318E00FBA3E0FAA3E0F9227B007A007900228C
:101A0B00EF4E6012EF60010EEDBB010B89828A83F2
:101A1B00F0A3DFFCDEFA2289F05007F709DFFCA9FF
:0C1A2B00F022BBFEFCF309DFFCA9F02256
:103648009005AAE0FFA3E0FEA3E0CF9005B3F0A3A6
:10365800EEF0A3EFF09005ADE0CBF0A3E0CAF0A345
:10366800E0C9F07F229005B6AD82AC831217418D78
:10367800828C83F0A309E970010ADFEC9005ADE0C4
:0A368800FBA3E0FAA3E0F9021B899E
:101A3700BB010689828A83F0225002F722BBFE018E
:021A4700F32288
:101A4900C5F0F8A3E028F0C5F0F8E5821582700228
:061A59001583E038F022C5
:101A5F00BB010A89828A83F0E5F0A3F0225006F7D2
:0F1A6F0009A7F01922BBFE06F3E5F009F31922CF
:0E1A7E00C3E49FFFE49EFEE49DFDE49CFC2279
:101A8C00BB010789828A830218E55005E9F8021B1D
:0A1A9C000CBBFE05E9F8021B18223E
:091AA600E0FBA3E0FAA3E0F92241
:101AAF00F8E0FBA3A3E0F925F0F0E58215827002C0
:071ABF001583E0FA38F02264
:101AC600F8E0FBA3A3E025F0F9F0E58215827002A9
:071AD6001583E038FAF0224D
:091ADD00EBF0A3EAF0A3E9F0220A
:101AE600D083D082F8E4937012740193700DA3A38F
:101AF60093F8740193F5828883E4737402936860A3
:061B0600EFA3A3A380DFA2
:101B2400E50824B3F582E43405F583E00508229042
:101B340005B03007039005B3E475F001121AAF0243
:101B440017412000E97F2ED2008018EF540F249013
:101B5400D43440D4FF30040BEF24BFB41A00500334
:101B64002461FFE50960021509050CE50C70020506
:101B74000B30070E9005B0E475F001121AAFEF02B6
:101B84001A370237D97403D2078003E4C207F50871
:101B94009005B0121ADDE4F509F50BF50CE50960C2
:101BA400077F20121B6780F5750AFFC201C200C2BD
:101BB40002C203C205C206C208121B33FF700D30F5
:101BC40007057F00121B78AF0CAE0B22B4255FC251
:101BD400D5C204121B33FF24D0B40A00501A75F086
:101BE4000A780930D50508B6FF0106C6A426F620F2
:101BF400D5047002D20380D924CFB41A00EF500464
:101C0400C2E5D204021D79D20180C6D20080C0D2BE
:101C14000280BCD2D580BAD20580B47F20121B6763
:101C24002002077401B5090040F1121B24FF121BA6
:101C340067021BA1D208D2068095121B24FB121B3B
:101C440024FA121B24F94A4B7006794A7A1E7BFF48
:101C540020022EE509602A7E008E82758300121709
:101C64005A60060EEE650A70F0C2D5EBC0E0EAC019
:101C7400E0E9C0E0EE121DC0D0E0F9D0E0FAD0E017
:101C8400FB121741FF60AAEBC0E0EAC0E0E9C0E044
:101C9400121B67D0E02401F9D0E03400FAD0E0FB55
:101CA400E50A0460DCD50AD980877BFF7A1D79BCFC
:101CB400D202809C791080027908C206C20880088A
:101CC400D2D5790A8004790AC2D5E50A047002F5EE
:101CD4000AE4FAFDFEFF121B24FC7B082001131208
:101CE4001B24FD7B1030000A121B24FE121B24FF50
:101CF4007B20EC3382D592D55013C3E43000069F89
:101D0400FFE49EFEE42001039DFDE49CFCE4CBF88B
:101D1400C201EC700CCFCECDCCE824F8F870F3807F
:101D240017C3EF33FFEE33FEED33FDEC33FCEB333F
:101D3400FB994002FB0FD8E9EB300105F8D0E0C471
:101D440048B201C0E00AEC4D4E4F78207B0070C2CF
:101D5400EAB50A0040BCC0E0121DC2D0F0D0E020B9
:101D64000104C4C0E0C4B201C0F0121B50D0F0D5CD
:101D7400F0EB021BA1121AE61C3E531CB8581C0FB0
:101D84004C1C0B421CBC4F1CC4441CC4491C2443A3
:081D94001CCA551CAE461CAE32
:101D9C00451CAE471E6A501C132D1C172E1C3A2BCB
:101DAC001C1B231C38201E532A1BD34800001C323A
:101DBC003F3F3F00790AA2D5200314300509B91022
:101DCC00020404B9080104A2D52006025001042023
:101DDC0002689202B509005034C0E07F203003192C
:101DEC007F30A20272067205500F121E19C202C277
:101DFC0006C205C2087F30800F300503E9C0E0122F
:101E0C001B67300503D0E0F9D0E0B509CC300517DD
:101E1C007F30B9100C121B677F583004077F788015
:101E2C0003B90803121B673002057F2D021B677F65
:101E3C00202008F87F2B2006F322920280CF286EF8
:101E4C00756C6C2900D201121B243001F8C2017888
:101E5C000930D50108F6021BD32D50434958121BEB
:101E6C00242403B405004001E4901E6593121B5812
:0D1E7C00743A121B58D203750904021CB8F9
:10000E00100E0B1238C8BF0D027F0A0237D99005A9
:04001E00F7E0FF22E6
:0838D2009005F7EFF0D20E2281
:10389C00EFC394094005EF940E4004EFB42003D31A
:0438AC008001C322B2
:0C1B0C00ECF608EDF608EEF608EFF62205
:0C1B1800ECF208EDF208EEF208EFF22209
:1037D900EFB40A07740D1237E4740A309811A899E6
:1037E900B8130CC2983098FDA899C298B811F63050
:0737F90099FDC299F5992228
:0A38C8003098FDAF99C2987E0022EF
:00000001FF
