:03000000021B9A46
:0C1B9A00787FE4F6D8FD758122021BE183
:1000260074686973206973207561727420746573CE
:10003600740D0A0008000000000000000000000027
:10004600000000000000000000000060400000000A
:100056000002010100000000000000000000014055
:1000660000000000010101010101071F7E6FFFDB97
:10007600DFDFDFDFFFEFFEEFEFCFD7FFE7F7DFD4FE
:10008600D0C44C1656B62E8E272F3F3F7F7FFFFFDC
:10009600FFFFFFFFFFFCFCFDFCFDFFFFFEFFEFE7A0
:1000A60003010101010000000000000102082040D8
:1000B600E0000000000000000081808000000000D9
:1000C6000000000000000000000000000000000129
:1000D600000000000080000080C080E0A0E0E0E0BA
:1000E600ECEC6EEDEFFCC69E2E3EFEFFFFFFFF3FE3
:1000F6000F0F0F07070303030303010103010101A8
:1001060000000000000000000000000400041021B0
:1001160023470FFFFFFFFFFFFFFFFFFFFFF003BFB8
:1001260038C00000000000000000000000000000D1
:10013600170000003C3E1E0E0707060000000000E8
:10014600000000000000000000000000408040F0B9
:1001560070B8E8F87C3E1F5FCFCF8F87D703212189
:10016600000000808081818383FFFFFF1F1F1F3CEB
:100176003C7E747C5E1C1C1C1818000000000000ED
:1001860000181C1C021212100000000000000000E3
:100196000000000B0F0FFFFFFFFFFFFFFFFFFFFF3A
:1001A600FFF9FAFCFCC8800000808080880000000F
:1001B6000000000000000000000000000000000039
:1001C600000000000080C0B0F8FE5BDFF3FC6F8D1E
:1001D600FABE3F0100000000000040480008009001
:1001E600909000010306060D8FDFFCFBFCF8F0E0A3
:1001F600E0C0C0C0E0F0FCF87C7E7E5C50587060C9
:100206006064204040C080800000000000000000C4
:1002160000000000003F3F7F3FFFFFFFFFFFFFFFA3
:100226007F7FC71F7BE3CE0F0F9F070703050000E5
:100236000000000000000080000000000000E0F068
:10024600F8FCF2FFFFFFFF8F1BFFFFFFFFFFFFFF23
:10025600FFFFFFFFFEFCF8F8F0F0E0E0E0F0F0F062
:10026600F9F9F9FCFCFEFFFFFF3F1F1F1F3F3F7F11
:10027600FFFFFFFFFFFDF9F8F0E1E1E3E1E1E0E078
:10028600E0E0E0E0F0F0D8E6FCFC7870683010388A
:100296001C5C1C78F8F8FEFEFEFFFFFFFFFFFFFF69
:1002A600F7FF7FF88003071BE7FFF82120010119FC
:1002B6006A000000C48080C0C0E0B47AFEFEEFBFD2
:1002C600FFFFFFEFF7F9FFFFFFFF0F0F0F0F1F0FE6
:1002D6000F1F1F3F1F1F1F1F1F0F0F1F1F1F1F1F38
:1002E6001F1F1F3F3F3F3F3F3EB87C3C7CF0F8FC62
:1002F600FCFFFFFFFFFFFFBFBF3F7FFF7F7F3F3F4B
:100306003F3FFFBF27E7E3E9379D9810B020202045
:1003160021212123232707071F1F1F1F9F1F9F7FA1
:100326007FFFBFBF3F3F3C38187F7E7C7CF878F06C
:10033600F0000000FFFFFFAF3719181F0F0F0C0763
:10034600070703030101010100000000000000008F
:1003560000000000008080808088808048C80000FF
:1003660020800000A8640494E0F1F9FDFBF7FBF798
:10037600DF7F3F7F0F495121CE7E388810C4C0BA37
:10038600727F77F7FFE7EFCCDFDE1F0B0010100858
:10039600000000101878785878FCFEF0F0E7E7CFF8
:1003A600BFBF3E7C087020606040C08080808000B7
:1003B600000000000707070700000000000000001B
:1003C600000000000000000004040404000404040B
:1003D60004060606070707070707040606000405BE
:1003E60007040606040607070507040707070707A5
:1003F60007040600070506020501000004070707B3
:1004060007070606060505050703010500000600A1
:10041600040400000200000004050707030707079D
:100426000707070706040404000200000103070784
:100436000400000000000000E06060606060606032
:10044600606060E00000E0E0E0E0E0E000006060A6
:100456006080806060808000006080800000000016
:10046600E0E0606060606060606060E0E0000000A6
:100476000000000000000000FF00007E7E7E7E7E01
:100486007E0000FF00009F9F191907079E9E80E0CF
:10049600E0FFFF787807070606F89F9F060600002C
:1004A600FFFF00007E7E7E7E7E0000FFFF000000D4
:1004B600000000000000000033F3F3C3C30303335E
:1004C60033333333C0C00303CCCCC3C33030CF0087
:1004D60000C3C3FCFC3F3F3C3C0F0C0C3F3FC0C07D
:1004E600C3C33333C3F3F33333F3F3F3F30000003F
:1004F6000000000000000000FB1F1F9B9B9C9C034C
:10050600031C1C9BE7E7636380801C1C07071BE03A
:10051600E06464E7E718189F9F001C1C1C1CF8F891
:10052600E4E4E4E460989883830303FFFF0000009B
:1005360000000000000000002720201F1F3F3FE0B2
:10054600E0C0C0D9D9D90606FFFFE6E6D8D8E6014D
:10055600012626E7E7D8D8DFDFD81E1EC0C0FFFF7A
:1005660021213F3FE0D9D9C1C12626E7E700000097
:100576000000000000000000CCCCCCCCCCCFCFC318
:10058600C3CFCFCC0F0F3333FCFC0F0F03030C305C
:1005960030F3F3F0F0CFCFCFCFCFCCCCFCFC0F0FA6
:1005A600CCCC0C0CFF333330303C3CF3F300000072
:1005B6000000000000000000FF00007E7E7E7E7EC0
:1005C6007E0000FF0000878767677878E6E67EE0B2
:1005D600E07E7E78786767E7E7667F7FE7E79E9E3F
:1005E60086867E7E07FFFF1818E1E1FEFE0000000A
:1005F60000000000000000000706060606060606C4
:1006060006060607000007070606000001010607A2
:100616000700000000060607070606060707010191
:1006260007070000000101000007070101000000A4
:1006360000000000000080E0F0F0F8F8FCFEFEDEAE
:100646009F1F1F3F7FFFFEFEFEFCFCF8F8F0E080D8
:1006560000000000F0FEFFFFFFFFFFFFFFF30303B4
:1006660003F3F2F0F0000303F3F3FFFFFFFFFFFFD6
:10067600FEF00000010F1F7FFFFFFFFFFFFFF8F0F6
:10068600F0F3F3F7F3000000FFFFFFFFFFFF7F1F0C
:100696001F0100000000000000010303070F0F0FF9
:1006A6001F1F1F1F1F1F0F0F0F0707030300000049
:1006B60000000000E0E0E0E0E0E0E0E0C0800000F4
:1006C60000C0E0E0E0E0E0C0C0000000E0E0E0E004
:1006D6000000C0E0E0E0C000C0E0E0F0FCFFE0E0C9
:1006E600C000C0E0E0E0C0C0E0E0E0C080C0E0E004
:1006F600E0C00000FFFFFFFF0F0F0FFFFFFFFC0032
:100706000087CFC7C7C7FFFFFFFF0000FFFFFFFF40
:100716000000FFFFFFFFFF000F0FFFFFFFFF2F0F80
:100726000700FFFFFFFF0F0F0FFFFFFFFF0F0FFF7A
:10073600FFFFFF00FFFFFFFFFEFEFEFF7F3F0700FC
:10074600FFFFFFFF0F0FFFFFFFFF00000F3F7F7F41
:100756007E7EFFFFFFFFFF000000FFFFFFFF85001B
:100766000000FFFFFFFF000000FFFFFFFF0000FF8C
:10077600FFFFFF00FFFFFFFF00000000000000007A
:100786003F7F7FFFFCFCFFFFFF7F000000FEFEFEB9
:10079600FEFEFFFF7F3F030000007FFFFFFF5200CA
:1007A60000007FFFFFFF000000FFFFFFFF00007F4C
:0407B600FFFFFF0042
:10162C00E4900572F0A3F0A3F0A3F075910175910D
:10163C000153B1FE43B20175910153B1FD43B202A6
:10164C0075910153B1FB43B20475910153B1F7434A
:10165C00B20875910153B5FE43B60175910153B5AE
:10166C00FD43B60275910153B5FB43B60475910168
:10167C0053B5F743B60875910153B5DF43B62075E2
:10168C00910153B5EF43B61075910153C2FB43C39F
:10169C000475910153BDEF43BE1075910153BDDF2D
:1016AC0043BE2075910253F1F043F103759102533F
:1016BC00F10F43F13075910153B3BF53B4BF759122
:1016CC000153B37F53B47F121B0A90057A7401F057
:1016DC00A31209420001C2007F007E367D6E7C01A0
:1016EC001211FC7D017F06121CAFD2AF12204C12DE
:1016FC001D9F1220E3D39004CCE094009004CBE027
:10170C009400900579400C7401F0A37400F0A3745C
:10171C0000800A74FFF0A37404F0A3743AF0A3746D
:10172C0040F0A3F0E4FBFDFF12188E90057974FFD6
:10173C00F0A37406F0A3743AF0A37420F0A3F07B2A
:10174C0001E4FD7F0A12188E90057974FFF0A374E2
:10175C0006F0A374BAF0A37440F0A37420F07B01DC
:10176C007D04E4FF12188E7BFF7A0079267F061227
:07177C00208412178380FB9B
:06213300D2A47F017E0032
:10213900E4FDFCC3ED9FEC9E5015E4FBFA0BBB00DC
:0F214900010ABA08F8BB4CF50DBD00010C80E48B
:012158002264
:10000300EF540FF5A0EFC4540FF580C2A5122133AE
:05001300C2A402213926
:1021A000EF540FF5A0EFC4540FF580D2A5122133E0
:0521B000C2A402213968
:10204C00E4F591E5B154DF4420F5B1D2B2E4F59159
:10205C00E5B154EF4410F5B17FD07E071221397FE2
:10206C003E1200037F401200037FB81200037FC0B2
:08207C001200037F3F02000384
:101D9F00E4F591E5B154DF4420F5B1D2B2E49005FA
:101DAF0076F0A3F0900576E0FEA3E0FFC39408EE73
:101DBF00648094805040EF24B8FF120003E4A3F036
:101DCF00A3F0E4FF1221A0900579E004F0700690D3
:101DDF000578E004F0C3900579E09440900578E031
:101DEF006480948040DC900577E004F070B6900535
:101DFF0076E004F080AE7F401200037FB80200034C
:1020B500A905E4F591EB70047E0180027E00EEC473
:1020C5003354E0FEE5B154DF4EF5B1EB24FF92B297
:0E20D500EF2440FF120003E924B8FF020003CD
:0B188E00900576EFF0A3EDF0A3EBF067
:10189900900576E0FF90057EF0A3EDF0E4A3F0A3B8
:1018A900F090057DE0FE131313541F900582F0E4B8
:1018B900A3F0A3F01220B5900577E0900581F09090
:1018C9000577E0FF900582E02FFFE433FE90058164
:1018D900E0FDC39FEE6480F8748098400302197597
:1018E900900576E0FF900578E0FB1220B59005762B
:1018F900E0900580F0900576E0FF90057CE02FFFF1
:10190900E433FE900580E0C39FEE6480F87480980C
:101919005051900579E0FBA3E0FAA3E0F990058323
:10192900E0FEA3E0F5828E831207D3FF1221A09077
:101939000584E004F07006900583E004F0900580CA
:10194900E0643F7016A3E0FD900578E004FBE4FF36
:101959001220B5E4F59153B1DFD2B2900580E004CD
:0C196900F08092900581E004F00218C8A4
:01197500224F
:102159004104CF0041053E004104CD0041053F0047
:092169004204CB00004104CE0049
:030023000214378D
:10143700C0E0C0F0C083C082C0D075D000C000C07B
:0D14470001C002C003C004C005C006C007FC
:101454009005D2E4F020980302160890053EE0249B
:1014640040F582E43405F583E599F090053EE00407
:10147400F0E0FF243FF582E43405F583E0640A706C
:101484007090053FE06401705B74402FF582E43492
:1014940005F583E4F09004CDE075F032A424DAF984
:1014A400740435F0A801FC7D017B017A05794012B2
:1014B4000A3F90053EE4F09004CDE0C394017480AB
:1014C40094805005E004F080059004CDE4F090048D
:1014D400CF7401F07E007F327D00FB7A05794012E3
:1014E4000A5C800D90053FE0700704F090053EE42F
:1014F400F0900400E0640160030215A290053EE050
:10150400243FF582E43405F583E0FFC39430400BB7
:10151400EFD394395005EF540F801F90053EE0241B
:101524003FF582E43405F583E0FFC394414021EFA5
:10153400D39446501BEF540F2409FF9004CEE024AB
:10154400D0F582E43404F583EFF09004CEE004F0A7
:101554009004CEE064027046E0FF24CEF582E434C9
:1015640004F583E0C454F0FE74CF2FF582E4340410
:10157400F583E04EFF9004CBE0FCA3E02400F58269
:1015840074003CF583EFF09004CCE004F070069016
:1015940004CBE004F09004CEE4F090053EF0900516
:1015A4003EE0FFD3943074809480405274402FF511
:1015B40082E43405F583E4F09004CDE075F032A4C0
:1015C40024DAF9740435F0A801FC7D017B017A0565
:1015D4007940120A3F9004CDE0C394017480948052
:1015E4005005E004F080059004CDE4F090053EE45D
:1015F400F0FE7F32FD7B017A057940120A5C759119
:0D160400005398FE3099067591005398FD33
:10161100D007D006D005D004D003D002D001D0002D
:0B162100D0D0D082D083D0F0D0E032D7
:1011FC0090057612093690057AE014B40700400386
:10120C0002143690121D75F003A4C58325F0C58316
:10121C007302123202127D02129202130C0213B0EC
:10122C00021232021292E4F591759850438920F51E
:10123C0091438780F591438E10F59153C4DF7B1059
:10124C00FAF9F8900576E0FCA3E0FDA3E0FEA3E03C
:10125C00FF12089190057BE0F8A3E0F9A3E0FAA354
:10126C00E0FB120891EFF404F58DE4F5914388400E
:10127C0022E4F591759850F59143878053C4F8F5A5
:10128C009143C4208009E4F59175F85075C4887BAE
:10129C0010FAF9F8900576E0FCA3E0FDA3E0FEA3BC
:1012AC00E0FF12089190057BE0F8A3E0F9A3E0FAC7
:1012BC00A3E0FB120891C3E49FFFE49EFE74019D22
:1012CC00FDE49CFC78081209238FC6E47B10FAF924
:1012DC00F8900576E0FCA3E0FDA3E0FEA3E0FF128E
:1012EC00089190057BE0F8A3E0F9A3E0FAA3E0FBFA
:1012FC00120891C3E49FFFE48FC5F59143C4082203
:10130C00E4F59143D601F59143D701F59143D7020A
:10131C00F59153D6EFF59153D6F77B08FAF9F8907F
:10132C000576E0FCA3E0FDA3E0FEA3E0FF1208912C
:10133C0090057BE0F8A3E0F9A3E0FAA3E0FB120828
:10134C0091EF24FFFFEE34FFED34FFEC34FFE48F1C
:10135C00DB53DCF07B08FAF9F8900576E0FCA3E0AF
:10136C00FDA3E0FEA3E0FF12089190057BE0F8A33B
:10137C00E0F9A3E0FAA3E0FB120891EF24FFFFEEE3
:10138C0034FFFEED34FFFDEC34FFFC78081209232A
:10139C00EF540F42DCE4F59143D74053D7CFF5918E
:1013AC0043D68022E4F59143D701F59153D6EFF55E
:1013BC009153D6F790057BE0F8A3E0F9A3E0FAA3EC
:1013CC00E0FB900576E0FCA3E0FDA3E0FEA3E0FFCC
:1013DC00120891EF24FFFFEE34FFED34FFEC34FFE5
:1013EC008FDB90057BE0F8A3E0F9A3E0FAA3E0FB28
:1013FC00900576E0FCA3E0FDA3E0FEA3E0FF12085D
:10140C0091EF24FFFFEE34FFFEED34FFFDEC34FFD3
:10141C00FC7808120923EF540FF5DC75910243E7B1
:0B142C004053E7CF75910243E6802299
:101ECE00E4F591EF24FC601C14602B24FE600C04DE
:101EDE00703E3098FDAE99C298803530F8FDAE9ABE
:101EEE00C2F8802CE4F59153D6FDE5DF540264026E
:101EFE0060F8AED9801A75910253E6FDE5DF7C00DD
:101F0E0060047D0180027D00ED64024C60EEAED96E
:021F1E00AF060C
:011F2000229E
:101E6F00E4F591EF24FC602414603824FE60100424
:101E7F00704CE4F591C2998D993099FDC29922E485
:101E8F00F591C2F98D9A30F9FDC2F922E4F591531B
:101E9F00D6FB8DD9E5DF44F764F760F8E4F591538D
:101EAF00D6FB2275910253E6FB759102AF058FD9D0
:0F1EBF00E5DF44F764F760F875910253E6FB2204
:10208400EF24F960170470281207BAFD60227F0656
:10209400121E6F740129F9E43AFA80EC1207BAFDB2
:1020A400600E7F07121E6F740129F9E43AFA80EC7E
:0120B4002209
:101CAF00EF24FC603414605024FE6018047069ED5A
:101CBF0014600A047062E4F59153A8EF22E4F591E1
:101CCF0043A81022ED14600A04704DE4F591539C63
:101CDF00FE22E4F591439C0122ED14600F0470384D
:101CEF00E4F59153DDFDF59153DDFE22E4F59143CB
:101CFF00DD02F59143DD0122ED14601004701975BA
:101D0F00910253DDFD75910253DDFE227591024361
:091D1F00DD0275910243DD012291
:10217F00E4F591759850438920F591438780F59147
:10218F00538EEFF59153C4DF758DFFF59143884062
:01219F00221D
:101C26002B435245473A20002C002B435245473A56
:101C36002025642C256420252A5B5E0D0A5D0D0A8D
:101C4600002B435245473A002B435245473A20253D
:101C56006420252A5B5E0D0A5D0D0A003C2D2D2DA4
:101C66002D2D2D4445425547204D5347203D3E20BE
:101C7600554152544C494E452045584954203D2023
:101C860025642D2D2D2D2D2D2D2D2D0D0A002B43AB
:101C96005245473A00494D475F53544152543A0022
:091CA600494D475F53544F5000B3
:082172004104CA004104010010
:0B1E0F00900576EBF0A3EAF0A3E9F0E9
:101E1A009005A17401F0A37405F0A37479F09005FC
:101E2A0076E0F9A3E0FAA3E09005A4C9F0A3EAF0EA
:101E3A00A3E9F09005A1E0F9A3E0FAA3E09005A7D1
:101E4A00C9F0A3EAF0A3E9F07B017A047902121F30
:101E5A00BC9005A1E4F0A3F0A3F07B017A04790217
:051E6A007F0602208448
:10197600900601EBF0A3EAF0A3E9F07F07122084BA
:1019860090057974FFF0A3741CF0A37426F09006FA
:1019960001E0FBA3E0FAA3E0F9121A4BEA494B6017
:1019A6005190057974FFF0A3741CF0A3742EF09087
:1019B6000601E0FBA3E0FAA3E0F9121A4BEA494B51
:1019C60060309005D674FFF0A3741CF0A37430F059
:1019D600900604E0F9A3E0FAA3E09005D9C9F0A3C4
:1019E600EAF0A3E9F0900604E0F9A3A3E09005DC91
:1019F600803C90057974FFF0A3741CF0A37447F043
:101A0600900601E0FBA3E0FAA3E0F9121A4BEA49BB
:101A16004B60319005D674FFF0A3741CF0A3744E8E
:101A2600F0900604E0F9A3E0FAA3E09005D9C9F026
:101A3600A3EAF0A3E9F0900601E0FBA3E0FAA3E035
:051A4600F9120F6322FC
:101783009004CDE0FF9004CAE06F700302188DE06F
:1017930004F0E075F032A424A8F9740435F0FA7B60
:1017A300017F061220849004CAE075F032A424A8B5
:1017B300F9740435F0FA7B0190057974FFF0A37492
:1017C3001CF0A3749BF0121A4BEA494B601E900461
:1017D300007401F0E49004CEF09004CBF0A3F07E0B
:1017E30004FFFD7B017A007900120A5C9004CAE0D1
:1017F30075F032A424A8F9740435F0FA7B0190053E
:101803007974FFF0A3741CF0A374A6F0121A4BEAC8
:10181300494B60589004CBE0FEA3E02400F58274AA
:10182300003EF583E4F0900400F09004CEF0121D26
:101833009F9004CBE0FEA3E0FF121F211220067E3F
:10184300047F007D007B017A007900120A5C121B81
:101853000A9005797401F0A37400F0A37400F0A357
:101863007440F0A3F0E4FBFDFF12188E1220E39006
:1018730004CDE0F9900579E4F0A3F0A3E9F07BFF50
:0B1883007A1C7962121E0F02178322EC
:1020E300E49004CDF09004CAF090053FF0FE7F32F7
:1020F300FD7B017A0479DA120A5C7E007F327D006F
:092103007B017A05790C020A5CEB
:04217A004106070013
:101F70008FA6EEF5A775AEFFE4F591A2AF920FC262
:101F8000AF75C7AA75C755439F01A20F92AFF591D0
:101F9000A2AF920FC2AF75C7AA75C75543A501A2DC
:101FA0000F92AF75AF22F591A2AF920FC2AF75C776
:0C1FB000AA75C75543A401A20F92AF22EE
:101D28008FA6EEF5A7E4F591A2AF920FC2AF75C7E3
:101D3800AA75C755439F01A20F92AFF591A2AF9222
:101D48000FC2AF75C7AA75C75543A501A20F92AFB9
:101D580075AF21AF058FAEF591A2AF920FC2AF75E7
:101D6800C7AA75C75543A401A20F92AFF591A2AFB8
:101D7800920FC2AF75C7AA75C75553A5FEA20F9299
:101D8800AFF591A2AF920FC2AF75C7AA75C75553E9
:071D98009FFEA20F92AF2293
:0421F5008F828E83C4
:0321F900E493FF6D
:0121FC0022C0
:10200600E4900578F0A3F0C2AF7F807E7F121F7048
:102016007D01121D289004CBE0FEA3E0FF7C007D2D
:10202600641208007F817E7F121D289004CBE0FE9B
:10203600A3E0FF7C007D64120800AD077F827E7FEF
:05204600121D28D2AFBD
:01204B002272
:081F2100900576EEF0A3EFF04D
:101F2900E4FBFA7F807E7B121F700BC3900577E07C
:101F39009B900576E09A402EEB547F700BEB248042
:101F4900FFEA347BFE121F70EB247FFFEA347BFE2D
:101F590074FF2BF58274FF3AF583E0FD121D280BFF
:061F6900BB00010A80C567
:011F6F00224F
:101B0A00E4900576F0A3F07F807E7F1221F590069F
:101B1A0007EFF0640160031200187F827E7F1221B2
:101B2A00F5EF75F064A4FDACF07F811221F57E001B
:101B3A00ED2FFFEE3CFE9004CBF0A3EFF0D3940020
:101B4A00EE9400404AE4900576F0A3F09004CBE0CE
:101B5A00FEA3E0FF900576E0FCA3E0FDC39FEC9EA8
:101B6A00502DED2480FFEC347BFE1221F590057692
:101B7A00E0FCA3E02400F58274003CF583EFF090CA
:0F1B8A000577E004F070C5900576E004F080BDAB
:011B99002229
:0E21DD00EF75F064A47C002DFFEC35F0FE22BF
:0A001800E49004CBF0A3F0022006F0
:101BA60002162CE493A3F8E493A34003F68001F213
:101BB60008DFF48029E493A3F85407240CC8C33340
:101BC600C4540F4420C8834004F456800146F6DF0F
:101BD600E4800B0102040810204080902159E47E25
:101BE600019360BCA3FF543F30E509541FFEE49304
:101BF600A360010ECF54C025E060A840B8E493A3CB
:101C0600FAE493A3F8E493A3C8C582C8CAC583CAF5
:101C1600F0A3C8C582C8CAC583CADFE9DEE780BEAD
:01217E000060
:1007BA00BB010689828A83E0225002E722BBFE023D
:0907CA00E32289828A83E4932270
:1007D300BB010CE58229F582E5833AF583E02250DB
:1007E30006E92582F8E622BBFE06E92582F8E22225
:0D07F300E58229F582E5833AF583E493223F
:10080000BC000BBE0029EF8DF084FFADF022E4CCDC
:10081000F875F008EF2FFFEE33FEEC33FCEE9DECA5
:10082000984005FCEE9DFE0FD5F0E9E4CEFD22EDEB
:10083000F8F5F0EE8420D21CFEADF075F008EF2F35
:10084000FFED33FD4007985006D5F0F222C398FD26
:050850000FD5F0EA22C3
:1008550075F008758200EF2FFFEE33FECD33CDCC5A
:1008650033CCC58233C5829BED9AEC99E5829840DD
:100875000CF582EE9BFEED9AFDEC99FC0FD5F0D6BA
:10088500E4CEFBE4CDFAE4CCF9A88222B800C1B9E4
:100895000059BA002DEC8BF084CFCECDFCE5F0CB22
:1008A500F97818EF2FFFEE33FEED33FDEC33FCEB5B
:1008B50033FB10D703994004EB99FB0FD8E5E4F916
:1008C500FA227818EF2FFFEE33FEED33FDEC33FC03
:1008D500C933C910D7059BE99A4007EC9BFCE99AF7
:1008E500F90FD8E0E4C9FAE4CCFB2275F010EF2F3C
:1008F500FFEE33FEED33FDCC33CCC833C810D7073C
:100905009BEC9AE899400AED9BFDEC9AFCE899F876
:0E0915000FD5F0DAE4CDFBE4CCFAE4C8F92209
:10092300E8600FECC313FCED13FDEE13FEEF13FFB2
:03093300D8F122D6
:0C093600ECF0A3EDF0A3EEF0A3EFF02234
:10094200A8828583F0D083D08212095912095912E4
:100952000959120959E473E493A3C583C5F0C58309
:10096200C8C582C8F0A3C583C5F0C583C8C582C8FF
:010972002262
:100EDA00E508300C0104F8232824D6F582E4340509
:100EEA00F583229005D3300C039005D6E475F00102
:100EFA00120B000207BA60EAC50C7002150B14C582
:100F0A000C200C04FF0221FD9005D374FFF5F002BA
:100F1A000B17FF0221C9E5096006D509037F0022E4
:100F2A00200C0F1221B5EF6008050CE50C700205C4
:100F3A000B229005D3120AF71207BAFF60E8900550
:100F4A00D3E475F001120B0080DC120F2AEFC0E027
:100F5A00120F1CD0E040F3809DD20C8002C20C908C
:100F6A0005D3120B2EE4F50AF508F50BF50C7509F5
:100F7A0000C20BC209C20AC20D120EEDFF7005AF04
:100F8A000A7E0022B42530120EEDFF24D0B40A00E6
:100F9A00500C75F00AC509A42509F50980E924CF82
:100FAA00B41A00EF5002C2E50211C8D20A80D8D2A0
:100FBA000980D4D20D80D0EF120F1C5008120F54A2
:100FCA00EF600E80A9EFC0E0120F2AD0E06F609E9A
:100FDA00EF6074120F0080A7120F2AEF6069E5090B
:100FEA00700705098003120F2AEF6014200D0E12F4
:100FFA000EDAE475F001120B00EF120A88D509E641
:10100A00200D040508050A80BA120F20EFC0E0126D
:10101A000F1CD0E05004120F00E4FF200D0E120E38
:10102A00DAE475F001120B00EF120A88EF70DA2089
:10103A000D040508050A808BE50960020509120FEF
:10104A0054120F20EF70C6300C04E4120F00E50AA8
:10105A006003020F897EFF7FFF22200D1174FFFCBF
:10106A00FDFEFF120EDA120AF7120ADD0508020F58
:10107A0078D0E080D27900800A79108006790880D9
:10108A0002790AD20EE50960020509E9C0E0120FE9
:10109A0054EF60DD120F2ABF2D04D20B8003BF2B41
:1010AA0009120F54EF60CA120F20D0E0B40A02806E
:1010BA0033B40802802EBF302770027408C20EC0F3
:1010CA00E0120F20D0E0BF78028003BF581605094E
:1010DA00D509028007D50904D20E800B7410801935
:1010EA007002740ABF000AEFF8E4FCFDFEFF021169
:1010FA007BC0E0EF120F00D0E0F9E4FCFDFEFFE94F
:10110A00C0E0ECC0E0EDC0E0EEC0E0EFC0E0120FDE
:10111A0020EFF8D0E0FFD0E0FED0E0FDD0E0FCD038
:10112A00F0E8604DB461004007B47B005002C2E5AC
:10113A0024D0503DFA24F6500724F95034240AFAF0
:10114A00EAB5F000502BCFA9F0A42FFF92D5E9C53C
:10115A00F0CEA4A2D53EFE92D5E9C5F0CDA4A2D583
:10116A003DFD92D5E9C5F0CCA4A2D53CFCC20E80C7
:06117A008EE8C0E0200D2C
:101180002A200E08050A300B03120ACF120EDA12BB
:101190000AF7050820090B200A0DEE8FF0120AB09D
:1011A0008009120ADD8004EF120A88D0E0120F00D5
:1011B000020F78200D10120EDA120AF70508E50B5F
:1011C000850CF0120AB080E8120B371042531083DE
:1011D000580FB94C0FB5420F914810874F108B44F0
:1011E0000FE243107F49108B551064461064451080
:0C11F00064470FBD2A11B34E00000FC170
:10097300E709F60870FA8046E709F20870FA803E44
:1009830088828C83E709F0A370FA807EE309F60876
:1009930070FA8076E309F20870FA806E88828C839D
:1009A300E309F0A370FA806289828A83E0A3F608E0
:1009B30070FA805689828A83E0A3F20870FA804A2B
:1009C30080D280FA80C680D4806580F28031801026
:1009D30080A680EA809A80A880DA80E280CA80318B
:1009E30089828A83ECFAE493A3C8C582C8CCC58301
:1009F300CCF0A3C8C582C8CCC583CC70E9800D896F
:100A0300828A83E493A3F60870F9ECFAA9F0EDFB6C
:100A13002289828A83ECFAE0A3C8C582C8CCC58345
:100A2300CCF0A3C8C582C8CCC583CC70EA80DD896D
:100A3300828A83E493A3F20870F980CE88F0ED24D0
:100A430002B4040050C4F582EB2402B4040050BA8B
:090A530023234582239009C3739B
:101A4B00900576EBF0A3EAF0A3E9F0A3E0FBA3E0AB
:101A5B00FAA3E0F91207BA7003021AF7900576E0C1
:101A6B00FBA3E0FAA3E0F91207BA7003021B039081
:101A7B000579E0F9A3E0FAA3E0A3C9F0A3EAF0A388
:101A8B00E9F0900576A3E0FAA3E0F990057FEBF07F
:101A9B00A3EAF0A3E9F090057CE0FBA3E0FAA3E056
:101AAB00F91207BAFF602690057FE0FBA3E0FAA3CB
:101ABB00E0F91207BA6F701590057D75F001120AE7
:101ACB009A900580E475F001120A9A80C990057C02
:101ADB00E0FBA3E0FAA3E0F91207BA7002800D90C5
:101AEB000577E475F001120A9A021A67900576E001
:0F1AFB00FBA3E0FAA3E0F9227B007A0079002236
:100A5C00EF4E6012EF60010EEDBB010B89828A83B1
:100A6C00F0A3DFFCDEFA2289F05007F709DFFCA9BE
:0C0A7C00F022BBFEFCF309DFFCA9F02215
:101FBC009005A4E0FFA3E0FEA3E0CF9005ADF0A355
:101FCC00EEF0A3EFF09005A7E0CBF0A3E0CAF0A3EE
:101FDC00E0C9F07F229005B0AD82AC831207BA8DB8
:101FEC00828C83F0A309E970010ADFEC9005A7E06D
:0A1FFC00FBA3E0FAA3E0F9020BDA00
:100A8800BB010689828A83F0225002F722BBFE014D
:020A9800F32247
:100A9A00C5F0F8A3E028F0C5F0F8E58215827002E7
:060AAA001583E038F02284
:100AB000BB010A89828A83F0E5F0A3F0225006F791
:0F0AC00009A7F01922BBFE06F3E5F009F319228E
:0E0ACF00C3E49FFFE49EFEE49DFDE49CFC2238
:100ADD00BB010789828A830209365005E9F8020BAA
:0A0AED005DBBFE05E9F8020B69226B
:090AF700E0FBA3E0FAA3E0F92200
:100B0000F8E0FBA3A3E0F925F0F0E582158270027E
:070B10001583E0FA38F02222
:100B1700F8E0FBA3A3E025F0F9F0E5821582700267
:070B27001583E038FAF0220B
:090B2E00EBF0A3EAF0A3E9F022C8
:100B3700D083D082F8E4937012740193700DA3A34D
:100B470093F8740193F5828883E473740293686061
:060B5700EFA3A3A380DF61
:100B7500E50D24ADF582E43405F583E0050D2290FD
:100B850005AA3007039005ADE475F001120B0002CC
:100B950007BA2000E97F2ED2008018EF540F249069
:100BA500D43440D4FF30040BEF24BFB41A005003F3
:100BB5002461FFE50E6002150E0511E511700205B1
:100BC5001030070E9005AAE475F001120B00EF0234
:100BD5000A8802210C7403D2078003E4C207F50DCD
:100BE5009005AA120B2EE4F50EF510F511E50E6031
:100BF500077F20120BB880F5750FFFC201C200C236
:100C050002C203C205C206C208120B84FF700D3072
:100C150007057F00120BC9AF11AE1022B4255FC2C4
:100C2500D5C204120B84FF24D0B40A00501A75F003
:100C35000A780E30D50508B6FF0106C6A426F620AB
:100C4500D5047002D20380D924CFB41A00EF500422
:100C5500C2E5D204020DCAD20180C6D20080C0D23C
:100C65000280BCD2D580BAD20580B47F20120BB8E1
:100C75002002077401B50E0040F1120B75FF120B2F
:100C8500B8020BF2D208D2068095120B75FB120B37
:100C950075FA120B75F94A4B7006799B7A0E7BFF34
:100CA50020022EE50E602A7E008E827583001207D3
:100CB500D360060EEE650F70F0C2D5EBC0E0EAC05A
:100CC500E0E9C0E0EE120E11D0E0F9D0E0FAD0E094
:100CD500FB1207BAFF60AAEBC0E0EAC0E0E9C0E09A
:100CE500120BB8D0E02401F9D0E03400FAD0E0FBD3
:100CF500E50F0460DCD50FD980877BFF7A0E790D6F
:100D0500D202809C791080027908C206C208800848
:100D1500D2D5790A8004790AC2D5E50F047002F5A7
:100D25000FE4FAFDFEFF120B75FC7B082001131280
:100D35000B75FD7B1030000A120B75FE120B75FF4B
:100D45007B20EC3382D592D55013C3E43000069F47
:100D5500FFE49EFEE42001039DFDE49CFCE4CBF84A
:100D6500C201EC700CCFCECDCCE824F8F870F3803E
:100D750017C3EF33FFEE33FEED33FDEC33FCEB33FE
:100D8500FB994002FB0FD8E9EB300105F8D0E0C430
:100D950048B201C0E00AEC4D4E4F78207B0070C28E
:100DA500EAB50F0040BCC0E0120E13D0F0D0E02031
:100DB5000104C4C0E0C4B201C0F0120BA1D0F0D54B
:100DC500F0EB020BF2120B370C8F530D09580C6028
:100DD5004C0C5C420D0D4F0D15440D15490C75431A
:080DE5000D1B550CFF460CFF2D
:100DED00450CFF470EBB500C642D0C682E0C8B2B45
:100DFD000C6C230C89200EA42A0C244800000C83B3
:100E0D003F3F3F00790AA2D5200314300509B910E0
:100E1D00020404B9080104A2D520060250010420E1
:100E2D0002689202B50E005034C0E07F20300319E5
:100E3D007F30A20272067205500F120E6AC202C2F4
:100E4D0006C205C2087F30800F300503E9C0E012ED
:100E5D000BB8300503D0E0F9D0E0B50ECC30051756
:100E6D007F30B9100C120BB87F583004077F788093
:100E7D0003B90803120BB83002057F2D020BB87FA2
:100E8D00202008F87F2B2006F322920280CF286EB7
:100E9D00756C6C2900D201120B753001F8C2017806
:100EAD000E30D50108F6020C242D50434958120B73
:100EBD00752403B405004001E4900EB693120BA9FE
:0D0ECD00743A120BA9D203750E04020D0930
:1021B50010100B1221EBBF0D027F0A02210C9006B5
:0421C50008E0FF220D
:0821FD00900608EFF0D2102259
:1021C900EFC394094005EF940E4004EFB42003D304
:0421D9008001C3229C
:0C0B5D00ECF608EDF608EEF608EFF622C4
:0C0B6900ECF208EDF208EEF208EFF222C8
:10210C00EFB40A07740D122117740A309811A899AC
:10211C00B8130CC2983098FDA899C298B811F63033
:07212C0099FDC299F599220B
:0A21EB003098FDAF99C2987E0022E3
:00000001FF
