:0300000002258C4A
:0C258C00787FE4F6D8FD7581220225D38B
:1000260074686973206973207561727420746573CE
:10003600740D0A003C2D2D2D2D2D2D44454255477E
:10004600204D5347203D3E20746869732069732014
:1000560075617274322074657374203D2D2D2D2DBB
:100066002D2D2D2D2D0D0A0008000000000000008A
:10007600000000000000000000000000000000601A
:100086004000000000020101000000000000000026
:100096000000014000000000010101010101071FED
:1000A6007E6FFFDBDFDFDFDFFFEFFEEFEFCFD7FF98
:1000B600E7F7DFD4D0C44C1656B62E8E272F3F3F17
:1000C6007F7FFFFFFFFFFFFFFFFCFCFDFCFDFFFF47
:1000D600FEFFEFE70301010101000000000000013F
:1000E60002082040E000000000000000008180803F
:1000F60000000000000000000000000000000000FA
:1001060000000001000000000080000080C080E0C8
:10011600A0E0E0E0ECEC6EEDEFFCC69E2E3EFEFFAE
:10012600FFFFFF3F0F0F0F07070303030303010141
:1001360003010101000000000000000000000004AF
:100146000004102123470FFFFFFFFFFFFFFFFFFF04
:10015600FFF003BF38C000000000000000000000F0
:1001660000000000170000003C3E1E0E07070600B8
:100176000000000000000000000000000000000079
:10018600408040F070B8E8F87C3E1F5FCFCF8F8785
:10019600D7032121000000808081818383FFFFFF38
:1001A6001F1F1F3C3C7E747C5E1C1C1C1818000024
:1001B6000000000000181C1C0212121000000000B3
:1001C600000000000000000B0F0FFFFFFFFFFFFF06
:1001D600FFFFFFFFFFF9FAFCFCC88000008080806B
:1001E6008800000000000000000000000000000081
:1001F60000000000000000000080C0B0F8FE5BDFD9
:10020600F3FC6F8DFABE3F0100000000000040487D
:1002160000080090909000010306060D8FDFFCFB9E
:10022600FCF8F0E0E0C0C0C0E0F0FCF87C7E7E5C4C
:10023600505870606064204040C08080000000001C
:100246000000000000000000003F3F7F3FFFFFFF6F
:10025600FFFFFFFF7F7FC71F7BE3CE0F0F9F0707C1
:100266000305000000000000000000800000000000
:100276000000E0F0F8FCF2FFFFFFFF8F1BFFFFFF1F
:10028600FFFFFFFFFFFFFFFFFEFCF8F8F0F0E0E0E6
:10029600E0F0F0F0F9F9F9FCFCFEFFFFFF3F1F1F4D
:1002A6001F3F3F7FFFFFFFFFFFFDF9F8F0E1E1E3AE
:1002B600E1E1E0E0E0E0E0E0F0F0D8E6FCFC7870B8
:1002C600683010381C5C1C78F8F8FEFEFEFFFFFF55
:1002D600FFFFFFFFF7FF7FF88003071BE7FFF8210B
:1002E600200101196A000000C48080C0C0E0B47A11
:1002F600FEFEEFBFFFFFFFEFF7F9FFFFFFFF0F0F58
:100306000F0F1F0F0F1F1F3F1F1F1F1F1F0F0F1F37
:100316001F1F1F1F1F1F1F3F3F3F3F3F3EB87C3C15
:100326007CF0F8FCFCFFFFFFFFFFFFBFBF3F7FFF36
:100336007F7F3F3F3F3FFFBF27E7E3E9379D9810A9
:10034600B020202021212123232707071F1F1F1F3D
:100356009F1F9F7F7FFFBFBF3F3F3C38187F7E7C3C
:100366007CF878F0F0000000FFFFFFAF3719181F88
:100376000F0F0C070707030301010101000000002E
:1003860000000000000000000080808080888080DF
:1003960048C8000020800000A8640494E0F1F9FD3C
:1003A600FBF7FBF7DF7F3F7F0F495121CE7E388871
:1003B60010C4C0BA727F77F7FFE7EFCCDFDE1F0B02
:1003C60000101008000000101878785878FCFEF02D
:1003D600F0E7E7CFBFBF3E7C087020606040C0807A
:1003E600808080000000000007070707000000006B
:1003F60000000000000000000000000004040404E7
:100406000004040404060606070707070707040690
:100416000600040507040606040607070507040781
:10042600070707070704060007050602050100007F
:10043600040707070707060606050505070301055E
:10044600000006000404000002000000040507077F
:10045600030707070707070706040404000200004E
:1004660001030707040000000000FCFC0C0CCCCCC8
:10047600CCCCCC0C0CFCFC00009080809090000052
:10048600FCFC104060909090100000ECC400CCEC96
:100496006CECE0E06CECEC0000FCFC0C4CCCCCCC46
:1004A600CCCC0C0CFC00000000003F3F202027278E
:1004B60027272720203F3F000039DFCFF1F10E1E0E
:1004C60039380038381F0F3767C0C0F1E000E7F74A
:1004D600CEDE3939C0E1F100003F3F202227272731
:1004E600272720303F000000000003037F7F0F0F07
:1004F6007F8F8FF0F09393EFEFEF83839D9C1C1C0F
:100506001030E09C9CFFFF7C7C03030C0C0CFCFC75
:100516008F8F70706CE0E063636C6C6F1010121359
:100526000C0C8F8F7000000000000E0E3E3E080877
:10053600CE31310101C9C93737C909090909080886
:10054600CE8E0189C9F9F9F6E6081C3E3C381F0F24
:10055600F7F7CECE30373730303030300E0EF0F081
:100566000606F1F13000000000000F8F0F0F10108B
:10057600E31010FCFC6C6C6C4C0F1C1C131300007D
:1005860000000CC4E0707073736CECECCE1F131398
:1005960093939F1F10909090909393EF0C0CF0F014
:1005A6008383FFFF1000000000003F3F0000363647
:1005B600370606273736363676F6CECECECE00004E
:1005C60030303619093E3EFEFE0606F7D7C8CECEB7
:1005D600C989070708F9F97939393931F6F6C7C7EC
:1005E600F9F93121060000000000FEFF0303F3F3D2
:1005F600F3F3F30303FFFF0000F3F3F3E363E3E333
:10060600830303048C9C9C6C4C0C0C1C0CEC101887
:100616007CFCE3E3639F9F9898131B18FFFFF8F891
:10062600FC7C63631C00000000000F0F080809092A
:1006360009090908080F0F00000F0101060601014C
:1006460001090807070F0F06060E0E06070706061E
:1006560000000909060F0F09090808080707090914
:100666000000000000000000000000000000000084
:10067600E0E0E0E0E0E0E0E0C080000000C0E0E0B4
:10068600E0E0E0C0C0000000E0E0E0E00000C0E024
:10069600E0E0C000C0E0E0F0FCFFE0E0C000C0E049
:1006A600E0E0C0C0E0E0E0C080C0E0E0E0C0000004
:1006B600FFFFFFFF0F0F0FFFFFFFFC000087CFC7F5
:1006C600C7C7FFFFFFFF0000FFFFFFFF0000FFFFA0
:1006D600FFFFFF000F0FFFFFFFFF2F0F0700FFFFBA
:1006E600FFFF0F0F0FFFFFFFFF0F0FFFFFFFFF00C3
:1006F600FFFFFFFFFEFEFEFF7F3F0700FFFFFFFF3E
:100706000F0FFFFFFFFF00000F3F7F7F7E7EFFFF83
:10071600FFFFFF000000FFFFFFFF85000000FFFF57
:10072600FFFF000000FFFFFFFF0000FFFFFFFF00CD
:10073600FFFFFFFF00000000000000003F7F7FFF7B
:10074600FCFCFFFFFF7F000000FEFEFEFEFEFFFF3B
:100756007F3F030000007FFFFFFF520000007FFF86
:10076600FFFF000000FFFFFFFF00007FFFFFFF000D
:100776000000000000000000000000000000000073
:100786000000000000000000000000000000000063
:1007960000000000000000000000C0C010080808AB
:1007A60004040606060404040505050505050505F5
:1007B6000505040000000808F2020204F8F800002B
:1007C6000000000000000000000000000000000023
:1007D6000000000000000000000000000000000013
:1007E60000007C82820001010170070708080800EA
:1007F6001010D0101010101010101010F000006023
:10080600101000040400020203020202F8F80000BD
:1008160000000000000000000000000000000000D2
:1008260080804020000090909040202028202000CA
:10083600101010111112F4070700000000000080CC
:100846003C3C8180804040404000000E00404040DB
:100856004646481010A0C0C0E01010080303000070
:1008660000000000000000000000000000F0F0069C
:100876000000C03823233110105050501080808063
:1008860080802020203E20000040C0C010040403C9
:10089600010100C0C0100C0C04020201010101009C
:1008A6000000000000000000E10707000000000053
:1008B600000000000000C020200884846211110896
:1008C6000404834111110AC6C62610100C0C0C84B0
:1008D600484828292911111212020F0F00000000A2
:1008E60000001F00000000000000000000000000E3
:1008F60000000080803007070000000000000000B4
:10090600000000E00E0E00C0C00C01010080803027
:10091600060600E00404010000C030300401018036
:1009260030300C0202023C0000FE00000000000015
:10093600FFFF0000000000000000000000000000B3
:100946000000C61919001010200000000000000069
:100956000000007F8080007F7F808080807F7F0016
:100966000000FE00000000F8F8010000003C3C0119
:100976000000000000FC0000007F80804020202056
:100986003F3F0000001010101008088880444442C1
:1009960021210010100804040200000000000000DD
:1009A6000000000000000101010202020404040824
:1009B60008081314040420272740404040484848AC
:1009C6002424240202130008080603030404040472
:1009D6000404000202020000010101000000000000
:1009E6000000000000000000000000000000000001
:1009F6000000F8F8040202F20808000000040505E9
:100A06000505050505050505040404060606040492
:100A160008080810C0C00000000000000000000028
:100A260000000000000000000000000000000000C0
:100A360000000000000000000000000000000000B0
:100A46000000F8F80202020302020004040010107B
:100A5600600000F0101010101010101010D01010C0
:100A6600000808080707700101010082827C000067
:100A76000000000000000000000000000000000070
:100A86000000000000000000000000000000000060
:100A960000000303081010E0C0C0A010104846462E
:100AA600404040000E0000404040408080813C3C79
:100AB600800000000000000707F41211111010104A
:100AC6000020202820204090909000002040808028
:100AD6000000000000000000000000000000000010
:100AE60000000000000707E1000000000000000011
:100AF60000010101010202040C0C10C0C00001013A
:100B060003040410C0C0400000203E202020808046
:100B160080808010505050101031232338C00000C0
:100B260006F0F000000000000000000000000000D9
:100B36000000000000000000070730808000000071
:100B4600000000000000000000000000001F000080
:100B5600000000000F0F021212111129292848481F
:100B6600840C0C0C101026C6C60A1111418304040D
:100B7600081111628484082020C0000000000000D3
:100B860000000000000000201010001919C6000027
:100B96000000000000000000000000000000FFFF51
:100BA600000000000000FE00003C0202020C303093
:100BB600800101043030C00000010404E000060694
:100BC6003080800001010CC0C0000E0EE000000065
:100BD600000000000000000204040810100021219B
:100BE60042444480880808101010100000003F3F5F
:100BF6002020204080807F000000FC0000000000D4
:100C0600013C3C00000001F8F800000000FE000076
:100C1600007F7F808080807F7F0080807F00000053
:100C260000000000000000000000000000000000BE
:100C3600000000000001010100000202020004049D
:100C460004040404030306080800130202242424EF
:100C56004848484040404027272004041413080809
:100C66000804040402020201010100000000000061
:100C76000E1F1FFFFF1F1F1F1F1F1F1F1F1F1F1FCF
:100C86001F1F1F1F1F1F1F1F1F1F1F1F1F1FFFFFAE
:100C96001F1F0E00000000FFF000E0E0E0E0E0E0D3
:100CA600E0E0E0E0E0E0E0E0E0E0E0E0E0E0E0001E
:100CB600E0FF030000000000000000030F3C73EF9C
:100CC600DFBF7FFFFFFFFFFFFFFFFFFF7FBFDFEFFE
:100CD600733C0F0700000000000000000000000049
:100CE6000000000103071CF9E71FFF1FE7F91C0EB0
:100CF60003010000000000000000000000000000EA
:100D060000000000000080C0E0701F0F6005100F9B
:100D16001F70E0C08000000000000000000000001E
:100D260000000000C0F0381E0703010000000008A4
:100D36000063000000000103070E38F0C000000049
:100D4600000000000000FF0F00000080C0E0F0F08F
:100D5600F8FDFEFEFEFCFAF0F0E0C0800000000F99
:100D6600FFC000000070F8F8FFFFF8F8FAFBFBFB85
:100D7600FBFBFBFBFBFBFBFBFBFBFBFBFBFBFBFBBD
:100D8600FAF8F8FFFFF8F870FEFFFFFFFE18981854
:100D960010101010303030306060C0C0800000008D
:100DA600000000000000000000000000000000003D
:100DB60000008080C0C06060B0B0B030101010106D
:100DC600181818FEFFFFFFFEFFFFFFFFFF00FFFFE3
:100DD600FEFCF8F0C0800080000000010103070E51
:100DE6001C383060C0C0C0C0C0C0C06060B098DCF5
:100DF600EEF7FBFDFEFEFFFFFFFFFF000000000019
:100E0600000000FFFFFFFFFFFFFFFFFFFF00FFFFE8
:100E1600FFFFFF7F1F0F170000040400010004847A
:100E2600C0E16134181A181A1A1A1A37776FCF9F49
:100E3600BF7FFFFFFFFFFFFFFFFFFF000000000077
:100E4600000000FFFFFFFFFFFFFFFFFFFFC0CFC750
:100E5600C3C1404060606060303018180C0607035C
:100E6600010000000000000000000000000000017A
:100E760003070E0D1B3B37376F6F6F404040C0C0F6
:100E8600C0C0C0FFFFFFFFFF030707070300000006
:100E960000000000000000002030783030282030AC
:101F3C00E49005F9F0A3F0A3F0A3F075910175916D
:101F4C000153B1FE43B20175910153B1FD43B2028D
:101F5C0075910153B1FB43B20475910153B1F74331
:101F6C00B20875910153B5FE43B60175910153B595
:101F7C00FD43B60275910153B5FB43B6047591014F
:101F8C0053B5F743B60875910153B5DF43B62075C9
:101F9C00910153B5EF43B61075910153C2FB43C386
:101FAC000475910153BDEF43BE1075910153BDDF14
:101FBC0043BE2075910153C2F743C308C2B3759158
:101FCC000253F1F043F10375910253F10F43F130D9
:101FDC0075910153B3BF53B4BF75910153B37F5384
:101FEC00B47F75910253EBF043EB0875910253EB00
:101FFC000F43EB8075910153B9FE53BAFE759101F5
:10200C0053B9FD53BAFD1224FC9006017401F0A3E0
:10201C001210560001C2007F007E367D6E7C0112CC
:10202C0019107D017F06122618D2AF900601740498
:10203C00F0A31210560001C2007F007E367D6E7C2C
:10204C0001121910122AF31227C7122B591227C783
:10205C0090061074FFF0A37404F0A3746EF0A374D4
:0D206C0040F0A3F0E4FBFDFF12228180FE96
:102BF300E4FDFCC3ED9FEC9E5015E4FBFA0BBB0018
:0F2C0300010ABA08F8BB4CF50DBD00010C80E4C6
:012C1200229F
:102C3200EF540FF5A0EFC4540FF580C2A5D2A47FC4
:0B2C4200017E00122BF3C2A4022BF352
:102AB700EF540FF5A0EFC4540FF580D2A5D2A400B0
:102AC70000000000000000000000000000000000FF
:102AD70000000000C2A40000000000000000000089
:0C2AE700000000000000000000000022C1
:102AF300E4F591E5B154DF4420F5B1D2B2E4F591A8
:102B0300E5B154EF4410F5B17FD07E07122BF37F6C
:102B13003E122C327F40122C327FB8122C327FC0EF
:082B2300122C327F3F022C321C
:1027C700E4F591E5B154DF4420F5B1D2B2E49006C7
:1027D7000DF0A3F090060DE0FEA3E0FFC39408EE12
:1027E70064809480502AEF24B8FF122C32E4FDFC59
:1027F700E4FF122AB70DBD00010CED64404C70F0E8
:1028070090060EE004F070CC90060DE004F080C452
:0A2817007F40122C327FB8022C32F1
:102B2B00A905E4F591EB70047E0180027E00EEC4F2
:102B3B003354E0FEE5B154DF4EF5B1EB24FF92B216
:0E2B4B00EF2440FF122C32E924B8FF022C3296
:0B22810090060DEFF0A3EDF0A3EBF0D2
:10228C0090060DE0FF900615F0A3EDF0E4A3F0A38B
:10229C00F0900614E0FE131313541F900619F0E48B
:1022AC00A3F0A3F0122B2B90060EE0900618F090E2
:1022BC00060EE0FF900619E02FFFE433FE9006189F
:1022CC00E0FDC39FEE6480F874809840030223679E
:1022DC0090060DE0FF90060FE0FB122B2B90060DE5
:1022EC00E0900617F090060DE0FF900613E02FFF2C
:1022FC00E433FE900617E0C39FEE6480F874809878
:10230C005050900610E0FBA3E0FAA3E0F990061AF7
:10231C00E0FEA3E0F5828E83120EBFFF122AB79067
:10232C00061BE004F0700690061AE004F090061705
:10233C00E0B43F16A3E0FD90060FE004FBE4FF12AF
:10234C002B2BE4F59153B1DFD2B2900617E004F0D9
:0B235C008093900618E004F00222BB02
:012367002253
:102C13001227C79006107401F0A37400F0A3740088
:0F2C2300F0A37440F0A3F0E4FBFD7F20022281B8
:1028C000200F4990062AE020E0201227C79006102A
:1028D00074FFF0A3740CF0A37476F0A37423F0A338
:1028E0007440F0E4FBFD7F2D801F1227C790061077
:1028F00074FFF0A3740DF0A3748EF0A37440F0A3E2
:0D2900007423F0E4FB7D027F20122281226F
:102A7800900402E0FEA3E0FFD39400EE9400402E01
:102A8800EF90061020E00C74FFF0A37407F0A37415
:102A980076800A74FFF0A37409F0A374F6F0A374A7
:0F2AA80050F0A37440F0E4FBFD7F18122281224E
:1029EC004104D200410541004104D00041054200A0
:0929FC004204CE00004104D100A8
:03002300021D5566
:101D5500C0E0C0F0C083C082C0D075D000C000C054
:0D1D650001C002C003C004C005C006C007D5
:101D720090060CE4F0209803021F18900541E0241D
:101D820043F582E43405F583E599F0900541E004DA
:101D9200F0E0FF2442F582E43405F583E0640A7042
:101DA2006C900542E06401705774432FF582E4346D
:101DB20005F583E4F09004D0E075F032A424DDF957
:101DC200740435F0A801FC7D017B017A0579431288
:101DD2001153900541E4F09004D0E0C39401500502
:101DE200E004F080059004D0E4F09004D27401F095
:101DF2007E007F327D00FB7A057943121170800DDF
:101E0200900542E0700704F0900541E4F090040070
:101E1200E064016003021EBA900541E02442F582AB
:101E2200E43405F583E0FFC39430400BEFD39439DB
:101E32005005EF540F801F900541E02442F582E4E3
:101E42003405F583E0FFC394414021EFD39446501B
:101E52001BEF540F2409FF9004D1E024D3F582E450
:101E62003404F583EFF09004D1E004F09004D1E063
:101E7200B40245FF24D1F582E43404F583E0C4546E
:101E8200F0FE74D22FF582E43404F583E04EFF9025
:101E920004CEE0FCA3E02400F58274003CF583EF5D
:101EA200F09004CFE004F070069004CEE004F090CD
:101EB20004D1E4F0900541F0900541E0FFD3943065
:101EC200404E74432FF582E43405F583E4F0900428
:101ED200D0E075F032A424DDF9740435F0A801FCD9
:101EE2007D017B017A0579431211539004D0E0C33E
:101EF20094015005E004F080059004D0E4F09005D0
:101F020041E4F0FE7F32FD7B017A057943121170C4
:0F1F12007591005398FE3099067591005398FD14
:101F2100D007D006D005D004D003D002D001D00014
:0B1F3100D0D0D082D083D0F0D0E032BE
:101910009005FD12104A900601E014B40700400340
:10192000021B4A90193175F003A4C58325F0C583C5
:10193000730219460219910219A6021A20021AC44A
:101940000219460219A6E4F591759850438920F5CD
:1019500091438780F591438E10F59153C4DF7B103E
:10196000FAF9F89005FDE0FCA3E0FDA3E0FEA3E09A
:10197000FF120F8F900602E0F8A3E0F9A3E0FAA3AC
:10198000E0FB120F8FEFF404F58DE4F591438840EE
:1019900022E4F591759850F59143878053C4F8F58A
:1019A0009143C4208009E4F59175F85075C4887B93
:1019B00010FAF9F89005FDE0FCA3E0FDA3E0FEA31A
:1019C000E0FF120F8F900602E0F8A3E0F9A3E0FA1F
:1019D000A3E0FB120F8FC3E49FFFE49EFE74019D02
:1019E000FDE49CFC78081210378FC6E47B10FAF9EE
:1019F000F89005FDE0FCA3E0FDA3E0FEA3E0FF12EC
:101A00000F8F900602E0F8A3E0F9A3E0FAA3E0FB51
:101A1000120F8FC3E49FFFE48FC5F59143C40822E2
:101A2000E4F59143D601F59143D701F59143D702EF
:101A3000F59153D6EFF59153D6F77B08FAF9F89064
:101A400005FDE0FCA3E0FDA3E0FEA3E0FF120F8F85
:101A5000900602E0F8A3E0F9A3E0FAA3E0FB120F7E
:101A60008FEF24FFFFEE34FFED34FFEC34FFE48F03
:101A7000DB53DCF07B08FAF9F89005FDE0FCA3E00D
:101A8000FDA3E0FEA3E0FF120F8F900602E0F8A393
:101A9000E0F9A3E0FAA3E0FB120F8FEF24FFFFEEC3
:101AA00034FFFEED34FFFDEC34FFFC7808121037F4
:101AB000EF540F42DCE4F59143D74053D7CFF59173
:101AC00043D68022E4F59143D701F59153D6EFF543
:101AD0009153D6F7900602E0F8A3E0F9A3E0FAA349
:101AE000E0FB9005FDE0FCA3E0FDA3E0FEA3E0FF2A
:101AF000120F8FEF24FFFFEE34FFED34FFEC34FFC5
:101B00008FDB900602E0F8A3E0F9A3E0FAA3E0FB84
:101B10009005FDE0FCA3E0FDA3E0FEA3E0FF120FB3
:101B20008FEF24FFFFEE34FFFEED34FFFDEC34FFBA
:101B3000FC7808121037EF540FF5DC75910243E77B
:0B1B40004053E7CF75910243E680227E
:10282100E4F591EF24FC601C14602824FE600C0484
:10283100703B3098FDAE99C298803230F8FDAE9A67
:10284100C2F88029E4F59153D6FDE5DF20E1FBAE26
:10285100D9801A75910253E6FDE5DF7C0060047DA5
:0F2861000180027D00ED64024C60EEAED9AF063F
:012870002245
:10276800E4F591EF24FC602414603824FE60100422
:10277800704CE4F591C2998D993099FDC29922E483
:10278800F591C2F98D9A30F9FDC2F922E4F5915319
:10279800D6FB8DD9E5DF44F764F760F8E4F591538B
:1027A800D6FB2275910253E6FB759102AF058FD9CE
:0F27B800E5DF44F764F760F875910253E6FB2202
:1029A300EF24FC602F24FD601704703C120EA6FD7B
:1029B30060367F06122768740129F9E43AFA80EC3D
:1029C300120EA6FD60227F07122768740129F9E41D
:1029D3003AFA80EC120EA6FD600E7F04122768748B
:0929E3000129F9E43AFA80EC2222
:10261800EF24FC603414605024FE6018047069EDE7
:1026280014600A047062E4F59153A8EF22E4F5916E
:1026380043A81022ED14600A04704DE4F591539CF0
:10264800FE22E4F591439C0122ED14600F047038DA
:10265800E4F59153DDFDF59153DDFE22E4F5914358
:10266800DD02F59143DD0122ED1460100470197547
:10267800910253DDFD75910253DDFE2275910243EF
:09268800DD0275910243DD01221F
:102BD200E4F591759850438920F591438780F591EA
:102BE200538EEFF59153C4DF758DFFF59143884005
:012BF20022C0
:10218C002B435245473A20002C002B435245473AEB
:10219C002025642C256420252A5B5E0D0A5D0D0A22
:1021AC00002B435245473A002B435245473A2025D2
:1021BC006420252A5B5E0D0A5D0D0A003C2A2A2A42
:1021CC002A2A555243203D20257300494D475F5222
:1021DC004543560D0A000D0A2D2D20756172742091
:1021EC007265632025732D2D0D0A0054494D453A17
:1021FC0025640D0A003C2D2D2D2D2D2D74696D653A
:10220C00722076616C7565203D2025642D2D2D2D59
:10221C002D2D2D2D2D0D0A003C2D2D2D2D2D2D442C
:10222C0045425547204D5347203D3E205541525481
:10223C004C494E452045584954203D2025642D2DB0
:10224C002D2D2D2D2D2D2D0D0A002B435245473AAA
:10225C0000494D475F53544152543A00494D475F32
:10226C0053544F500054494D453A004D5154545F0E
:05227C00434F4E4E002F
:102A0500C10FC110410404004104CD00410401007F
:052A1500420402000074
:0B270800900575EBF0A3EAF0A3E9F0E8
:102713009005A07401F0A37405F0A37478F09005FC
:1027230075E0F9A3E0FAA3E0900635C9F0A3EAF057
:10273300A3E9F09005A0E0F9A3E0FAA3E09006383E
:10274300C9F0A3EAF0A3E9F07B017A047905122921
:10275300599005A0E4F0A3F0A3F07B017A04790576
:052763007F040229A320
:1023680090062FEBF0A3EAF0A3E9F07F041229A36B
:1023780090061F74FFF0A37421F0A3748CF09006EC
:102388002FE0FBA3E0FAA3E0F912243DEA494B60F1
:102398005190061F74FFF0A37421F0A37494F09079
:1023A800062FE0FBA3E0FAA3E0F912243DEA494B2B
:1023B80060309005A674FFF0A37421F0A37496F022
:1023C800900632E0F9A3E0FAA3E09005A9C9F0A3CA
:1023D800EAF0A3E9F0900632E0F9A3A3E09005AC97
:1023E800803C90061F74FFF0A37421F0A374ADF035
:1023F80090062FE0FBA3E0FAA3E0F912243DEA4996
:102408004B60319005A674FFF0A37421F0A374B457
:10241800F0900632E0F9A3E0FAA3E09005A9C9F02C
:10242800A3EAF0A3E9F090062FE0FBA3E0FAA3E00B
:05243800F912167722E5
:101B4B009004D0E0FF9004CDE06F7003021D54E0D1
:101B5B0004F0E075F032A424ABF9740435F0FA907C
:101B6B0005787401F0A3EAF0A3E9F07BFF7A217901
:101B7B00C81227089004CDE075F032A424ABF97499
:101B8B000435F0FA7B0190061F74FFF0A37422F06A
:101B9B00A3745DF012243DEA494B601E900400745F
:101BAB0001F0E49004D1F09004CEF0A3F07E04FF9A
:101BBB00FD7B017A0079001211709004CDE075F075
:101BCB0032A424ABF9740435F0FA7B0190061F7430
:101BDB00FFF0A37422F0A37468F012243DEA494B82
:101BEB0060579004CEE0FEA3E0FF2400F582740062
:101BFB003EF583E4F0900400F09004D1F0122871CC
:101C0B00122A327E047F007D007B017A007900125C
:101C1B0011701224FC7FD07E07122BF37BFF7A21ED
:101C2B0079D77F061229A37FD07E07122BF37BFF78
:101C3B007A2179D77F061229A39004CDE075F03273
:101C4B00A424ABF9740435F0FA7B0190061F74FFE2
:101C5B00F0A37422F0A37477F012243DEA494B6091
:101C6B0008D20F1227C7122C139004CDE075F03257
:101C7B00A424ABF9740435F0FA7B0190061F74FFB2
:101C8B00F0A37422F0A37471F012243DEA494B7057
:101C9B0003021D369004CDE075F032A424ABF97429
:101CAB000435F0FA9005787401F0A3EAF0A3E9F09B
:101CBB007BFF7A2179E21227089004CDE075F03290
:101CCB00A424ABF9740435F0FA7B01C0039005A68C
:101CDB0074FFF0A37421F0A374F7F0A3EBF0A374DB
:101CEB0004F0A37402F0D003121677900402E0FE06
:101CFB00A3E0FFD39400EE6480948040167C007DBB
:101D0B003C120EEC900402EEF0A3EFF0D21012276F
:101D1B00C7D2B37BFF7A227901900402E0FFA3E0E4
:101D2B00900578CFF0A3EFF0122708122B599004EF
:101D3B00D0E0F9900578E4F0A3F0A3E9F07BFF7A0B
:0A1D4B00227924122708021B4B2204
:102B5900E49004D0F09004CDF0900542F0FE7F326D
:102B6900FD7B017A0479DD1211707E007F327D00D0
:092B79007B017A05790F0211704D
:042A1A0041063D0034
:10290D008FA6EEF5A775AEFFE4F591A2AF9211C2B9
:10291D00AF75C7AA75C755439F01A21192AFF59127
:10292D00A2AF9211C2AF75C7AA75C75543A501A233
:10293D001192AF75AF22F591A2AF9211C2AF75C7CB
:0C294D00AA75C75543A401A21192AF2245
:102691008FA6EEF5A7E4F591A2AF9211C2AF75C76F
:1026A100AA75C755439F01A21192AFF591A2AF92AE
:1026B10011C2AF75C7AA75C75543A501A21192AF43
:1026C10075AF21AF058FAEF591A2AF9211C2AF7573
:1026D100C7AA75C75543A401A21192AFF591A2AF44
:1026E1009211C2AF75C7AA75C75553A5FEA2119223
:1026F100AFF591A2AF9211C2AF75C7AA75C7555375
:072701009FFEA21192AF221E
:040003008F828E83D7
:03000700E493FF80
:01000A0022D3
:102A3200E49005FFF0A3F0C2AF7F807E7F12290DE4
:102A42007D011226919004CEE0FEA3E0FF7C007D82
:102A520064120EFE7F817E7F1226919004CEE0FEEC
:102A6200A3E0FF7C007D64120EFEAD077F827E7FB5
:052A7200122691D2AF15
:012A7700223C
:0828710090063BEEF0A3EFF02E
:10287900E4FBFA7F807E7B12290D0BC390063CE0B6
:102889009B90063BE09A402EEB547F700BEB248023
:10289900FFEA347BFE12290DEB247FFFEA347BFE2D
:1028A90074FF2BF58274FF3AF583E0FD1226910B34
:0628B900BB00010A80C50E
:0128BF0022F6
:1024FC00E49005FDF0A3F07F807E7F120003900630
:10250C003DEFF064016003122C6F7F827E7F12001E
:10251C0003EF75F064A4FDACF07F811200037E0024
:10252C00ED2FFFEE3CFE9004CEF0A3EFF0D3940021
:10253C00EE9400404AE49005FDF0A3F09004CEE048
:10254C00FEA3E0FF9005FDE0FCA3E0FDC39FEC9E25
:10255C00502DED2480FFEC347BFE1200039005FD22
:10256C00E0FCA3E02400F58274003CF583EFF090CE
:0F257C0005FEE004F070C59005FDE004F080BDA1
:01258B00222D
:0E2C6100EF75F064A47C002DFFEC35F0FE2230
:0A2C6F00E49004CEF0A3F0022A3234
:102A1E0042062B000042062D000041062A00420607
:032A2E002800007D
:03000B0002207957
:10207900C0E0C0F0C083C082C0D075D000C000C02D
:0D20890001C002C003C004C005C006C007AE
:10209600900629E004F07006900628E004F0900609
:1020A60028E0FEA3E0FF7C007D32120EFEED4C70B0
:1020B60021900404E0D394004018E014F0122A782A
:1020C600900404E0700CD2B3900402F0A3743CF0C8
:1020D600C210900628E0FEA3E0FF7C007D32120EBF
:1020E600FEED4C7038D3900403E09400900402E0B7
:1020F60094004029A3E024FFF0900402E034FFF0AE
:10210600122A78900402E07002A3E07010C2B32095
:102116001005122C138006900404741EF0900628F5
:10212600E0FEA3E0FF7C007D32120EFEED4C700750
:10213600A3E004F01228C0900628E0FEA3E0FFE426
:10214600FCFD7B607AEAF9F8C3121021500790066D
:1021560028E4F0A3F090062BE0FCA3E0FDECF58C60
:0B216600EDF58AC28D7591005388DFF3
:10217100D007D006D005D004D003D002D001D000C2
:0B218100D0D0D082D083D0F0D0E0326C
:102B82004389017E007C077DD0120EECC374FF9F47
:102B920090062CF074FF9E90062BF0E0FCA3E0FD63
:092BA200ECF58CEDF58AC28D22E0
:10259800021F3CE493A3F8E493A34003F68001F2FE
:1025A80008DFF48029E493A3F85407240CC8C33344
:1025B800C4540F4420C8834004F456800146F6DF13
:1025C800E4800B01020408102040809029ECE47E8E
:1025D800019360BCA3FF543F30E509541FFEE49308
:1025E800A360010ECF54C025E060A840B8E493A3CF
:1025F800FAE493A3F8E493A3C8C582C8CAC583CAFA
:10260800F0A3C8C582C8CAC583CADFE9DEE780BEB1
:012A310000A4
:100EA600BB010689828A83E0225002E722BBFE024A
:090EB600E32289828A83E493227D
:100EBF00BB010CE58229F582E5833AF583E02250E8
:100ECF0006E92582F8E622BBFE06E92582F8E22232
:0D0EDF00E58229F582E5833AF583E493224C
:100EEC00EF8DF0A4A8F0CF8CF0A428CE8DF0A42E1A
:020EFC00FE22D4
:100EFE00BC000BBE0029EF8DF084FFADF022E4CCD8
:100F0E00F875F008EF2FFFEE33FEEC33FCEE9DECA0
:100F1E00984005FCEE9DFE0FD5F0E9E4CEFD22EDE6
:100F2E00F8F5F0EE8420D21CFEADF075F008EF2F30
:100F3E00FFED33FD4007985006D5F0F222C398FD21
:050F4E000FD5F0EA22BE
:100F530075F008758200EF2FFFEE33FECD33CDCC55
:100F630033CCC58233C5829BED9AEC99E5829840D8
:100F73000CF582EE9BFEED9AFDEC99FC0FD5F0D6B5
:100F8300E4CEFBE4CDFAE4CCF9A88222B800C1B9DF
:100F93000059BA002DEC8BF084CFCECDFCE5F0CB1D
:100FA300F97818EF2FFFEE33FEED33FDEC33FCEB56
:100FB30033FB10D703994004EB99FB0FD8E5E4F911
:100FC300FA227818EF2FFFEE33FEED33FDEC33FCFE
:100FD300C933C910D7059BE99A4007EC9BFCE99AF2
:100FE300F90FD8E0E4C9FAE4CCFB2275F010EF2F37
:100FF300FFEE33FEED33FDCC33CCC833C810D70737
:101003009BEC9AE899400AED9BFDEC9AFCE899F871
:0E1013000FD5F0DAE4CDFBE4CCFAE4C8F92204
:10102100EB9FF5F0EA9E42F0E99D42F0EC6480C846
:0610310064809845F022E6
:10103700E8600FECC313FCED13FDEE13FEEF13FF97
:03104700D8F122BB
:0C104A00ECF0A3EDF0A3EEF0A3EFF02219
:10105600A8828583F0D083D08212106D12106D1293
:10106600106D12106DE473E493A3C583C5F0C583B8
:10107600C8C582C8F0A3C583C5F0C583C8C582C8E4
:011086002247
:1015EE00E508300C0104F8232824A6F582E434051E
:1015FE00F583229005A3300C039005A6E475F00147
:10160E00121214020EA660EAC50C7002150B14C558
:10161E000C200C04FF022C839005A374FFF5F0023E
:10162E00122BFF022C4DE5096006D509037F00221F
:10163E00200C0F12000EEF6008050CE50C70020571
:10164E000B229005A312120B120EA6FF60E8900556
:10165E00A3E475F00112121480DC12163EEFC0E006
:10166E00121630D0E040F3809DD20C8002C20C9056
:10167E0005A3121242E4F50AF508F50BF50C7509EF
:10168E0000C20BC209C20AC20D121601FF7005AFCD
:10169E000A7E0022B42530121601FF24D0B40A00AF
:1016AE00500C75F00AC509A42509F50980E924CF67
:1016BE00B41A00EF5002C2E50218DCD20A80D8D26A
:1016CE000980D4D20D80D0EF121630500812166851
:1016DE00EF600E80A9EFC0E012163ED0E06F609E64
:1016EE00EF607412161480A712163EEF6069E509BA
:1016FE0070070509800312163EEF6014200D0E12BE
:10170E0015EEE475F001121214EF12119CD509E6D4
:10171E00200D040508050A80BA121634EFC0E01237
:10172E001630D0E05004121614E4FF200D0E1215E0
:10173E00EEE475F001121214EF12119CEF70DA2024
:10174E000D040508050A808BE509600205091216CD
:10175E0068121634EF70C6300C04E4121614E50A43
:10176E00600302169D7EFF7FFF22200D1174FFFC89
:10177E00FDFEFF1215EE12120B1211F105080216E4
:10178E008CD0E080D27900800A79108006790880AA
:10179E0002790AD20EE50960020509E9C0E01216C7
:1017AE0068EF60DD12163EBF2D04D20B8003BF2BF7
:1017BE0009121668EF60CA121634D0E0B40A02801D
:1017CE0033B40802802EBF302770027408C20EC0D8
:1017DE00E0121634D0E0BF78028003BF5816050918
:1017EE00D509028007D50904D20E800B741080191A
:1017FE007002740ABF000AEFF8E4FCFDFEFF021847
:10180E008FC0E0EF121614D0E0F9E4FCFDFEFFE904
:10181E00C0E0ECC0E0EDC0E0EEC0E0EFC0E01216BC
:10182E0034EFF8D0E0FFD0E0FED0E0FDD0E0FCD009
:10183E00F0E8604DB461004007B47B005002C2E591
:10184E0024D0503DFA24F6500724F95034240AFAD5
:10185E00EAB5F000502BCFA9F0A42FFF92D5E9C521
:10186E00F0CEA4A2D53EFE92D5E9C5F0CDA4A2D568
:10187E003DFD92D5E9C5F0CCA4A2D53CFCC20E80AC
:06188E008EE8C0E0200D11
:101894002A200E08050A300B031211E31215EE126A
:1018A400120B050820090B200A0DEE8FF01211C44B
:1018B40080091211F18004EF12119CD0E012161469
:1018C40002168C200D101215EE12120B0508E50BF2
:1018D400850CF01211C480E812124B175653179757
:1018E4005816CD4C16C94216A548179B4F179F444E
:1018F40016F643179349179F5517784617784517D7
:0C190400784716D12A18C74E000016D5EF
:10108700E709F60870FA8046E709F20870FA803E29
:1010970088828C83E709F0A370FA807EE309F6085B
:1010A70070FA8076E309F20870FA806E88828C8382
:1010B700E309F0A370FA806289828A83E0A3F608C5
:1010C70070FA805689828A83E0A3F20870FA804A10
:1010D70080D280FA80C680D4806580F2803180100B
:1010E70080A680EA809A80A880DA80E280CA803170
:1010F70089828A83ECFAE493A3C8C582C8CCC583E6
:10110700CCF0A3C8C582C8CCC583CC70E9800D8953
:10111700828A83E493A3F60870F9ECFAA9F0EDFB51
:101127002289828A83ECFAE0A3C8C582C8CCC5832A
:10113700CCF0A3C8C582C8CCC583CC70EA80DD8952
:10114700828A83E493A3F20870F980CE88F0ED24B5
:1011570002B4040050C4F582EB2402B4040050BA70
:0911670023234582239010D77365
:10243D0090061CEBF0A3EAF0A3E9F0A3E0FBA3E008
:10244D00FAA3E0F9120EA670030224E990061CE02F
:10245D00FBA3E0FAA3E0F9120EA670030224F59097
:10246D00061FE0F9A3E0FAA3E0A3C9F0A3EAF0A3E5
:10247D00E9F090061CA3E0FAA3E0F9900625EBF035
:10248D00A3EAF0A3E9F0900622E0FBA3E0FAA3E0B3
:10249D00F9120EA6FF6026900625E0FBA3E0FAA335
:1024AD00E0F9120EA66F701590062375F00112114A
:1024BD00AE900626E475F0011211AE80C990062289
:1024CD00E0FBA3E0FAA3E0F9120EA67002800D90D6
:1024DD00061DE475F0011211AE02245990061CE0A0
:0F24ED00FBA3E0FAA3E0F9227B007A007900223A
:10117000EF4E6012EF60010EEDBB010B89828A8396
:10118000F0A3DFFCDEFA2289F05007F709DFFCA9A3
:0C119000F022BBFEFCF309DFFCA9F022FA
:10295900900635E0FFA3E0FEA3E0CF9005D4F0A3F5
:10296900EEF0A3EFF0900638E0CBF0A3E0CAF0A3B5
:10297900E0C9F07F229005D7AD82AC83120EA68DF7
:10298900828C83F0A309E970010ADFEC900638E034
:0A299900FBA3E0FAA3E0F90212EE3E
:10119C00BB010689828A83F0225002F722BBFE0132
:0211AC00F3222C
:1011AE00C5F0F8A3E028F0C5F0F8E58215827002CC
:0611BE001583E038F02269
:1011C400BB010A89828A83F0E5F0A3F0225006F776
:0F11D40009A7F01922BBFE06F3E5F009F3192273
:0E11E300C3E49FFFE49EFEE49DFDE49CFC221D
:1011F100BB010789828A8302104A5005E9F802126D
:0A12010071BBFE05E9F802127D2220
:09120B00E0FBA3E0FAA3E0F922E4
:10121400F8E0FBA3A3E0F925F0F0E5821582700263
:071224001583E0FA38F02207
:10122B00F8E0FBA3A3E025F0F9F0E582158270024C
:07123B001583E038FAF022F0
:09124200EBF0A3EAF0A3E9F022AD
:10124B00D083D082F8E4937012740193700DA3A332
:10125B0093F8740193F5828883E473740293686046
:06126B00EFA3A3A380DF46
:10128900E50D24D4F582E43405F583E0050D2290BB
:1012990005D13007039005D4E475F0011212140248
:1012A9000EA62000E97F2ED2008018EF540F24905B
:1012B900D43440D4FF30040BEF24BFB41A005003D8
:1012C9002461FFE50E6002150E0511E51170020596
:1012D9001030070E9005D1E475F001121214EF02D7
:1012E900119C022BAB7403D2078003E4C207F50DEE
:1012F9009005D1121242E4F50EF510F511E50E60D4
:10130900077F201212CC80F5750FFFC201C200C2FF
:1013190002C203C205C206C208121298FF700D303C
:1013290007057F001212DDAF11AE1022B4255FC28E
:10133900D5C204121298FF24D0B40A00501A75F0CD
:101349000A780E30D50508B6FF0106C6A426F62090
:10135900D5047002D20380D924CFB41A00EF500407
:10136900C2E5D2040214DED20180C6D20080C0D206
:101379000280BCD2D580BAD20580B47F201212CCAB
:101389002002077401B50E0040F1121289FF1212F2
:10139900CC021306D208D2068095121289FB1212CA
:1013A90089FA121289F94A4B700679AF7A157BFFCF
:1013B90020022EE50E602A7E008E82758300120EB1
:1013C900BF60060EEE650F70F0C2D5EBC0E0EAC053
:1013D900E0E9C0E0EE121525D0E0F9D0E0FAD0E05E
:1013E900FB120EA6FF60AAEBC0E0EAC0E0E9C0E08C
:1013F9001212CCD0E02401F9D0E03400FAD0E0FB9D
:10140900E50F0460DCD50FD980877BFF7A15792138
:10141900D202809C791080027908C206C20880082D
:10142900D2D5790A8004790AC2D5E50F047002F58C
:101439000FE4FAFDFEFF121289FC7B08200113124A
:101449001289FD7B1030000A121289FE121289FFDF
:101459007B20EC3382D592D55013C3E43000069F2C
:10146900FFE49EFEE42001039DFDE49CFCE4CBF82F
:10147900C201EC700CCFCECDCCE824F8F870F38023
:1014890017C3EF33FFEE33FEED33FDEC33FCEB33E3
:10149900FB994002FB0FD8E9EB300105F8D0E0C415
:1014A90048B201C0E00AEC4D4E4F78207B0070C273
:1014B900EAB50F0040BCC0E0121527D0F0D0E020FB
:1014C9000104C4C0E0C4B201C0F01212B5D0F0D515
:1014D900F0EB02130612124B13A353141D58137485
:1014E9004C13704214214F14294414294913894378
:0814F900142F551413461413BF
:101501004514134715CF5013782D137C2E139F2BA1
:10151100138023139D2015B82A1338480000139710
:101521003F3F3F00790AA2D5200314300509B910C5
:10153100020404B9080104A2D520060250010420C6
:1015410002689202B50E005034C0E07F20300319CA
:101551007F30A20272067205500F12157EC202C2BE
:1015610006C205C2087F30800F300503E9C0E012D2
:1015710012CC300503D0E0F9D0E0B50ECC30051720
:101581007F30B9100C1212CC7F583004077F78805D
:1015910003B908031212CC3002057F2D0212CC7F51
:1015A100202008F87F2B2006F322920280CF286E9C
:1015B100756C6C2900D2011212893001F8C20178D0
:1015C1000E30D50108F60213382D50434958121236
:1015D100892403B405004001E49015CA931212BD99
:0D15E100743A1212BDD203750E0402141DDF
:10000E0010120B122C79BF0D027F0A022BAB900639
:04001E003EE0FF229F
:082C830090063EEFF0D2122290
:102C4D00EFC394094005EF940E4004EFB42003D375
:042C5D008001C3220D
:0C127100ECF608EDF608EEF608EFF622A9
:0C127D00ECF208EDF208EEF208EFF222AD
:102BAB00EFB40A07740D122BB6740A309811A8995A
:102BBB00B8130CC2983098FDA899C298B811F6308A
:072BCB0099FDC299F5992262
:0A2C79003098FDAF99C2987E00224A
:00000001FF
