:03000000023619AC
:0C361900787FE4F6D8FD75812102366050
:10007E003C2D2D2D2D2D2D4445425547204D5347BA
:10008E00203D3E2074686973206973207561727417
:10009E00322074657374203D2D2D2D2D2D2D2D2D7B
:1000AE002D0D0A004155445F52454C41580D0A0032
:1000BE004155445F53544F500D0A004155445F5310
:1000CE00544152540D0A003C2D2D2D2D2D2D7769A6
:1000DE006669207265736574206B65792070726530
:1000EE0073736564203D2D2D2D2D2D2D2D2D2D0D54
:1000FE000A0052455345540A004745545F5049443F
:10010E000D0A0008000000000000000000000000C2
:10011E000000000000000000000060400000000031
:10012E00020101000000000000000000000140007C
:10013E00000000010101010101071F7E6FFFDBDFDF
:10014E00DFDFDFFFEFFEEFEFCFD7FFE7F7DFD4D034
:10015E00C44C1656B62E8E272F3F3F7F7FFFFFFFD4
:10016E00FFFFFFFFFCFCFDFCFDFFFFFEFFEFE703C3
:10017E00010101010000000000000102082040E022
:10018E0000000000000000008180800000000000E0
:10019E000000000000000000000000000000010050
:1001AE000000000080000080C080E0A0E0E0E0ECF5
:1001BE00EC6EEDEFFCC69E2E3EFEFFFFFFFF3F0FE7
:1001CE000F0F0707030303030301010301010100DE
:1001DE0000000000000000000000040004102123B5
:1001EE00470FFFFFFFFFFFFFFFFFFFFFF003BF38CB
:1001FE00C00000000000000000000000000000171A
:10020E000000003C3E1E0E07070600000000000026
:10021E000000000000000000000000408040F07070
:10022E00B8E8F87C3E1F5FCFCF8F87D70321210020
:10023E000000808081818383FFFFFF1F1F1F3C3CD6
:10024E007E747C5E1C1C1C18180000000000000050
:10025E00181C1C021212100000000000000000000A
:10026E0000000B0F0FFFFFFFFFFFFFFFFFFFFFFF62
:10027E00F9FAFCFCC8800000808080880000000035
:10028E000000000000000000000000000000000060
:10029E000000000080C0B0F8FE5BDFF3FC6F8DFA4B
:1002AE00BE3F010000000000004048000800909092
:1002BE009000010306060D8FDFFCFBFCF8F0E0E07A
:1002CE00C0C0C0E0F0FCF87C7E7E5C505870606070
:1002DE0064204040C080800000000000000000004C
:1002EE00000000003F3F7F3FFFFFFFFFFFFFFF7F4C
:1002FE007FC71F7BE3CE0F0F9F070703050000008C
:10030E0000000000000080000000000000E0F0F897
:10031E00FCF2FFFFFFFF8F1BFFFFFFFFFFFFFFFF43
:10032E00FFFFFFFEFCF8F8F0F0E0E0E0F0F0F0F98F
:10033E00F9F9FCFCFEFFFFFF3F1F1F1F3F3F7FFF32
:10034E00FFFFFFFFFDF9F8F0E1E1E3E1E1E0E0E0BE
:10035E00E0E0E0F0F0D8E6FCFC7870683010381C75
:10036E005C1C78F8F8FEFEFEFFFFFFFFFFFFFFF7B5
:10037E00FF7FF88003071BE7FFF821200101196AB0
:10038E00000000C48080C0C0E0B47AFEFEEFBFFF64
:10039E00FFFFEFF7F9FFFFFFFF0F0F0F0F1F0F0FFD
:1003AE001F1F3F1F1F1F1F1F0F0F1F1F1F1F1F1F4F
:1003BE001F1F3F3F3F3F3F3EB87C3C7CF0F8FCFCAC
:1003CE00FFFFFFFFFFFFBFBF3F7FFF7F7F3F3F3F2F
:1003DE003FFFBF27E7E3E9379D9810B0202020218B
:1003EE00212123232707071F1F1F1F9F1F9F7F7F6B
:1003FE00FFBFBF3F3F3C38187F7E7C7CF878F0F023
:10040E00000000FFFFFFAF3719181F0F0F0C070773
:10041E0007030301010101000000000000000000BD
:10042E00000000008080808088808048C800002006
:10043E00800000A8640494E0F1F9FDFBF7FBF7DF00
:10044E007F3F7F0F495121CE7E388810C4C0BA72CB
:10045E007F77F7FFE7EFCCDFDE1F0B0010100800F1
:10046E000000101878785878FCFEF0F0E7E7CFBF60
:10047E00BF3E7C087020606040C08080808000009D
:10048E000000000707070700000000000000000042
:10049E00000000000000000404040400040404042E
:1004AE0006060607070707070704060600040507E2
:1004BE0004060604060707050704070707070707CC
:1004CE0004060007050602050100000407070707DA
:1004DE0007060606050505070301050000060004CC
:1004EE0004000002000000040507070307070707C2
:1004FE0007070706040404000200000103070704AF
:10050E000000000000F8FC0C0CCCCCCCCCCC0C0CBD
:10051E00FCFC000090808090100000FCFC306060BD
:10052E00B0B0B0100000CCC000CCCCCCCCE0C0CC75
:10053E00CCCC0000FCFC0C0CCCCCCCCCCC0C0CFCF5
:10054E0000000000003F7F6060676767676760605C
:10055E007F3F0000799F9FE1E11E1E7931003078C8
:10056E001F1F676780C0E1C000E7E79E9E79798014
:10057E00E1E100003F7F6060676767676760707FDB
:10058E00000000000002027EFE0E0EFE1E0EF0F0B7
:10059E003233CECECE87031D3C3C3C3020C0983C3F
:1005AE00FEFEFC7C03030C0C0CFCFD0F0FF0F0CCDC
:1005BE00C1C1C3C2CCCCCE303032320C0C0E0EF0D8
:1005CE0040000000001C1E7E7C18189E6161010117
:1005DE00999B6767991919191918189E8E01019917
:1005EE00F9F9E6E418387E7C781F1FE7E79E9C60D9
:1005FE00676760606060601C1EE0E00606E1E16017
:10060E0000000000000E0F0E0E3020C32030F8FC4C
:10061E00CDCCCCCC0F1C3C3232000001080C88C172
:10062E00E0F1F3E3CCCCCCDC3E373333373F3F3015
:10063E00303030303236CE0C0CF0F00207FFFF3087
:10064E0000000000007F7F00006C6E6F0E0C6F6F5D
:10065E006C6C6C6CEC9C9C9C9C000060646C33130A
:10066E007C7CFCFC0C0EEFC3989C9C9B930F0F1094
:10067E00F1F37373737363E4EC8F8FF3F363630CB3
:10068E000400000000FEFE0606E6E6E6E6E60606C6
:10069E00FEFE0000F7F7F7C7C7C6C60606060C082B
:1006AE003838C98808183959C93131F9F9C6C6C65A
:1006BE003F3F3030363230FFFFF1F1F9F9C6C63820
:1006CE0000000000001F1F1010131313131310103F
:1006DE001F1F00001F0303040C03030300100E0F63
:1006EE001F1F0C0C1C1C0C0E0F0C0C000113130CFA
:1006FE001F1F13131010100F0F131311101C1C0CAF
:10070E00000000E0E0E0E0E0E0E0E0C0800000009B
:10071E00C0E0E0E0E0E0C0C0000000E0E0E0E000AB
:10072E0000C0E0E0E0C000C0E0E0F0FCFFE0E0C0B0
:10073E0000C0E0E0E0C0C0E0E0E0C080C0E0E0E08B
:10074E00C00000FFFFFFFF0F0F0FFFFFFFFC0000B9
:10075E0087CFC7C7C7FFFFFFFF0000FFFFFFFF00E8
:10076E0000FFFFFFFFFF000F0FFFFFFFFF2F0F0721
:10077E0000FFFFFFFF0F0F0FFFFFFFFF0F0FFFFF2A
:10078E00FFFF00FFFFFFFFFEFEFEFF7F3F0700FFA4
:10079E00FFFFFF0F0FFFFFFFFF00000F3F7F7F7E6A
:1007AE007EFFFFFFFFFF000000FFFFFFFF85000041
:1007BE0000FFFFFFFF000000FFFFFFFF0000FFFF35
:1007CE00FFFF00FFFFFFFF00000000000000003FE2
:1007DE007F7FFFFCFCFFFFFF7F000000FEFEFEFEA2
:1007EE00FEFFFF7F3F030000007FFFFFFF52000070
:1007FE00007FFFFFFF000000FFFFFFFF00007FFFF5
:10080E00FFFF0000000000000000000000000000DC
:10081E0000000000000000000000000000000000CA
:10082E0000000000000000000000000000C0C0102A
:10083E000808080404060606040404050505050553
:10084E000505050505040000000808F2020204F87B
:10085E00F800000000000000000000000000000092
:10086E00000000000000000000000000000000007A
:10087E0000000000007C8282000101017007070861
:10088E000808001010D0101010101010101010F0DA
:10089E00000060101000040400020203020202F8BD
:1008AE00F800000000000000000000000000000042
:1008BE000000008080402000009090904020202872
:1008CE00202000101010111112F407070000000074
:1008DE000000803C3C8180804040404000000E0083
:1008EE004040404646481010A0C0C0E0101008031B
:1008FE0003000000000000000000000000000000E7
:10090E00F0F0060000C03823233110105050501064
:10091E0080808080802020203E20000040C0C010BB
:10092E00040403010100C0C0100C0C0402020101FA
:10093E000101000000000000000000E107070000B8
:10094E00000000000000000000C020200884846227
:10095E001111080404834111110AC6C62610100C89
:10096E000C0C84484828292911111212020F0F006D
:10097E0000000000001F000000000000000000004A
:10098E00000000000000808030070700000000001B
:10099E00000000000000E00E0E00C0C00C010100BF
:1009AE00808030060600E00404010000C0303004F0
:1009BE0001018030300C0202023C0000FE000000FB
:1009CE00000000FFFF00000000000000000000001B
:1009DE000000000000C619190010102000000000D1
:1009EE000000000000007F8080007F7F808080807C
:1009FE007F7F000000FE00000000F8F801000000FC
:100A0E003C3C010000000000FC0000007F808040A4
:100A1E002020203F3F000000101010100808888092
:100A2E00444442212100101008040402000000007A
:100A3E00000000000000000000010101020202049B
:100A4E0004040808081314040420272740404040DB
:100A5E00484848242424020213000808060303040D
:100A6E00040404040400020202000001010100005B
:100A7E000000000000000000000000000000000068
:100A8E000000000000F8F8040202F208080000005E
:100A9E0004050505050505050505050404040606FA
:100AAE0006040408080810C0C00000000000000082
:100ABE000000000000000000000000000000000028
:100ACE000000000000000000000000000000000018
:100ADE000000000000F8F802020203020200040403
:100AEE00001010600000F0101010101010101010F8
:100AFE00D01010000808080707700101010082825B
:100B0E007C0000000000000000000000000000005B
:100B1E0000000000000000000000000000000000C7
:100B2E0000000000000303081010E0C0C0A0101069
:100B3E00484646404040000E000040404040808005
:100B4E00813C3C800000000000000707F4121111E8
:100B5E00101010002020282020409090900000209F
:100B6E004080800000000000000000000000000037
:100B7E0000000000000000000707E1000000000078
:100B8E0000000000010101010202040C0C10C0C0A3
:100B9E0000010103040410C0C0400000203E2020CC
:100BAE0020808080808010505050101031232338C8
:100BBE00C0000006F0F00000000000000000000081
:100BCE0000000000000000000000000707308080D9
:100BDE000000000000000000000000000000000007
:100BEE001F0000000000000F0F0212121111292920
:100BFE00284848840C0C0C101026C6C60A11114148
:100C0E00830404081111628484082020C0000000AF
:100C1E000000000000000000000020101000191954
:100C2E00C6000000000000000000000000000000F0
:100C3E0000FFFF000000000000FE00003C02020268
:100C4E000C3030800101043030C00000010404E09B
:100C5E000006063080800001010CC0C0000E0EE0C0
:100C6E000000000000000000000002040408101044
:100C7E000021214244448088080810101010000002
:100C8E00003F3F2020204080807F000000FC0000BD
:100C9E00000000013C3C00000001F8F800000000DC
:100CAE00FE0000007F7F808080807F7F0080807FBD
:100CBE000000000000000000000000000000000026
:100CCE00000000000000000001010100000202020D
:100CDE0000040404040404030306080800130202BB
:100CEE002424244848484040404027272004041428
:100CFE0013080808040404020202010101000000A6
:100D0E000000000E1F1FFFFF1F1F1F1F1F1F1F1F93
:100D1E001F1F1F1F1F1F1F1F1F1F1F1F1F1F1F1FD5
:100D2E001FFFFF1F1F0E00000000FFF000E0E0E0BD
:100D3E00E0E0E0E0E0E0E0E0E0E0E0E0E0E0E0E0A5
:100D4E00E0E000E0FF030000000000000000030FE1
:100D5E003C73EFDFBF7FFFFFFFFFFFFFFFFFFF7F54
:100D6E00BFDFEF733C0F0700000000000000000023
:100D7E000000000000000103071CF9E71FFF1FE73A
:100D8E00F91C0E030100000000000000000000002E
:100D9E0000000000000000000080C0E0701F0F6027
:100DAE0005100F1F70E0C080000000000000000062
:100DBE0000000000000000C0F0381E070301000014
:100DCE000000080063000000000103070E38F0C0A9
:100DDE00000000000000000000FF0F00000080C0B7
:100DEE00E0F0F0F8FDFEFEFEFCFAF0F0E0C0800050
:100DFE0000000FFFC000000070F8F8FFFFF8F8FACF
:100E0E00FBFBFBFBFBFBFBFBFBFBFBFBFBFBFBFB24
:100E1E00FBFBFBFAF8F8FFFFF8F870FEFFFFFFFE92
:100E2E0018981810101010303030306060C0C0802C
:100E3E0000000000000000000000000000000000A4
:100E4E0000000000008080C0C06060B0B0B0301004
:100E5E00101010181818FEFFFFFFFEFFFFFFFFFF18
:100E6E0000FFFFFEFCF8F0C08000800000000101D2
:100E7E0003070E1C383060C0C0C0C0C0C0C0606068
:100E8E00B098DCEEF7FBFDFEFEFFFFFFFFFF00005C
:100E9E00000000000000FFFFFFFFFFFFFFFFFFFF4E
:100EAE0000FFFFFFFFFF7F1F0F170000040400016C
:100EBE00000484C0E16134181A181A1A1A1A377706
:100ECE006FCF9FBF7FFFFFFFFFFFFFFFFFFF000002
:100EDE00000000000000FFFFFFFFFFFFFFFFFFFF0E
:100EEE00C0CFC7C3C1404060606060303018180C7E
:100EFE0006070301000000000000000000000000D3
:100F0E0000000103070E0D1B3B37376F6F6F40401C
:100F1E0040C0C0C0C0C0FFFFFFFFFF0307070703AD
:100F2E00000000000000000000000020307830308B
:100F3E00282030000000000000000000E0E06060AB
:100F4E00E0E00000E0E06060600000E0E0E000E073
:100F5E00E0E0000000C0E0E0C0000000E0E00000C3
:100F6E00E0E0C000E0E00000E0E00000E0E0C000F3
:100F7E00E0E00000C0E060606040000000006060E3
:100F8E00E0E0E0606000E0E00000E0E0E000E0E0D3
:100F9E00E00000E0E0606060000000000000000083
:100FAE000000000000000000000000000000000033
:100FBE000000000000000000000000000F0F0307FB
:100FCE000F0D08000F0F0D0D0D0C000F01070F0771
:100FDE00010F00080F070606070F08000F0F00008D
:100FEE000F0F01070F0F00000F0F00000F0F01076B
:100FFE000F0F0001070F0C0D0D0700000000000081
:10100E000F0F0F0000000F0F00000F01070F070159
:10101E000F00000F0F0D0D0D0C000000000C0C004A
:10102E00000000000C0C00000000000C0C00000082
:10103E0000000000000000000000000000000000A2
:10104E000000000000000000000000000000000092
:10105E000000000000000000000000000000008002
:10106E0080808080808080000000000000000000F2
:10107E00000000000080F0FCFEFEFFFFFF3F1F0F90
:10108E000F0F1F3FFFFFFFFEFCF8F0800000000077
:10109E00000000FFFFFFFFFFFFFF8F0000000000BA
:1010AE0000008FFFFFFFFFFFFFFF000000000000AA
:1010BE00000F7FFFFFFFFFFFFFE0C0808080C0E0DA
:1010CE00FFFFFFFFFFFF7F0F00000000000000008A
:1010DE000000010307070F0F0F0F0F0F0F0F0F0762
:1010EE0007030301000000000000000000000000E4
:1010FE0000000000000000000000000000000000E2
:10110E0000000000000000000000000000000000D1
:10111E000000000000008080808080808000000041
:10112E00000000000000000000000080C0C0E0E0F1
:10113E00F0F8FCFEFFFFFFFFFFFFFF0000000000C6
:10114E000000000000000000001F0F0F0F07070334
:10115E0003FFFFFFFFFFFFFFFF0000000000000086
:10116E00000000000000000000000000000000FF72
:10117E00FFFFFFFFFFFFFF00000000000000000068
:10118E00000000000000000000000000000F0F0F24
:10119E000F0F0F0F0F0000000000000000000000F6
:1011AE000000000000000000000000000000000031
:1011BE000000000000000000000000000000000021
:1011CE000000000080808080808080808000000091
:1011DE000000000000000000000000E0F8FCFEFF30
:1011EE00FFFFFF3F1F0F0F0F0F1FFFFFFFFFFEFC45
:1011FE00F8E0000000000000000000000101010105
:10120E000180C0E0E0F0F8FEFFFFFFFF7F3F0F031D
:10121E000000000000000000C0F0F8FCFEFEFFFF22
:10122E00FFFFDFCFC7C7C3C1C0C0C0C0C0C0000072
:10123E00000000000C0F0F0F0F0F0F0F0F0F0F0FEF
:10124E000F0F0F0F0F0F0F0F0F0F0F0F00000000DC
:10125E000000000000000000000000000000000080
:10126E000000000000000000000000000000000070
:10127E000000000000000000000080808080808060
:10128E0080808000000000000000000000000000D0
:10129E000060787C7E7FFFFF7F1F0F0F0F0F1FFFF9
:1012AE00FFFFFFFEFEFCF00000000000000000004B
:1012BE0000000000000000007C7C7C7E7FFFFFFFB2
:1012CE00FFFFE7E3C0800000000000000030F0F0F8
:1012DE00F0F8F8F8F0C08080808080C0FBFFFFFF40
:1012EE00FFFFFF3F000000000000000000010307A9
:1012FE0007070F0F0F0F0F0F0F0F0F070707030132
:10130E0000000000000000000000000000000000CF
:10131E0000000000000000000000000000000000BF
:10132E0000000000000000000000000000000000AF
:10133E00000080808080808080000000000000001F
:10134E0000000000000000000080C0E0F0F8FEFF8A
:10135E00FFFFFFFFFFFFFF00000000000000000086
:10136E0000C0E0F0F8FCFE7F3F1F0F07030100FFF7
:10137E00FFFFFFFFFF0000000000000000007F7F66
:10138E007F7F7F7F7F7E7E7E7E7E7E7E7EFFFFFFE7
:10139E00FFFFFF7E7E7E7E0000000000000000004A
:1013AE0000000000000000000000000F0F0F0F0FE4
:1013BE000F00000000000000000000000000000010
:1013CE00000000000000000000000000000000000F
:1013DE0000000000000000000000000080808080FF
:1013EE00808080808080808080808080808080006F
:1013FE00000000000000000000FCFFFFFFFFFFFFE9
:10140E001F1F1F1F1F1F1F1F1F1F1F1F1F0000003B
:10141E000000000000003F3F3F7F7F7F7F3E1E1E8B
:10142E001F1F1F3FFFFFFEFEFCF8F0E00000000054
:10143E0000000070F0F0F8F8F8F8F0C0C08080807E
:10144E0080C0F9FFFFFFFFFF7F1F000000000000BC
:10145E0000000001030707070F0F0F0F0F0F0F0FED
:10146E000F0707030301000000000000000000004A
:10147E00000000000000000000000000000000005E
:10148E00000000000000000000000000000000004E
:10149E00000000000000808080808080808000003E
:1014AE0000000000000000000000000000E0F8FC5A
:1014BE00FEFEFFFF7F1F0F0F0F0F1F7F7F7F7F3EF1
:1014CE003C382000000000000000FFFFFFFFFFFF80
:1014DE00FFFFF8783C3E3E3E7EFEFEFCFCF8F8F048
:1014EE00C0000000000000000F3FFFFFFFFFFFFFE6
:1014FE00E0C080808080C0E0FFFFFFFFFFFF7F0025
:10150E0000000000000000000001030707070F0F96
:10151E000F0F0F0F0F0F070707030100000000004A
:10152E0000000000000000000000000000000000AD
:10153E00000000000000000000000000000000009D
:10154E00000000808080808080808080808080800D
:10155E00808080808080808080800000000000007D
:10156E00001F1F1F1F1F1F1F1F1F1F1F1F9FDFFF7C
:10157E00FFFFFFFFFF7F1F0F0000000000000000B5
:10158E0000000000000000C0F0FCFEFFFFFF7F1F08
:10159E000701000000000000000000000000000035
:1015AE00000080F8FFFFFFFFFFFF1F01000000009B
:1015BE00000000000000000000000000000000001D
:1015CE000F0F0F0F0F0F0F0F000000000000000095
:1015DE0000000000000000000000000000000000FD
:1015EE0000000000000000000000000000000000ED
:1015FE00000000000000000000000000008080805D
:10160E0080808080808000000000000000000000CC
:10161E000000000000F8FCFEFFFFFFFF1F0F0F0F82
:10162E000F1F3FFFFFFFFFFEFCF800000000000051
:10163E00000000C3C7EFFFFFFFFFFE7C7C7C7CFC3D
:10164E00FEFFFFFFFFEFC783000000000000000059
:10165E007FFFFFFFFFFFFFFFC0C0808080C0C0FF85
:10166E00FFFFFFFFFFFF7F000000000000000001F2
:10167E0003030707070F0F0F0F0F0F0F0F0F0707AC
:10168E00070303000000000000000000000000003F
:10169E00000000000000000000000000000000003C
:1016AE00000000000000000000000000000000002C
:1016BE00008080808080808080000000000000001C
:1016CE000000000000000000F0F8FCFEFFFFFF3FEE
:1016DE001F0F0F0F0F1F3FFFFFFFFEFCF8E08000F4
:1016EE000000000000001F7FFFFFFFFFFFF8F0E08B
:1016FE00E0E0E0F0F8FFFFFFFFFFFFFFFF0000005C
:10170E000000000020E0E0E0F1F1F3F3C3838383F7
:10171E0081C1F0FFFFFFFFFFFF3F07000000000049
:10172E000000000001030707070F0F0F0F0F0F0F29
:10173E000F07070303010000000000000000000077
:10174E00000000000000000000000000000080808B
:10175E008080800000007F7F7F7F7F000000F0F0A0
:0B176E00F0F0F00000000F0F0F0F0F55
:10259900E490058BF0A3F0A3F0A3F0759101759178
:1025A9000153B1FE43B20175910153B1FD43B2022A
:1025B90075910153B1FB43B20475910153B1F743CE
:1025C900B20875910153B5FE43B60175910153B532
:1025D900FD43B60275910153B5FB43B604759101EC
:1025E90053B5F743B60875910153B5DF43B6207566
:1025F900910153B5EF43B61075910153C2FB43C323
:102609000475910153BDEF43BE1075910153BDDFB0
:1026190043BE2075910153C2F743C308C2B37591F4
:102629000253F1F043F10375910253F10F43F13075
:1026390075910153B3BF53B4BF75910153B37F5320
:10264900B47F75910253EFF043EF0275910253EF96
:102659000F43EF2075910153BDFE53BEFE759101E5
:1026690053BDFD53BEFD75910253EBF043EB087565
:10267900910253EB0F43EB8075910153B9FE53BAA5
:10268900FE75910153B9FD53BAFD1235899005972D
:102699007401F0A312193F0001C2007F007E367D4C
:1026A9006E7C011228587D017F061237A590059787
:1026B9007403F0A312193F0001C2007F007E367D2A
:1026C9006E7C011228587D017F071237A590059766
:1026D9007404F0A312193F0001C2007F007E367D09
:1026E9006E7C01122858D2AF123BDB1239547F1489
:1026F900123CCEC28DD28CD2A9123C441238F57F3D
:06270900887E13123D3F23
:10270F0090058F7401F0A3742CF0E4A3F07BFF7A93
:0B271F0000797E123895E4900401F070
:10272A00E4900592F0121B5C900405E0B4010812D3
:10273A0038F5E4900405F0300A13C20A7BFF7A00E8
:10274A0079B27F061236A5123954123CA1300B0D0C
:10275A00C20B7BFF7A0079BE7F061236A59006026D
:10276A00E0B41415300D127BFF7A0079C97F061286
:10277A0036A57FE87E03123D3F900602E0701920DD
:10278A000D03300C13900408E0FEA3E0FFD394007D
:10279A00EE9400400312306AE4F591900592E5B197
:1027AA00F0E020E636D3900409E09402900408E0B1
:1027BA0094004027E4F5917F2C7E01123D3FE4F519
:1027CA0091900592E5B1F0E020E609900408E4F062
:1027DA00A37402F07FE87E03123D3F900592E02049
:1027EA00E244E4F5917F2C7E01123D3FE4F591909D
:1027FA000592E5B1F0E020E2267BFF7A0079D51256
:10280A0038957BFF7A0179007F071236A57FE87E2B
:10281A0003123D3F7BFF7A0179007F071236A57FBD
:10282A00E87E03123D3F900401E0600302272A90EC
:10283A000404E0D39402500302272A7BFF7A017929
:0B284A00077F061236A5E4900404F09E
:0328550002272A2D
:103D3F00E4FDFCC3ED9FEC9E5015E4FBFA0BBB00BA
:0F3D4F00010ABA08F8BB4CF50DBD00010C80E469
:013D5E002242
:103D5F00EF540FF5A0EFC4540FF580C2A5D2A47F86
:0B3D6F00017E00123D3FC2A4023D3F58
:10326B00EF540FF5A0EFC4540FF580D2A5D2A400F4
:10327B000000000000000000000000000000000043
:10328B000000000000000000000000000000000033
:10329B000000000000000000000000000000000023
:1032AB000000000000000000000000000000000013
:1032BB000000000000000000000000000000000003
:1032CB0000000000000000000000000000000000F3
:1032DB000000000000000000C2A40000000000007D
:1032EB0000000000000000000000000000000000D3
:1032FB0000000000000000000000000000000000C3
:10330B0000000000000000000000000000000000B2
:10331B0000000000000000000000000000000000A2
:10332B000000000000000000000000000000000092
:10333B000000000000000000000000000000000082
:04334B00000000225C
:103BDB00E4F591E5B154DF4420F5B1D2B2E4F591AF
:103BEB00E5B154EF4410F5B17FD07E07123D3F7F16
:103BFB003E123D5F7F40123D5F7FB8123D5F7FC03D
:083C0B00123D5F7F3F023D5FA7
:10395400E4F591E5B154DF4420F5B1D2B2E4900529
:10396400F1F0A3F09005F1E0FEA3E0FFC39408EEAC
:1039740064809480502AEF24B8FF123D5FE4FDFC7C
:10398400E4FF12326B0DBD00010CED64404C70F08D
:103994009005F2E004F070CC9005F1E004F080C4EE
:0A39A4007F40123D5F7FB8023D5FD7
:103C7300A905E4F591EB70047E0180027E00EEC499
:103C83003354E0FEE5B154DF4EF5B1EB24FF92B2BD
:0E3C9300EF2440FF123D5FE924B8FF023D5FC1
:0B3184009005F1EFF0A3EDF0A3EBF0DD
:10318F009005F1E0FF9005F9F0A3EDF0E4A3F0A3B3
:10319F00F09005F8E0FE131313541F9005FDF0E4B3
:1031AF00A3F0A3F0123C739005F2E09005FCF090B1
:1031BF0005F2E0FF9005FDE02FFFE433FE9005FCE4
:1031CF00E0FDC39FEE6480F8748098400302326A7A
:1031DF009005F1E0FF9005F3E0FB123C739005F1D1
:1031EF00E09005FBF09005F1E0FF9005F7E02FFF71
:1031FF00E433FE9005FBE0C39FEE6480F874809883
:10320F0050509005F4E0FBA3E0FAA3E0F99005FE1F
:10321F00E0FEA3E0F5828E83121792FF12326B90BD
:10322F0005FFE004F070069005FEE004F09005FB4A
:10323F00E0B43F16A3E0FD9005F3E004FBE4FF12BA
:10324F003C73E4F59153B1DFD2B29005FBE004F08B
:0B325F0080939005FCE004F00231BEFB
:01326A002241
:103C1300300927900406E06402601F1239549005AE
:103C2300F47401F0A37400F0A37400F0A37440F0E3
:103C3300A3F0E4FBFD7F201231849004067402F0AC
:013C4300225E
:1038F50020095B200D58900408E07002A3E0704E8B
:1039050090040604F0900603E020E020123954905C
:1039150005F474FFF0A3740DF0A37411F0A37423E0
:10392500F0A37440F0E4FBFD7F2D801F1239549005
:1039350005F474FFF0A3740EF0A37429F0A374408A
:0F394500F0A37423F0E4FB7D027F201231842273
:103CA100900406E0640460247404F0123954900511
:103CB100F474FFF0A3740AF0A37491F0A37450F0AC
:0D3CC100A37440F0E4FBFD7F181231842253
:04306A00AB07AA0600
:10306E00E4900596F0FC7D3C1217D1A3EEF0A3EF91
:10307E00F0900597E0FEA3E0FF7C007D0A1217D1C9
:10308E00A3EFF0900597E0FEA3E0FF7C007D0A120F
:10309E0017D190059AEDF0AE02AF037C007D3C1285
:1030AE0017D1AB05AA047C007D0AAF03AE0212173E
:1030BE00D1A3EFF0AE02AF037C007D0A1217D1A3AD
:1030CE00EDF09004067403F0900596E0FFC43354BF
:1030DE00E0900593F0A37402F0EFC313A3F0A3E006
:1030EE0014601E1460571460682403707990059460
:1030FE00E0FDA3E0FB900599E09005A0F0E4FF80D1
:10310E0062900594E0FDA3E0FB90059AE09005A087
:10311E00F07F1E122F36900594E0FD9005F474FF9B
:10312E00F0A37417F0A37449F0A37408F0A37430DD
:10313E00F0900595E0FB7F3C123184802990059438
:10314E00E0FDA3E0FB90059BE09005A0F07F0480DE
:10315E0012900594E0FDA3E0FB90059CE09005A085
:10316E00F07F22122F36900596E004F0E0C394040F
:05317E0050030230D6F1
:013183002229
:102F360090059DEFF0A3EDF0A3EBF0A3E0B40A003B
:102F46004003023069902F52F8282873022F70022E
:102F56002F88022FA0022FB8022FD0022FE7022FB0
:102F6600FE02301502302C02304390059DE0FFA38F
:102F7600E0FD9005F474FFF0A37410F0A374410211
:102F8600305890059DE0FFA3E0FD9005F474FFF036
:102F9600A37410F0A374F502305890059DE0FFA3CA
:102FA600E0FD9005F474FFF0A37411F0A374A90278
:102FB600305890059DE0FFA3E0FD9005F474FFF006
:102FC600A37412F0A3745D02305890059DE0FFA330
:102FD600E0FD9005F474FFF0A37413F0A374118060
:102FE6007190059DE0FFA3E0FD9005F474FFF0A34A
:102FF6007413F0A374C5805A90059DE0FFA3E0FD0D
:103006009005F474FFF0A37414F0A37479804390D0
:10301600059DE0FFA3E0FD9005F474FFF0A3741591
:10302600F0A3742D802C90059DE0FFA3E0FD900594
:10303600F474FFF0A37415F0A374E1801590059D58
:10304600E0FFA3E0FD9005F474FFF0A37416F0A36F
:103056007495F0A3741EF0A37430F090059FE0FB06
:04306600123184227D
:100026004104E700410556004104E500410557003B
:0D0036004204E300004104E60041058A0099
:03007B00023A083E
:103A0800C0E0C0F0C083C082C0D075D000C000C084
:0D3A180001C002C003C004C005C006C00705
:103A25009005EFE4F0C09130F80FAF9A122C2CC23C
:103A3500F8900402E4F0A304F030F902C2F9D09141
:103A4500D007D006D005D004D003D002D001D000D5
:0B3A5500D0D0D082D083D0F0D0E0327F
:030023000239AEF1
:1039AE00C0E0C0F0C083C082C0D075D000C000C0DF
:0D39BE0001C002C003C004C005C006C00760
:1039CB009005F0E4F0309811AF99122C2C90040272
:1039DB00E4F0A3F0F5915398FE30990675910053DE
:0239EB0098FD45
:1039ED00D007D006D005D004D003D002D001D0002E
:0B39FD00D0D0D082D083D0F0D0E032D8
:102C2C00900556E02458F582E43405F583EFF090D6
:102C3C000556E004F0E0FF2457F582E43405F583F3
:102C4C00E0640A706C900557E06401705774582F5B
:102C5C00F582E43405F583E4F09004E5E075F03298
:102C6C00A424F2F9740435F0A801FC7D017B017AEF
:102C7C00057958121A3CE4900556F09004E5E0C32F
:102C8C0094015005E004F08005E49004E5F0900414
:102C9C00E77401F07E007F327D00FB7A05795812D3
:102CAC001A59800D900557E0700704F0E490055612
:102CBC00F0900400E064016003022D68900556E07A
:102CCC002457F582E43405F583E0FFC39430400BC0
:102CDC00EFD394395005EF540F801F900556E02424
:102CEC0057F582E43405F583E0FFC394414021EFAE
:102CFC00D39446501BEF540F2409FF9004E6E024B4
:102D0C00E8F582E43404F583EFF09004E6E004F097
:102D1C009004E6E0B40245FF24E6F582E43404F5C1
:102D2C0083E0C454F0FE74E72FF582E43404F58399
:102D3C00E04EFF9004E3E0FCA3E02400F582740075
:102D4C003CF583EFF09004E4E004F070069004E3AB
:102D5C00E004F0E49004E6F0900556F0900556E09F
:102D6C00FFD39430404E74582FF582E43405F5832C
:102D7C00E4F09004E5E075F032A424F2F974043523
:102D8C00F0A801FC7D017B017A057958121A3C9060
:102D9C0004E5E0C394015005E004F08005E49004E0
:102DAC00E5F0E4900556F0FE7F32FD7B017A057963
:052DBC0058121A592213
:10285800900593121933900597E014B407004003CC
:10286800022A9290287975F003A4C58325F0C583C0
:102878007302288E0228D90228EE022968022A0C3F
:1028880002288E0228EEE4F591759850438920F5C8
:1028980091438780F591438E10F59153C4DF7B10E7
:1028A800FAF9F8900593E0FCA3E0FDA3E0FEA3E0AD
:1028B800FF121878900598E0F8A3E0F9A3E0FAA3CE
:1028C800E0FB121878EFF404F58DE4F591438840A5
:1028D80022E4F591759850F59143878053C4F8F533
:1028E8009143C4208009E4F59175F85075C4887B3C
:1028F80010FAF9F8900593E0FCA3E0FDA3E0FEA32D
:10290800E0FF121878900598E0F8A3E0F9A3E0FA40
:10291800A3E0FB121878C3E49FFFE49EFE74019DB8
:10292800FDE49CFC78081219208FC6E47B10FAF9A4
:10293800F8900593E0FCA3E0FDA3E0FEA3E0FF12FE
:102948001878900598E0F8A3E0F9A3E0FAA3E0FB73
:10295800121878C3E49FFFE48FC5F59143C4082299
:10296800E4F59143D601F59143D701F59143D70298
:10297800F59153D6EFF59153D6F77B08FAF9F8900D
:102988000593E0FCA3E0FDA3E0FEA3E0FF121878A6
:10299800900598E0F8A3E0F9A3E0FAA3E0FB121889
:1029A80078EF24FFFFEE34FFED34FFEC34FFE48FC3
:1029B800DB53DCF07B08FAF9F8900593E0FCA3E020
:1029C800FDA3E0FEA3E0FF121878900598E0F8A3B5
:1029D800E0F9A3E0FAA3E0FB121878EF24FFFFEE7A
:1029E80034FFFEED34FFFDEC34FFFC7808121920AB
:1029F800EF540F42DCE4F59143D74053D7CFF5911C
:102A080043D68022E4F59143D701F59153D6EFF5EB
:102A18009153D6F7900598E0F8A3E0F9A3E0FAA35C
:102A2800E0FB900593E0FCA3E0FDA3E0FEA3E0FF3C
:102A3800121878EF24FFFFEE34FFED34FFEC34FF7B
:102A48008FDB900598E0F8A3E0F9A3E0FAA3E0FB98
:102A5800900593E0FCA3E0FDA3E0FEA3E0FF1218BD
:102A680078EF24FFFFEE34FFFEED34FFFDEC34FF7A
:102A7800FC7808121920EF540FF5DC75910243E732
:0B2A88004053E7CF75910243E6802227
:103A6000E4F591EF24FC601C14602824FE600C0433
:103A7000703B3098FDAE99C298803230F8FDAE9A16
:103A8000C2F88029E4F59153D6FDE5DF20E1FBAED5
:103A9000D9801A75910253E6FDE5DF7C0060047D54
:0F3AA0000180027D00ED64024C60EEAED9AF06EE
:013AAF0022F4
:10372A00E4F591EF24FC602414605424FE60100434
:10373A007068E4F591C2998D993099FDC29922E495
:10374A00F591C2F98D9A30F9FDC2F922E4F5915347
:10375A00D6FB8DD990058AF0000000000000000019
:10376A000000E5DF44F7FFBFF70E90058AE0D39427
:10377A00E65005E004F080EAE4F59153D6FB2275A1
:10378A00910253E6FB759102AF058FD9E5DF44F745
:0B379A0064F760F875910253E6FB2213
:1036A5009005C1EBF0A3EAF0A3E9F0EF24FC604B31
:1036B50024FD602504706D9005C1E0FBA3E0FAA32D
:1036C500E0F9121779FD605C7F0612372A9005C272
:1036D500E475F00112182680DE9005C1E0FBA3E039
:1036E500FAA3E0F9121779FD603A7F0712372A909D
:1036F50005C2E475F00112182680DE9005C1E0FBD5
:10370500A3E0FAA3E0F9121779FD60187F041237D8
:103715002A9005C2E475F0011218267F017E001279
:053725003D3F80D722AA
:1037A500EF24FC603414605024FE6018047069ED49
:1037B50014600A047062E4F59153A8EF22E4F591D0
:1037C50043A81022ED14600A04704DE4F591539C52
:1037D500FE22E4F591439C0122ED14600F0470383C
:1037E500E4F59153DDFDF59153DDFE22E4F59143BA
:1037F500DD02F59143DD0122ED14601004701975A9
:10380500910253DDFD75910253DDFE227591024350
:09381500DD0275910243DD012280
:103D1E00E4F591759850438920F591438780F5918C
:103D2E00538EEFF59153C4DF758DFFF591438840A7
:013D3E002262
:102A93002B435245473A20002C002B435245473ADB
:102AA3002025642C256420252A5B5E0D0A5D0D0A12
:102AB300002B435245473A002B435245473A2025C2
:102AC3006420252A5B5E0D0A5D0D0A003C2A2A2A32
:102AD3002A2A555243203D20257320405541525404
:102AE3004E4F3A256400494D475F524543560A000D
:102AF300696D6720726563656976652066726F6DBF
:102B0300207769666900494D475F524543560D0A70
:102B130000696D6720726563656976652066726F0B
:102B23006D2047534D003C2D2D2D2D2D2D50494407
:102B33002052455155455354203D2025732C25647F
:102B43002D2D2D2D2D2D2D2D2D0D0A000D0A2D2D65
:102B53002075617274207265632025732D2D0D0A13
:102B63000054494D453A25640D0A003C2D2D2D2D69
:102B73002D2D74696D65722076616C7565203D201D
:102B830025642D2D2D2D2D2D2D2D2D0D0A003C2DA4
:102B93002D2D2D2D2D5069644172726179203D20B8
:102BA30025732C25642D2D2D2D2D2D2D2D2D0D0A29
:102BB300003C2D2D2D2D2D2D4445425547204D53A1
:102BC30047203D3E20554152544C494E45204558DF
:102BD3004954203D2025642D2D2D2D2D2D2D2D2DBA
:102BE3000D0A002B435245473A00494D475F535462
:102BF3004152543A00494D475F53544F5000544992
:102C03004D453A002A5049443A004D5154545F43CC
:102C13004F4E4E004D5154545F444953434F4E4E13
:092C2300004745545F504944008C
:10004300C109C10DC10CC10BC10A4104190041040E
:0B005300E20041040700420408000026
:0B389500900593EBF0A3EAF0A3E9F02C
:1038A0009005BE7401F0A37405F0A37496F0900522
:1038B00093E0F9A3E0FAA3E09005C1C9F0A3EAF010
:1038C000A3E9F09005BEE0F9A3E0FAA3E09005C4F7
:1038D000C9F0A3EAF0A3E9F07B017A04791A123B5C
:1038E0004B9005BEE4F0A3F0A3F07B017A04791AB3
:0538F0007F040236A573
:10334F00900608EBF0A3EAF0A3E9F07F041236A58C
:10335F0090059674FFF0A3742AF0A37493F090066F
:10336F0008E0FBA3E0FAA3E0F9123424EA494B602A
:10337F005190059674FFF0A3742AF0A3749BF090FC
:10338F000608E0FBA3E0FAA3E0F9123424EA494B64
:10339F00603090059674FFF0A3742AF0A3749DF02B
:1033AF0090060BE0F9A3E0FAA3E0900599C9F0A30A
:1033BF00EAF0A3E9F090060BE0F9A3A3E090059CD7
:1033CF00803C90059674FFF0A3742AF0A374B4F0B8
:1033DF00900608E0FBA3E0FAA3E0F9123424EA49CF
:1033EF004B603190059674FFF0A3742AF0A374BB61
:1033FF00F090060BE0F9A3E0FAA3E0900599C9F06D
:10340F00A3EAF0A3E9F0900608E0FBA3E0FAA3E03B
:05341F00F91223002258
:101B5C009004E5E0FF9004E2E06F7003021F11E0D7
:101B6C0004F0E075F032A424C0F9740435F0FA9056
:101B7C0005967401F0A3EAF0A3E9F0900402E0FFEB
:101B8C00A3E0900599CFF0A3EFF07BFF7A2A79CFF1
:101B9C001238959004E2E075F032A424C0F9740474
:101BAC0035F0FA7B0190059674FFF0A3742BF0A32B
:101BBC0074EDF0123424EA494B6024900400740153
:101BCC00F0E49004E6F09004E3F0A3F07E04FFFD53
:101BDC007B017A007900121A59C28DC28CC2A9906D
:101BEC0004E2E075F032A424C0F9740435F0FA7BF9
:101BFC000190059674FFF0A3742BF0A374F8F01207
:101C0C003424EA494B7003021CAB9004E3E0FEA3BE
:101C1C00E0FF2400F58274003EF583E4F0900400AC
:101C2C00F09004E6F0123AB0123B957E047F007DF2
:101C3C00007B017A007900121A591235897FD07E07
:101C4C0007123D3F900402E07004A3E064017BFFA7
:101C5C0070237A2A79E97F071236A57FD07E071286
:101C6C003D3F7BFF7A2A79E97F071236A57BFF7A05
:101C7C002A79F380217A2B79097F061236A57FD039
:101C8C007E07123D3F7BFF7A2B79097F061236A522
:101C9C007BFF7A2B7914123895C28DD28CD2A990F5
:101CAC0004E2E075F032A424C0F9740435F0FA7B38
:101CBC000190059674FFF0A3742CF0A3740DF01230
:101CCC003424EA494B6024D209900408E07002A342
:101CDC00E07018C28DC28CC2A9D209123C137FE8E5
:101CEC007E03123D3FC28DD28CD2A99004E2E075E6
:101CFC00F032A424C0F9740435F0FA7B01900596F7
:101D0C0074FFF0A3742CF0A37417F0123424EA4976
:101D1C004B601AC209900408E07002A3E0700E90A8
:101D2C000406E064016006200D031239549004E2AD
:101D3C00E075F032A424C0F9740435F0FA7B0190FC
:101D4C00059674FFF0A3742CF0A37424F0123424C1
:101D5C00EA494B6040900401E0640170387B017AE1
:101D6C0004790A7F071236A59004017401F0FB7AFE
:101D7C0004790A12000E900599EEF0A3EFF090058D
:101D8C00967401F0A37404F0A3740AF07BFF7A2B11
:101D9C0079291238959004E2E075F032A424C0F948
:101DAC00740435F0FA7B0190059674FFF0A3742C43
:101DBC00F0A37401F0123424EA494B7003021E6A3A
:101DCC009004E2E075F032A424C0F9740435F0FA02
:101DDC009005967401F0A3EAF0A3E9F07BFF7A2B4F
:101DEC00794F1238959004E2E075F032A424C0F9D2
:101DFC00740435F0FA7B01C00390059674FFF0A3D0
:101E0C00742BF0A37464F0A3EBF0A37404F0A3742C
:101E1C0008F0D003122300900408E0FEA3E0FFD3E7
:101E2C009400EE64809480401D900602741EF07C39
:101E3C00007D3C1217BF900408EEF0A3EFF0D20D1A
:101E4C00123954123CA17BFF7A2B796E900408E076
:101E5C00FFA3E0900596CFF0A3EFF0123895900415
:101E6C00E2E075F032A424C0F9740435F0FA7B0179
:101E7C0090059674FFF0A3742CF0A37407F0123441
:101E8C0024EA494B60617E007F0F7D007B017A0460
:101E9C00790A121A599004E2E075F032A424C0F9C0
:101EAC00740435F0FA7B01780A7C047D01121A3C2B
:101EBC00900415740AF0E4A3F07B017A04790A12F9
:101ECC00000E900599EEF0A3EFF09005967401F0DA
:101EDC00A37404F0A3740AF07BFF7A2B7991123867
:101EEC00959004017401F0123C449004E5E0F990E3
:101EFC000596E4F0A3F0A3E9F07BFF7A2B79B412FA
:061F0C003895021B5C2267
:103C4400E49004E5F09004E2F0900557F09004024B
:103C5400F0A3F0FE7F32FD7B017A0479F2121A5947
:0F3C64007E007F327D007B017A057924021A5998
:04005E0041060E0049
:103AFF008FA6EEF5A775AEFFE4F591A2AF920EC2B9
:103B0F00AF75C7AA75C755439F01A20E92AFF59126
:103B1F00A2AF920EC2AF75C7AA75C75543A501A232
:103B2F000E92AF75AF22F591A2AF920EC2AF75C7CD
:0C3B3F00AA75C75543A401A20E92AF2244
:10381E008FA6EEF5A7E4F591A2AF920EC2AF75C7D3
:10382E00AA75C755439F01A20E92AFF591A2AF9212
:10383E000EC2AF75C7AA75C75543A501A20E92AFAA
:10384E0075AF21AF058FAEF591A2AF920EC2AF75D7
:10385E00C7AA75C75543A401A20E92AFF591A2AFA8
:10386E00920EC2AF75C7AA75C75553A5FEA20E928A
:10387E00AFF591A2AF920EC2AF75C7AA75C75553D9
:07388E009FFEA20E92AF2283
:040003008F828E83D7
:03000700E493FF80
:01000A0022D3
:103B9500E4900595F0A3F0C2AF7F807E7F123AFFD7
:103BA5007D0112381E9004E3E0FEA3E0FF7C007D5A
:103BB500641217D17F817E7F12381E9004E3E0FEE8
:103BC500A3E0FF7C007D641217D1AD077F827E7F65
:053BD50012381ED2AF02
:013BDA0022C8
:083AB000900593EEF0A3EFF086
:103AB800E4FBFA7F807E7B123AFF0BC3900594E00B
:103AC8009B900593E09A402EEB547F700BEB24807B
:103AD800FFEA347BFE123AFFEB247FFFEA347BFED9
:103AE80074FF2BF58274FF3AF583E0FD12381E0B44
:063AF800BB00010A80C5BD
:013AFE0022A5
:10358900E4900593F0A3F07F807E7F1200039006FC
:103599000EEFF064016003123DB07F827E7F12005E
:1035A90003EF75F064A4FDACF07F811200037E0087
:1035B900ED2FFFEE3CFE9004E3F0A3EFF0D394006F
:1035C900EE9400404AE4900593F0A3F09004E3E000
:1035D900FEA3E0FF900593E0FCA3E0FDC39FEC9EF2
:1035E900502DED2480FFEC347BFE120003900593EF
:1035F900E0FCA3E02400F58274003CF583EFF09031
:0F3609000594E004F070C5900593E004F080BDD7
:01361800228F
:0E3DA200EF75F064A47C002DFFEC35F0FE22DE
:0A3DB000E49004E3F0A3F0023B9559
:100062004206040000420606000041060300410663
:07007200020042060000003D
:03000B00022DC102
:102DC100C0E0C0F0C083C082C0D075D000C000C0D8
:102DD10001C002C003C004C005C006C007900601BF
:102DE100E004F07006900600E004F0900600E0FEBA
:102DF100A3E0FF7C007D321217D1ED4C703E9004B0
:102E010019E0D394004035E014F0E0702FC20D12A8
:102E11003954D2B39005F474FFF0A3740FF0A37486
:102E210041F0A37480F0A37410F0E4FBFDFF1231B4
:102E310084900408E4F0A3743CF0D20C900600E006
:102E4100FEA3E0FF7C007D321217D1ED4C7073D3ED
:102E5100900409E09400900408E094004064900616
:102E610002E0702D900409E024FFF0900408E034A2
:102E7100FFF0E07002A3E07049C2B3200D09C20C5B
:102E8100D20B123C13803BD20A900419741EF080BD
:102E910031900602E0D394004028E014F0E0702263
:102EA1001239549005F474FFF0A3740FF0A3744128
:102EB100F0A37480F0A37410F0E4FBFDFF123184E1
:102EC100D2B3900600E0FAA3E0FB7C007D32FFAEB6
:102ED100021217D1ED4C7012900603E004F0900439
:102EE100057401F0900404E004F0AF03AE02E4FCC9
:102EF100FD7B607AEAF9F8C312190A5007900600BF
:102F0100E4F0A3F0900604E0FCA3E0FDECF58CED09
:102F1100F58AC28D7591005388DFD007D006D005A0
:102F2100D004D003D002D001D000D0D0D082D08341
:052F3100D0F0D0E032F9
:1034E300900600E0FEA3E0FF7C007D321217D1EDD1
:1034F3004C7073D3900409E09400900408E09400A6
:103503004064900602E0702D900409E024FFF090DF
:103513000408E034FFF0E07002A3E07049C2B32076
:103523000D09C20CD20B123C13803BD20A90041932
:10353300741EF08031900602E0D394004028E0141A
:10354300F0E070221239549005F474FFF0A3740F65
:10355300F0A37441F0A37480F0A37410F0E4FBFDB6
:10356300FF123184D2B3900600E0FEA3E0FF7C009B
:103573007D321217D1ED4C700C900603E004F090ED
:063583000404E004F02244
:103CCE004389017E007C077DD01217BFC374FF9F0E
:103CDE00900605F074FF9E900604F0E0FCA3E0FD54
:093CEE00ECF58CEDF58AC28D2283
:10362500022599E493A3F8E493A34003F68001F2FD
:1036350008DFF48029E493A3F85407240CC8C333A6
:10364500C4540F4420C8834004F456800146F6DF75
:10365500E4800B0102040810204080900026E47EDF
:10366500019360BCA3FF543F30E509541FFEE4936A
:10367500A360010ECF54C025E060A840B8E493A331
:10368500FAE493A3F8E493A3C8C582C8CAC583CA5C
:10369500F0A3C8C582C8CAC583CADFE9DEE780BE14
:010079000086
:10177900BB010689828A83E0225002E722BBFE026E
:09178900E32289828A83E49322A1
:10179200BB010CE58229F582E5833AF583E022500C
:1017A20006E92582F8E622BBFE06E92582F8E22256
:0D17B200E58229F582E5833AF583E4932270
:1017BF00EF8DF0A4A8F0CF8CF0A428CE8DF0A42E3E
:0217CF00FE22F8
:1017D100BC000BBE0029EF8DF084FFADF022E4CCFC
:1017E100F875F008EF2FFFEE33FEEC33FCEE9DECC5
:1017F100984005FCEE9DFE0FD5F0E9E4CEFD22ED0B
:10180100F8F5F0EE8420D21CFEADF075F008EF2F54
:10181100FFED33FD4007985006D5F0F222C398FD45
:051821000FD5F0EA22E2
:10182600C5F0F8A3E028F0C5F0F8E582158270024D
:061836001583E038F022EA
:10183C0075F008758200EF2FFFEE33FECD33CDCC63
:10184C0033CCC58233C5829BED9AEC99E5829840E6
:10185C000CF582EE9BFEED9AFDEC99FC0FD5F0D6C3
:10186C00E4CEFBE4CDFAE4CCF9A88222B800C1B9ED
:10187C000059BA002DEC8BF084CFCECDFCE5F0CB2B
:10188C00F97818EF2FFFEE33FEED33FDEC33FCEB64
:10189C0033FB10D703994004EB99FB0FD8E5E4F91F
:1018AC00FA227818EF2FFFEE33FEED33FDEC33FC0C
:1018BC00C933C910D7059BE99A4007EC9BFCE99A00
:1018CC00F90FD8E0E4C9FAE4CCFB2275F010EF2F45
:1018DC00FFEE33FEED33FDCC33CCC833C810D70745
:1018EC009BEC9AE899400AED9BFDEC9AFCE899F880
:0E18FC000FD5F0DAE4CDFBE4CCFAE4C8F92213
:10190A00EB9FF5F0EA9E42F0E99D42F0EC6480C854
:06191A0064809845F022F4
:10192000E8600FECC313FCED13FDEE13FEEF13FFA5
:03193000D8F122C9
:0C193300ECF0A3EDF0A3EEF0A3EFF02227
:10193F00A8828583F0D083D08212195612195612BD
:10194F001956121956E473E493A3C583C5F0C583E2
:10195F00C8C582C8F0A3C583C5F0C583C8C582C8F2
:01196F002255
:10227700E50830030104F823282496F582E43405A1
:10228700F58322900593300303900596E475F001DA
:10229700121AE702177960EAC50C7002150B14C50C
:1022A7000C200304FF023DC490059374FFF5F00270
:1022B7001AFEFF023D8EE5096006D509037F00225D
:1022C70020030F123D7AEF6008050CE50C7002053C
:1022D7000B22900593121ADE121779FF60E890051A
:1022E70093E475F001121AE780DC1222C7EFC0E011
:1022F7001222B9D0E040F3809DD2038002C203903E
:102307000593121B15E4F50AF508F50BF50C75098D
:1023170000C202C200C201C20412228AFF7005AFC6
:102327000A7E0022B4253012228AFF24D0B40A0084
:10233700500C75F00AC509A42509F50980E924CFD1
:10234700B41A00EF5002C2E5022565D20180D8D247
:102357000080D4D20480D0EF1222B950081222F1A3
:10236700EF600E80A9EFC0E01222C7D0E06F609E39
:10237700EF607412229D80A71222C7EF6069E509FA
:102387007007050980031222C7EF601420040E129C
:102397002277E475F001121AE7EF121A85D509E6DC
:1023A7002004040508050A80BA1222BDEFC0E01216
:1023B70022B9D0E0500412229DE4FF20040E12221D
:1023C70077E475F001121AE7EF121A85EF70DA2039
:1023D70004040508050A808BE50960020509122235
:1023E700F11222BDEF70C6300304E412229DE50A04
:1023F70060030223267EFF7FFF2220041174FFFC67
:10240700FDFEFF122277121ADE121AC405080223F4
:1024170015D0E080D27900800A791080067908808B
:1024270002790AD205E50960020509E9C0E012222E
:10243700F1EF60DD1222C7BF2D04D2028003BF2B4C
:10244700091222F1EF60CA1222BDD0E0B40A02805D
:1024570033B40802802EBF302770027408C205C04B
:10246700E01222BDD0E0BF78028003BF58160509ED
:10247700D509028007D50904D205800B741080198D
:102487007002740ABF000AEFF8E4FCFDFEFF0225A4
:1024970018C0E0EF12229DD0E0F9E4FCFDFEFFE951
:1024A700C0E0ECC0E0EDC0E0EEC0E0EFC0E012221B
:1024B700BDEFF8D0E0FFD0E0FED0E0FDD0E0FCD0EB
:1024C700F0E8604DB461004007B47B005002C2E5FC
:1024D70024D0503DFA24F6500724F95034240AFA40
:1024E700EAB5F000502BCFA9F0A42FFF92D5E9C58C
:1024F700F0CEA4A2D53EFE92D5E9C5F0CDA4A2D5D3
:102507003DFD92D5E9C5F0CCA4A2D53CFCC205801F
:062517008EE8C0E0200484
:10251D002A200508050A300203121AB61222771274
:10252D001ADE050820000B20010DEE8FF0121A9710
:10253D008009121AC48004EF121A85D0E012229D70
:10254D00022315200410122277121ADE0508E50B5E
:10255D00850CF0121A9780E8121B1E23DF532420DE
:10256D005823564C235242232E4824244F242844CA
:10257D00237F43241C492428552401462401452446
:0C258D000147235A2A25504E0000235E0F
:10197000E709F60870FA8046E709F20870FA803E37
:1019800088828C83E709F0A370FA807EE309F60869
:1019900070FA8076E309F20870FA806E88828C8390
:1019A000E309F0A370FA806289828A83E0A3F608D3
:1019B00070FA805689828A83E0A3F20870FA804A1E
:1019C00080D280FA80C680D4806580F28031801019
:1019D00080A680EA809A80A880DA80E280CA80317E
:1019E00089828A83ECFAE493A3C8C582C8CCC583F4
:1019F000CCF0A3C8C582C8CCC583CC70E9800D8962
:101A0000828A83E493A3F60870F9ECFAA9F0EDFB5F
:101A10002289828A83ECFAE0A3C8C582C8CCC58338
:101A2000CCF0A3C8C582C8CCC583CC70EA80DD8960
:101A3000828A83E493A3F20870F980CE88F0ED24C3
:101A400002B4040050C4F582EB2402B4040050BA7E
:091A500023234582239019C07381
:10000E00E4FFFE121779600C0FEF70010E09E97014
:05001E00F20A80EF2250
:10342400900593EBF0A3EAF0A3E9F0A3E0FBA3E09B
:10343400FAA3E0F912177970030234D0900593E0EF
:10344400FBA3E0FAA3E0F912177970030234DC90CD
:103454000596E0F9A3E0FAA3E0A3C9F0A3EAF0A378
:10346400E9F0900593A3E0FAA3E0F990059CEBF052
:10347400A3EAF0A3E9F0900599E0FBA3E0FAA3E046
:10348400F9121779FF602690059CE0FBA3E0FAA3EC
:10349400E0F91217796F701590059A75F0011218FA
:1034A4002690059DE475F00112182680C9900599AF
:1034B400E0FBA3E0FAA3E0F91217797002800D9003
:1034C4000594E475F001121826023440900593E047
:0F34D400FBA3E0FAA3E0F9227B007A0079002243
:101A5900EF4E6012EF60010EEDBB010B89828A83A4
:101A6900F0A3DFFCDEFA2289F05007F709DFFCA9B1
:0C1A7900F022BBFEFCF309DFFCA9F02208
:103B4B009005C1E0FFA3E0FEA3E0CF9005CAF0A370
:103B5B00EEF0A3EFF09005C4E0CBF0A3E0CAF0A326
:103B6B00E0C9F07F229005CDAD82AC831217798D21
:103B7B00828C83F0A309E970010ADFEC9005C4E0A5
:0A3B8B00FBA3E0FAA3E0F9021F77A4
:101A8500BB010689828A83F0225002F722BBFE0140
:021A9500F3223A
:101A9700BB010A89828A83F0E5F0A3F0225006F79A
:0F1AA70009A7F01922BBFE06F3E5F009F3192297
:0E1AB600C3E49FFFE49EFEE49DFDE49CFC2241
:101AC400BB010789828A830219335005E9F8021B96
:0A1AD40044BBFE05E9F8021B502296
:091ADE00E0FBA3E0FAA3E0F92209
:101AE700F8E0FBA3A3E0F925F0F0E5821582700288
:071AF7001583E0FA38F0222C
:101AFE00F8E0FBA3A3E025F0F9F0E5821582700271
:071B0E001583E038FAF02214
:091B1500EBF0A3EAF0A3E9F022D1
:101B1E00D083D082F8E4937012740193700DA3A356
:101B2E0093F8740193F5828883E47374029368606A
:061B3E00EFA3A3A380DF6A
:101F1200E50824CAF582E43405F583E00508229039
:101F220005C73007039005CAE475F001121AE702EB
:101F320017792000E97F2ED2008018EF540F2490E9
:101F4200D43440D4FF30040BEF24BFB41A00500342
:101F52002461FFE50960021509050CE50C70020514
:101F62000B30070E9005C7E475F001121AE7EF0275
:101F72001A85023CF77403D2078003E4C207F5080E
:101F82009005C7121B15E4F509F50BF50CE5096080
:101F9200077F20121F5580F5750AFFC201C200C2D9
:101FA20002C203C205C206C208121F21FF700D3011
:101FB20007057F00121F66AF0CAE0B22B4255FC26D
:101FC200D5C204121F21FF24D0B40A00501A75F0A2
:101FD2000A780930D50508B6FF0106C6A426F62000
:101FE200D5047002D20380D924CFB41A00EF500472
:101FF200C2E5D204022167D20180C6D20080C0D2DB
:102002000280BCD2D580BAD20580B47F20121F557F
:102012002002077401B5090040F1121F12FF121FBE
:1020220055021F8FD208D2068095121F12FB121F73
:1020320012FA121F12F94A4B700679387A227BFF84
:1020420020022EE509602A7E008E82758300121717
:102052009260060EEE650A70F0C2D5EBC0E0EAC0EF
:10206200E0E9C0E0EE1221AED0E0F9D0E0FAD0E033
:10207200FB121779FF60AAEBC0E0EAC0E0E9C0E01A
:10208200121F55D0E02401F9D0E03400FAD0E0FB71
:10209200E50A0460DCD50AD980877BFF7A2179AA18
:1020A200D202809C791080027908C206C208800898
:1020B200D2D5790A8004790AC2D5E50A047002F5FC
:1020C2000AE4FAFDFEFF121F12FC7B082001131224
:1020D2001F12FD7B1030000A121F12FE121F12FF88
:1020E2007B20EC3382D592D55013C3E43000069F97
:1020F200FFE49EFEE42001039DFDE49CFCE4CBF89A
:10210200C201EC700CCFCECDCCE824F8F870F3808D
:1021120017C3EF33FFEE33FEED33FDEC33FCEB334D
:10212200FB994002FB0FD8E9EB300105F8D0E0C47F
:1021320048B201C0E00AEC4D4E4F78207B0070C2DD
:10214200EAB50A0040BCC0E01221B0D0F0D0E020D5
:102152000104C4C0E0C4B201C0F0121F3ED0F0D5E9
:10216200F0EB021F8F121B1E202C5320A6581FFDBE
:102172004C1FF94220AA4F20B24420B249201243F8
:0821820020B855209C46209C6A
:10218A0045209C4722585020012D20052E20282B1F
:10219A0020092320262022412A1FC148000020208E
:1021AA003F3F3F00790AA2D5200314300509B91030
:1021BA00020404B9080104A2D52006025001042031
:1021CA0002689202B509005034C0E07F203003193A
:1021DA007F30A20272067205500F122207C202C293
:1021EA0006C205C2087F30800F300503E9C0E0123D
:1021FA001F55300503D0E0F9D0E0B509CC300517FA
:10220A007F30B9100C121F557F583004077F788031
:10221A0003B90803121F553002057F2D021F557F8F
:10222A00202008F87F2B2006F322920280CF286E06
:10223A00756C6C2900D201121F123001F8C20178A4
:10224A000930D50108F6021FC12D50434958121F03
:10225A00122403B405004001E490225393121F464E
:0D226A00743A121F46D2037509040220A623
:103D7A00100F0B123DBABF0D027F0A023CF79006E4
:043D8A000FE0FF2225
:083DC40090060FEFF0D20F2270
:103D8E00EFC394094005EF940E4004EFB42003D323
:043D9E008001C322BB
:0C1B4400ECF608EDF608EEF608EFF622CD
:0C1B5000ECF208EDF208EEF208EFF222D1
:103CF700EFB40A07740D123D02740A309811A8999F
:103D0700B8130CC2983098FDA899C298B811F6302C
:073D170099FDC299F5992204
:0A3DBA003098FDAF99C2987E0022F8
:00000001FF
