:0300000002326762
:0C326700787FE4F6D8FD7581210232AEBC
:1000260074686973206973207561727420746573CE
:10003600740D0A003C2D2D2D2D2D2D44454255477E
:10004600204D5347203D3E20746869732069732014
:1000560075617274312074657374203D2D2D2D2DBC
:100066002D2D2D2D2D0D0A004155445F52454C4135
:10007600580D0A004155445F53544F500D0A004134
:1000860055445F53544152540D0A000800000000C5
:10009600000000000000000000000000000000005A
:1000A60000006040000000000201010000000000A6
:1000B60000000000000140000000000101010101F4
:1000C60001071F7E6FFFDBDFDFDFDFFFEFFEEFEFF6
:1000D600CFD7FFE7F7DFD4D0C44C1656B62E8E27FF
:1000E6002F3F3F7F7FFFFFFFFFFFFFFFFCFCFDFC75
:1000F600FDFFFFFEFFEFE703010101010000000025
:1001060000000102082040E000000000000000009E
:100116008180800000000000000000000000000058
:1001260000000000000001000000000080000080C8
:10013600C080E0A0E0E0E0ECEC6EEDEFFCC69E2EA9
:100146003EFEFFFFFFFF3F0F0F0F070703030303EB
:10015600030101030101010000000000000000008E
:100166000000040004102123470FFFFFFFFFFFFFDD
:10017600FFFFFFFFF003BF38C000000000000000D3
:1001860000000000000000170000003C3E1E0E07A5
:10019600070600000000000000000000000000004C
:1001A600000000408040F070B8E8F87C3E1F5FCF4A
:1001B600CF8F87D703212100000080808181838330
:1001C600FFFFFF1F1F1F3C3C7E747C5E1C1C1C181F
:1001D6001800000000000000181C1C02121210007B
:1001E600000000000000000000000B0F0FFFFFFFE3
:1001F600FFFFFFFFFFFFFFFFF9FAFCFCC8800000CE
:1002060080808088000000000000000000000000E0
:1002160000000000000000000000000080C0B0F8F0
:10022600FE5BDFF3FC6F8DFABE3F010000000000AD
:1002360000404800080090909000010306060D8FCC
:10024600DFFCFBFCF8F0E0E0C0C0C0E0F0FCF87CAE
:100256007E7E5C505870606064204040C0808000A4
:100266000000000000000000000000003F3F7F3F4C
:10027600FFFFFFFFFFFFFF7F7FC71F7BE3CE0F0F51
:100286009F07070305000000000000000000800033
:100296000000000000E0F0F8FCF2FFFFFFFF8F1BFC
:1002A600FFFFFFFFFFFFFFFFFFFFFFFEFCF8F8F079
:1002B600F0E0E0E0F0F0F0F9F9F9FCFCFEFFFFFFFA
:1002C6003F1F1F1F3F3F7FFFFFFFFFFFFDF9F8F0B6
:1002D600E1E1E3E1E1E0E0E0E0E0E0F0F0D8E6FCD7
:1002E600FC7870683010381C5C1C78F8F8FEFEFE4E
:1002F600FFFFFFFFFFFFFFF7FF7FF88003071BE706
:10030600FFF821200101196A000000C48080C0C0E6
:10031600E0B47AFEFEEFBFFFFFFFEFF7F9FFFFFF46
:10032600FF0F0F0F0F1F0F0F1F1F3F1F1F1F1F1F37
:100336000F0F1F1F1F1F1F1F1F1F3F3F3F3F3F3E28
:10034600B87C3C7CF0F8FCFCFFFFFFFFFFFFBFBF63
:100356003F7FFF7F7F3F3F3F3FFFBF27E7E3E93711
:100366009D9810B020202021212123232707071F35
:100376001F1F1F9F1F9F7F7FFFBFBF3F3F3C381838
:100386007F7E7C7CF878F0F0000000FFFFFFAF373F
:1003960019181F0F0F0C07070703030101010100BE
:1003A6000000000000000000000000008080808047
:1003B60088808048C8000020800000A8640494E07B
:1003C600F1F9FDFBF7FBF7DF7F3F7F0F495121CEA8
:1003D6007E388810C4C0BA727F77F7FFE7EFCCDFAC
:1003E600DE1F0B00101008000000101878785878EF
:1003F600FCFEF0F0E7E7CFBFBF3E7C0870206060F0
:1004060040C08080808000000000000707070700CA
:1004160000000000000000000000000000000004D2
:100426000404040004040404060606070707070775
:100436000704060600040507040606040607070562
:10044600070407070707070704060007050602054E
:100456000100000407070707070606060505050746
:100466000301050000060004040000020000000469
:10047600050707030707070707070706040404001D
:1004860002000001030707040000000000F8FC0C4E
:100496000CCCCCCCCCCC0C0CFCFC0000908080901E
:1004A600100000FCFC306060B0B0B0100000CCC0A2
:1004B60000CCCCCCCCE0C0CCCCCC0000FCFC0C0CF2
:1004C600CCCCCCCCCC0C0CFC00000000003F7F60F8
:1004D60060676767676760607F3F0000799F9FE19D
:1004E600E11E1E79310030781F1F676780C0E1C0AA
:1004F60000E7E79E9E797980E1E100003F7F60603A
:10050600676767676760707F000000000002027E11
:10051600FE0E0EFE1E0EF0F03233CECECE87031D3B
:100526003C3C3C3020C0983CFEFEFC7C03030C0C9B
:100536000CFCFD0F0FF0F0CCC1C1C3C2CCCCCE3049
:100546003032320C0C0E0EF040000000001C1E7EF5
:100556007C18189E61610101999B676799191919A1
:100566001918189E8E010199F9F9E6E418387E7C6F
:10057600781F1FE7E79E9C60676760606060601C8D
:100586001EE0E00606E1E16000000000000E0F0E2E
:100596000E3020C32030F8FCCDCCCCCC0F1C3C3226
:1005A60032000001080C88C1E0F1F3E3CCCCCCDCCE
:1005B6003E373333373F3F30303030303236CE0C73
:1005C6000CF0F00207FFFF3000000000007F7F0004
:1005D600006C6E6F0E0C6F6F6C6C6C6CEC9C9C9C64
:1005E6009C000060646C33137C7CFCFC0C0EEFC337
:1005F600989C9C9B930F0F10F1F37373737363E4D2
:10060600EC8F8FF3F363630C0400000000FEFE061C
:1006160006E6E6E6E6E60606FEFE0000F7F7F7C79C
:10062600C7C6C60606060C083838C98808183959D8
:10063600C93131F9F9C6C6C63F3F3030363230FFD0
:10064600FFF1F1F9F9C6C63800000000001F1F10BF
:1006560010131313131310101F1F00001F0303049E
:100666000C03030300100E0F1F1F0C0C1C1C0C0E9A
:100676000F0C0C000113130C1F1F13131010100F77
:100686000F131311101C1C0C000000E0E0E0E0E06A
:10069600E0E0E0C080000000C0E0E0E0E0E0C0C0D4
:1006A600000000E0E0E0E00000C0E0E0E0C000C0E4
:1006B600E0E0F0FCFFE0E0C000C0E0E0E0C0C0E049
:1006C600E0E0C080C0E0E0E0C00000FFFFFFFF0FF9
:1006D6000F0FFFFFFFFC000087CFC7C7C7FFFFFF55
:1006E600FF0000FFFFFFFF0000FFFFFFFFFF000FFF
:1006F6000FFFFFFFFF2F0F0700FFFFFFFF0F0F0F7B
:10070600FFFFFFFF0F0FFFFFFFFF00FFFFFFFFFED3
:10071600FEFEFF7F3F0700FFFFFFFF0F0FFFFFFFFC
:10072600FF00000F3F7F7F7E7EFFFFFFFFFF000081
:1007360000FFFFFFFF85000000FFFFFFFF00000036
:10074600FFFFFFFF0000FFFFFFFF00FFFFFFFF00AF
:10075600000000000000003F7F7FFFFCFCFFFFFF62
:100766007F000000FEFEFEFEFEFFFF7F3F0300004F
:10077600007FFFFFFF520000007FFFFFFF00000029
:10078600FFFFFFFF00007FFFFFFF000000000000EB
:100796000000000000000000000000000000000053
:1007A6000000000000000000000000000000000043
:1007B6000000000000C0C010080808040406060671
:1007C60004040405050505050505050505040000E1
:1007D600000808F2020204F8F80000000000000019
:1007E6000000000000000000000000000000000003
:1007F600000000000000000000000000007C828273
:1008060000010101700707080808001010D0101039
:1008160010101010101010F00000601010000404EA
:1008260000020203020202F8F800000000000000C5
:100836000000000000000000000000808040200052
:1008460000909090402020282020001010101111B8
:1008560012F40707000000000000803C3C81808005
:100866004040404000000E004040404646481010C0
:10087600A0C0C0E010100803030000000000000044
:100886000000000000000000F0F0060000C0382361
:1008960023311010505050108080808080202020FE
:1008A6003E20000040C0C010040403010100C0C087
:1008B600100C0C04020201010101000000000000FE
:1008C600000000E107070000000000000000000033
:1008D60000C0202008848462111108040483411199
:1008E600110AC6C62610100C0C0C84484828292963
:1008F60011111212020F0F0000000000001F00006D
:1009060000000000000000000000000000008080E1
:100916003007070000000000000000000000E00EA5
:100926000E00C0C00C010100808030060600E00405
:1009360004010000C030300401018030300C020296
:10094600023C0000FE000000000000FFFF00000067
:1009560000000000000000000000000000C6191999
:1009660000101020000000000000000000007F8042
:1009760080007F7F808080807F7F000000FE0000F7
:100986000000F8F8010000003C3C010000000000F7
:10099600FC0000007F8080402020203F3F000000B8
:1009A60010101010080888804444422121001010BD
:1009B600080404020000000000000000000000001F
:1009C60000010101020202040404080808131404C9
:1009D6000420272740404040484848242424020257
:1009E60013000808060303040404040404000202B6
:1009F60002000001010100000000000000000000EC
:100A060000000000000000000000000000F8F804EC
:100A16000202F208080000000405050505050505A3
:100A2600050505040404060606040408080810C0A3
:100A3600C0000000000000000000000000000000F0
:100A460000000000000000000000000000000000A0
:100A560000000000000000000000000000F8F8029E
:100A66000202030202000404001010600000F010ED
:100A76001010101010101010D010100008080807E1
:100A860007700101010082827C0000000000000066
:100A96000000000000000000000000000000000050
:100AA6000000000000000000000000000003030832
:100AB6001010E0C0C0A01010484646404040000E4E
:100AC6000000404040408080813C3C8000000000A7
:100AD60000000707F4121111101010002020282022
:100AE6002040909090000020408080000000000090
:100AF60000000000000000000000000000000000F0
:100B06000707E100000000000000000001010101EC
:100B16000202040C0C10C0C000010103040410C042
:100B2600C0400000203E2020208080808080105021
:100B36005050101031232338C0000006F0F000009A
:100B4600000000000000000000000000000000009F
:100B56000000000707308080000000000000000051
:100B660000000000000000001F0000000000000F51
:100B76000F02121211112929284848840C0C0C1056
:100B86001026C6C60A111141830404081111628495
:100B960084082020C00000000000000000000000C3
:100BA6000000201010001919C60000000000000007
:100BB600000000000000000000FFFF000000000031
:100BC60000FE00003C0202020C30308001010430BD
:100BD60030C00000010404E00006063080800001F9
:100BE600010CC0C0000E0EE0000000000000000076
:100BF60000000204040810100021214244448088A9
:100C06000808101010100000003F3F2020204080F0
:100C1600807F000000FC0000000000013C3C00005A
:100C26000001F8F800000000FE0000007F7F8080D1
:100C360080807F7F0080807F000000000000000031
:100C4600000000000000000000000000000000009E
:100C5600010101000002020200040404040404036A
:100C6600030608080013020224242448484840408A
:100C7600404027272004041413080808040404022B
:100C860002020101010000000000000E1F1FFFFF0D
:100C96001F1F1F1F1F1F1F1F1F1F1F1F1F1F1F1F5E
:100CA6001F1F1F1F1F1F1F1F1FFFFF1F1F0E0000DD
:100CB6000000FFF000E0E0E0E0E0E0E0E0E0E0E09F
:100CC600E0E0E0E0E0E0E0E0E0E000E0FF0300007C
:100CD600000000000000030F3C73EFDFBF7FFFFF43
:100CE600FFFFFFFFFFFFFF7FBFDFEF733C0F070034
:100CF60000000000000000000000000000000103EA
:100D0600071CF9E71FFF1FE7F91C0E03010000008F
:100D160000000000000000000000000000000000CD
:100D26000080C0E0701F0F6005100F1F70E0C080CC
:100D3600000000000000000000000000000000C0ED
:100D4600F0381E07030100000000080063000000E1
:100D5600000103070E38F0C000000000000000008C
:100D660000FF0F00000080C0E0F0F0F8FDFEFEFE80
:100D7600FCFAF0F0E0C0800000000FFFC0000000A9
:100D860070F8F8FFFFF8F8FAFBFBFBFBFBFBFBFB3D
:100D9600FBFBFBFBFBFBFBFBFBFBFBFAF8F8FFFF9C
:100DA600F8F870FEFFFFFFFE1898181010101030AC
:100DB6003030306060C0C0800000000000000000DD
:100DC600000000000000000000000000008080C05D
:100DD600C06060B0B0B03010101010181818FEFFC8
:100DE600FFFFFEFFFFFFFFFF00FFFFFEFCF8F0C066
:100DF600800080000000010103070E1C383060C02F
:100E0600C0C0C0C0C0C06060B098DCEEF7FBFDFE9D
:100E1600FEFFFFFFFFFF0000000000000000FFFFD5
:100E2600FFFFFFFFFFFFFFFF00FFFFFFFFFF7F1F2B
:100E36000F17000004040001000484C0E1613418A7
:100E46001A181A1A1A1A37776FCF9FBF7FFFFFFF3C
:100E5600FFFFFFFFFFFF0000000000000000FFFF94
:100E6600FFFFFFFFFFFFFFFFC0CFC7C3C1404060CA
:100E7600606060303018180C06070301000000009F
:100E8600000000000000000000000103070E0D1B1B
:100E96003B37376F6F6F404040C0C0C0C0C0FFFFD8
:100EA600FFFFFF0307070703000000000000000024
:100EB600000000203078303028203000000000008C
:100EC60000000000E0E06060E0E00000E0E060605C
:100ED600600000E0E0E000E0E0E0000000C0E0E0EC
:100EE600C0000000E0E00000E0E0C000E0E000003C
:100EF600E0E00000E0E0C000E0E00000C0E060608C
:100F06006040000000006060E0E0E0606000E0E05B
:100F16000000E0E0E000E0E0E00000E0E0606060AB
:100F260000000000000000000000000000000000BB
:100F360000000000000000000000000000000000AB
:100F4600000000000F0F03070F0D08000F0F0D0D17
:100F56000D0C000F01070F07010F00080F0706060B
:100F6600070F08000F0F00000F0F01070F0F0000FB
:100F76000F0F00000F0F01070F0F0001070F0C0DD9
:100F86000D070000000000000F0F0F0000000F0FFC
:100F960000000F01070F07010F00000F0F0D0D0DC9
:100FA6000C000000000C0C00000000000C0C0000FF
:100FB6000000000C0C000000000000000000000013
:100FC600000000000000000000000000000000001B
:100FD600000000000000000000000000000000000B
:100FE60000000000000000808080808080808000FB
:100FF6000000000000000000000000000080F0FC7F
:10100600FEFEFFFFFF3F1F0F0F0F1F3FFFFFFFFEFD
:10101600FCF8F08000000000000000FFFFFFFFFF6B
:10102600FFFF8F000000000000008FFFFFFFFFFFA3
:10103600FFFF000000000000000F7FFFFFFFFFFF23
:10104600FFE0C0808080C0E0FFFFFFFFFFFF7F0F53
:1010560000000000000000000000010307070F0F5A
:101066000F0F0F0F0F0F0F070703030100000000FC
:10107600000000000000000000000000000000006A
:10108600000000000000000000000000000000005A
:10109600000000000000000000000000000080804A
:1010A60080808080800000000000000000000000BA
:1010B60000000080C0C0E0E0F0F8FCFEFFFFFFFF8C
:1010C600FFFFFF000000000000000000000000001D
:1010D600001F0F0F0F07070303FFFFFFFFFFFFFFB1
:1010E600FF000000000000000000000000000000FB
:1010F60000000000000000FFFFFFFFFFFFFFFF00F2
:1011060000000000000000000000000000000000D9
:1011160000000000000F0F0F0F0F0F0F0F00000051
:1011260000000000000000000000000000000000B9
:1011360000000000000000000000000000000000A9
:101146000000000000000000000000008080808099
:101156008080808080000000000000000000000009
:10116600000000E0F8FCFEFFFFFFFF3F1F0F0F0F20
:101176000F1FFFFFFFFFFEFCF8E00000000000006D
:1011860000000000010101010180C0E0E0F0F8FE6E
:10119600FFFFFFFF7F3F0F0300000000000000007D
:1011A600C0F0F8FCFEFEFFFFFFFFDFCFC7C7C3C1DD
:1011B600C0C0C0C0C0C00000000000000C0F0F0F70
:1011C6000F0F0F0F0F0F0F0F0F0F0F0F0F0F0F0F29
:1011D6000F0F0F0F000000000000000000000000CD
:1011E60000000000000000000000000000000000F9
:1011F60000000000000000000000000000000000E9
:101206000000808080808080808080000000000058
:1012160000000000000000000060787C7E7FFFFF79
:101226007F1F0F0F0F0F1FFFFFFFFFFEFEFCF000DB
:1012360000000000000000000000000000000000A8
:101246007C7C7C7E7FFFFFFFFFFFE7E3C080000022
:10125600000000000030F0F0F0F8F8F8F0C08080F0
:10126600808080C0FBFFFFFFFFFFFF3F0000000004
:10127600000000000001030707070F0F0F0F0F0FF5
:101286000F0F0F0707070301000000000000000012
:101296000000000000000000000000000000000048
:1012A6000000000000000000000000000000000038
:1012B6000000000000000000000080808080808028
:1012C6008000000000000000000000000000000098
:1012D6000080C0E0F0F8FEFFFFFFFFFFFFFFFF000A
:1012E600000000000000000000C0E0F0F8FCFE7FF7
:1012F6003F1F0F07030100FFFFFFFFFFFF00000076
:101306000000000000007F7F7F7F7F7F7F7E7E7EE4
:101316007E7E7E7E7EFFFFFFFFFFFF7E7E7E7E005F
:1013260000000000000000000000000000000000B7
:101336000000000F0F0F0F0F0F000000000000004D
:101346000000000000000000000000000000000097
:101356000000000000000000000000000000000087
:101366000000000080808080808080808080808077
:1013760080808080808080000000000000000000E7
:1013860000FCFFFFFFFFFFFF1F1F1F1F1F1F1F1F69
:101396001F1F1F1F1F0000000000000000003F3F2E
:1013A6003F7F7F7F7F3E1E1E1F1F1F3FFFFFFEFEEC
:1013B600FCF8F0E00000000000000070F0F0F8F823
:1013C600F8F8F0C0C080808080C0F9FFFFFFFFFF03
:1013D6007F1F000000000000000000010307070750
:1013E6000F0F0F0F0F0F0F0F0F070703030100005B
:1013F60000000000000000000000000000000000E7
:1014060000000000000000000000000000000000D6
:1014160000000000000000000000000000008080C6
:1014260080808080808000000000000000000000B6
:101436000000000000E0F8FCFEFEFFFF7F1F0F0F1C
:101446000F0F1F7F7F7F7F3E3C382000000000008B
:101456000000FFFFFFFFFFFFFFFFF8783C3E3E3E28
:101466007EFEFEFCFCF8F8F0C00000000000000064
:101476000F3FFFFFFFFFFFFFE0C080808080C0E0DE
:10148600FFFFFFFFFFFF7F000000000000000000DD
:101496000001030707070F0F0F0F0F0F0F0F0707A7
:1014A600070301000000000000000000000000002B
:1014B6000000000000000000000000000000000026
:1014C6000000000000000000000000808080808096
:1014D6008080808080808080808080808080808006
:1014E6008080000000000000001F1F1F1F1F1F1F1D
:1014F6001F1F1F1F1F9FDFFFFFFFFFFFFF7F1F0F26
:10150600000000000000000000000000000000C015
:10151600F0FCFEFFFFFF7F1F070100000000000038
:101526000000000000000000000080F8FFFFFFFF41
:10153600FFFF1F0100000000000000000000000087
:1015460000000000000000000F0F0F0F0F0F0F0F1D
:101556000000000000000000000000000000000085
:101566000000000000000000000000000000000075
:101576000000000000000000000000000000000065
:1015860000000000008080808080808080800000D5
:1015960000000000000000000000000000F8FCFE53
:1015A600FFFFFFFF1F0F0F0F0F1F3FFFFFFFFFFE86
:1015B600FCF8000000000000000000C3C7EFFFFFBA
:1015C600FFFFFE7C7C7C7CFCFEFFFFFFFFEFC783FA
:1015D60000000000000000007FFFFFFFFFFFFFFF8D
:1015E600C0C0808080C0C0FFFFFFFFFFFFFF7F00FD
:1015F600000000000000000103030707070F0F0F9C
:101606000F0F0F0F0F0F070707030300000000005F
:1016160000000000000000000000000000000000C4
:1016260000000000000000000000000000000000B4
:101636000000000000000000008080808080808024
:101646008000000000000000000000000000000014
:10165600F0F8FCFEFFFFFF3F1F0F0F0F0F1F3FFFAE
:10166600FFFFFEFCF8E080000000000000001F7F86
:10167600FFFFFFFFFFF8F0E0E0E0E0F0F8FFFFFF1C
:10168600FFFFFFFFFF0000000000000020E0E0E099
:10169600F1F1F3F3C383838381C1F0FFFFFFFFFF03
:1016A600FF3F0700000000000000000001030707DD
:1016B600070F0F0F0F0F0F0F0F0707030301000090
:1016C6000000000000000000000000000000000014
:1016D60000000000000080808080800000007F7F86
:1016E6007F7F7F000000F0F0F0F0F00000000F0FA9
:0316F6000F0F0FC4
:1025DC00E4900575F0A3F0A3F0A3F075910175914B
:1025EC000153B1FE43B20175910153B1FD43B202E7
:1025FC0075910153B1FB43B20475910153B1F7438B
:10260C00B20875910153B5FE43B60175910153B5EE
:10261C00FD43B60275910153B5FB43B604759101A8
:10262C0053B5F743B60875910153B5DF43B6207522
:10263C00910153B5EF43B61075910153C2FB43C3DF
:10264C000475910153BDEF43BE1075910153BDDF6D
:10265C0043BE2075910153C2F743C308C2B37591B1
:10266C000253F1F043F10375910253F10F43F13032
:10267C0075910153B3BF53B4BF75910153B37F53DD
:10268C00B47F75910253EFF043EF0275910253EF53
:10269C000F43EF2075910153BDFE53BEFE759101A2
:1026AC0053BDFD53BEFD75910253EBF043EB087522
:1026BC00910253EB0F43EB8075910153B9FE53BA62
:1026CC00FE75910153B9FD53BAFD1231D7900580B7
:1026DC007401F0A31218A90001C2007F007E367DA0
:1026EC006E7C011223A17D017F061232F3D2AF90D2
:1026FC0005807403F0A31218A90001C2007F007EAC
:10270C00367D6E7C011223A19005807404F0A31217
:10271C0018A90001C2007F007E367D6E7C01122359
:10272C00A112375B1234A27F141237EAC28DD28CFD
:02273C00D2A920
:10273E009005797401F0A3742CF01237C17BFF7AE7
:10274E000079267F061236CC7BFF7A00793A123357
:01275E00E397
:10275F00E490057BF0122163300A13C20A7BFF7AE3
:10276F0000796E7F061236CC1234A212383A300B33
:10277F000DC20B7BFF7A00797A7F061236CC90055B
:10278F00EAE0B41415300C127BFF7A0079857F06CE
:10279F001236CC7FE87E0312387C9005EAE0701683
:1027AF00300C13900402E0FEA3E0FFD39400EE94EC
:1027BF00004003122C62E4F59190057BE5B1F0E047
:1027CF0020E68DD3900403E09402900402E094007D
:1027DF00500302275FE4F5917F2C7E0112387CE4D1
:1027EF00F59190057BE5B1F0E020E609900402E455
:0C27FF00F0A37402F07FE87E0312387C27
:03280B0002275F42
:10387C00E4FDFCC3ED9FEC9E5015E4FBFA0BBB0082
:0F388C00010ABA08F8BB4CF50DBD00010C80E431
:01389B00220A
:1038BB00EF540FF5A0EFC4540FF580C2A5D2A47F2F
:0B38CB00017E0012387CC2A402387C91
:102F5F00EF540FF5A0EFC4540FF580D2A5D2A40003
:102F6F000000000000000000000000000000000052
:102F7F000000000000000000000000000000000042
:102F8F000000000000000000000000000000000032
:102F9F000000000000000000000000000000000022
:102FAF000000000000000000000000000000000012
:102FBF000000000000000000000000000000000002
:102FCF000000000000000000C2A40000000000008C
:102FDF0000000000000000000000000000000000E2
:102FEF0000000000000000000000000000000000D2
:102FFF0000000000000000000000000000000000C2
:10300F0000000000000000000000000000000000B1
:10301F0000000000000000000000000000000000A1
:10302F000000000000000000000000000000000091
:04303F00000000226B
:10375B00E4F591E5B154DF4420F5B1D2B2E4F59133
:10376B00E5B154EF4410F5B17FD07E0712387C7F62
:10377B003E1238BB7F401238BB7FB81238BB7FC0BC
:08378B001238BB7F3F0238BB7E
:1034A200E4F591E5B154DF4420F5B1D2B2E49005E0
:1034B200D9F0A3F09005D9E0FEA3E0FFC39408EE93
:1034C20064809480502AEF24B8FF1238BBE4FDFCDC
:1034D200E4FF122F5F0DBD00010CED64404C70F053
:1034E2009005DAE004F070CC9005D9E004F080C4D5
:0A34F2007F401238BB7FB80238BBE0
:10379300A905E4F591EB70047E0180027E00EEC47E
:1037A3003354E0FEE5B154DF4EF5B1EB24FF92B2A2
:0E37B300EF2440FF1238BBE924B8FF0238BBF8
:0B2E78009005D9EFF0A3EDF0A3EBF004
:102E83009005D9E0FF9005E1F0A3EDF0E4A3F0A3F2
:102E9300F09005E0E0FE131313541F9005E5F0E4F2
:102EA300A3F0A3F01237939005DAE09005E4F090D5
:102EB30005DAE0FF9005E5E02FFFE433FE9005E43B
:102EC300E0FDC39FEE6480F87480984003022F5E98
:102ED3009005D9E0FF9005DBE0FB1237939005D90D
:102EE300E09005E3F09005D9E0FF9005DFE02FFFC8
:102EF300E433FE9005E3E0C39FEE6480F8748098AA
:102F030050509005DCE0FBA3E0FAA3E0F99005E65E
:102F1300E0FEA3E0F5828E83121712FF122F5F905B
:102F230005E7E004F070069005E6E004F09005E3A1
:102F3300E0B43F16A3E0FD9005DBE004FBE4FF12E1
:102F43003793E4F59153B1DFD2B29005E3E004F097
:0B2F530080939005E4E004F0022EB231
:012F5E002250
:10389C001234A29005DC7401F0A37400F0A3740040
:0F38AC00F0A37440F0A3F0E4FBFD7F20022E7820
:1035E9002009499005EBE020E0201234A29005DC87
:1035F90074FFF0A3740CF0A37491F0A37423F0A3E7
:103609007440F0E4FBFD7F2D801F1234A29005DC8D
:1036190074FFF0A3740DF0A374A9F0A37440F0A390
:0D3629007423F0E4FB7D027F20122E782236
:10383A001234A29005DC74FFF0A3740AF0A3741189
:10384A00F0A37450F0A37440F0E4FBFD7F18022E3D
:01385A0078F5
:042C6200AB07AA060C
:102C6600E490057FF0FC7D3C121751A3EEF0A3EF34
:102C7600F0900580E0FEA3E0FF7C007D0A1217516C
:102C8600A3EFF0900580E0FEA3E0FF7C007D0A1232
:102C96001751900583EDF0AE02AF037C007D3C1228
:102CA6001751AB05AA047C007D0AAF03AE021217CA
:102CB60051A3EFF0AE02AF037C007D0A121751A3B9
:102CC600EDF090057FE0FFC43354E090057CF0A35F
:102CD6007402F0EFC313A3F0A3E014601E14605750
:102CE6001460682403707990057DE0FDA3E0FB90F5
:102CF6000582E0900589F0E4FF806290057DE0FDA5
:102D0600A3E0FB900583E0900589F07F1E122B2E31
:102D160090057DE0FD9005DC74FFF0A37416F0A32A
:102D260074C9F0A37408F0A37430F090057EE0FB3C
:102D36007F3C122E78802990057DE0FDA3E0FB9074
:102D46000584E0900589F07F04801290057DE0FD02
:102D5600A3E0FB900585E0900589F07F22122B2EDB
:0F2D660090057FE004F0E0C394045003022CC8F2
:012D7500223B
:102B2E00900586EFF0A3EDF0A3EBF0A3E0B40A005E
:102B3E004003022C61902B4AF8282873022B68025E
:102B4E002B80022B98022BB0022BC8022BDF022BFC
:102B5E00F6022C0D022C24022C3B900586E0FFA3DE
:102B6E00E0FD9005DC74FFF0A3740FF0A374C102B6
:102B7E002C50900586E0FFA3E0FD9005DC74FFF07D
:102B8E00A37410F0A37475022C50900586E0FFA379
:102B9E00E0FD9005DC74FFF0A37411F0A37429021C
:102BAE002C50900586E0FFA3E0FD9005DC74FFF04D
:102BBE00A37411F0A374DD022C50900586E0FFA3E0
:102BCE00E0FD9005DC74FFF0A37412F0A374918005
:102BDE0071900586E0FFA3E0FD9005DC74FFF0A385
:102BEE007413F0A37445805A900586E0FFA3E0FDB0
:102BFE009005DC74FFF0A37413F0A374F980439076
:102C0E000586E0FFA3E0FD9005DC74FFF0A37414CD
:102C1E00F0A374AD802C900586E0FFA3E0FD900537
:102C2E00DC74FFF0A37415F0A37461801590058613
:102C3E00E0FFA3E0FD9005DC74FFF0A37416F0A393
:102C4E007415F0A3741EF0A37430F0900588E0FBA9
:042C5E00122E782298
:10359B004104D200410541004104D00041054200E5
:0935AB004204CE00004104D100ED
:0300230002280EA2
:10280E00C0E0C0F0C083C082C0D075D000C000C090
:0D281E0001C002C003C004C005C006C00711
:10282B009005D8E4F02098030229D1900541E024CB
:10283B0043F582E43405F583E599F0900541E00416
:10284B00F0E0FF2442F582E43405F583E0640A707E
:10285B006C900542E06401705774432FF582E434A9
:10286B0005F583E4F09004D0E075F032A424DDF993
:10287B00740435F0A801FC7D017B017A05794312C4
:10288B0019A6900541E4F09004D0E0C394015005E3
:10289B00E004F080059004D0E4F09004D27401F0D1
:1028AB007E007F327D00FB7A0579431219C3800DC0
:1028BB00900542E0700704F0900541E4F0900400AD
:1028CB00E064016003022973900541E02442F58224
:1028DB00E43405F583E0FFC39430400BEFD3943918
:1028EB005005EF540F801F900541E02442F582E420
:1028FB003405F583E0FFC394414021EFD394465058
:10290B001BEF540F2409FF9004D1E024D3F582E48C
:10291B003404F583EFF09004D1E004F09004D1E09F
:10292B00B40245FF24D1F582E43404F583E0C454AA
:10293B00F0FE74D22FF582E43404F583E04EFF9061
:10294B0004CEE0FCA3E02400F58274003CF583EF99
:10295B00F09004CFE004F070069004CEE004F09009
:10296B0004D1E4F0900541F0900541E0FFD39430A1
:10297B00404E74432FF582E43405F583E4F0900464
:10298B00D0E075F032A424DDF9740435F0A801FC15
:10299B007D017B017A0579431219A69004D0E0C31F
:1029AB0094015005E004F080059004D0E4F090050C
:1029BB0041E4F0FE7F32FD7B017A0579431219C3A6
:0F29CB007591005398FE3099067591005398FD51
:1029DA00D007D006D005D004D003D002D001D00051
:0B29EA00D0D0D082D083D0F0D0E032FB
:1023A10090057C12189D900580E014B4070040034D
:1023B1000225DB9023C275F003A4C58325F0C583F4
:1023C100730223D70224220224370224B1022555A5
:1023D1000223D7022437E4F591759850438920F5FB
:1023E10091438780F591438E10F59153C4DF7B10A3
:1023F100FAF9F890057CE0FCA3E0FDA3E0FEA3E080
:10240100FF1217E2900581E0F8A3E0F9A3E0FAA337
:10241100E0FB1217E2EFF404F58DE4F591438840F7
:1024210022E4F591759850F59143878053C4F8F5EE
:102431009143C4208009E4F59175F85075C4887BF7
:1024410010FAF9F890057CE0FCA3E0FDA3E0FEA3FF
:10245100E0FF1217E2900581E0F8A3E0F9A3E0FAAA
:10246100A3E0FB1217E2C3E49FFFE49EFE74019D0B
:10247100FDE49CFC780812188A8FC6E47B10FAF9F7
:10248100F890057CE0FCA3E0FDA3E0FEA3E0FF12D1
:1024910017E2900581E0F8A3E0F9A3E0FAA3E0FBDD
:1024A1001217E2C3E49FFFE48FC5F59143C40822EC
:1024B100E4F59143D601F59143D701F59143D70254
:1024C100F59153D6EFF59153D6F77B08FAF9F890C9
:1024D100057CE0FCA3E0FDA3E0FEA3E0FF1217E210
:1024E100900581E0F8A3E0F9A3E0FAA3E0FB12175D
:1024F100E2EF24FFFFEE34FFED34FFEC34FFE48F15
:10250100DB53DCF07B08FAF9F890057CE0FCA3E0F2
:10251100FDA3E0FEA3E0FF1217E2900581E0F8A31E
:10252100E0F9A3E0FAA3E0FB1217E2EF24FFFFEECC
:1025310034FFFEED34FFFDEC34FFFC780812188AFD
:10254100EF540F42DCE4F59143D74053D7CFF591D7
:1025510043D68022E4F59143D701F59153D6EFF5A7
:102561009153D6F7900581E0F8A3E0F9A3E0FAA32F
:10257100E0FB90057CE0FCA3E0FDA3E0FEA3E0FF0F
:102581001217E2EF24FFFFEE34FFED34FFEC34FFCE
:102591008FDB900581E0F8A3E0F9A3E0FAA3E0FB6B
:1025A10090057CE0FCA3E0FDA3E0FEA3E0FF121791
:1025B100E2EF24FFFFEE34FFFEED34FFFDEC34FFCC
:1025C100FC780812188AEF540FF5DC75910243E785
:0B25D1004053E7CF75910243E68022E3
:1034FC00E4F591EF24FC601C14602824FE600C049D
:10350C00703B3098FDAE99C298803230F8FDAE9A7F
:10351C00C2F88029E4F59153D6FDE5DF20E1FBAE3E
:10352C00D9801A75910253E6FDE5DF7C0060047DBD
:0F353C000180027D00ED64024C60EEAED9AF0657
:01354B00225D
:10344300E4F591EF24FC602414603824FE6010043A
:10345300704CE4F591C2998D993099FDC29922E49B
:10346300F591C2F98D9A30F9FDC2F922E4F5915331
:10347300D6FB8DD9E5DF44F764F760F8E4F59153A3
:10348300D6FB2275910253E6FB759102AF058FD9E6
:0F349300E5DF44F764F760F875910253E6FB221A
:1036CC00EF24FC602F24FD601704703C1216F9FDEA
:1036DC0060367F06123443740129F9E43AFA80EC1F
:1036EC001216F9FD60227F07123443740129F9E4A4
:1036FC003AFA80EC1216F9FD600E7F041234437412
:09370C000129F9E43AFA80EC22EB
:1032F300EF24FC603414605024FE6018047069ED00
:1033030014600A047062E4F59153A8EF22E4F59186
:1033130043A81022ED14600A04704DE4F591539C08
:10332300FE22E4F591439C0122ED14600F047038F2
:10333300E4F59153DDFDF59153DDFE22E4F5914370
:10334300DD02F59143DD0122ED146010047019755F
:10335300910253DDFD75910253DDFE227591024307
:09336300DD0275910243DD012237
:10385B00E4F591759850438920F591438780F59154
:10386B00538EEFF59153C4DF758DFFF5914388406F
:01387B00222A
:102D76002B435245473A20002C002B435245473AF5
:102D86002025642C256420252A5B5E0D0A5D0D0A2C
:102D9600002B435245473A002B435245473A2025DC
:102DA6006420252A5B5E0D0A5D0D0A003C2A2A2A4C
:102DB6002A2A555243203D20257300494D475F522C
:102DC6004543560D0A000D0A2D2D2075617274209B
:102DD6007265632025732D2D0D0A0054494D453A21
:102DE60025640D0A003C2D2D2D2D2D2D74696D6544
:102DF600722076616C7565203D2025642D2D2D2D64
:102E06002D2D2D2D2D0D0A003C2D2D2D2D2D2D4436
:102E160045425547204D5347203D3E20554152548B
:102E26004C494E452045584954203D2025642D2DBA
:102E36002D2D2D2D2D2D2D0D0A002B435245473AB4
:102E460000494D475F53544152543A00494D475F3C
:102E560053544F500054494D453A004D5154545F18
:102E6600434F4E4E004D5154545F444953434F4EC9
:022E76004E000C
:1035B400C109C10CC10BC10A410404004104CD007E
:0935C40041040100420402000070
:0B33E30090057CEBF0A3EAF0A3E9F0FA
:1033EE009005A77401F0A37405F0A3747FF0900507
:1033FE007CE0F9A3E0FAA3E09005AAC9F0A3EAF0F5
:10340E00A3E9F09005A7E0F9A3E0FAA3E09005ADDB
:10341E00C9F0A3EAF0A3E9F07B017A04790512362C
:10342E00829005A7E4F0A3F0A3F07B017A0479055E
:05343E007F070236CCFF
:103043009005F0EBF0A3EAF0A3E9F07F071236CC8A
:1030530090057F74FFF0A3742DF0A37476F09005B0
:10306300F0E0FBA3E0FAA3E0F9123118EA494B6060
:103073005190057F74FFF0A3742DF0A3747EF0903C
:1030830005F0E0FBA3E0FAA3E0F9123118EA494B9B
:10309300603090057F74FFF0A3742DF0A37480F06B
:1030A3009005F3E0F9A3E0FAA3E0900582C9F0A349
:1030B300EAF0A3E9F09005F3E0F9A3A3E090058516
:1030C300803C90057F74FFF0A3742DF0A37497F0F8
:1030D3009005F0E0FBA3E0FAA3E0F9123118EA4906
:1030E3004B603190057F74FFF0A3742DF0A3749EA1
:1030F300F09005F3E0F9A3E0FAA3E0900582C9F0AC
:10310300A3EAF0A3E9F09005F0E0FBA3E0FAA3E063
:05311300F9121ECA22A2
:102163009004D0E0FF9004CDE06F70030223A0E061
:1021730004F0E075F032A424ABF9740435F0FA905E
:10218300057F7401F0A3EAF0A3E9F07BFF7A2D79D0
:10219300B21233E39004CDE075F032A424ABF974AA
:1021A3000435F0FA7B0190057F74FFF0A3742EF0E1
:1021B300A37447F0123118EA494B601E900400746F
:1021C30001F0E49004D1F09004CEF0A3F07E04FF7C
:1021D300FD7B017A0079001219C39004CDE075F0FC
:1021E30032A424ABF9740435F0FA7B0190057F74B3
:1021F300FFF0A3742EF0A37452F0123118EA494B86
:1022030060579004CEE0FEA3E0FF2400F582740043
:102213003EF583E4F0900400F09004D1F012354CC5
:102223001237157E047F007D007B017A007900124E
:1022330019C31231D77FD07E0712387C7BFF7A2DEA
:1022430079C17F061236CC7FD07E0712387C7BFFA4
:102253007A2D79C17F061236CC9004CDE075F03229
:10226300A424ABF9740435F0FA7B0190057F74FF65
:10227300F0A3742EF0A37461F0123118EA494B6095
:1022830008D2091234A212389C9004CDE075F032C2
:10229300A424ABF9740435F0FA7B0190057F74FF35
:1022A300F0A3742EF0A3746BF0123118EA494B605B
:1022B30005C2091234A29004CDE075F032A424AB18
:1022C300F9740435F0FA7B0190057F74FFF0A37471
:1022D3002EF0A3745BF0123118EA494B700302230A
:1022E300829004CDE075F032A424ABF9740435F088
:1022F300FA90057F7401F0A3EAF0A3E9F07BFF7A7B
:102303002D79CC1233E39004CDE075F032A424ABE5
:10231300F9740435F0FA7B01C00390057F74FFF074
:10232300A3742DF0A374E1F0A3EBF0A37404F0A362
:102333007402F0D003121ECA900402E0FEA3E0FF71
:10234300D39400EE64809480401D9005EA741EF0DF
:102353007C007D3C12173F900402EEF0A3EFF0D215
:102363000C1234A212383A7BFF7A2D79EB900402D7
:10237300E0FFA3E090057FCFF0A3EFF01233E31269
:1023830037C19004D0E0F990057FE4F0A3F0A3E90E
:0E239300F07BFF7A2E790E1233E302216322D3
:1037C100E49004D0F09004CDF0900542F0FE7F32F9
:1037D100FD7B017A0479DD1219C37E007F327D0001
:0937E1007B017A05790F0219C37E
:0435CD004105F600BE
:103636008FA6EEF5A775AEFFE4F591A2AF920DC287
:10364600AF75C7AA75C755439F01A20D92AFF591F5
:10365600A2AF920DC2AF75C7AA75C75543A501A201
:103666000D92AF75AF22F591A2AF920DC2AF75C79D
:0C367600AA75C75543A401A20D92AF2213
:10336C008FA6EEF5A7E4F591A2AF920DC2AF75C78B
:10337C00AA75C755439F01A20D92AFF591A2AF92CA
:10338C000DC2AF75C7AA75C75543A501A20D92AF63
:10339C0075AF21AF058FAEF591A2AF920DC2AF758F
:1033AC00C7AA75C75543A401A20D92AFF591A2AF60
:1033BC00920DC2AF75C7AA75C75553A5FEA20D9243
:1033CC00AFF591A2AF920DC2AF75C7AA75C7555391
:0733DC009FFEA20D92AF223B
:040003008F828E83D7
:03000700E493FF80
:01000A0022D3
:10371500E490057EF0A3F0C2AF7F807E7F1236363F
:103725007D0112336C9004CEE0FEA3E0FF7C007DAA
:10373500641217517F817E7F12336C9004CEE0FEB8
:10374500A3E0FF7C007D64121751AD077F827E7F69
:0537550012336CD2AF3D
:01375A00224C
:08354C0090057CEEF0A3EFF006
:10355400E4FBFA7F807E7B1236360BC390057DE058
:103564009B90057CE09A402EEB547F700BEB2480FB
:10357400FFEA347BFE123636EB247FFFEA347BFE0F
:1035840074FF2BF58274FF3AF583E0FD12336C0B64
:06359400BB00010A80C526
:01359A00220E
:1031D700E490057CF0A3F07F807E7F1200039005CA
:1031E700F6EFF0640160031238F87F827E7F1200E9
:1031F70003EF75F064A4FDACF07F811200037E003D
:10320700ED2FFFEE3CFE9004CEF0A3EFF0D3940039
:10321700EE9400404AE490057CF0A3F09004CEE0E1
:10322700FEA3E0FF90057CE0FCA3E0FDC39FEC9EBE
:10323700502DED2480FFEC347BFE12000390057CBB
:10324700E0FCA3E02400F58274003CF583EFF090E6
:0F325700057DE004F070C590057CE004F080BDBB
:013266002245
:0E38EA00EF75F064A47C002DFFEC35F0FE229B
:0A38F800E49004CEF0A3F0023715AF
:1035D1004205EC00004205EE00004105EB0041050B
:0735E100EA004205E80000CA
:03000B000229F5D2
:1029F500C0E0C0F0C083C082C0D075D000C000C0A8
:0D2A050001C002C003C004C005C006C00728
:102A12009005E9E004F070069005E8E004F0900506
:102A2200E8E0FEA3E0FF7C007D32121751ED4C700E
:102A32001B900404E0D394004012E014F0E0700C08
:102A4200D2B3C20C900402F0A3743CF0ED4C70714E
:102A5200D3900403E09400900402E094004062905A
:102A620005EAE0702B900403E024FFF0900402E0FA
:102A720034FFF0E07002A3E07047C2B3200C07D22B
:102A82000B12389C803BD20A900404741EF08031F1
:102A92009005EAE0D394004028E014F0E07022129E
:102AA20034A29005DC74FFF0A3740EF0A374C1F09D
:102AB200A37480F0A37410F0E4FBFDFF122E78D211
:102AC200B39005E8E0FEA3E0FF7C007D32121751CF
:102AD200ED4C70099005EBE004F01235E99005E841
:102AE200E0FEA3E0FFE4FCFD7B607AEAF9F8C312A2
:102AF200187450079005E8E4F0A3F09005ECE0FCB0
:102B0200A3E0FDECF58CEDF58AC28D75910053883A
:012B1200DFE3
:102B1300D007D006D005D004D003D002D001D00016
:0B2B2300D0D0D082D083D0F0D0E032C0
:1037EA004389017E007C077DD012173FC374FF9F77
:1037FA009005EDF074FF9E9005ECF0E0FCA3E0FD6F
:09380A00ECF58CEDF58AC28D226B
:103273000225DCE493A3F8E493A34003F68001F270
:1032830008DFF48029E493A3F85407240CC8C3335C
:10329300C4540F4420C8834004F456800146F6DF2B
:1032A300E4800B010204081020408090359BE47EEB
:1032B300019360BCA3FF543F30E509541FFEE49320
:1032C300A360010ECF54C025E060A840B8E493A3E7
:1032D300FAE493A3F8E493A3C8C582C8CAC583CA12
:1032E300F0A3C8C582C8CAC583CADFE9DEE780BECA
:0135E80000E2
:1016F900BB010689828A83E0225002E722BBFE02EF
:09170900E32289828A83E4932221
:10171200BB010CE58229F582E5833AF583E022508C
:1017220006E92582F8E622BBFE06E92582F8E222D6
:0D173200E58229F582E5833AF583E49322F0
:10173F00EF8DF0A4A8F0CF8CF0A428CE8DF0A42EBE
:02174F00FE2278
:10175100BC000BBE0029EF8DF084FFADF022E4CC7C
:10176100F875F008EF2FFFEE33FEEC33FCEE9DEC45
:10177100984005FCEE9DFE0FD5F0E9E4CEFD22ED8B
:10178100F8F5F0EE8420D21CFEADF075F008EF2FD5
:10179100FFED33FD4007985006D5F0F222C398FDC6
:0517A1000FD5F0EA2263
:1017A60075F008758200EF2FFFEE33FECD33CDCCFA
:1017B60033CCC58233C5829BED9AEC99E58298407D
:1017C6000CF582EE9BFEED9AFDEC99FC0FD5F0D65A
:1017D600E4CEFBE4CDFAE4CCF9A88222B800C1B984
:1017E6000059BA002DEC8BF084CFCECDFCE5F0CBC2
:1017F600F97818EF2FFFEE33FEED33FDEC33FCEBFB
:1018060033FB10D703994004EB99FB0FD8E5E4F9B5
:10181600FA227818EF2FFFEE33FEED33FDEC33FCA2
:10182600C933C910D7059BE99A4007EC9BFCE99A96
:10183600F90FD8E0E4C9FAE4CCFB2275F010EF2FDB
:10184600FFEE33FEED33FDCC33CCC833C810D707DB
:101856009BEC9AE899400AED9BFDEC9AFCE899F816
:0E1866000FD5F0DAE4CDFBE4CCFAE4C8F922A9
:10187400EB9FF5F0EA9E42F0E99D42F0EC6480C8EB
:0618840064809845F0228B
:10188A00E8600FECC313FCED13FDEE13FEEF13FF3C
:03189A00D8F12260
:0C189D00ECF0A3EDF0A3EEF0A3EFF022BE
:1018A900A8828583F0D083D0821218C01218C01282
:1018B90018C01218C0E473E493A3C583C5F0C583A7
:1018C900C8C582C8F0A3C583C5F0C583C8C582C889
:0118D90022EC
:101E4100E50830030104F82328247FF582E43405F2
:101E5100F5832290057C30030390057FE475F00142
:101E6100121A670216F960EAC50C7002150B14C547
:101E71000C200304FF02390C90057C74FFF5F0027D
:101E81001A7EFF0238D6E5096006D509037F0022D4
:101E910020030F12000EEF6008050CE50C7002051F
:101EA1000B2290057C121A5E1216F9FF60E890056C
:101EB1007CE475F001121A6780DC121E91EFC0E01C
:101EC100121E83D0E040F3809DD2038002C20390B2
:101ED100057C121A95E4F50AF508F50BF50C750960
:101EE10000C202C200C201C204121E54FF7005AF3B
:101EF1000A7E0022B42530121E54FF24D0B40A00F9
:101F0100500C75F00AC509A42509F50980E924CF0B
:101F1100B41A00EF5002C2E502212FD20180D8D2BB
:101F21000080D4D20480D0EF121E835008121EBB51
:101F3100EF600E80A9EFC0E0121E91D0E06F609EAD
:101F4100EF6074121E6780A7121E91EF6069E509A8
:101F5100700705098003121E91EF601420040E1210
:101F61001E41E475F001121A67EF1219EFD509E667
:101F71002004040508050A80BA121E87EFC0E0128A
:101F81001E83D0E05004121E67E4FF20040E121ECF
:101F910041E475F001121A67EF1219EFEF70DA20C0
:101FA10004040508050A808BE50960020509121E73
:101FB100BB121E87EF70C6300304E4121E67E50AE8
:101FC1006003021EF07EFF7FFF2220041174FFFCDC
:101FD100FDFEFF121E41121A5E121A440508021E6E
:101FE100DFD0E080D27900800A79108006790880FC
:101FF10002790AD205E50960020509E9C0E0121E6D
:10200100BBEF60DD121E91BF2D04D2028003BF2BF6
:1020110009121EBBEF60CA121E87D0E0B40A02800B
:1020210033B40802802EBF302770027408C205C085
:10203100E0121E87D0E0BF78028003BF5816050961
:10204100D509028007D50904D205800B74108019C7
:102051007002740ABF000AEFF8E4FCFDFEFF0220E3
:10206100E2C0E0EF121E67D0E0F9E4FCFDFEFFE9FB
:10207100C0E0ECC0E0EDC0E0EEC0E0EFC0E0121E59
:1020810087EFF8D0E0FFD0E0FED0E0FDD0E0FCD05B
:10209100F0E8604DB461004007B47B005002C2E536
:1020A10024D0503DFA24F6500724F95034240AFA7A
:1020B100EAB5F000502BCFA9F0A42FFF92D5E9C5C6
:1020C100F0CEA4A2D53EFE92D5E9C5F0CDA4A2D50D
:1020D1003DFD92D5E9C5F0CCA4A2D53CFCC205805A
:0620E1008EE8C0E02004BF
:1020E7002A200508050A300203121A36121E411269
:1020F7001A5E050820000B20010DEE8FF0121A174B
:102107008009121A448004EF1219EFD0E0121E67FB
:10211700021EDF200410121E41121A5E0508E50B8D
:10212700850CF0121A1780E8121A9E1FA9531FEA8E
:10213700581F204C1F1C421EF8481FEE4F1FF24429
:102147001F49431FE6491FF2551FCB461FCB451FAB
:0C215700CB471F242A211A4E00001F282D
:1018DA00E709F60870FA8046E709F20870FA803ECE
:1018EA0088828C83E709F0A370FA807EE309F60800
:1018FA0070FA8076E309F20870FA806E88828C8327
:10190A00E309F0A370FA806289828A83E0A3F60869
:10191A0070FA805689828A83E0A3F20870FA804AB4
:10192A0080D280FA80C680D4806580F280318010AF
:10193A0080A680EA809A80A880DA80E280CA803114
:10194A0089828A83ECFAE493A3C8C582C8CCC5838A
:10195A00CCF0A3C8C582C8CCC583CC70E9800D89F8
:10196A00828A83E493A3F60870F9ECFAA9F0EDFBF6
:10197A002289828A83ECFAE0A3C8C582C8CCC583CF
:10198A00CCF0A3C8C582C8CCC583CC70EA80DD89F7
:10199A00828A83E493A3F20870F980CE88F0ED245A
:1019AA0002B4040050C4F582EB2402B4040050BA15
:0919BA00232345822390192A73AE
:1031180090057CEBF0A3EAF0A3E9F0A3E0FBA3E0C1
:10312800FAA3E0F91216F970030231C490057CE0A5
:10313800FBA3E0FAA3E0F91216F970030231D0906C
:10314800057FE0F9A3E0FAA3E0A3C9F0A3EAF0A39E
:10315800E9F090057CA3E0FAA3E0F9900585EBF08F
:10316800A3EAF0A3E9F0900582E0FBA3E0FAA3E06C
:10317800F91216F9FF6026900585E0FBA3E0FAA393
:10318800E0F91216F96F701590058375F001121A9F
:1031980001900586E475F001121A0180C990058234
:1031A800E0FBA3E0FAA3E0F91216F97002800D9093
:1031B800057DE475F001121A0102313490057CE0B6
:0F31C800FBA3E0FAA3E0F9227B007A0079002252
:1019C300EF4E6012EF60010EEDBB010B89828A833B
:1019D300F0A3DFFCDEFA2289F05007F709DFFCA948
:0C19E300F022BBFEFCF309DFFCA9F0229F
:103682009005AAE0FFA3E0FEA3E0CF9005B3F0A36C
:10369200EEF0A3EFF09005ADE0CBF0A3E0CAF0A30B
:1036A200E0C9F07F229005B6AD82AC831216F98D87
:1036B200828C83F0A309E970010ADFEC9005ADE08A
:0A36C200FBA3E0FAA3E0F9021B41AC
:1019EF00BB010689828A83F0225002F722BBFE01D7
:0219FF00F322D1
:101A0100C5F0F8A3E028F0C5F0F8E5821582700270
:061A11001583E038F0220D
:101A1700BB010A89828A83F0E5F0A3F0225006F71A
:0F1A270009A7F01922BBFE06F3E5F009F3192217
:0E1A3600C3E49FFFE49EFEE49DFDE49CFC22C1
:101A4400BB010789828A8302189D5005E9F8021AAE
:0A1A5400C4BBFE05E9F8021AD02217
:091A5E00E0FBA3E0FAA3E0F92289
:101A6700F8E0FBA3A3E0F925F0F0E5821582700208
:071A77001583E0FA38F022AC
:101A7E00F8E0FBA3A3E025F0F9F0E58215827002F1
:071A8E001583E038FAF02295
:091A9500EBF0A3EAF0A3E9F02252
:101A9E00D083D082F8E4937012740193700DA3A3D7
:101AAE0093F8740193F5828883E4737402936860EB
:061ABE00EFA3A3A380DFEB
:101ADC00E50824B3F582E43405F583E0050822908B
:101AEC0005B03007039005B3E475F001121A6702D4
:101AFC0016F92000E97F2ED2008018EF540F2490A5
:101B0C00D43440D4FF30040BEF24BFB41A0050037C
:101B1C002461FFE50960021509050CE50C7002054E
:101B2C000B30070E9005B0E475F001121A67EF0246
:101B3C0019EF0238137403D2078003E4C207F508C7
:101B4C009005B0121A95E4F509F50BF50CE5096052
:101B5C00077F20121B1F80F5750AFFC201C200C24D
:101B6C0002C203C205C206C208121AEBFF700D3086
:101B7C0007057F00121B30AF0CAE0B22B4255FC2E1
:101B8C00D5C204121AEBFF24D0B40A00501A75F017
:101B9C000A780930D50508B6FF0106C6A426F6203A
:101BAC00D5047002D20380D924CFB41A00EF5004AC
:101BBC00C2E5D204021D31D20180C6D20080C0D24F
:101BCC000280BCD2D580BAD20580B47F20121B1FF4
:101BDC002002077401B5090040F1121ADCFF121B38
:101BEC001F021B59D208D2068095121ADCFB121A5E
:101BFC00DCFA121ADCF94A4B700679027A1E7BFF6A
:101C0C0020022EE509602A7E008E82758300121751
:101C1C001260060EEE650A70F0C2D5EBC0E0EAC0A9
:101C2C00E0E9C0E0EE121D78D0E0F9D0E0FAD0E0A7
:101C3C00FB1216F9FF60AAEBC0E0EAC0E0E9C0E0D5
:101C4C00121B1FD0E02401F9D0E03400FAD0E0FBE5
:101C5C00E50A0460DCD50AD980877BFF7A1D79748C
:101C6C00D202809C791080027908C206C2088008D2
:101C7C00D2D5790A8004790AC2D5E50A047002F536
:101C8C000AE4FAFDFEFF121ADCFC7B082001131299
:101C9C001ADCFD7B1030000A121ADCFE121ADCFF73
:101CAC007B20EC3382D592D55013C3E43000069FD1
:101CBC00FFE49EFEE42001039DFDE49CFCE4CBF8D4
:101CCC00C201EC700CCFCECDCCE824F8F870F380C8
:101CDC0017C3EF33FFEE33FEED33FDEC33FCEB3388
:101CEC00FB994002FB0FD8E9EB300105F8D0E0C4BA
:101CFC0048B201C0E00AEC4D4E4F78207B0070C218
:101D0C00EAB50A0040BCC0E0121D7AD0F0D0E02049
:101D1C000104C4C0E0C4B201C0F0121B08D0F0D55D
:101D2C00F0EB021B59121A9E1BF6531C70581BC762
:101D3C004C1BC3421C744F1C7C441C7C491BDC4355
:081D4C001C82551C66461C6652
:101D5400451C66471E22501BCB2D1BCF2E1BF22B7E
:101D64001BD3231BF0201E0B2A1B8B4800001BEAED
:101D74003F3F3F00790AA2D5200314300509B9106A
:101D8400020404B9080104A2D5200602500104206B
:101D940002689202B509005034C0E07F2030031974
:101DA4007F30A20272067205500F121DD1C202C208
:101DB40006C205C2087F30800F300503E9C0E01277
:101DC4001B1F300503D0E0F9D0E0B509CC3005176E
:101DD4007F30B9100C121B1F7F583004077F7880A6
:101DE40003B90803121B1F3002057F2D021B1F7F3E
:101DF400202008F87F2B2006F322920280CF286E41
:101E0400756C6C2900D201121ADC3001F8C2017819
:101E14000930D50108F6021B8B2D50434958121A7C
:101E2400DC2403B405004001E4901E1D93121B1032
:0D1E3400743A121B10D203750904021C70D1
:10000E00100E0B123902BF0D027F0A023813900533
:04001E00F7E0FF22E6
:08390C009005F7EFF0D20E2246
:1038D600EFC394094005EF940E4004EFB42003D3E0
:0438E6008001C32278
:0C1AC400ECF608EDF608EEF608EFF6224E
:0C1AD000ECF208EDF208EEF208EFF22252
:10381300EFB40A07740D12381E740A309811A89970
:10382300B8130CC2983098FDA899C298B811F63015
:0738330099FDC299F59922ED
:0A3902003098FDAF99C2987E0022B4
:00000001FF
