:0300000002348542
:0C348500787FE4F6D8FD7581210234CC7C
:10007E007468697320697320756172742074657376
:10008E00740D0A003C2D2D2D2D2D2D444542554726
:10009E00204D5347203D3E207468697320697320BC
:1000AE0075617274322074657374203D2D2D2D2D63
:1000BE002D2D2D2D2D0D0A00746869732069732066
:1000CE007561727431207465737420574946490006
:1000DE004155445F52454C41580D0A004155445F0D
:1000EE0053544F500D0A004155445F5354415254DE
:1000FE000D0A003C2D2D2D2D2D2D77696669207250
:10010E0065736574206B65792070726573736564B1
:10011E00203D2D2D2D2D2D2D2D2D2D0D0A00524531
:10012E005345540A004745545F5049440D0A000890
:10013E0000000000000000000000000000000000B1
:10014E0000000000000060400000000002010100FD
:10015E00000000000000000000014000000000014F
:10016E000101010101071F7E6FFFDBDFDFDFDFFF14
:10017E00EFFEEFEFCFD7FFE7F7DFD4D0C44C165624
:10018E00B62E8E272F3F3F7F7FFFFFFFFFFFFFFF24
:10019E00FCFCFDFCFDFFFFFEFFEFE703010101018B
:1001AE000000000000000102082040E000000000F6
:1001BE0000000000818080000000000000000000B0
:1001CE000000000000000000000001000000000020
:1001DE0080000080C080E0A0E0E0E0ECEC6EEDEF8F
:1001EE00FCC69E2E3EFEFFFFFFFF3F0F0F0F0707C1
:1001FE0003030303030101030101010000000000DA
:10020E00000000000000040004102123470FFFFF30
:10021E00FFFFFFFFFFFFFFFFF003BF38C00000002E
:10022E000000000000000000000000170000003C6D
:10023E003E1E0E0707060000000000000000000032
:10024E0000000000000000408040F070B8E8F87C2C
:10025E003E1F5FCFCF8F87D7032121000000808004
:10026E0081818383FFFFFF1F1F1F3C3C7E747C5EDA
:10027E001C1C1C181800000000000000181C1C029A
:10028E0012121000000000000000000000000B0F12
:10029E000FFFFFFFFFFFFFFFFFFFFFFFF9FAFCFC61
:1002AE00C8800000808080880000000000000000F0
:1002BE000000000000000000000000000000000030
:1002CE0080C0B0F8FE5BDFF3FC6F8DFABE3F01001D
:1002DE0000000000004048000800909090000103CC
:1002EE0006060D8FDFFCFBFCF8F0E0E0C0C0C0E0BE
:1002FE00F0FCF87C7E7E5C5058706060642040405C
:10030E00C08080000000000000000000000000001F
:10031E003F3F7F3FFFFFFFFFFFFFFF7F7FC71F7B3B
:10032E00E3CE0F0F9F07070305000000000000003B
:10033E00000080000000000000E0F0F8FCF2FFFF7B
:10034E00FFFF8F1BFFFFFFFFFFFFFFFFFFFFFFFE04
:10035E00FCF8F8F0F0E0E0E0F0F0F0F9F9F9FCFC70
:10036E00FEFFFFFF3F1F1F1F3F3F7FFFFFFFFFFFF0
:10037E00FDF9F8F0E1E1E3E1E1E0E0E0E0E0E0F0FA
:10038E00F0D8E6FCFC7870683010381C5C1C78F8ED
:10039E00F8FEFEFEFFFFFFFFFFFFFFF7FF7FF88077
:1003AE0003071BE7FFF821200101196A000000C4B2
:1003BE008080C0C0E0B47AFEFEEFBFFFFFFFEFF714
:1003CE00F9FFFFFFFF0F0F0F0F1F0F0F1F1F3F1F15
:1003DE001F1F1F1F0F0F1F1F1F1F1F1F1F1F3F3FFF
:1003EE003F3F3F3EB87C3C7CF0F8FCFCFFFFFFFF3C
:1003FE00FFFFBFBF3F7FFF7F7F3F3F3F3FFFBF27D7
:10040E00E7E3E9379D9810B02020202121212323F6
:10041E002707071F1F1F1F9F1F9F7F7FFFBFBF3F06
:10042E003F3C38187F7E7C7CF878F0F0000000FFAF
:10043E00FFFFAF3719181F0F0F0C07070703030134
:10044E00010101000000000000000000000000009B
:10045E008080808088808048C8000020800000A8AE
:10046E00640494E0F1F9FDFBF7FBF7DF7F3F7F0FAC
:10047E00495121CE7E388810C4C0BA727F77F7FFFB
:10048E00E7EFCCDFDE1F0B00101008000000101885
:10049E0078785878FCFEF0F0E7E7CFBFBF3E7C08D7
:1004AE007020606040C080808080000000000007E7
:1004BE000707070000000000000000000000000019
:1004CE0000000004040404000404040406060607E5
:1004DE0007070707070406060004050704060604B7
:1004EE00060707050704070707070707040600079F
:1004FE0005060205010000040707070707060606A2
:10050E0005050507030105000006000404000002AE
:10051E00000000040507070307070707070707067C
:10052E000404040002000001030707040000000099
:10053E0000F8FC0C0CCCCCCCCCCC0C0CFCFC000095
:10054E0090808090100000FCFC306060B0B0B01065
:10055E000000CCC000CCCCCCCCE0C0CCCCCC0000CD
:10056E00FCFC0C0CCCCCCCCCCC0C0CFC000000005D
:10057E00003F7F6060676767676760607F3F00006E
:10058E00799F9FE1E11E1E79310030781F1F67674A
:10059E0080C0E1C000E7E79E9E797980E1E100002E
:1005AE003F7F6060676767676760707F000000006D
:1005BE000002027EFE0E0EFE1E0EF0F03233CECE86
:1005CE00CE87031D3C3C3C3020C0983CFEFEFC7C9C
:1005DE0003030C0C0CFCFD0F0FF0F0CCC1C1C3C219
:1005EE00CCCCCE303032320C0C0E0EF0400000006F
:1005FE00001C1E7E7C18189E61610101999B676725
:10060E00991919191918189E8E010199F9F9E6E42C
:10061E0018387E7C781F1FE7E79E9C6067676060D6
:10062E006060601C1EE0E00606E1E1600000000074
:10063E00000E0F0E0E3020C32030F8FCCDCCCCCCEB
:10064E000F1C3C3232000001080C88C1E0F1F3E3CC
:10065E00CCCCCCDC3E373333373F3F3030303030CC
:10066E003236CE0C0CF0F00207FFFF300000000017
:10067E00007F7F00006C6E6F0E0C6F6F6C6C6C6C7D
:10068E00EC9C9C9C9C000060646C33137C7CFCFC9A
:10069E000C0EEFC3989C9C9B930F0F10F1F373738A
:1006AE00737363E4EC8F8FF3F363630C0400000049
:1006BE0000FEFE0606E6E6E6E6E60606FEFE00009E
:1006CE00F7F7F7C7C7C6C60606060C083838C98836
:1006DE0008183959C93131F9F9C6C6C63F3F30300D
:1006EE00363230FFFFF1F1F9F9C6C63800000000CE
:1006FE00001F1F1010131313131310101F1F0000D1
:10070E001F0303040C03030300100E0F1F1F0C0C1A
:10071E001C1C0C0E0F0C0C000113130C1F1F1313BB
:10072E001010100F0F131311101C1C0C000000E002
:10073E00E0E0E0E0E0E0E0C080000000C0E0E0E0EB
:10074E00E0E0C0C0000000E0E0E0E00000C0E0E05B
:10075E00E0C000C0E0E0F0FCFFE0E0C000C0E0E080
:10076E00E0C0C0E0E0E0C080C0E0E0E0C00000FF1C
:10077E00FFFFFF0F0F0FFFFFFFFC000087CFC7C764
:10078E00C7FFFFFFFF0000FFFFFFFF0000FFFFFF9F
:10079E00FFFF000F0FFFFFFFFF2F0F0700FFFFFFF1
:1007AE00FF0F0F0FFFFFFFFF0F0FFFFFFFFF00FFFA
:1007BE00FFFFFFFEFEFEFF7F3F0700FFFFFFFF0F65
:1007CE000FFFFFFFFF00000F3F7F7F7E7EFFFFFFCB
:1007DE00FFFF000000FFFFFFFF85000000FFFFFF8F
:1007EE00FF000000FFFFFFFF0000FFFFFFFF00FF05
:1007FE00FFFFFF00000000000000003F7F7FFFFCB6
:10080E00FCFFFFFF7F000000FEFEFEFEFEFFFF7FEF
:10081E003F030000007FFFFFFF520000007FFFFF3D
:10082E00FF000000FFFFFFFF00007FFFFFFF000043
:10083E0000000000000000000000000000000000AA
:10084E00000000000000000000000000000000009A
:10085E00000000000000000000C0C01008080804DE
:10086E00040606060404040505050505050505052B
:10087E0005040000000808F2020204F8F800000067
:10088E00000000000000000000000000000000005A
:10089E00000000000000000000000000000000004A
:1008AE00007C828200010101700707080808001011
:1008BE0010D0101010101010101010F0000060105A
:1008CE001000040400020203020202F8F800000005
:1008DE00000000000000000000000000000000808A
:1008EE008040200000909090402020282020001072
:1008FE001010111112F40707000000000000803CD8
:10090E003C8180804040404000000E004040404608
:10091E0046481010A0C0C0E01010080303000000ED
:10092E00000000000000000000000000F0F00600D3
:10093E0000C038232331101050505010808080801A
:10094E00802020203E20000040C0C010040403017F
:10095E000100C0C0100C0C040202010101010000D4
:10096E0000000000000000E107070000000000008A
:10097E000000000000C020200884846211110804C9
:10098E0004834111110AC6C62610100C0C0C8448A3
:10099E004828292911111212020F0F000000000021
:1009AE00001F00000000000000000000000000001A
:1009BE0000008080300707000000000000000000EB
:1009CE000000E00E0E00C0C00C0101008080300659
:1009DE000600E00404010000C03030040101803044
:1009EE00300C0202023C0000FE000000000000FF7E
:1009FE00FF000000000000000000000000000000EA
:100A0E0000C61919001010200000000000000000A0
:100A1E0000007F8080007F7F808080807F7F00004D
:100A2E0000FE00000000F8F8010000003C3C010050
:100A3E0000000000FC0000007F8080402020203F4E
:100A4E003F00000010101010080888804444422116
:100A5E002100101008040402000000000000000035
:100A6E000000000000010101020202040404080853
:100A7E0008131404042027274040404048484824C7
:100A8E0024240202130008080603030404040404C9
:100A9E00040002020200000101010000000000003B
:100AAE000000000000000000000000000000000038
:100ABE0000F8F8040202F20808000000040505051B
:100ACE0005050505050505040404060606040408C7
:100ADE00080810C0C0000000000000000000000068
:100AEE0000000000000000000000000000000000F8
:100AFE0000000000000000000000000000000000E8
:100B0E0000F8F80202020302020004040010106052
:100B1E000000F0101010101010101010D010100057
:100B2E000808080707700101010082827C0000009E
:100B3E0000000000000000000000000000000000A7
:100B4E000000000000000000000000000000000097
:100B5E00000303081010E0C0C0A010104846464025
:100B6E004040000E0000404040408080813C3C8070
:100B7E000000000000000707F41211111010100001
:100B8E00202028202040909090000020408080005F
:100B9E000000000000000000000000000000000047
:100BAE00000000000707E100000000000000000048
:100BBE00010101010202040C0C10C0C0000101036E
:100BCE00040410C0C0400000203E20202080808001
:100BDE00808010505050101031232338C000000672
:100BEE00F0F0000000000000000000000000000017
:100BFE0000000000000000070730808000000000A9
:100C0E000000000000000000000000001F000000B7
:100C1E000000000F0F0212121111292928484884D2
:100C2E000C0C0C101026C6C60A11114183040408C0
:100C3E001111628484082020C00000000000000012
:100C4E00000000000000201010001919C60000005E
:100C5E0000000000000000000000000000FFFF0088
:100C6E000000000000FE00003C0202020C3030804A
:100C7E000101043030C00000010404E0000606301B
:100C8E0080800001010CC0C0000E0EE000000000CC
:100C9E000000000000000204040810100021214290
:100CAE00444480880808101010100000003F3F20B8
:100CBE0020204080807F000000FC0000000000012A
:100CCE003C3C00000001F8F800000000FE000000AF
:100CDE007F7F808080807F7F0080807F000000008B
:100CEE0000000000000000000000000000000000F6
:100CFE0000000000010101000002020200040404D1
:100D0E0004040403030608080013020224242448E2
:100D1E004848404040402727200404141308080880
:100D2E000404040202020101010000000000000E92
:100D3E001F1FFFFF1F1F1F1F1F1F1F1F1F1F1F1FF5
:100D4E001F1F1F1F1F1F1F1F1F1F1F1F1FFFFF1FE5
:100D5E001F0E00000000FFF000E0E0E0E0E0E0E049
:100D6E00E0E0E0E0E0E0E0E0E0E0E0E0E0E000E055
:100D7E00FF030000000000000000030F3C73EFDFD4
:100D8E00BF7FFFFFFFFFFFFFFFFFFF7FBFDFEF73A1
:100D9E003C0F0700000000000000000000000000F3
:100DAE0000000103071CF9E71FFF1FE7F91C0E03E4
:100DBE000100000000000000000000000000000024
:100DCE00000000000080C0E0701F0F6005100F1FB4
:100DDE0070E0C08000000000000000000000000075
:100DEE00000000C0F0381E070301000000000800DC
:100DFE0063000000000103070E38F0C00000000081
:100E0E000000000000FF0F00000080C0E0F0F0F8CE
:100E1E00FDFEFEFEFCFAF0F0E0C0800000000FFFC9
:100E2E00C000000070F8F8FFFFF8F8FAFBFBFBFBC0
:100E3E00FBFBFBFBFBFBFBFBFBFBFBFBFBFBFBFAF5
:100E4E00F8F8FFFFF8F870FEFFFFFFFE1898181075
:100E5E00101010303030306060C0C08000000000D4
:100E6E000000000000000000000000000000000074
:100E7E00008080C0C06060B0B0B03010101010188C
:100E8E001818FEFFFFFFFEFFFFFFFFFF00FFFFFE34
:100E9E00FCF8F0C0800080000000010103070E1C6A
:100EAE00383060C0C0C0C0C0C0C06060B098DCEE5A
:100EBE00F7FBFDFEFEFFFFFFFFFF0000000000003E
:100ECE000000FFFFFFFFFFFFFFFFFFFF00FFFFFF21
:100EDE00FFFF7F1F0F17000004040001000484C0F1
:100EEE00E16134181A181A1A1A1A37776FCF9FBF82
:100EFE007FFFFFFFFFFFFFFFFFFF0000000000006E
:100F0E000000FFFFFFFFFFFFFFFFFFFFC0CFC7C3C4
:100F1E00C1404060606060303018180C0607030155
:100F2E0000000000000000000000000000000103AF
:100F3E00070E0D1B3B37376F6F6F404040C0C0C070
:100F4E00C0C0FFFFFFFFFF030707070300000000FD
:100F5E0000000000000000203078303028203000E3
:100F6E000000000000000000E0E06060E0E0000033
:100F7E00E0E06060600000E0E0E000E0E0E0000043
:100F8E0000C0E0E0C0000000E0E00000E0E0C000D3
:100F9E00E0E00000E0E00000E0E0C000E0E0000083
:100FAE00C0E060606040000000006060E0E0E06073
:100FBE006000E0E00000E0E0E000E0E0E00000E0E3
:100FCE00E060606000000000000000000000000013
:100FDE000000000000000000000000000000000003
:100FEE0000000000000000000F0F03070F0D0800A7
:100FFE000F0F0D0D0D0C000F01070F07010F00084D
:10100E000F070606070F08000F0F00000F0F01074E
:10101E000F0F00000F0F00000F0F01070F0F000141
:10102E00070F0C0D0D070000000000000F0F0F0042
:10103E0000000F0F00000F01070F07010F00000F38
:10104E000F0D0D0D0C000000000C0C000000000038
:10105E000C0C00000000000C0C0000000000000052
:10106E000000000000000000000000000000000072
:10107E000000000000000000000000000000000062
:10108E0000000000000000000000008080808080D2
:10109E0080808000000000000000000000000000C2
:1010AE000080F0FCFEFEFFFFFF3F1F0F0F0F1F3FE4
:1010BE00FFFFFFFEFCF8F08000000000000000FFC4
:1010CE00FFFFFFFFFFFF8F000000000000008FFFFB
:1010DE00FFFFFFFFFFFF000000000000000F7FFF7B
:1010EE00FFFFFFFFFFE0C0808080C0E0FFFFFFFF3B
:1010FE00FFFF7F0F00000000000000000000010352
:10110E0007070F0F0F0F0F0F0F0F0F070703030127
:10111E0000000000000000000000000000000000C1
:10112E0000000000000000000000000000000000B1
:10113E0000000000000000000000000000000000A1
:10114E000000808080808080800000000000000011
:10115E000000000000000080C0C0E0E0F0F8FCFEDF
:10116E00FFFFFFFFFFFFFF00000000000000000078
:10117E0000000000001F0F0F0F07070303FFFFFF04
:10118E00FFFFFFFFFF000000000000000000000056
:10119E000000000000000000000000FFFFFFFFFF46
:1011AE00FFFFFF0000000000000000000000000034
:1011BE000000000000000000000F0F0F0F0F0F0FB8
:1011CE000F00000000000000000000000000000002
:1011DE000000000000000000000000000000000001
:1011EE0000000000000000000000000000000000F1
:1011FE008080808080808080800000000000000061
:10120E0000000000000000E0F8FCFEFFFFFFFF3FC3
:10121E001F0F0F0F0F1FFFFFFFFFFEFCF8E0000078
:10122E000000000000000000010101010180C0E08B
:10123E00E0F0F8FEFFFFFFFF7F3F0F03000000000E
:10124E0000000000C0F0F8FCFEFEFFFFFFFFDFCF46
:10125E00C7C7C3C1C0C0C0C0C0C0000000000000EE
:10126E000C0F0F0F0F0F0F0F0F0F0F0F0F0F0F0F83
:10127E000F0F0F0F0F0F0F0F0000000000000000E8
:10128E000000000000000000000000000000000050
:10129E000000000000000000000000000000000040
:1012AE0000000000000080808080808080808000B0
:1012BE000000000000000000000000000060787CCC
:1012CE007E7FFFFF7F1F0F0F0F0F1FFFFFFFFFFE22
:1012DE00FEFCF00000000000000000000000000016
:1012EE00000000007C7C7C7E7FFFFFFFFFFFE7E3BA
:1012FE00C0800000000000000030F0F0F0F8F8F8B8
:10130E00F0C08080808080C0FBFFFFFFFFFFFF3FAB
:10131E0000000000000000000001030707070F0F88
:10132E000F0F0F0F0F0F0F0707070301000000002D
:10133E00000000000000000000000000000000009F
:10134E00000000000000000000000000000000008F
:10135E00000000000000000000000000000080807F
:10136E0080808080800000000000000000000000EF
:10137E00000000000080C0E0F0F8FEFFFFFFFFFF5E
:10138E00FFFFFF00000000000000000000C0E0F0C2
:10139E00F8FCFE7F3F1F0F07030100FFFFFFFFFF5B
:1013AE00FF0000000000000000007F7F7F7F7F7F36
:1013BE007F7E7E7E7E7E7E7E7EFFFFFFFFFFFF7E38
:1013CE007E7E7E0000000000000000000000000095
:1013DE00000000000000000F0F0F0F0F0F000000A5
:1013EE0000000000000000000000000000000000EF
:1013FE0000000000000000000000000000000000DF
:10140E0000000000000000008080808080808080CE
:10141E00808080808080808080808000000000003E
:10142E000000000000FCFFFFFFFFFFFF1F1F1F1F3C
:10143E001F1F1F1F1F1F1F1F1F0000000000000087
:10144E0000003F3F3F7F7F7F7F3E1E1E1F1F1F3FBF
:10145E00FFFFFEFEFCF8F0E0000000000000007050
:10146E00F0F0F8F8F8F8F0C0C080808080C0F9FF86
:10147E00FFFFFFFF7F1F00000000000000000001C3
:10148E00030707070F0F0F0F0F0F0F0F0F0707039E
:10149E00030100000000000000000000000000003A
:1014AE00000000000000000000000000000000002E
:1014BE00000000000000000000000000000000001E
:1014CE00000080808080808080800000000000000E
:1014DE00000000000000000000E0F8FCFEFEFFFF30
:1014EE007F1F0F0F0F0F1F7F7F7F7F3E3C38200027
:1014FE00000000000000FFFFFFFFFFFFFFFFF87876
:10150E003C3E3E3E7EFEFEFCFCF8F8F0C0000000C5
:10151E00000000000F3FFFFFFFFFFFFFE0C08080D5
:10152E008080C0E0FFFFFFFFFFFF7F000000000094
:10153E00000000000001030707070F0F0F0F0F0F2A
:10154E000F0F070707030100000000000000000056
:10155E00000000000000000000000000000000007D
:10156E0000000000000000000000000000000080ED
:10157E00808080808080808080808080808080805D
:10158E00808080808080000000000000001F1F1FF0
:10159E001F1F1F1F1F1F1F1F1F9FDFFFFFFFFFFFAD
:1015AE00FF7F1F0F00000000000000000000000081
:1015BE00000000C0F0FCFEFFFFFF7F1F07010000D0
:1015CE00000000000000000000000000000080F895
:1015DE00FFFFFFFFFFFF1F010000000000000000E3
:1015EE000000000000000000000000000F0F0F0FB1
:1015FE000F0F0F0F000000000000000000000000A1
:10160E0000000000000000000000000000000000CC
:10161E0000000000000000000000000000000000BC
:10162E00000000000000000000808080808080802C
:10163E00808000000000000000000000000000009C
:10164E0000F8FCFEFFFFFFFF1F0F0F0F0F1F3FFFE6
:10165E00FFFFFFFEFCF8000000000000000000C3CA
:10166E00C7EFFFFFFFFFFE7C7C7C7CFCFEFFFFFFD5
:10167E00FFEFC78300000000000000007FFFFFFFA8
:10168E00FFFFFFFFC0C0808080C0C0FFFFFFFFFFD5
:10169E00FFFF7F00000000000000000103030707AA
:1016AE00070F0F0F0F0F0F0F0F0F07070703030083
:1016BE00000000000000000000000000000000001C
:1016CE00000000000000000000000000000000000C
:1016DE00000000000000000000000000008080807C
:1016EE00808080808000000000000000000000006C
:1016FE0000000000F0F8FCFEFFFFFF3F1F0F0F0F72
:10170E000F1F3FFFFFFFFEFCF8E08000000000000F
:10171E0000001F7FFFFFFFFFFFF8F0E0E0E0E0F0CA
:10172E00F8FFFFFFFFFFFFFFFF00000000000000BB
:10173E0020E0E0E0F1F1F3F3C383838381C1F0FF96
:10174E00FFFFFFFFFF3F070000000000000000004A
:10175E0001030707070F0F0F0F0F0F0F0F070703D9
:10176E000301000000000000000000000000000067
:10177E0000000000000000000000808080808000DB
:10178E0000007F7F7F7F7F000000F0F0F0F0F00020
:07179E0000000F0F0F0F0FF9
:10254D00E4900587F0A3F0A3F0A3F07591017591C8
:10255D000153B1FE43B20175910153B1FD43B20276
:10256D0075910153B1FB43B20475910153B1F7431A
:10257D00B20875910153B5FE43B60175910153B57E
:10258D00FD43B60275910153B5FB43B60475910138
:10259D0053B5F743B60875910153B5DF43B62075B2
:1025AD00910153B5EF43B61075910153C2FB43C36F
:1025BD000475910153BDEF43BE1075910153BDDFFD
:1025CD0043BE2075910153C2F743C308C2B3759141
:1025DD000253F1F043F10375910253F10F43F130C2
:1025ED0075910153B3BF53B4BF75910153B37F536D
:1025FD00B47F75910253EFF043EF0275910253EFE3
:10260D000F43EF2075910153BDFE53BEFE75910131
:10261D0053BDFD53BEFD75910253EBF043EB0875B1
:10262D00910253EB0F43EB8075910153B9FE53BAF1
:10263D00FE75910153B9FD53BAFD1233F590059214
:10264D007401F0A312196B0001C2007F007E367D6C
:10265D006E7C011227F97D017F06123618900592C6
:10266D007403F0A312196B0001C2007F007E367D4A
:10267D006E7C011227F97D017F07123618900592A5
:10268D007404F0A312196B0001C2007F007E367D29
:10269D006E7C011227F9D2AF123A3B1237687F14C4
:0926AD00123ACEC28DD28CD2A9E2
:1026B60090058B7401F0A3742CF0123AA17BFF7A7B
:1026C60000797E7F061235117BFF7A0079921237E8
:1026D600087BFF7A0079C67F07123511E490040162
:0126E600F003
:1026E700E490058DF0121EED300A13C20A7BFF7AC3
:1026F7000079DE7F06123511123768123B41300B25
:102707000DC20B7BFF7A0079EA7F0612351190051F
:10271700FDE0B41415300C127BFF7A0079F57F06C3
:102727001235117FE87E03123B839005FDE070169A
:10273700300C13900404E0FEA3E0FFD39400EE9462
:10274700004003122F82E4F59190058DE5B1F0E08A
:1027570020E636D3900405E09402900404E0940048
:102767004027E4F5917F2C7E01123B83E4F591909D
:10277700058DE5B1F0E020E609900404E4F0A374C8
:1027870002F07FE87E03123B8390058DE020E24450
:10279700E4F5917F2C7E01123B83E4F59190058D42
:1027A700E5B1F0E020E2267BFF7A017901123708D4
:1027B7007BFF7A01792C7F071235117FE87E0312A0
:1027C7003B837BFF7A01792C7F071235117FE87EE7
:1027D70003123B83900401E060030226E77BFF7A44
:0F27E7000179337F061235117FE87E03123B83A1
:0327F6000226E7D1
:103B8300E4FDFCC3ED9FEC9E5015E4FBFA0BBB0078
:0F3B9300010ABA08F8BB4CF50DBD00010C80E427
:013BA2002200
:103BA300EF540FF5A0EFC4540FF580C2A5D2A47F44
:0B3BB300017E00123B83C2A4023B8392
:10317D00EF540FF5A0EFC4540FF580D2A5D2A400E3
:10318D000000000000000000000000000000000032
:10319D000000000000000000000000000000000022
:1031AD000000000000000000000000000000000012
:1031BD000000000000000000000000000000000002
:1031CD0000000000000000000000000000000000F2
:1031DD0000000000000000000000000000000000E2
:1031ED000000000000000000C2A40000000000006C
:1031FD0000000000000000000000000000000000C2
:10320D0000000000000000000000000000000000B1
:10321D0000000000000000000000000000000000A1
:10322D000000000000000000000000000000000091
:10323D000000000000000000000000000000000081
:10324D000000000000000000000000000000000071
:04325D00000000224B
:103A3B00E4F591E5B154DF4420F5B1D2B2E4F59150
:103A4B00E5B154EF4410F5B17FD07E07123B837F75
:103A5B003E123BA37F40123BA37FB8123BA37FC018
:083A6B00123BA37F3F023BA3C5
:10376800E4F591E5B154DF4420F5B1D2B2E4900517
:10377800ECF0A3F09005ECE0FEA3E0FFC39408EEA4
:1037880064809480502AEF24B8FF123BA3E4FDFC28
:10379800E4FF12317D0DBD00010CED64404C70F06A
:1037A8009005EDE004F070CC9005ECE004F080C4E6
:0A37B8007F40123BA37FB8023BA341
:103A7300A905E4F591EB70047E0180027E00EEC49B
:103A83003354E0FEE5B154DF4EF5B1EB24FF92B2BF
:0E3A9300EF2440FF123BA3E924B8FF023BA33F
:0B3096009005ECEFF0A3EDF0A3EBF0D1
:1030A1009005ECE0FF9005F4F0A3EDF0E4A3F0A3AC
:1030B100F09005F3E0FE131313541F9005F8F0E4AC
:1030C100A3F0A3F0123A739005EDE09005F7F090AC
:1030D10005EDE0FF9005F8E02FFFE433FE9005F7E2
:1030E100E0FDC39FEE6480F8748098400302317C58
:1030F1009005ECE0FF9005EEE0FB123A739005ECD1
:10310100E09005F6F09005ECE0FF9005F2E02FFF6E
:10311100E433FE9005F6E0C39FEE6480F874809876
:1031210050509005EFE0FBA3E0FAA3E0F99005F918
:10313100E0FEA3E0F5828E831217BEFF12317D906F
:1031410005FAE004F070069005F9E004F09005F648
:10315100E0B43F16A3E0FD9005EEE004FBE4FF12AE
:103161003A73E4F59153B1DFD2B29005F6E004F081
:0B31710080939005F7E004F00230D0DE
:01317C002230
:103B1E0030091F1237689005EF7401F0A37400F09E
:103B2E00A37400F0A37440F0A3F0E4FBFD7F201219
:033B3E003096229C
:1038700020094C200C499005FEE020E0201237681A
:103880009005EF74FFF0A3740DF0A3743DF0A374E2
:1038900023F0A37440F0E4FBFD7F2D801F123768F6
:1038A0009005EF74FFF0A3740EF0A37455F0A374A9
:1038B00040F0A37423F0E4FB7D027F2012309622B7
:103B41001237689005EF74FFF0A3740AF0A374BDF7
:103B5100F0A37450F0A37440F0E4FBFD7F18023031
:013B610096CD
:042F8200AB07AA06E9
:102F8600E4900591F0FC7D3C1217FDA3EEF0A3EF53
:102F9600F0900592E0FEA3E0FF7C007D0A1217FD8B
:102FA600A3EFF0900592E0FEA3E0FF7C007D0A12FD
:102FB60017FD900595EDF0AE02AF037C007D3C1247
:102FC60017FDAB05AA047C007D0AAF03AE021217FB
:102FD600FDA3EFF0AE02AF037C007D0A1217FDA33E
:102FE600EDF0900591E0FFC43354E090058EF0A318
:102FF6007402F0EFC313A3F0A3E014601E1460572D
:103006001460682403707990058FE0FDA3E0FB90BF
:103016000594E090059BF0E4FF806290058FE0FD4B
:10302600A3E0FB900595E090059BF07F1E122E4EC7
:1030360090058FE0FD9005EF74FFF0A37417F0A3E1
:103046007475F0A37408F0A37430F0900590E0FB5B
:103056007F3C123096802990058FE0FDA3E0FB901F
:103066000596E090059BF07F04801290058FE0FDA9
:10307600A3E0FB900597E090059BF07F22122E4E71
:0F308600900591E004F0E0C394045003022FE89A
:013095002218
:102E4E00900598EFF0A3EDF0A3EBF0A3E0B40A0029
:102E5E004003022F81902E6AF8282873022E8802D2
:102E6E002EA0022EB8022ED0022EE8022EFF022F26
:102E7E0016022F2D022F44022F5B900598E0FFA320
:102E8E00E0FD9005EF74FFF0A37410F0A3746D02D3
:102E9E002F70900598E0FFA3E0FD9005EF74FFF012
:102EAE00A37411F0A37421022F70900598E0FFA374
:102EBE00E0FD9005EF74FFF0A37411F0A374D5023A
:102ECE002F70900598E0FFA3E0FD9005EF74FFF0E2
:102EDE00A37412F0A37489022F70900598E0FFA3DB
:102EEE00E0FD9005EF74FFF0A37413F0A3743D8022
:102EFE0071900598E0FFA3E0FD9005EF74FFF0A33D
:102F0E007413F0A374F1805A900598E0FFA3E0FDCE
:102F1E009005EF74FFF0A37414F0A374A580439092
:102F2E000598E0FFA3E0FD9005EF74FFF0A3741584
:102F3E00F0A37459802C900598E0FFA3E0FD900556
:102F4E00EF74FFF0A37416F0A3740D80159005981E
:102F5E00E0FFA3E0FD9005EF74FFF0A37416F0A35D
:102F6E0074C1F0A3741EF0A37430F090059AE0FBC8
:042F7E001230962255
:100026004104E300410552004104E100410553004B
:0D0036004204DF00004104E20041058600A5
:03007B0002381A2E
:10381A00C0E0C0F0C083C082C0D075D000C000C074
:0D382A0001C002C003C004C005C006C007F5
:103837009005EAE4F0C09130F80DAF9A122A34C22D
:0E384700F89004027401F030F902C2F9D09139
:10385500D007D006D005D004D003D002D001D000C7
:0B386500D0D0D082D083D0F0D0E03271
:030023000237C2DF
:1037C200C0E0C0F0C083C082C0D075D000C000C0CD
:0D37D20001C002C003C004C005C006C0074E
:1037DF009005EBE4F030980FAF99122A3490040261
:1037EF00E4F0F5915398FE3099067591005398FDCA
:1037FF00D007D006D005D004D003D002D001D0001E
:0B380F00D0D0D082D083D0F0D0E032C7
:102A3400900552E02454F582E43405F583EFF090D8
:102A44000552E004F0E0FF2453F582E43405F583F5
:102A5400E0640A706C900553E06401705774542F5D
:102A6400F582E43405F583E4F09004E1E075F03296
:102A7400A424EEF9740435F0A801FC7D017B017AED
:102A8400057954121A68E4900552F09004E1E0C309
:102A940094015005E004F08005E49004E1F0900412
:102AA400E37401F07E007F327D00FB7A05795412D5
:102AB4001A85800D900553E0700704F0E4900552E8
:102AC400F0900400E064016003022B70900552E072
:102AD4002453F582E43405F583E0FFC39430400BBE
:102AE400EFD394395005EF540F801F900552E02422
:102AF40053F582E43405F583E0FFC394414021EFAC
:102B0400D39446501BEF540F2409FF9004E2E024B1
:102B1400E4F582E43404F583EFF09004E2E004F099
:102B24009004E2E0B40245FF24E2F582E43404F5C3
:102B340083E0C454F0FE74E32FF582E43404F58397
:102B4400E04EFF9004DFE0FCA3E02400F582740073
:102B54003CF583EFF09004E0E004F070069004DFAD
:102B6400E004F0E49004E2F0900552F0900552E0A5
:102B7400FFD39430404E74542FF582E43405F5832A
:102B8400E4F09004E1E075F032A424EEF974043525
:102B9400F0A801FC7D017B017A057954121A689032
:102BA40004E1E0C394015005E004F08005E49004DE
:102BB400E1F0E4900552F0FE7F32FD7B017A057965
:052BC40054121A8522E5
:1027F90090058E12195F900592E014B4070040030A
:10280900022A3390281A75F003A4C58325F0C583DD
:102819007302282F02287A02288F0229090229AD7A
:1028290002282F02288FE4F591759850438920F5E5
:1028390091438780F591438E10F59153C4DF7B1046
:10284900FAF9F890058EE0FCA3E0FDA3E0FEA3E011
:10285900FF1218A4900593E0F8A3E0F9A3E0FAA306
:10286900E0FB1218A4EFF404F58DE4F591438840D8
:1028790022E4F591759850F59143878053C4F8F592
:102889009143C4208009E4F59175F85075C4887B9B
:1028990010FAF9F890058EE0FCA3E0FDA3E0FEA391
:1028A900E0FF1218A4900593E0F8A3E0F9A3E0FA79
:1028B900A3E0FB1218A4C3E49FFFE49EFE74019DEC
:1028C900FDE49CFC780812194C8FC6E47B10FAF9D8
:1028D900F890058EE0FCA3E0FDA3E0FEA3E0FF1263
:1028E90018A4900593E0F8A3E0F9A3E0FAA3E0FBAC
:1028F9001218A4C3E49FFFE48FC5F59143C40822CD
:10290900E4F59143D601F59143D701F59143D702F7
:10291900F59153D6EFF59153D6F77B08FAF9F8906C
:10292900058EE0FCA3E0FDA3E0FEA3E0FF1218A4DE
:10293900900593E0F8A3E0F9A3E0FAA3E0FB1218ED
:10294900A4EF24FFFFEE34FFED34FFEC34FFE48FF6
:10295900DB53DCF07B08FAF9F890058EE0FCA3E084
:10296900FDA3E0FEA3E0FF1218A4900593E0F8A3ED
:10297900E0F9A3E0FAA3E0FB1218A4EF24FFFFEEAD
:1029890034FFFEED34FFFDEC34FFFC780812194CDE
:10299900EF540F42DCE4F59143D74053D7CFF5917B
:1029A90043D68022E4F59143D701F59153D6EFF54B
:1029B9009153D6F7900593E0F8A3E0F9A3E0FAA3C1
:1029C900E0FB90058EE0FCA3E0FDA3E0FEA3E0FFA1
:1029D9001218A4EF24FFFFEE34FFED34FFEC34FFAF
:1029E9008FDB900593E0F8A3E0F9A3E0FAA3E0FBFD
:1029F90090058EE0FCA3E0FDA3E0FEA3E0FF121822
:102A0900A4EF24FFFFEE34FFFEED34FFFDEC34FFAD
:102A1900FC780812194CEF540FF5DC75910243E765
:0B2A29004053E7CF75910243E6802286
:1038C000E4F591EF24FC601C14602824FE600C04D5
:1038D000703B3098FDAE99C298803230F8FDAE9AB8
:1038E000C2F88029E4F59153D6FDE5DF20E1FBAE77
:1038F000D9801A75910253E6FDE5DF7C0060047DF6
:0F3900000180027D00ED64024C60EEAED9AF068F
:01390F002295
:10359D00E4F591EF24FC602414605424FE601004C3
:1035AD007068E4F591C2998D993099FDC29922E424
:1035BD00F591C2F98D9A30F9FDC2F922E4F59153D6
:1035CD00D6FB8DD9900586F00000000000000000AC
:1035DD000000E5DF44F7FFBFF70E900586E0D394BA
:1035ED00E65005E004F080EAE4F59153D6FB227530
:1035FD00910253E6FB759102AF058FD9E5DF44F7D4
:0B360D0064F760F875910253E6FB22A1
:103511009005BCEBF0A3EAF0A3E9F0EF24FC6052C4
:1035210024FD60250470749005BCE0FBA3E0FAA3C0
:10353100E0F91217A5FD60637F0612359D9005BD68
:10354100E475F00112185280DE9005BCE0FBA3E0A7
:10355100FAA3E0F91217A5FD60417F0712359D908E
:1035610005BDE475F0011218527F017E00123B8304
:1035710080D79005BCE0FBA3E0FAA3E0F91217A500
:10358100FD60187F0412359D9005BDE475F00112B0
:0C35910018527F017E00123B8380D7227D
:10361800EF24FC603414605024FE6018047069EDD7
:1036280014600A047062E4F59153A8EF22E4F5915E
:1036380043A81022ED14600A04704DE4F591539CE0
:10364800FE22E4F591439C0122ED14600F047038CA
:10365800E4F59153DDFDF59153DDFE22E4F5914348
:10366800DD02F59143DD0122ED1460100470197537
:10367800910253DDFD75910253DDFE2275910243DF
:09368800DD0275910243DD01220F
:103B6200E4F591759850438920F591438780F5914A
:103B7200538EEFF59153C4DF758DFFF59143884065
:013B82002220
:102BC9002B435245473A20002C002B435245473AA4
:102BD9002025642C256420252A5B5E0D0A5D0D0ADB
:102BE900002B435245473A002B435245473A20258B
:102BF9006420252A5B5E0D0A5D0D0A003C2A2A2AFB
:102C09002A2A555243203D20257300494D475F52DA
:102C19004543560A000D0A2D2D205049442052459E
:102C290051554553543D25732D2D0D0A000A000DAC
:102C39000A2D2D2075617274207265632025732D0C
:102C49002D0D0A0054494D453A25640D0A003C2DC5
:102C59002D2D2D2D2D74696D65722076616C75652C
:102C6900203D2025642D2D2D2D2D2D2D2D2D0D0AA9
:102C7900003C2D2D2D2D2D2D5069644172726179E5
:102C8900203D2025732C25642D2D2D2D2D2D2D2D09
:102C99002D0D0A003C2D2D2D2D2D2D444542554736
:102CA900204D5347203D3E20554152544C494E45F5
:102CB9002045584954203D2025642D2D2D2D2D2D9D
:102CC9002D2D2D0D0A002B435245473A00494D47FA
:102CD9005F53544152543A00494D475F53544F5042
:102CE9000054494D453A002A5049443A004D51543F
:102CF900545F434F4E4E004D5154545F4449534322
:0C2D09004F4E4E004745545F50494400B7
:10004300C109C10CC10BC10A410415004104DE0002
:0900530041040300420404000012
:0B37080090058EEBF0A3EAF0A3E9F0BF
:103713009005B97401F0A37405F0A37491F09005BA
:103723008EE0F9A3E0FAA3E09005BCC9F0A3EAF0A8
:10373300A3E9F09005B9E0F9A3E0FAA3E09005BF8F
:10374300C9F0A3EAF0A3E9F07B017A0479161239F0
:10375300AB9005B9E4F0A3F0A3F07B017A047916EA
:053763007F0402351196
:10326100900603EBF0A3EAF0A3E9F07F0412351115
:1032710090059174FFF0A3742BF0A374C9F090062C
:1032810003E0FBA3E0FAA3E0F9123336EA494B600D
:103291005190059174FFF0A3742BF0A374D1F090B9
:1032A1000603E0FBA3E0FAA3E0F9123336EA494B47
:1032B100603090059174FFF0A3742BF0A374D3F0E8
:1032C100900606E0F9A3E0FAA3E0900594C9F0A303
:1032D100EAF0A3E9F0900606E0F9A3A3E0900597D0
:1032E100803C90059174FFF0A3742BF0A374EAF075
:1032F100900603E0FBA3E0FAA3E0F9123336EA49B2
:103301004B603190059174FFF0A3742BF0A374F11D
:10331100F0900606E0F9A3E0FAA3E0900594C9F065
:10332100A3EAF0A3E9F0900603E0FBA3E0FAA3E02F
:05333100F91222B42294
:101EED009004E1E0FF9004DEE06F700302222AE02F
:101EFD0004F0E075F032A424BCF9740435F0FA90C6
:101F0D0005917401F0A3EAF0A3E9F07BFF7A2C7937
:101F1D00051237089004DEE075F032A424BCF97484
:101F2D000435F0FA7B0190059174FFF0A3742CF049
:101F3D00A374D6F0123336EA494B601E9004007438
:101F4D0001F0E49004E2F09004DFF0A3F07E04FFD2
:101F5D00FD7B017A007900121A859004DEE075F0A0
:101F6D0032A424BCF9740435F0FA7B019005917408
:101F7D00FFF0A3742CF0A374E1F0123336EA494B51
:101F8D0060749004DFE0FEA3E0FF2400F58274008E
:101F9D003EF583E4F0900400F09004E2F012391065
:101FAD001239F57E047F007D007B017A00790012E5
:101FBD001A851233F57FD07E07123B83900402E021
:101FCD007BFF7A2C7914B401167F071235117FD05F
:101FDD007E07123B837BFF7A2C79147F0780147F59
:101FED00061235117FD07E07123B837BFF7A2C7949
:101FFD00147F061235119004DEE075F032A424BC76
:10200D00F9740435F0FA7B0190059174FFF0A37417
:10201D002CF0A374F6F0123336EA494B6008D2095E
:10202D00123768123B1E9004DEE075F032A424BC1A
:10203D00F9740435F0FA7B0190059174FFF0A374E7
:10204D002DF0A37400F0123336EA494B6005C20936
:10205D001237689004DEE075F032A424BCF97404E4
:10206D0035F0FA7B0190059174FFF0A3742DF0A368
:10207D00740DF0123336EA494B6034900401E0B42C
:10208D00012D9005917401F0A37404F0A37406F072
:10209D007BFF7A2C791E1237087B017A0479067F33
:1020AD00071235117BFF7A2C79367F071235119087
:1020BD0004DEE075F032A424BCF9740435F0FA7B2B
:1020CD000190059174FFF0A3742CF0A374EAF01243
:1020DD003336EA494B70030221859004DEE075F03A
:1020ED0032A424BCF9740435F0FA9005917401F012
:1020FD00A3EAF0A3E9F07BFF7A2C79381237089028
:10210D0004DEE075F032A424BCF9740435F0FA7BDA
:10211D0001C00390059174FFF0A3742CF0A3744DCE
:10212D00F0A3EBF0A37404F0A37404F0D003122217
:10213D00B4900404E0FEA3E0FFD39400EE64809419
:10214D0080401D9005FD741EF07C007D3C1217EB48
:10215D00900404EEF0A3EFF0D20C123768123B415D
:10216D007BFF7A2C7957900404E0FFA3E090059152
:10217D00CFF0A3EFF01237089004DEE075F032A433
:10218D0024BCF9740435F0FA7B0190059174FFF0CD
:10219D00A3742CF0A374F0F0123336EA494B605F50
:1021AD007E007F0F7D007B017A047906121A8590DF
:1021BD0004DEE075F032A424BCF9740435F0FA7B2A
:1021CD000178067C047D01121A68E4900411F0A3D5
:1021DD00F07B017A04790612000E900594EEF0A3BF
:1021ED00EFF09005917401F0A37404F0A37406F060
:1021FD007BFF7A2C797A1237089004017401F01262
:10220D003AA19004E1E0F9900591E4F0A3F0A3E97F
:0E221D00F07BFF7A2C799D123708021EED220D
:103AA100E49004E1F09004DEF0900553F0900402FC
:103AB100F0FE7F32FD7B017A0479EE121A857E00D9
:0D3AC1007F327D007B017A057920021A8595
:04005C004106090050
:10395F008FA6EEF5A775AEFFE4F591A2AF920DC25B
:10396F00AF75C7AA75C755439F01A20D92AFF591C9
:10397F00A2AF920DC2AF75C7AA75C75543A501A2D5
:10398F000D92AF75AF22F591A2AF920DC2AF75C771
:0C399F00AA75C75543A401A20D92AF22E7
:103691008FA6EEF5A7E4F591A2AF920DC2AF75C763
:1036A100AA75C755439F01A20D92AFF591A2AF92A2
:1036B1000DC2AF75C7AA75C75543A501A20D92AF3B
:1036C10075AF21AF058FAEF591A2AF920DC2AF7567
:1036D100C7AA75C75543A401A20D92AFF591A2AF38
:1036E100920DC2AF75C7AA75C75553A5FEA20D921B
:1036F100AFF591A2AF920DC2AF75C7AA75C7555369
:073701009FFEA20D92AF2212
:040003008F828E83D7
:03000700E493FF80
:01000A0022D3
:1039F500E4900590F0A3F0C2AF7F807E7F12395F1F
:103A05007D011236919004DFE0FEA3E0FF7C007D8E
:103A1500641217FD7F817E7F1236919004DFE0FEF0
:103A2500A3E0FF7C007D641217FDAD077F827E7FDA
:053A3500123691D2AF32
:013A3A002269
:0839100090058EEEF0A3EFF02C
:10391800E4FBFA7F807E7B12395F0BC390058FE052
:103928009B90058EE09A402EEB547F700BEB248021
:10393800FFEA347BFE12395FEB247FFFEA347BFE1B
:1039480074FF2BF58274FF3AF583E0FD1236910B74
:06395800BB00010A80C55E
:01395E002246
:1033F500E490058EF0A3F07F807E7F120003900697
:1034050009EFF064016003123BF47F827E7F1200B6
:1034150003EF75F064A4FDACF07F811200037E001C
:10342500ED2FFFEE3CFE9004DFF0A3EFF0D3940008
:10343500EE9400404AE490058EF0A3F09004DFE09E
:10344500FEA3E0FF90058EE0FCA3E0FDC39FEC9E8C
:10345500502DED2480FFEC347BFE12000390058E89
:10346500E0FCA3E02400F58274003CF583EFF090C6
:0F347500058FE004F070C590058EE004F080BD77
:013484002225
:0E3BE600EF75F064A47C002DFFEC35F0FE229C
:0A3BF400E49004DFF0A3F00239F5BD
:100060004205FF000042060100004105FE00410577
:07007000FD004205FB00004A
:03000B00022D15AE
:102D1500C0E0C0F0C083C082C0D075D000C000C084
:0D2D250001C002C003C004C005C006C00705
:102D32009005FCE004F070069005FBE004F09005BD
:102D4200FBE0FEA3E0FF7C007D321217FDED4C702C
:102D52001B900415E0D394004012E014F0E0700CD4
:102D6200C20CD2B3900404F0A3743CF0ED4C707129
:102D7200D3900405E09400900404E0940040629033
:102D820005FDE0702B900405E024FFF0900404E0C0
:102D920034FFF0E07002A3E07047C2B3200C07D208
:102DA2000B123B1E803BD20A900415741EF0803138
:102DB2009005FDE0D394004028E014F0E070221268
:102DC20037689005EF74FFF0A3740FF0A3746DF0F1
:102DD200A37480F0A37410F0E4FBFDFF123096D2CE
:102DE200B39005FBE0FEA3E0FF7C007D321217FDED
:102DF200ED4C70099005FEE004F01238709005FB6E
:102E0200E0FEA3E0FFE4FCFD7B607AEAF9F8C3127E
:102E1200193650079005FBE4F0A3F09005FFE0FCA3
:102E2200A3E0FDECF58CEDF58AC28D759100538817
:012E3200DFC0
:102E3300D007D006D005D004D003D002D001D000F3
:0B2E4300D0D0D082D083D0F0D0E0329D
:103ACE004389017E007C077DD01217EBC374FF9FE4
:103ADE00900600F074FF9E9005FFF0E0FCA3E0FD61
:093AEE00ECF58CEDF58AC28D2285
:1034910002254DE493A3F8E493A34003F68001F2DF
:1034A10008DFF48029E493A3F85407240CC8C3333C
:1034B100C4540F4420C8834004F456800146F6DF0B
:1034C100E4800B0102040810204080900026E47E75
:1034D100019360BCA3FF543F30E509541FFEE49300
:1034E100A360010ECF54C025E060A840B8E493A3C7
:1034F100FAE493A3F8E493A3C8C582C8CAC583CAF2
:10350100F0A3C8C582C8CAC583CADFE9DEE780BEA9
:010077000088
:1017A500BB010689828A83E0225002E722BBFE0242
:0917B500E32289828A83E4932275
:1017BE00BB010CE58229F582E5833AF583E02250E0
:1017CE0006E92582F8E622BBFE06E92582F8E2222A
:0D17DE00E58229F582E5833AF583E4932244
:1017EB00EF8DF0A4A8F0CF8CF0A428CE8DF0A42E12
:0217FB00FE22CC
:1017FD00BC000BBE0029EF8DF084FFADF022E4CCD0
:10180D00F875F008EF2FFFEE33FEEC33FCEE9DEC98
:10181D00984005FCEE9DFE0FD5F0E9E4CEFD22EDDE
:10182D00F8F5F0EE8420D21CFEADF075F008EF2F28
:10183D00FFED33FD4007985006D5F0F222C398FD19
:05184D000FD5F0EA22B6
:10185200C5F0F8A3E028F0C5F0F8E5821582700221
:061862001583E038F022BE
:1018680075F008758200EF2FFFEE33FECD33CDCC37
:1018780033CCC58233C5829BED9AEC99E5829840BA
:101888000CF582EE9BFEED9AFDEC99FC0FD5F0D697
:10189800E4CEFBE4CDFAE4CCF9A88222B800C1B9C1
:1018A8000059BA002DEC8BF084CFCECDFCE5F0CBFF
:1018B800F97818EF2FFFEE33FEED33FDEC33FCEB38
:1018C80033FB10D703994004EB99FB0FD8E5E4F9F3
:1018D800FA227818EF2FFFEE33FEED33FDEC33FCE0
:1018E800C933C910D7059BE99A4007EC9BFCE99AD4
:1018F800F90FD8E0E4C9FAE4CCFB2275F010EF2F19
:10190800FFEE33FEED33FDCC33CCC833C810D70718
:101918009BEC9AE899400AED9BFDEC9AFCE899F853
:0E1928000FD5F0DAE4CDFBE4CCFAE4C8F922E6
:10193600EB9FF5F0EA9E42F0E99D42F0EC6480C828
:0619460064809845F022C8
:10194C00E8600FECC313FCED13FDEE13FEEF13FF79
:03195C00D8F1229D
:0C195F00ECF0A3EDF0A3EEF0A3EFF022FB
:10196B00A8828583F0D083D0821219821219821239
:10197B001982121982E473E493A3C583C5F0C5835E
:10198B00C8C582C8F0A3C583C5F0C583C8C582C8C6
:01199B002229
:10222B00E50830030104F823282491F582E43405F2
:10223B00F5832290058E300303900591E475F00130
:10224B00121B130217A560EAC50C7002150B14C5FF
:10225B000C200304FF023C0890058E74FFF5F0027E
:10226B001B2AFF023BD2E5096006D509037F00223A
:10227B0020030F123BBEEF6008050CE50C70020546
:10228B000B2290058E121B0A1217A5FF60E8900512
:10229B008EE475F001121B1380DC12227BEFC0E081
:1022AB0012226DD0E040F3809DD2038002C20390D6
:1022BB00058E121B41E4F50AF508F50BF50C7509B3
:1022CB0000C202C200C201C20412223EFF7005AF5F
:1022DB000A7E0022B4253012223EFF24D0B40A001D
:1022EB00500C75F00AC509A42509F50980E924CF1E
:1022FB00B41A00EF5002C2E5022519D20180D8D2E0
:10230B000080D4D20480D0EF12226D50081222A587
:10231B00EF600E80A9EFC0E012227BD0E06F609ED1
:10232B00EF607412225180A712227BEF6069E509DE
:10233B0070070509800312227BEF601420040E1234
:10234B00222BE475F001121B13EF121AB1D509E61B
:10235B002004040508050A80BA122271EFC0E012AE
:10236B00226DD0E05004122251E4FF20040E122201
:10237B002BE475F001121B13EF121AB1EF70DA2078
:10238B0004040508050A808BE50960020509122281
:10239B00A5122271EF70C6300304E4122251E50A34
:1023AB0060030222DA7EFF7FFF2220041174FFFC00
:1023BB00FDFEFF12222B121B0A121AF00508022235
:1023CB00C9D0E080D27900800A7910800679088024
:1023DB0002790AD205E50960020509E9C0E012227B
:1023EB00A5EF60DD12227BBF2D04D2028003BF2B31
:1023FB00091222A5EF60CA122271D0E0B40A028042
:10240B0033B40802802EBF302770027408C205C097
:10241B00E0122271D0E0BF78028003BF5816050985
:10242B00D509028007D50904D205800B74108019D9
:10243B007002740ABF000AEFF8E4FCFDFEFF0224F1
:10244B00CCC0E0EF122251D0E0F9E4FCFDFEFFE935
:10245B00C0E0ECC0E0EDC0E0EEC0E0EFC0E0122267
:10246B0071EFF8D0E0FFD0E0FED0E0FDD0E0FCD083
:10247B00F0E8604DB461004007B47B005002C2E548
:10248B0024D0503DFA24F6500724F95034240AFA8C
:10249B00EAB5F000502BCFA9F0A42FFF92D5E9C5D8
:1024AB00F0CEA4A2D53EFE92D5E9C5F0CDA4A2D51F
:1024BB003DFD92D5E9C5F0CCA4A2D53CFCC205806C
:0624CB008EE8C0E02004D1
:1024D1002A200508050A300203121AE212222B12E1
:1024E1001B0A050820000B20010DEE8FF0121AC304
:1024F1008009121AF08004EF121AB1D0E0122251B1
:102501000222C920041012222B121B0A0508E50B16
:10251100850CF0121AC380E8121B4A23935323D46B
:1025210058230A4C23064222E24823D84F23DC4495
:1025310023334323D04923DC5523B54623B5452313
:0C254100B547230E2A25044E000023128B
:10199C00E709F60870FA8046E709F20870FA803E0B
:1019AC0088828C83E709F0A370FA807EE309F6083D
:1019BC0070FA8076E309F20870FA806E88828C8364
:1019CC00E309F0A370FA806289828A83E0A3F608A7
:1019DC0070FA805689828A83E0A3F20870FA804AF2
:1019EC0080D280FA80C680D4806580F280318010ED
:1019FC0080A680EA809A80A880DA80E280CA803152
:101A0C0089828A83ECFAE493A3C8C582C8CCC583C7
:101A1C00CCF0A3C8C582C8CCC583CC70E9800D8935
:101A2C00828A83E493A3F60870F9ECFAA9F0EDFB33
:101A3C002289828A83ECFAE0A3C8C582C8CCC5830C
:101A4C00CCF0A3C8C582C8CCC583CC70EA80DD8934
:101A5C00828A83E493A3F20870F980CE88F0ED2497
:101A6C0002B4040050C4F582EB2402B4040050BA52
:091A7C0023234582239019EC7329
:10000E00E4FFFE1217A5600C0FEF70010E09E970E8
:05001E00F20A80EF2250
:1033360090058EEBF0A3EAF0A3E9F0A3E0FBA3E08F
:10334600FAA3E0F91217A570030233E290058EE0A6
:10335600FBA3E0FAA3E0F91217A570030233EE907F
:103366000591E0F9A3E0FAA3E0A3C9F0A3EAF0A36C
:10337600E9F090058EA3E0FAA3E0F9900597EBF04B
:10338600A3EAF0A3E9F0900594E0FBA3E0FAA3E03A
:10339600F91217A5FF6026900597E0FBA3E0FAA3B4
:1033A600E0F91217A56F701590059575F0011218C2
:1033B60052900598E475F00112185280C990059450
:1033C600E0FBA3E0FAA3E0F91217A57002800D90C6
:1033D600058FE475F00112185202335290058EE003
:0F33E600FBA3E0FAA3E0F9227B007A0079002232
:101A8500EF4E6012EF60010EEDBB010B89828A8378
:101A9500F0A3DFFCDEFA2289F05007F709DFFCA985
:0C1AA500F022BBFEFCF309DFFCA9F022DC
:1039AB009005BCE0FFA3E0FEA3E0CF9005C5F0A31C
:1039BB00EEF0A3EFF09005BFE0CBF0A3E0CAF0A3CD
:1039CB00E0C9F07F229005C8AD82AC831217A58D9C
:1039DB00828C83F0A309E970010ADFEC9005BFE04C
:0A39EB00FBA3E0FAA3E0F9021BEDD4
:101AB100BB010689828A83F0225002F722BBFE0114
:021AC100F3220E
:101AC300BB010A89828A83F0E5F0A3F0225006F76E
:0F1AD30009A7F01922BBFE06F3E5F009F319226B
:0E1AE200C3E49FFFE49EFEE49DFDE49CFC2215
:101AF000BB010789828A8302195F5005E9F8021B3E
:0A1B000070BBFE05E9F8021B7C2211
:091B0A00E0FBA3E0FAA3E0F922DC
:101B1300F8E0FBA3A3E0F925F0F0E582158270025B
:071B23001583E0FA38F022FF
:101B2A00F8E0FBA3A3E025F0F9F0E5821582700244
:071B3A001583E038FAF022E8
:091B4100EBF0A3EAF0A3E9F022A5
:101B4A00D083D082F8E4937012740193700DA3A32A
:101B5A0093F8740193F5828883E47374029368603E
:061B6A00EFA3A3A380DF3E
:101B8800E50824C5F582E43405F583E005082290CC
:101B980005C23007039005C5E475F001121B130256
:101BA80017A52000E97F2ED2008018EF540F24904B
:101BB800D43440D4FF30040BEF24BFB41A005003D0
:101BC8002461FFE50960021509050CE50C700205A2
:101BD8000B30070E9005C2E475F001121B13EF02DB
:101BE8001AB1023AF77403D2078003E4C207F50872
:101BF8009005C2121B41E4F509F50BF50CE50960E7
:101C0800077F20121BCB80F5750AFFC201C200C2F4
:101C180002C203C205C206C208121B97FF700D302C
:101C280007057F00121BDCAF0CAE0B22B4255FC288
:101C3800D5C204121B97FF24D0B40A00501A75F0BD
:101C48000A780930D50508B6FF0106C6A426F6208D
:101C5800D5047002D20380D924CFB41A00EF5004FF
:101C6800C2E5D204021DDDD20180C6D20080C0D2F6
:101C78000280BCD2D580BAD20580B47F20121BCB9B
:101C88002002077401B5090040F1121B88FF121BDE
:101C9800CB021C05D208D2068095121B88FB121BAA
:101CA80088FA121B88F94A4B700679AE7A1E7BFFB8
:101CB80020022EE509602A7E008E827583001217A5
:101CC800BE60060EEE650A70F0C2D5EBC0E0EAC051
:101CD800E0E9C0E0EE121E24D0E0F9D0E0FAD0E04E
:101CE800FB1217A5FF60AAEBC0E0EAC0E0E9C0E07C
:101CF800121BCBD0E02401F9D0E03400FAD0E0FB8D
:101D0800E50A0460DCD50AD980877BFF7A1E792032
:101D1800D202809C791080027908C206C208800825
:101D2800D2D5790A8004790AC2D5E50A047002F589
:101D38000AE4FAFDFEFF121B88FC7B08200113123F
:101D48001B88FD7B1030000A121B88FE121B88FFBF
:101D58007B20EC3382D592D55013C3E43000069F24
:101D6800FFE49EFEE42001039DFDE49CFCE4CBF827
:101D7800C201EC700CCFCECDCCE824F8F870F3801B
:101D880017C3EF33FFEE33FEED33FDEC33FCEB33DB
:101D9800FB994002FB0FD8E9EB300105F8D0E0C40D
:101DA80048B201C0E00AEC4D4E4F78207B0070C26B
:101DB800EAB50A0040BCC0E0121E26D0F0D0E020F0
:101DC8000104C4C0E0C4B201C0F0121BB4D0F0D505
:101DD800F0EB021C05121B4A1CA2531D1C581C7355
:101DE8004C1C6F421D204F1D28441D28491C884348
:081DF8001D2E551D12461D129F
:101E0000451D12471ECE501C772D1C7B2E1C9E2B71
:101E10001C7F231C9C201EB72A1C374800001C96E0
:101E20003F3F3F00790AA2D5200314300509B910BD
:101E3000020404B9080104A2D520060250010420BE
:101E400002689202B509005034C0E07F20300319C7
:101E50007F30A20272067205500F121E7DC202C2AE
:101E600006C205C2087F30800F300503E9C0E012CA
:101E70001BCB300503D0E0F9D0E0B509CC30051715
:101E80007F30B9100C121BCB7F583004077F78804D
:101E900003B90803121BCB3002057F2D021BCB7F39
:101EA000202008F87F2B2006F322920280CF286E94
:101EB000756C6C2900D201121B883001F8C20178C0
:101EC0000930D50108F6021C372D50434958121B22
:101ED000882403B405004001E4901EC993121BBC82
:0D1EE000743A121BBCD203750904021D1CCC
:103BBE00100E0B123BFEBF0D027F0A023AF7900663
:043BCE000AE0FF22E8
:083C080090060AEFF0D20E2233
:103BD200EFC394094005EF940E4004EFB42003D3E1
:043BE2008001C32279
:0C1B7000ECF608EDF608EEF608EFF622A1
:0C1B7C00ECF208EDF208EEF208EFF222A5
:103AF700EFB40A07740D123B02740A309811A899A3
:103B0700B8130CC2983098FDA899C298B811F6302E
:073B170099FDC299F5992206
:0A3BFE003098FDAF99C2987E0022B6
:00000001FF
